:02000004C0D06A
:10000000B0B58CB062B601F0CBFA234C2120C10010
:10001000204604F095F96D46284604F0CDF9A885F0
:1000200080B205281ED0002826D16D46284602F051
:1000300013FB0A9001F0C6FB002003F0D1F9012068
:1000400003F0CEF901F096FA01F060F902F0F8FA47
:10005000A84202D10A9802F0FFFA6846808D002873
:10006000D4D017E06846002181850A9802F0F4FA9E
:100070000A9802F0F1FAC9E76846002484850A98D4
:1000800002F0EAFA0A9802F0E7FA01F0A3F9204632
:100090000CB0B0BD01F089FAA0060020F0B5F5B0B3
:1000A00014460D4606466DA82027394604F048F947
:1000B000142C1AD30120010202A800F02BFA002808
:1000C0001AD101976DA8009002A801214023324661
:1000D00000F01AFA00280FD102A800F00FFA6DA95B
:1000E0000C311422284604F030F9132C01D80020DA
:1000F00000E0012075B0F0BD01F057FA70B5002A9C
:1001000002D4D043C00F70BD064B7B44445C002535
:100110005E5DB44203D06D1C3A2DF9D1F1E7491C64
:10012000F4E7C046F8420000012A0BDB5218435C9A
:10013000303B092B02D8491C9142F8DB0A2B01D332
:100140000020704701207047F0B585B00446581E66
:10015000092801D900201AE0174600250126039638
:10016000019504910294204629461C4602F0A6F807
:1001700023467851A642039800D201982D1D049978
:100180008D4204D8741C9E422646029CEBD305B0D7
:10019000F0BD0000F0B589B0079208900291481EAA
:1001A0000390092862D81E46002333487844019002
:1001B00019461A4600960591079885181746B41AED
:1001C00006939E000898835901200490C00783433A
:1001D00028462146019A01F07BFE284604F006F9E4
:1001E00000283CD0A0423AD2089989193A46C2194F
:1001F0000868002801D4009E13E007988518009E27
:100200001746B41A1D4A7A442846214601F060FE7A
:10021000284604F0EBF8002824D0A04222D23A4627
:10022000C21903980699884212D007988518174674
:10023000B41A134A7A442846214601F049FE28465A
:1002400004F0D4F800280DD0A0420BD23A46C219CF
:100250000599491C8BB202988342ACD308E00798F9
:10026000009901E00798314604F06AF800200490F4
:10027000049809B0F0BDC046C14D000056470000CB
:10028000084200000246836859180020994204D3AE
:100290005368994201D891600120704710B54268B7
:1002A00083689A420AD00468E45C0C708168491C37
:1002B00006D24468A14203D8816001E000200870A2
:1002C000D01A411E884110BDB0B515460A460446F5
:1002D00000686168A368C018C91A2B46FFF734FF8D
:1002E000002807D0A900A268511803D26268914281
:1002F00000D8A160B0BDB0B51446436882689D1AAD
:10030000A54206D800688218084611462A4604F01D
:1003100020F8A54201D90020B0BD0120B0BDB0B584
:100320001546044642688068121AAA4201D9002084
:10033000B0BD23681B180846194604F00AF8A268E5
:1003400051190120914203D36268914200D8A16003
:10035000B0BDF0B597B01F4615460E4602900FA8E7
:10036000202103F0EDFF03AC204604F025F8A08522
:1003700084B2002C29D103A802F06EF90D900096EA
:1003800021240FAE204629463A46334602F0D4F8DF
:10039000202220463146029B00F0AAF8002812D104
:1003A00002F04EF903A9884202D10D9802F054F9E7
:1003B0000FA8202103F0D8FF03A8808D002802D1C8
:1003C000002017B0F0BD01F0F0F803A800218185EE
:1003D0000D9802F041F9204601F0E7F8B0B5144657
:1003E0000D4602462120012300F07CF8002807D1A9
:1003F000093540222046294603F0ABFF0020B0BD5E
:1004000001F0D3F8F0B5A5B019AD2821284603F0C6
:1004100097FF11AE20243046214603F091FFBF2004
:1004200080002A4F3B5CB52080003A1828463146B0
:10043000FFF78FFF05AD284603F0BEFFA88585B204
:10044000002D3AD105A802F007F90F90482024901A
:1004500023A8039024A802900520C0013818019019
:100460000094132040013B1819A81949032200F0F9
:1004700033F800281FD1249C239D02F0E1F805A940
:10048000884202D10F9802F0E7F819A8282103F05A
:100490006BFF05A8808D00280DD10020002C07D40B
:1004A00001210D400B497D545921C9007C5400E0C5
:1004B000C04325B0F0BD01F078F805A80021818582
:1004C0000F9802F0C9F8284601F06FF89803002051
:1004D00001060000C902000003B4014829E0000041
:1004E0001500000003B4014823E000001B000000D9
:1004F00003B401481DE000001C00000003B40148E3
:1005000017E000002F00000003B4014811E00000D4
:100510003200000003B401480BE00000440000007A
:1005200003B4014805E000005800000003B402488D
:10053000FFE70249084700007100000001001200B7
:10054000B0B50D460446FF2040006168814201D9E4
:10055000F92054E0A0682168081800210A22FFF75A
:10056000E3FD00283CD0A0682168081828620A2111
:100570002046FFF787FE002834D029462431204644
:10058000FFF78CFE00282FD0A06821680818A86209
:1005900021212046FFF776FE002827D0A86A0078A0
:1005A000FE210140022923D1A068401CA0602168DF
:1005B00008180A212222FFF7A1FD00281AD0A068FE
:1005C00021680818E8622B212046FFF75BFE00280F
:1005D00012D06068A168814210D00620C0430EE0AE
:1005E000F3200CE0F8200AE0F72008E0F62006E00F
:1005F000F22004E0F42002E0F52000E0012040B207
:10060000B0BDF0B581B00D460446FF2040006168E2
:10061000814201D9F927AEE0A068216808180021BD
:100620000A22FFF781FD002800D19FE0A068216821
:10063000081828620A212046FFF724FE002800D16E
:1006400096E0294624312046FFF728FE002800D1F5
:1006500090E0A068216808180A212222FFF74EFDC9
:10066000F427002800D186E0A068216808182863D4
:100670002B212046FFF706FE00287FD0A0682168C6
:100680000818686320212046FFF7FCFD002877D07A
:100690002E46383620463146FFF700FE002871D03E
:1006A000A068216808180A212222FFF727FD0028E8
:1006B00061D0A06821680818E8632B212046FFF765
:1006C000E1FD002860D0A0682168081800211022F0
:1006D000FFF72AFD002859D0A0682168081828646F
:1006E00010212046FFF7CEFD002851D03078022897
:1006F00025D3A068216808180A212222FFF7FEFCF2
:10070000002838D0A0682168081868642B2120468A
:10071000FFF7B8FD002841D0A06821680818002123
:100720000A22FFF701FD00283CD0A06821680818C4
:10073000A86410212046FFF7A5FD002834D0A0684A
:1007400021680818E86421212046FFF79BFD002856
:1007500020D0E86C0078FE21014002291CD160689D
:10076000A16881421CD00620C74304E0E92702E0CB
:10077000F82700E0F72778B201B0F0BDF127FAE7DB
:10078000F027F8E7EF27F6E78027F4E7E827F2E716
:10079000ED27F0E7EA27EEE7F227ECE7EC27EAE7B8
:1007A0000127E8E7E727E6E7EB27E4E710B584B0A1
:1007B0000178E02913D1002203920292019241783C
:1007C00004290FDC03291CD0042936D181780029A3
:1007D00046D1C078002843D100F00CFA43E037201E
:1007E00040023EE0052915D0062926D1817800294E
:1007F00026D0032934D8C37880241C43802C23D0EE
:100800002EE0817800292BD1C078002828D100F073
:1008100053FA28E08178012922D8C378002B1FD110
:100820008368002B21D00193039200790290481E27
:10083000814101A800F0F2F915E06D20000210E0FE
:10084000C378802B0CD180238468002C0DD00194B8
:10085000039200790290DA0901A801F089FD02E013
:10086000034800F04DFD04B010BD0148401CF8E7FE
:10087000866A000080B5024801680120884780BD73
:100880006802002080B5024801680020884780BDCA
:100890006802002070B586B02D200001254C205C38
:1008A0002178014303D00020207023483BE0234DF2
:1008B0003C262846314603F043FDBF208000215CE2
:1008C000B520800020182A463346FFF763FC002835
:1008D00026D01C482B2103F033FD01AD14262846F9
:1008E000314603F02DFD0834204629463246FFF7F5
:1008F000D5FB002816D001A8009012482B21144ADD
:100900007A44142301F0E4FA104812497944016052
:100910001149794400242046224602F043FF05E0B5
:10092000074800E0084800F0EBFC0446204606B00B
:1009300070BDC0469803002007B0000000020020F0
:1009400001B000003C02002002B00000680200205C
:10095000623B000055380000BA3C000080B50248F8
:1009600001680120884780BD68020020F0B581B091
:100970002D2000011E4F385C01282FD13878012826
:100980002CD12320000139581B4D0A22284603F0A0
:10099000E0FC0024AC728F2080003958174D2B26C4
:1009A0002846324603F0D5FCAC554720C0003858E5
:1009B0000090134D4521144A7A442123284601F022
:1009C00087FA44202C540F4810497944016010499B
:1009D00079442046224602F0E5FE05E0002038700A
:1009E000044800F08DFC0446204601B0F0BDC0462E
:1009F0009803002007B000006C020020BC02002019
:100A00007702002068020020AA3A0000B3370000F5
:100A1000603C000080B5024801680120884780BD25
:100A200068020020F0B581B02D2000011B4F385C1A
:100A3000012829D13878012826D109208001395888
:100A40000931184E222530462A4603F082FC002444
:100A500074559320800039580931134E30462A4688
:100A600003F077FC74552520000138580F4900F039
:100A700025F80F480F49794401600F497944204611
:100A8000224602F08FFE05E000203870044800F096
:100A900037FC0446204601B0F0BDC0469803002054
:100AA00007B00000E8020020140300206C030020BF
:100AB0006802002007370000A03C0000F0B582B0BB
:100AC0000022835C302B04D1521C102AF9D1002261
:100AD0000EE0092A0CD92E224A7030220A70022216
:100AE00083181B7A8B54521C082AF9D108201CE069
:100AF0008B1A01930A24A31A00930925AD1A002723
:100B00003E4696420CD3092E06D1477A2E23009CEE
:100B10000B554F55012703E0835D019CE419A35554
:100B2000761C102EEDD1B81A103000220A5402B0F3
:100B3000F0BD0000F0B581B02D200001234F385CDE
:100B4000012839D13878012836D109208001395857
:100B50000931204E222530462A4603F0FAFB0024B4
:100B6000745593208000395809311B4E30462A466F
:100B700003F0EFFB74559520800039580931174E6A
:100B800030462A4603F0E5FB74552520000138580D
:100B90001349FFF793FF4B20C00038581149FFF766
:100BA0008DFF11481149794401601149794420466B
:100BB000224602F0F7FD05E000203870044800F0FE
:100BC0009FFB0446204601B0F0BDC04698030020BC
:100BD00007B00000E80200201403002040030020BA
:100BE0006C0300207E03002068020020D73500003F
:100BF000883B000080B584B00748784401F050FB82
:100C0000002103910421029101900920010301A810
:100C100000F036FB04B080BD5A3B0000F0B59FB039
:100C2000019106466120C100214D284603F09CFB3E
:100C30002D20000100212954297015A8282103F036
:100C40007FFB02A84C2103F07BFBBF208400291905
:100C50003046FFF723FB002821D02A5DB520800015
:100C60002F1830463946FFF72FFB002817D02B5D91
:100C70002946483115AE30463A46FFF76AFB08353B
:100C800002A930462A46FFF7A9FB2821304603F087
:100C90006BFB0198002807D0FFF7FCFD02E0054838
:100CA00000F02EFB1FB0F0BD01F014FBFAE7C046C8
:100CB00098030020876A000080B584B0684601214F
:100CC0008170002242700170039203210291019011
:100CD0000920010301A800F0D3FA04B080BD80B55B
:100CE00000F0E2FD80BD0000F0B581B0F54D287840
:100CF0000D2805DC052800D1AEE00D280DD057E009
:100D00000E2800D102E1152852D1EF488079012840
:100D100003D1A879000700D465E2EC4C0027676096
:100D200001202070204601F031FC042001F0A2FCDB
:100D30006060002800D14DE2692800D1CAE19728FF
:100D400000D147E2C425E24C6059002800D139E2C5
:100D5000C226A05BC821615C80B2884200D331E228
:100D600001F054FC002800D02CE201F0D7FBAA28A7
:100D700004D101F0FDFBAA2800D023E26159A25B57
:100D800050010818D023E358002B04D098470028BE
:100D900007D0A25B6159012801D15001081800F069
:100DA00083FDA05B401CA05361590029D2D109E208
:100DB000C64C0027676001202070204601F0E6FB4A
:100DC000042001F057FC6060692800D0F2E000F0D8
:100DD00011FD00F011FDC225BD4E7753042001F036
:100DE00049FC6060002800D1F4E1972800D1F1E1CE
:100DF000C4243059002800D1ECE1705BC821715C3B
:100E000080B2884200D3E5E101F000FC002800D068
:100E1000E0E101F083FBAA2804D101F0A9FBAA2894
:100E200000D0D7E13159725B50010818D023F35834
:100E3000002B04D09847002807D0725B3159012855
:100E400001D15001081800F02FFD705B401C705359
:100E500031590029D2D1BDE1E44C0027676001205F
:100E60002070204601F092FB042001F003FC60603A
:100E7000002800D1AEE1972800D1ABE1692800D06D
:100E800067E100F0B7FC00F0B7FCC225D84E7753FD
:100E9000042001F0EFFB6060002800D19AE1972860
:100EA00000D197E1C4243059002800D192E1705B51
:100EB000C821715C80B2884200D38BE101F0A6FBAF
:100EC000002800D086E101F029FBAA2804D101F016
:100ED0004FFBAA2800D07DE13159725B5001081800
:100EE000D023F358002B04D09847002807D0725B1A
:100EF0003159012801D15001081800F0D5FC705B70
:100F0000401C705331590029D2D163E1B74D0026FE
:100F10006E6001202870284601F038FB042001F0A3
:100F2000A9FB686069287BD100F064FC00F064FCD8
:100F3000C224AF4E00203053042001F09BFB6860B8
:100F4000002800D146E1972800D143E1C42570591B
:100F5000002800D13EE1305BC821715C80B288423C
:100F600000D337E101F052FB002800D032E101F05C
:100F7000D5FAAA2804D101F0FBFAAA2800D029E169
:100F80007159325B50010818D023F358002B04D05C
:100F90009847002807D0325B7159012801D15001D0
:100FA000081800F081FC305B401C30537159002957
:100FB000D2D10FE1C4258E4C6059002800D101E147
:100FC000C226A05BC821615C80B2884200D3F9E0F0
:100FD00001F01CFB002800D0F4E001F09FFAAA28E1
:100FE00004D101F0C5FAAA2800D0EBE06159A25B58
:100FF00050010818D023E358002B04D0984700284C
:1010000007D0A25B6159012801D15001081800F0F6
:101010004BFCA05B401CA05361590029D2D1D1E008
:101020000446DC20724D295800290FD00A46643A44
:1010300000D232462A50642908D8D821695800299C
:1010400004D0E022AA582A5000208847002C00D162
:10105000C0E0972C00D1BDE0C424285900282BD033
:10106000C226A85BC821695C80B2884224D201F004
:10107000CDFA002820D101F051FAAA2803D101F0BD
:1010800077FAAA2818D12959AA5B50010818D02349
:10109000EB58002B04D09847002807D0AA5B2959A9
:1010A000012801D15001081800F0FEFBA85B401C8C
:1010B000A85329590029D5D1C820285CC221695AD2
:1010C00084E0C046A80700207C0A002028080020F1
:1010D000A006002000F08EFB00F08EFBC225444EDF
:1010E0007753042001F0C6FA6060002872D0972878
:1010F00070D0C424305900286CD0705BC821715C5A
:1011000080B2884266D201F081FA002862D101F0F3
:1011100005FAAA2803D101F02BFAAA285AD131598D
:10112000725B50010818D023F358002B04D0984765
:10113000002807D0725B3159012801D150010818ED
:1011400000F0B2FB705B401C705331590029D5D1BF
:1011500040E0D420264C2058002803D0E9784908E4
:1011600000F0EAFBC425605900282BD0C226A05B02
:10117000C821615C80B2884224D201F047FA00287D
:1011800020D101F0CBF9AA2803D101F0F1F9AA2866
:1011900018D16159A25B50010818D023E358002BE5
:1011A00004D09847002807D0A25B6159012801D1DB
:1011B0005001081800F078FBA05B401CA053615957
:1011C0000029D5D1C820205CC221615A814201D3B7
:1011D00001F01CFA01F01AFA002801D100F0ECF934
:1011E000012001B0F0BD052000F0DFF92808002043
:1011F000A0060020B0B5054607202840002401289D
:1012000012D0022812D1002907D00A4801F0F2F9C1
:10121000280609D501F076F906E04120810005484D
:10122000002201F0FFF904462046B0BD022000F084
:10123000BCF9C0467609002010B50F4C2078022872
:101240000BD001280DD000280AD1012020700B48B6
:101250000188002000F0C6FB10BD00202070C043B4
:1012600010BD0220207005480188102000F0BAFB54
:101270000121217010BDC04694030020900300207E
:10128000F0B581B00D460027002816D0064640680C
:10129000B168411A0B2004038120400081420DD81F
:1012A000821C14493046FFF726F80028394606D03C
:1012B0007068B168411A2C4601E02C4639460E4D43
:1012C00029600C48224602F07BFF2868811C2960B7
:1012D0000A4C2278012A384607D0022A07D189B25F
:1012E000202000F07FFB00212960277000E0F843F8
:1012F00001B0F0BD76090020900300209403002087
:1013000080B501460020FFF7BBFF80BDF0B58FB070
:101310002B48002707602B4807706120C1002A482E
:1013200003F022F8294C2A4D6E46304603F044F86B
:10133000B08586B26846002E09D0052E38D0878544
:101340000A9801F089F93046FFF7DAFF15E001F05D
:1013500083F90A900C970D970E97FFF76DFF002801
:101360001FD402460CA8214600F078FF002811D0B7
:101370000CA8FFF71BFA002813D401F061F96946A5
:10138000884202D10A9801F067F96846808D0028EA
:10139000CAD00BE02846FFF7B3FF0A9801F05CF9CA
:1013A000C2E70A9801F058F90FB0F0BD00F0FDF85F
:1013B00087850A9801F050F9052000F0F6F8C0463C
:1013C0009003002094030020980300207609002059
:1013D000876A000010B58CB06C46204602F0ECFF26
:1013E000A085000406D1684601F036F90A90FF2076
:1013F00001F0F2F801F024F96946884202D10A9816
:1014000001F02AF96846808D002801D10CB010BD8A
:1014100000F0CBF880B500F001F880BDF0B5A3B0C6
:1014200019AC28210291204602F08AFF06AE4C2119
:10143000304602F085FF1C48784403AA1146A8C82C
:10144000A8C1174F3946403103232046FEF781FFDC
:10145000204631463A46FEF7C1FF2046029902F087
:1014600083FF00970F4C4321104A7A4440232046C3
:1014700000F02EFD422100206054215C0A46413AD2
:10148000052A01D820312154401C4328F5D10849B0
:1014900079440020024602F085F923B0F0BDC04631
:1014A000730800203008002020370000F82F0000CB
:1014B000B836000080B500F001F880BDF0B5A3B0EB
:1014C00019AC28210291204602F03AFF06AE4C21C9
:1014D000304602F035FF1C48784403AA1146A8C8DC
:1014E000A8C1174F3946403103232046FEF731FF8C
:1014F000204631463A46FEF771FF2046029902F037
:1015000033FF00970F4C4321104A7A444023204672
:1015100000F0DEFC422100206054215C0A46413A82
:10152000052A01D820312154401C4328F5D108490F
:1015300079440020024602F035F923B0F0BDC046E0
:1015400016090020D3080020B4360000582F0000F0
:101550004C36000080B5034979440020024602F071
:1015600021F980BDC835000080B5FF2001F034F8B6
:1015700080BD000080B506480078002801D102F047
:1015800061FD044979440020024602F00BF980BD58
:10159000A00600203435000080B5FFF7EBFF80BDCA
:1015A00080B5002001F058F880BD044601F048F8ED
:1015B000214602F00DFF000080B503487844052164
:1015C00001F018F880BDC046DC35000010B51648A3
:1015D000C078032807DC01280DD002281FD113484A
:1015E00001F0FEFA10BD042816D0082817D10F48C4
:1015F00001F0F4FA10BD0D4C0121204601F0E9FA8A
:10160000204601F0C7FA0A488179002908D10C3038
:10161000122102F095FE10BD044801F0DDFA10BD64
:101620000520FFF7C2FFC046A8070020000B0020DE
:101630007C0A00207F210140052903D80248401878
:10164000007B7047002070477C0A002080B5154859
:10165000C2787F2111400279042A14D0022A06D0D0
:10166000012A1DD1811D114801F0A4F980BD052971
:1016700016D84A000C4B9A1800235382821D0B483F
:1016800001F01CFA80BD05290AD8074A521843798F
:101690007A2B00D37A231373821D044801F0B8F922
:1016A00080BDC046A80700207C0A0020000B002057
:1016B00070B5FF2A1DD815460E4604460D484271E6
:1016C000202101715021017080212143C170D11C62
:1016D0008170090A4170062100F08CFF30462946CE
:1016E00000F088FF6006000E034908187D210901FB
:1016F000418270BDA80700207C0A002080B50A4600
:10170000014682201423FFF7D3FF80BD80B50A462F
:10171000014683201423FFF7CBFF80BD10B5264878
:10172000817842781202521801780F2908DC0E29BC
:101730001CD00F292DD1012A32D1FFF747FF33E00A
:1017400010292BD0162924D11C490B780124002BF9
:101750002BD10A230B7006238B717D2A00D37D22A7
:101760004A80C11C164802F0F0FD1EE01348816853
:10177000643181601C21425A002A07D0642A134632
:1017800000D86423643B4352642A10D9891E10296F
:10179000F1D10220FFF7A8FA044606E0032A01D29D
:1017A000002402E0FFF752FF0124204610BD002173
:1017B00001700520FFF7F9FEA80700207C0A002031
:1017C0007609002080B500F08FFE0D2802D3FF209F
:1017D00000F002FF0548202102F0B2FD00F0F2FA0D
:1017E000034800210160416080BDC0467C0A0020A2
:1017F0009C0A0020704700000248002101604160FF
:101800007047C0469C0A0020F0B587B005460846E0
:1018100000F046FD002843D00446006900283FD070
:10182000284600F03DFD01466D461C22284602F088
:101830008CFD2668EE8067682F8100F0E7FE0028A7
:101840002ED1B9B2B2B2174D65202870A0684243BC
:101850004A435107D608002900D0761C0427874048
:10186000B8191D30A870000A68700321284600F0DE
:10187000C1FE68461C2100F0BDFEA0682870012151
:10188000284600F0B7FEE06800F00AFDB9B200F0AB
:10189000B1FEB5B2206900F003FD294600F0AAFEB2
:1018A00007B0F0BDA807002070B500F0F9FC0446B1
:1018B000C06900F0F5FC054621787F2008400AD079
:1018C000002D09D0052802D1A07E00282DD000F0DF
:1018D0009DFE002811D070BD00F098FE0028FAD1BE
:1018E00014481C2585700021417065210170032179
:1018F00000F080FE2046294614E0284602F076FDDE
:1019000006460C486521017031461C318170090A78
:101910004170032100F06EFE1C21204600F06AFE9B
:10192000B1B2284600F066FE70BD20462946FFF79A
:101930006BFF70BDA807002070B5002825D00B46AE
:101940000246124C03CC083C984201D1491C61600C
:101950001843002B02D02060054605E000252560D5
:1019600065600B4E761C30439D4201D000236360BE
:10197000082909D3074C4C430123074DAC4201D23F
:101980009C072043DB079843904770BD9C0A0020CA
:10199000FFFFFF7FABAAAAAA56555555F0B581B0F7
:1019A0000F4E01243470B11CFF2702377A1C2046E9
:1019B00000F006FE054670703A1A8719F91C0220DD
:1019C00000F0FEFDB8702D18AE19F47000F0ECFDBB
:1019D0000021B171902171713071E81D01B0F0BD2D
:1019E00076090020F0B585B00246400707D01646BC
:1019F000F0B289B2FFF7FEFB80B205B0F0BD844DB6
:101A0000854878440090814C1646102717400804FA
:101A1000049677D0002F75D10291039200F0F6FD65
:101A2000002808D080210022204600F0FBFD012084
:101A300000F0FCF8F2E7A8682978092908DD0A29EE
:101A4000029A0ED001900B2922D17548784404E007
:101A5000019007290098029A17D191B200F01EFA5E
:101A60001DE0FF20063096B2864200D3CBE0A27084
:101A700053202070100A60700321204600F0BAFD48
:101A80006448314600F0B6FD27E0002900D1B7E0F8
:101A9000F0B291B2FFF7AEFB002800D0B0E028789A
:101AA00000281AD07D20000101990E185D48784465
:101AB000052100F09FFD80210022204600F0B2FDAC
:101AC000A868B04200D398E0FFF728FE00F09EFD22
:101AD0000028F0D128780028E8D10020A8712870CB
:101AE00068800499890687D44C487844052100F021
:101AF00081FD049840B20028039A03D5052000F028
:101B00006BFD039A002F434F04D1500672D400207E
:101B1000A87128700020688043487844052100F0AF
:101B200069FD802100262046324600F07BFD032817
:101B30000FD3A178627812025118C91C814208D1D2
:101B4000FFF7ECFD28780028E6D068880028E3D06D
:101B500001E02E70DEE73978B02900D04CE77978C3
:101B6000A72910D002291DD0012900D044E7B97857
:101B7000FA780A4300D03FE70720049E0640FFF7AB
:101B80000DFF014631E0B978FA780A4300D033E717
:101B900020494E70902008707F20C043049E064369
:101BA000022122E0B978FA780A4300D024E700F055
:101BB000DFFCAA2810D10120164F3870B81C402134
:101BC00000F0CAFC7870811C89B290227A54C11C42
:101BD00089B27E54011D05E085200E4948706920B8
:101BE000087002210720049E0640F2B2700700D15F
:101BF0000BE7FDE66888401FFEE60520FFF7D5FCF1
:101C00000420FFF7D2FC0220FFF7CFFCA80700203A
:101C10007C0A002076090020F7FCFFFFAE300000B0
:101C2000BDFCFFFFEA3000007E300000B0B5044686
:101C30000F487844052100F0DDFC0B4D8021002287
:101C4000284600F0EFFC2878152808D801218140AB
:101C50000648014203D0002C01D00020B0BDFFF7A0
:101C60005DFD411E8841B0BDA80700202070200006
:101C7000662F0000F0B581B0009205464A4CA142A3
:101C80000FD00F46484C40262046314602F058FB04
:101C9000009A402A00D332462046394602F059FBCA
:101CA000414CA07801280ADC00282ED001286AD1F6
:101CB000E01C0421FEF734FC4021204630E00228DD
:101CC0002CD005285FD12079E17809020818374E19
:101CD0003168002781425DD13068002823D0009808
:101CE000401F82B232490B68934200D208682246F4
:101CF00081B23B2900D33B2085B22E4C2068511D78
:101D00002A4602F026FB246833E00027A77167719A
:101D10002771E77040212046A8473BE02248402138
:101D2000A847002736E0A0796179090209182248FE
:101D3000016001684122920091422BD800681C4941
:101D4000086060782278120210181C4A10600A6835
:101D50000098C01F83B29A4200D2086881B2392924
:101D600000D3392085B2E11D154C20462A4602F0E9
:101D7000ECFA0F480168491B016060190D490860C1
:101D80003068401C30600A480068002801D00127F4
:101D900007E0022705480021016006480160044869
:101DA0000160384601B0F0BDA40A0020E40A00201A
:101DB000EC0A0020F00A0020E80A0020F40A0020C3
:101DC00076090020034800210160034801600348B0
:101DD00001607047E40A0020F00A0020EC0A0020AD
:101DE000F0B581B0274A1568274B1968002921D022
:101DF000002D1FD00090274C671D3B2638463146EA
:101E000002F09EFA204A0520A07023480168090AC2
:101E10002170006860701D490868000AE070086859
:101E200020710968106800290CD03B2800D816687A
:101E3000384612E015480021016011601448017015
:101E400019601DE0392801D9392600E016681068AC
:101E5000000A60711068A071E01D2946324602F048
:101E600078FA094B009A07491868801B1860A8196E
:101E7000086006490868401C0860064840219047F1
:101E800001B0F0BDF00A0020EC0A0020E40A0020B6
:101E90007C0A0020A40A0020F40A002080B5002952
:101EA0000BD0064A00231360054A1160054A064B11
:101EB0001360064A1160FFF793FF80BDE40A00201B
:101EC000EC0A0020F00A002076090020E80A002031
:101ED00081B0F0B590B015930990002800D1ADE124
:101EE0000D46022900D2A9E114460998294602F0BC
:101EF00027FA15A80B902078002800D19EE1691ED2
:101F00000891012106910026089D002805D025286A
:101F100003D0A0194078761CF7E7AE4200D32E46D6
:101F200009982146324602F014FAAD1B089500D1FB
:101F300084E1099880190990A05DA419252800D092
:101F400077E1641C00202023074607902178641C59
:101F500000222D290DDC1046F8D0252900D1E1E022
:101F60002A2900D064E12078732800D061E10220A2
:101F700028E047292BDC0A46303A0A2A11D20A9770
:101F80001F4630220B465340079D2B4300D03A4654
:101F90000A23079D6B4359183039079113460A9F4E
:101FA000D4E72E2900D043E120782A2800D040E150
:101FB0006078482804D0732802D0682800D03BE11C
:101FC000641C01200B990A1D0B920F68BEE767295C
:101FD00009DC62290FDC482900D1A5E0582900D08E
:101FE00026E1012020E0722917DC682900D19FE05A
:101FF000702918D01CE1632900D19EE0642900D02B
:1020000016E10B98011D0B910068C11742184A4058
:10201000C10F002002900A270DE0732900D199E03A
:10202000782900D004E1002002900B98011D0B914B
:10203000026800211027079E0A9297420393049199
:1020400001D9012511E0721E3846054616460021C9
:1020500038462A460B4602F045F94A1E91410A9A33
:10206000904202D8721E0029EFD0079600260499EC
:102070000029059401D1019101E0F0430190039BF7
:102080000798401A0029069C09D0D9B200263029A9
:10209000344604D10CA92D220A700126069C811E0B
:1020A0000D290BD8411E09D00CA88019DAB202F014
:1020B00054F90798301801994018461E002C03D196
:1020C0000CA82D218155761C002D1AD03C46029873
:1020D000002802D0604F7F4401E05E4F7F440A98A1
:1020E000294602F073F8214602F0F6F8785C0CA954
:1020F00088552846214602F069F8761CAC42054610
:10210000EDD9089CA64200D326460CA90998324670
:1021100002F01FF9A41B0894059C00D18EE00998D9
:10212000801984E025200CE02546484A7A4402E0E4
:102130002546474A7A44069B10E00B98011D0B91F7
:102140000068099908700898401E089076D0099890
:10215000401C6CE025463C4A7A4400230B990C1D38
:102160000B94C0B2096802283CD001282C460AD042
:102170000028374607D1254600200C5C401C002C67
:10218000FBD1471E2C46002B20D0002F089D4FD09E
:102190007800281A0A90022D50D328460B7825463D
:1021A0001C09145D099E34700F241C40135D73706C
:1021B000022843D02C460546851E099B9B1C09938B
:1021C000491C7F1EE7D10A98089031E0089DAF4274
:1021D0003E4601D32E462F460998324602F0B9F802
:1021E000AD1B0DE0087800282C4621D1089DAF4298
:1021F00000D32F4620220998394602F0AEF8ED1B95
:1022000008951BD00998C01909900798B0420FD9BA
:10221000851B089EB54200D33546202209982946E1
:1022200002F09BF8761B089608D00998401909908F
:102230002078002802D066E62A20FAE7002010B0B5
:10224000F0BC02BC01B00847452A0000812A00000A
:10225000692A0000C12A0000D72A000010B5002317
:10226000052A13D30C79521FA2420FD10A780270AB
:102270004A7842708A788270CA78C2700A7902718C
:102280000A79002A00D04A1D82600123184610BD39
:102290007A460249C91C891A401A70479122D0C057
:1022A00080B50449884204D30349884201D2FFF72C
:1022B000EFFF80BD0000D0C00052D0C0425C1206CB
:1022C0004018417809048918827812028918C07868
:1022D00008187047B0B59CB003AD04206870412069
:1022E0002870A81C0D4C21460831402202F02DF820
:1022F000422020222A54284643304834214602F006
:1023000024F8002002906320019000950920010329
:102310006846FEF7B5FF1CB0B0BDC046980300206C
:10232000F0B597B004AE751C4921284602F008F8B4
:102330005920C0000C4F3C5C34700520C001391896
:102340002846224602F001F8A0190849795C41703C
:1023500000200390A01C029001960920010301A80F
:10236000FEF78EFF17B0F0BD98030020C9020000F1
:10237000F0B5F3B00446002921D02D200001524FC2
:10238000385C01283BD113464120C000064638582E
:1023900062681118012504952D020595FE35002B64
:1023A00031D0A94209D9391808312046FDF7B7FFC5
:1023B00000284BD0B85961684118B9511CE0612020
:1023C000C100414D284601F0CFFF2D200001012121
:1023D000295400202870BF208600A9192046FDF747
:1023E0005DFF00280DD0AA5DB52080002918204689
:1023F000FDF76AFF002804D00920000327E03348D6
:1024000025E0344823E0A94220D839180831204675
:10241000FDF785FF002819D03546B8596168401886
:10242000B851002472947190384608300646709076
:102430005E20385C0290B87C03903A280DD12120B0
:102440000001391870A8FEF77BF80CE02048FEF771
:1024500057FF0446204673B0F0BD21200001391813
:1024600070A8FEF7CEF801281ED10498387006A88F
:102470000599FEF74FF8002823D17B59202013211E
:10248000490179180091019006A801213246FEF712
:102490003BF8002815D106A8FEF730F803983A2833
:1024A00004D1FEF763FAD4E780B2D0E7029802289D
:1024B00004D00128CED1FEF7B5FACAE7FEF73AFB01
:1024C000C7E7FFF772F8C0469803002007B0000086
:1024D00004B00000876A000001DF002900D17047C6
:1024E0000846FFF762F8000080B584B00020029033
:1024F0000190034801A9FFF7EFFF04B080BDC0467B
:102500003801006080B582B0002001900248694621
:10251000FFF7E2FF02B080BD3C02006080B582B0F0
:102520000020019003486946FFF7D6FFC0B202B011
:1025300080BDC0464F9F006010B588B00A9C0594CE
:102540000493039202910190024801A9FFF7C4FF8E
:1025500008B010BDBA53006080B584B001910090FE
:1025600002486946FFF7B8FF04B080BDFCA80060D0
:1025700080B582B00020019003486946FFF7ACFFA8
:10258000C0B202B080BDC0463CA0006080B584B03F
:10259000002102910190034801A9FFF79DFF04B0BB
:1025A00080BDC0465864006080B582B000200190B4
:1025B00002486946FFF790FF02B080BD6E6A006076
:1025C00080B586B001AB07C3024801A9FFF784FFBD
:1025D00006B080BDD474006080B584B00021029143
:1025E0000190034801A9FFF777FF04B080BDC04602
:1025F000BE9A006080B584B001910090024869469F
:10260000FFF76AFF04B080BD8183006080B582B0AF
:102610000020019002486946FFF75EFF02B080BDCE
:10262000BB84006080B586B001AB07C3034801A935
:10263000FFF752FF80B206B080BDC046E48500605F
:1026400080B582B00020019002486946FFF744FF40
:1026500002B080BDB187006080B584B000210291D6
:102660000190034801A9FFF737FF04B080BDC046C1
:10267000060B016080B584B00021029101900348EF
:1026800001A9FFF729FFC0B204B080BD8B9C006098
:10269000024900200860024908607047FC0A0020D7
:1026A000F80A002010B507480221C170012181708D
:1026B000002444704F2101700421FFF79BFF204646
:1026C00010BDC046A807002070B582B06D4600243A
:1026D0002C710320E8700220A8706C704F262E70B9
:1026E00005212846FFF786FF0120E870A8706C706E
:1026F0002E7004212846FFF77DFF204602B070BDF2
:1027000010B582B001A80221C1700121817000249E
:1027100044704F2101700421FFF76CFF204602B086
:1027200010BD000070B582B0144800240460144845
:1027300004606D46AC716971012028710421E97053
:102740000526AE706C704F242C70012A05DC002A1F
:102750000AD0012A0AD1084606E0022A03D0032A39
:1027600004D1022000E00320694688716846C371E5
:102770000821FFF73FFF002002B070BDF80A0020DB
:10278000FC0A0020B0B582B00D46684600244471B2
:1027900040210171C5700321817044705021017086
:1027A0000621FFF727FF280601D5074800E0054866
:1027B00001687F2215400122AA400A430260204698
:1027C00002B0B0BDFC0A0020F80A0020B0B582B00B
:1027D0000D4668460024447180210171C5700321B3
:1027E00081704470502101700621FFF703FF280615
:1027F00001D5074800E0054801687F221540012205
:10280000AA4091430160204602B0B0BDFC0A0020FE
:10281000F80A0020080601D5054800E003480278C0
:102820007F2001400120884010407047FC0A0020B2
:10283000F80A002010B582B0684601710321C1700A
:1028400002218170002444704F2101700521FFF79F
:10285000D1FE204602B010BDB0B582B01C46154670
:102860006846437120220271C17050210170D91C49
:102870008170090A41700621FFF7BCFE28462146F7
:10288000FFF7B8FE002002B0B0BD10B582B06846B8
:10289000427130220271C1700321817000244470A2
:1028A000502101700621FFF7A5FE204602B010BDA1
:1028B000F0B581B0002814D015460E4604460746F0
:1028C000DC3745208100204601F03AFD002E00D083
:1028D0007E612570012038702046FFF7D9FE002068
:1028E00000E0022001B0F0BDB0B50446DC200121BB
:1028F00021541720C54360194321890040580028FE
:1029000006D04068FFF7CCFC02462179204690476C
:102910000835F0D12046FFF7F3FE2046FFF7C2FE50
:102920000020B0BD002A08D003460020022B03D8A7
:10293000DB00C918F423CA5070470220704780B5E5
:10294000FFF7C2FE002080BDF0B581B00C46054601
:102950000026F4272846314600F05FF9002807D00A
:10296000E8590068FFF79CFC02462846214690473C
:102970000837761C032EEDD1002001B0F0BDF0B574
:1029800081B00C4605460026F4272846314600F063
:1029900044F9002807D0E8594068FFF781FC024657
:1029A0002846214690470837761C032EEDD100209B
:1029B00001B0F0BD70B504460646D4363546143530
:1029C000284600F061FBD42001212150EE20205A3E
:1029D0007060317D1F200840022808D001280BD0EC
:1029E00000280ED12046294600F022F90EE02046AC
:1029F000294600F0C6FA09E02046294600F09DFA73
:102A000004E0802001402046FFF7BCFE002070BD9E
:102A1000F0B583B0029204460646DC3601910029E7
:102A20001AD00027F4252046394600F0F6F8002891
:102A30000DD060598069002809D03178032906D16A
:102A4000FFF72EFC034620460199029A9847083565
:102A50007F1C032FE7D12EE020468030416D0329F3
:102A600029D10068E16F81420AD9091AE1678142E0
:102A700000D301468AB22046029900F01FFD1AE0F9
:102A80000025F4272046294600F0C7F800280BD07F
:102A9000E0590069002807D03178032904D1FFF7F5
:102AA000FFFB01462046884708376D1C032DE9D1FE
:102AB000204600F00AFD002003B0F0BDF0B581B063
:102AC00004460746D437009100291AD03D46002617
:102AD000F4272046314600F0A0F800280CD0E05939
:102AE0004069002808D0297A032905D1FFF7D8FBCF
:102AF00002462046009990470837761C032EE8D1FD
:102B000045E0386802283CD1E069256AA84209D925
:102B1000401BE061F96B4919F96382B2204600F06D
:102B2000BFFC2EE0A6693046294601F0D5FBAE4237
:102B30000CD300290AD17868864207D200252046A6
:102B400029462A4600F0ACFC7D601AE00025F426F8
:102B50002046294600F061F800280BD0A059C06833
:102B6000002807D0397A032904D1FFF799FB0146E1
:102B70002046884708366D1C032DE9D1204600F019
:102B8000B0FC387B012802D1394600203873002080
:102B900001B0F0BD70B50446DC2001212154802035
:102BA0004021215021620025F4262046294600F0CC
:102BB00034F8002807D0A0594068FFF771FB02469F
:102BC00021792046904708366D1C032DEDD1002059
:102BD00070BD0174002070470020704700207047CE
:102BE00070B50446DC20205C032814D10025F426AF
:102BF0002046294600F011F8002808D0A059C069E5
:102C0000002804D0FFF74CFB0146204688470836D1
:102C10006D1C032DECD1002070BD022906D8C9001F
:102C20004018F4214058411E8841704700207047E9
:102C300080B54A78042A08DD072A0FDC052A14D05B
:102C4000062A1BD100F021F81DE0002A10D0012A2D
:102C500017D0032A12D100F02AF914E0082A0AD06A
:102C6000092A0BD100F0B1F80DE000F08BF80AE072
:102C700000F0F9F807E000F0DFF804E000F06EFB88
:102C800001E000F031F9002080BDB0B582B00D4602
:102C9000044601A8002101802046F0306B881A0A02
:102CA000052A11DC012A1AD0022A21D0032A32D1A6
:102CB000D9B2022934DC002958D001295CD002297C
:102CC00029D10068C0680CE0062A19D0072A1FD055
:102CD0000F2A20D10068C069002802D11BE00068DB
:102CE0000068FFF7DDFA0246207C01A990472BE03F
:102CF0004068002829D0217C00291FD0C06A1EE02E
:102D0000217C002907D14068002804D0406B16E0E0
:102D1000217C00290DD02046294600F01FFB23E02E
:102D2000032926D004292AD00529F4D10068806916
:102D3000D7E740680028EED0006B00E0806AFFF71C
:102D4000AFFA014601A88847014601A80288002A77
:102D50000AD0E888002807D0824200D3024601A8A2
:102D60000280204600F086FB02B0B0BD00684068DB
:102D7000B7E700680069B4E700688068B1E70068F9
:102D80004069AEE770B504468888002807D1C88836
:102D9000002804D12646DC363078032803D12046AB
:102DA00000F0DCFA70BD88787F250540B5702046BC
:102DB0002946FFF73FFD204600F087FB002D01D09C
:102DC000022000E00120307070BD70B50D46044651
:102DD0008E78022E1CD2DC20215C2046DC300329B8
:102DE00006D0022914D1002E22D00321017008E060
:102DF000002E12D06068B0421AD0C1B22046FFF750
:102E0000BEFD666020463146FFF79EFD02280FD1C9
:102E10002046294600F0A2FA70BD0021616002211F
:102E2000017020463146FFF7AAFD204600F04DFB19
:102E3000204600F04AFB70BD80B5CA88012A0AD13D
:102E4000DC22825C032A09D0022A04D1002181609D
:102E50000146083103E000F081FA80BD011D012226
:102E600000F008FB80BDB0B50446DC20205CFE22EB
:102E70000240022A0FD12046DC300121E1602546C4
:102E80000C35806800280AD0204600F02AFBE16853
:102E90000220084304E0204600F060FAB0BD0320A1
:102EA000E06002222046294600F0E4FAB0BDB0B549
:102EB00004464888012816D10D46E42001212150FE
:102EC000287902280CD8C0002018F4214058002886
:102ED00006D08068FFF7E4F902462046294690476D
:102EE000204600F0F2FAB0BDB0B50D460446DC2035
:102EF000205CFE21014002291AD1688801281BD1DB
:102F00002046DC3000218160287902280CD8C000DE
:102F10002018F4214058002806D08068FFF7C0F937
:102F20000246204629469047204600F0CEFAB0BD22
:102F30002046294600F012FAB0BDB0B50D46044651
:102F4000DC20205C032816D12879022813D8C00081
:102F50002018F421405800280DD08068FFF7A0F910
:102F60000246204629469047E888002807D1204697
:102F700000F0ABFA03E02046294600F0EFF900200C
:102F8000B0BDB0B582B00D46044609797F20084037
:102F9000072804D32046294600F0E0F971E0022911
:102FA00012D82A7860231340202B0DD1CA00A21812
:102FB000F423D258002A07D09068FFF771F902462F
:102FC0002046294690475CE06A78002A0AD0012A08
:102FD00011D0032A55D1DC20205C03281AD0022806
:102FE0000FD0D7E7DC22A25C032A2ED0022AD1D14F
:102FF00000280BD145E0DC22A25C032A31D0022A52
:10300000C8D180200A460243802A3AD02046FFF7E2
:10301000B9FB36E06888002807D180200843802863
:1030200003D02046FFF7AEFB2979022926D8C80035
:103030002018F4214058002820D08068FFF730F98C
:10304000024620462946904718E02046FFF7E2FB5B
:10305000411E884101A908800222204600F00AFA98
:103060000FE06A88002A0CD1002807D02046FFF71D
:10307000ADFB2879022801D8C000D9E7204600F02E
:1030800024FA002002B0B0BD0A7802704A7842707B
:103090008A78CB781B029A1842800A794B791B02F6
:1030A0009A1882808A79C97909028918C180704783
:1030B00010B504468021FFF765FB00212046FFF78D
:1030C00061FB10BDF0B583B00E46054602A8002492
:1030D000048001A8047009786020084010D02028DE
:1030E00037D1707801460A39022932D302281BD021
:1030F000032819D02846314600F030F9022428E090
:1031000070780B2813D00A280ED0062821D1F07829
:10311000002421280FD022282246214616D102AFB2
:10312000384600F049F80AE001A901220EE02846DD
:1031300000F0CBF90DE002AF384600F029F8014667
:103140003A88F088824200D302463A80284600F04E
:1031500091F9204603B0F0BDF0B581B0044682215C
:103160000326402532462B46FFF7DCFA022720468D
:10317000394632462B46FFF7D5FA204639462A46CD
:10318000FFF783FB002001B0F0BD00207047000076
:103190000146EC20064A125C0020002A01D00346BA
:1031A00000E009230B80002A01D1024878447047CF
:1031B000000B0020141A00000146EC20064A125CA5
:1031C0000020002A01D0034600E022230B80002AC1
:1031D00001D1024878447047000B0020F519000027
:1031E00080B5022903D103487844FEF7F9FD002099
:1031F00080BDC04611E5FFFFB0B502291AD11446C3
:1032000002214022FFF741FB0B4DA879002811D184
:103210000220FEF70FFA0246094878442146FEF7DD
:1032200029FD022806D1072028700120A871034833
:10323000006868800020B0BD7C0A0020E80A0020F9
:10324000DFE4FFFF70B504468321032540262A46AC
:103250003346FFF767FA204629462A463346FFF7EA
:1032600061FA204629463246FFF70FFB002070BD69
:10327000002070470020704780B5032903D1034820
:103280007844FEF7ADFD002080BDC04689E4FFFF15
:10329000B0B503291AD1144603214022FFF7F5FAED
:1032A0000B4DA879002811D10320FEF7C3F902467F
:1032B000094878442146FEF7DDFC022806D10B20A0
:1032C00028700520A8710348006868800020B0BD00
:1032D0007C0A0020E80A002057E4FFFF1220088043
:1032E000014878447047C0462A1B0000042008802B
:1032F000014878447047C0462C1B00000E2008800F
:10330000014878447047C046201B00000E2008800A
:10331000014878447047C0461E1B00000A20088000
:10332000014878447047C0461C1B00000E200880EE
:10333000014878447047C046FE1A00000E200880FD
:10334000014878447047C046EE1A000039200880D2
:10335000014878447047C0469918000080B50A7843
:1033600052B2002A02D4FFF7A3FE80BD4A78772A22
:103370000CD0062AF7D14A88144B9A42F3D1CA8856
:10338000122A00D31222124979441CE08A88042AA6
:1033900006D1CA88282A00D328220E49794412E08F
:1033A0008A88052A06D1CA88922A00D392220A491D
:1033B000794408E08A88072AD5D1CA88B22A00D37E
:1033C000B2220649794400F055F880BDEE030000B2
:1033D000BC180000AC1A0000A61800002419000058
:1033E000B0B50446452085001548294600F0A8FFE1
:1033F00014480C30122100F0A3FF002C1BD0104CFD
:103400002046294600F09CFF0F49794400252046BC
:103410002A46FFF74DFA0D4A7A4428462146FFF71F
:1034200081FA01200A4A7A442146FFF77BFA2046B6
:10343000FFF785FAB0BD0248FFF756FAB0BDC046A7
:10344000000B00207C0A00201A18000084190000DC
:10345000AE19000040210180014878447047C04601
:10346000161A00000A210180014878447047C046BE
:10347000461A0000B0B50C46D421022343508261A5
:10348000C2610146D431CC63016A914200D80A4638
:1034900093B2002529462246FFF7DEF92846B0BD43
:1034A000B0B50C46016A914200D80A4693B2002595
:1034B00029462246FFF7D0F92846B0BD10B50024B2
:1034C0002146FFF7E2F9204610BD10B5D4210422B1
:1034D00042500024214622462346FFF7BDF92046EC
:1034E00010BD10B5D42105224250002421462246A9
:1034F000FFF7CBF9204610BD10B511490A7801201D
:10350000012A1BD8521E0C235343CB189A8B002A36
:1035100014D05969002911D01B8B002B05D19400C0
:103520006418241F2468E41C08D1934205D29A0031
:103530005118091F0968891C00D0002010BDC04621
:10354000A006002010B50E490A780120012A16D8DD
:10355000521E0C235343CB189A8B002A0FD0596963
:1035600000290CD01B8B541E9C4208DD921E9A42EF
:1035700004DD9A0051184968891C00D0002010BD54
:10358000A00600200948017800290CD00C224A43EB
:103590001118C8898989814201D9012004E081423A
:1035A00001D2FF2000E0002040B27047A0060020BA
:1035B00070B50146154A1078012826D8401E0C2304
:1035C0004343D218958B002D1FD05469002C1CD07A
:1035D000012D1AD0138B6E1E9E4216DD164618362C
:1035E000AD1E9D420ADB9D002C196468A51C0CD001
:1035F000E41C03D100213180518304E05C1C348041
:103600005383002901D000F039F870BDA0060020D6
:1036100080B50120FFF7CCFF80BD0000B0B5164992
:103620000878012826D8401E0C22424389188A8B2C
:10363000002A1FD04C69002C1CD0012A1AD00D8BF7
:103640000B461833002D09D0AA001219121F126858
:10365000921C0FD06A1E1A804D8309E095002C1928
:10366000241F2468E41C05D1941E1C80521E4A832A
:1036700000F004F8B0BDC046A0060020F0B581B04F
:1036800004460C2060431A490E187069318B89007A
:1036900040580321C943884227D837461837143683
:1036A000FEF7FEFD31683A889200895805680846A1
:1036B000FEF7F6FD002D06D00068FEF7F1FD01468D
:1036C0002046884711E08068FEF7EAFD054630682D
:1036D000398889004058FEF7E3FD4068FEF7E0FDB9
:1036E00002462046294600F05DF801B0F0BDC04614
:1036F000A0060020F0B581B029480178012925D81D
:103700004C1E0C2161434518A98B00291ED0686905
:1037100000281BD02A8B8A4218D22F4614372E46F7
:10372000183691004058FEF7BBFD806800280FD086
:103730003868318889004058FEF7B2FD8068FEF78E
:10374000AFFD01460022204600F02CF801B0F0BD8C
:1037500028461C3000880028F8D0801E328890420D
:10376000F4DB396893005B185B68DF1C10D09B1C8E
:10377000ECD11346920052185268921C04D15B1C83
:1037800033809AB29042F5DA581C30806B8302E0A5
:103790000020308068832046FFF770FFD6E7C046E0
:1037A000A006002070B5002800D070BD14460D465C
:1037B000194E301D1A2100F0C3FD002DF5D028460A
:1037C000FEF76EFD7061B18B8A008258521C06D0E4
:1037D000491C8AB292008258521CF9D1B183002C44
:1037E00016D02046FEF75CFD04467069318B8900D7
:1037F0004058411C0CD0FEF753FDA04208D0308B3E
:103800007083401C3083716980B280000858F0E7F3
:103810000020FFF733FF70BDA006002080B50A49E5
:10382000884208D00949884208D00949884208D10D
:10383000FFF7F4FE05E0FFF75DFF02E00120FFF770
:10384000B7FE002080BDC04603000080020000805B
:103850000100008010B50146002000290FD1084C5E
:10386000A18B228B8A420AD26069FEF719FD218B57
:1038700089004058FEF714FD4068FEF711FD10BDA9
:10388000A006002080B503480078401EFFF7E2FF45
:1038900080BDC046A006002010B5044600F00CFC18
:1038A0002420604308490818C82105224254C42135
:1038B000064A7A444250D421054A7A444250C121F2
:1038C0000122425410BDC046A00600200A16000086
:1038D0005FFFFFFF80B500F089FB002807D0A12221
:1038E00003498A5C112A02D1B822024B8B5280BD57
:1038F000A00600200A80000010B50446FFF7CCFFA8
:103900002420604304490818D021044A7A444250D4
:10391000204600F0ABFB10BDA0060020C5FFFFFF56
:10392000F0B581B0009316460F460546FFF7B4FF89
:10393000094C6168221D0A23384600F055F92420FD
:1039400068432018D4214650D021009A425028467E
:1039500000F08CFB01B0F0BDA006002010B50446BD
:10396000FFF790FF4168044A7A44044B7B442046A9
:10397000FFF7D6FF10BDC04615000000250000006F
:1039800080B50349794400F0F9F8002080BDC046B5
:10399000D5FFFFFF10B50446FFF774FF06C82046A9
:1039A00000F04EF810BD0000F0B583B000920E4656
:1039B00002901A4C277B0025E8430190FFF7E2FDB7
:1039C000012804D0401C06D10198606000E06560C9
:1039D000A560E56025612773029800F06DFB41202A
:1039E00080002058304301D10D4E7E44009F221D9F
:1039F0000A233046019900F0F7F8A060002805D0AE
:103A0000401E6168814205D9606003E06560A56081
:103A1000E56025610298B84703B0F0BDA00600201C
:103A20002C0B000010B50446FFF714FF4168034A51
:103A30007A442046FFF7B8FF10BDC04629FFFFFFBC
:103A4000F0B583B015460E460746464CA0342022FA
:103A50002046394600F07DFC7878102818DC0128D3
:103A60002DD0022834D0102878D1002E58D03D49CE
:103A70008D6830460E46FEF713FC03467068B16849
:103A8000401C00900191012D55D8394A7A4454E0E8
:103A900001461139032961D20F21084001285DD167
:103AA0003048068A002E59D07F2E00D37F260291FF
:103AB000002D19D02846FEF7F3FB2A4F18E0FFF738
:103AC0001BFD00284AD02748406800280AD045E05E
:103AD000FFF738FD002841D0224948688968491E0F
:103AE00088423BD1002439E0412080001D4F3858E6
:103AF000F989401800903D46203580211E4A7A44BD
:103B000028463346FEF7E4F9BC203D50397B029845
:103B1000014015480F2900D0801CB82178521DE0C3
:103B2000104E7168B0680090304620304B1C8021E8
:103B3000104A7A4404E00D4A7A443046203080210D
:103B4000FEF7C6F930462030BC2170500648317B64
:103B500009090E2900D8801CB8217052204603B0F4
:103B6000F0BDC046A00600200880FFFF241400001E
:103B7000DB140000381400008909000080B5164AE3
:103B800090420BD0154A904213D0154A90420FD163
:103B900014484268002A1BD0521E14E0114988685C
:103BA000002803D04968401E884201D1FFF7A2FDDA
:103BB00080BD0C48426883685B1E9A4202D1FFF7C1
:103BC00027FD80BD521C42600078401E884780BDA2
:103BD000FFF724FD80BDC046030000800200008086
:103BE00001000080A0060020F0B58DB00023938175
:103BF000029353814B1C059303D053688B4200D82A
:103C0000AEE004910392002802D0FEF749FB03E0E6
:103C10004120800054490858044600F0E7FB014663
:103C200001200290012900DA9AE066184E48027BD2
:103C30000F200C9002400020079001940896B44297
:103C4000204600D83046001B0690002320460994E9
:103C5000E518B54239D21F460A905B1C180624D0DD
:103C600000210B931E46207840B2C3B2202B0CD308
:103C700000280AD43D4878441818203803780F2AC1
:103C800008D10C980340C91806E00A2B08D00D2B68
:103C900002D105E018090918761E641C3006E2D12D
:103CA0007229089E099C0B9B11D82978084609386F
:103CB000022806D3202904D02D2902D05F2900D064
:103CC0000A9D28460A29C3D103E0069B01E03B4632
:103CD0000A98E118B14215D2002B13D0A04211D09E
:103CE00007461D46481E03782C2B06DC184609386B
:103CF000022806D3202B04D018E02D2B01D05F2BF7
:103D000014D12B4605980028049906D007988842BC
:103D100003D10398406888421DD8E418B44202D207
:103D20000798401C0790B44289D310E009782C29E9
:103D30002B4606DC084609380228E3D32029E1D0C7
:103D400003E02D29DED05F29DCD03B1BDAE70798A2
:103D5000401C029004E003998B810198201A48814D
:103D600002980DB0F0BDC046A0060020FA12000077
:103D7000F0B581B00646FFF785FD0546114F3C467C
:103D8000A03420222046314600F0E3FA70780F2854
:103D900006DC01280AD0022811D1FFF7D3FB07E087
:103DA000102809D011280AD1686806E0FFF7A4FBA3
:103DB000002804D0002402E02868BC217850204666
:103DC00001B0F0BDA006002010B5044600F074F963
:103DD000242060430B490818C82105224254C421FD
:103DE000094A7A444250D421084A7A444250D021A8
:103DF000074A7A444250C12101224254204600F031
:103E000035F910BDA0060020EE1100002FFAFFFFCB
:103E10007BFFFFFFF0B581B00646FFF733FD054697
:103E2000144F3C46A03420222046314600F091FA3F
:103E300070780F2807DC012811D0022812D00F2833
:103E400015D1286808E01038022810D2A120385C6B
:103E50000007800E28184068BC21785007E0FFF763
:103E60004BFB01E0FFF76EFB002800D0002420464A
:103E700001B0F0BDA006002010B5044600F01CF90A
:103E80002420604308490818C82106224254C4214E
:103E9000064A7A444250D421054A7A444250C1210C
:103EA0000122425410BDC046A0060020DE110000D1
:103EB0007FF9FFFF10B5044600F0FEF824206043B0
:103EC0000B490818C82106224254C421094A7A44E1
:103ED0004250D421084A7A444250C121012242541E
:103EE000D021064A7A444250204600F0BFF810BD67
:103EF000A0060020A211000043F9FFFF2DFFFFFFE5
:103F0000F0B581B00646FFF7BDFC0546114F3C46B3
:103F1000A03420222046314600F01BFA70780F288A
:103F200006DC01280AD0022811D1FFF70BFB07E0BD
:103F3000102809D011280AD1686806E0FFF7DCFADA
:103F4000002804D0002402E02868BC2178502046D4
:103F500001B0F0BDA006002010B5044600F0ACF89A
:103F6000242060430B490818C82105224254C4216B
:103F7000094A7A444250D421084A7A444250D02116
:103F8000074A7A444250C12101224254204600F09F
:103F90006DF810BDA0060020BE1100009FF8FFFFC5
:103FA0007BFFFFFF80B5FFF735FF002807D0A12278
:103FB00003498A5C102A02D3B8220A238B5280BD9F
:103FC000A006002010B50446FFF756FF24206043EA
:103FD00004490818D021044A7A444250204600F08F
:103FE00045F810BDA0060020C9FFFFFFF0B581B065
:103FF0000646FFF747FC0546114F3C46A0342022F9
:104000002046314600F0A5F97078022804D0012836
:1040100008D1FFF771FA01E0FFF794FA00280BD0FE
:10402000002409E0A120385C0106090F04D0000734
:10403000800E2858BC217850204601B0F0BDC04603
:10404000A006002010B5084C207800280AD1204690
:10405000C030242100F074F900206061A061E061AB
:1040600001202070401E10BDA0060020B0B50446FF
:104070001048017800290ED0621C8A420BD12421FD
:1040800061434518FDF7B6FBC220002129522046A6
:1040900000F022F8B0BD0022D243A21A531E9A416A
:1040A0004B1E99410A4204D14178AA2901D16921C4
:1040B0004170B0BDA006002010B50446FDF79AFB84
:1040C000002C00D010BD0348C030242100F038F986
:1040D00010BDC046A0060020F0B581B00446042003
:1040E000FEF7C8FA002839D0972837D0242060433B
:1040F0001B490C18C420205800282FD02546C43551
:104100002646C2362746D037C8343088217880B258
:10411000884223D2FEF77AFA00281FD1FEF7FEF973
:10412000AA2803D1FEF724FAAA2817D128683188D3
:10413000490140183968002902D08847002807D073
:10414000012803D12868318849014018FCF7C7FDD0
:104150003088401C308029680029D7D101B0F0BDDB
:10416000A006002080B5002802D0FEF7B3F802E0D8
:104170000248FDF7C5F8FDF7FDF980BD856900002F
:1041800010B5002809D00B4C02202070FCF73AF93A
:10419000002807D4FEF7C4F809E0064800210170A2
:1041A000054802E0002020700448FDF7A9F8FDF75B
:1041B000E1F910BD980300208569000008B00000F7
:1041C000130A43544018427070470000002243080D
:1041D0008B4274D303098B425FD3030A8B4244D3CF
:1041E000030B8B4228D3030C8B420DD3FF22090211
:1041F00012BA030C8B4202D31212090265D0030BD0
:104200008B4219D300E0090AC30B8B4201D3CB03C5
:10421000C01A5241830B8B4201D38B03C01A524107
:10422000430B8B4201D34B03C01A5241030B8B4209
:1042300001D30B03C01A5241C30A8B4201D3CB02F4
:10424000C01A5241830A8B4201D38B02C01A5241D9
:10425000430A8B4201D34B02C01A5241030A8B42DC
:1042600001D30B02C01A5241CDD2C3098B4201D3F4
:10427000CB01C01A524183098B4201D38B01C01A72
:10428000524143098B4201D34B01C01A52410309E9
:104290008B4201D30B01C01A5241C3088B4201D398
:1042A000CB00C01A524183088B4201D38B00C01A45
:1042B000524143088B4201D34B00C01A5241411A6C
:1042C00000D20146524110467047FFE701B5002079
:1042D00000F006F802BDC0460029F7D076E7704727
:1042E0007047C046F0B5CE46474680B507009946B0
:1042F0003B0C9C4613041B0C1D000E006146000481
:10430000140C000C45434B4360436143C0182C0C14
:1043100020188C46834203D980235B029846C4440C
:10432000494679437243030C63442D042D0CC9188C
:10433000000440198918C0BCB946B046F0BDC0465B
:1043400010B5002200F009F810BD10B500F010F80B
:1043500010BD10B500F015F810BD0B0010B5110020
:104360001A0000F021F810BD10B500F046F810BD9D
:10437000002310B59A4200D110BDCC5CC454013367
:10438000F8E710B5884202D98B18984203D300236E
:1043900007E08B5C8354013AFBD210BDCC5CC45463
:1043A00001339A42FAD1F8E703008218934200D110
:1043B000704719700133F9E7F0C041464A46534649
:1043C0005C466D4676467EC02838F0C800207047AF
:1043D00010307CC890469946A246AB46B54608C800
:1043E0002838F0C8080000D1012018470023C25C1B
:1043F0000133002AFBD1581E704710B50A00002176
:10440000FFF7D2FF10BD31323334353637383941FA
:10441000424344454647484A4B4C4D4E50515253F7
:104420005455565758595A6162636465666768699E
:104430006A6B6D6E6F707172737475767778797A56
:104440002F00436F6E6669726D20416464726573FC
:1044500073005061746800417070726F766500522D
:10446000656A656374003078252E2A4800526576A7
:10447000696577005472616E73616374696F6E0071
:10448000416D6F756E7400424F4C20252E2A7300CB
:1044900054696D657374616D700054656D70205062
:1044A00075626C6963204B65790053746172747531
:1044B00070204164647265737300417574686F7233
:1044C000697A65005374617274205570005472618A
:1044D0006E736665722066726F6D3A005265637026
:1044E00020416464726573730052656370203120EB
:1044F00041646472657373005265637020322041B9
:1045000064647265737300416D6F756E743A200058
:10451000416D6F756E7420313A2000416D6F756E7C
:104520007420323A20000000A048D0C04244D0C0DD
:10453000593FD0C02845D0C0000000000000000056
:104540005244D0C000020020253AD0C04045D0C01F
:104550000000000000000000F044D0C03C02002039
:10456000253AD0C05845D0C000000000000000002F
:104570007508D0C00000000000000000000000002E
:104580007045D0C0FFFFFFFF1849D0C05744D0C0CE
:10459000C93DD0C08845D0C08045D0C000000000D3
:1045A0008508D0C0000000000000000000000000EE
:1045B000A045D0C0FFFFFFFF3048D0C05F44D0C04F
:1045C000C93DD0C0B845D0C0B045D0C00000000043
:1045D0003045D0C04845D0C06045D0C09045D0C01F
:1045E000C045D0C0FFFFFFFFAA44D0C0BC020020DE
:1045F000253AD0C0E845D0C000000000000000000F
:104600005D09D0C0000000000000000000000000B4
:104610000046D0C0FFFFFFFF1849D0C0BA44D0C049
:10462000C444D0C0B53ED0C01846D0C01046D0C09B
:1046300000000000F045D0C02446D0C0C045D0C026
:10464000FFFFFFFFCD44D0C0E8020020253AD0C0D4
:104650004446D0C00000000000000000DC44D0C090
:1046600014030020253AD0C05C46D0C000000000F2
:1046700000000000E944D0C014030020253AD0C057
:104680007446D0C00000000000000000F844D0C014
:1046900040030020253AD0C08C46D0C00000000066
:1046A000000000000745D0C06C030020F938D0C0DE
:1046B000A446D0C000000000000000001045D0C09B
:1046C0006C030020F938D0C0BC46D0C00000000008
:1046D000000000001B45D0C07E030020F938D0C088
:1046E000D446D0C00000000000000000150AD0C071
:1046F000000000000000000000000000EC46D0C0F8
:10470000FFFFFFFF1849D0C05744D0C07444D0C049
:10471000B53ED0C00447D0C0FC46D0C00000000069
:104720004C46D0C06446D0C0AC46D0C01047D0C0C4
:10473000C045D0C0FFFFFFFF4C46D0C07C46D0C074
:10474000C446D0C09446D0C0DC46D0C01047D0C0CC
:10475000C045D0C0FFFFFFFF547265650000000038
:1047600000000000FFFFFF00FFFFFFFF7FFE3FFC98
:104770001FF80FF07FFE3FFC1FF80FF047E27FFEAF
:104780007FFE7FFEFFFFFFFF100000001000000013
:10479000010000006047D0C06847D0C000000000A2
:1047A000FFFFFF00E001FEC1FD387F06DF81FFC48F
:1047B0007FF3FFBC1FE7E7F13FF807780000000038
:1047C0000E0000000E000000010000009C47D0C059
:1047D000A447D0C000000000FFFFFF000000FEC1A2
:1047E000FF3030EC0D03C3DE3030EC0D03C3C0F0FE
:1047F0003FF80700000000000E0000000E0000005F
:1048000001000000D447D0C0DC47D0C00000000049
:10481000FFFFFF00008001E6C071383807FC001E72
:104820008007F003CEC1E1387006180000000000D8
:104830000E0000000E000000010000000C48D0C077
:104840001448D0C000000000FFFFFF00000000007F
:104850000C8007F003FEC1FFF03FF003CC0033C033
:104860000C000000000000000E0000000E00000020
:10487000010000004448D0C04C48D0C000000000F7
:10488000FFFFFF00000000001EE01F1C0E03638CF2
:1048900019630C0C87837F80070000000000000074
:1048A0000E0000000E000000010000007C48D0C097
:1048B0008448D0C000000000FFFFFF0048124208FB
:1048C000040000000700000001000000B448D0C050
:1048D000BC48D0C000000000FFFFFF00218424017D
:1048E000040000000700000001000000D448D0C010
:1048F000DC48D0C000000000FFFFFF000000000007
:104900000000C000380067E0381C9C037E000F8068
:1049100001000000000000000E0000000E0000007A
:1049200001000000F448D0C0FC48D0C06973207278
:10493000656164790056657273696F6E00312E305F
:104940002E310053686F7720686F74207075622075
:104950006B6579006D2F3434272F363332272F3093
:10496000270053686F7720636F6C64207075622036
:104970006B6579006D2F3434272F363332272F3172
:10498000270041626F757400517569740054726537
:104990006520417070002863292032303232205463
:1049A00068652050656E004261636B00486F74203B
:1049B000707562206B65793A00436F6C6420707586
:1049C00062206B65793A00008847D0C05847D0C054
:1049D0002C49D0C0C53FD0C0C849D0C0000000009D
:1049E000000000003549D0C03D49D0C0F938D0C0E2
:1049F000E449D0C000000000000000001514D0C041
:104A0000000000000000000000000000FC49D0C0D1
:104A1000FFFFFFFF4349D0C05449D0C0F938D0C090
:104A2000144AD0C00C4AD0C000000000B514D0C059
:104A30000000000000000000000000002C4AD0C070
:104A4000FFFFFFFF6249D0C07449D0C0F938D0C021
:104A5000444AD0C03C4AD0C0000000005515D0C028
:104A60000000000000000000000000005C4AD0C010
:104A7000FFFFFFFFF847D0C08249D0C0C93DD0C07A
:104A8000744AD0C06C4AD0C0000000006915D0C084
:104A90000000000000000000000000008C4AD0C0B0
:104AA000FFFFFFFF6848D0C08849D0C0C93DD0C0D3
:104AB000A44AD0C09C4AD0C000000000D449D0C055
:104AC000EC49D0C01C4AD0C04C4AD0C07C4AD0C0AF
:104AD000AC4AD0C0FDFFFFFFFFFFFFFF8D49D0C0F4
:104AE0009649D0C0F938D0C0DC4AD0C000000000E0
:104AF000000000009915D0C0000000000000000078
:104B000000000000F44AD0C0FFFFFFFFC047D0C044
:104B1000A749D0C0C93DD0C00C4BD0C0044BD0C0B9
:104B200000000000E44AD0C0144BD0C0FDFFFFFFDE
:104B3000FFFFFFFFAC49D0C030080020253AD0C0AD
:104B4000344BD0C000000000000000003C4BD0C03F
:104B5000144BD0C0FDFFFFFFFFFFFFFF2C000080C4
:104B60007802008000000080B949D0C0D30800203E
:104B7000253AD0C0684BD0C0000000000000000003
:104B8000704BD0C0144BD0C0FDFFFFFFFFFFFFFFF5
:104B90002C0000807802008001000080600002008C
:104BA0000030313233343536373839616263646509
:104BB0006630313233343536373839414243444533
:104BC0004600000009211101000122220006A0FF79
:104BD0000901A1010903150026FF00750895408110
:104BE000080904150026FF00750895409108C005C6
:104BF0000F3900021810050038B60834A909A0477B
:104C00008BFDA0768815B66500011E001C100500FE
:104C1000DF60DDD88945C74C9CD2659D9E648A9F24
:104C200000000306B2007700DD32D0C0ED32D0C004
:104C3000FD32D0C00D33D0C01D33D0C02D33D0C015
:104C40003D33D0C04D33D0C012034D005300460059
:104C50005400310030003000770092000000000165
:104C60000500010088000000070000002A00440041
:104C70006500760069006300650049006E007400FD
:104C80006500720066006100630065004700550022
:104C90004900440073000000500000007B00310018
:104CA00033006400360033003400300030002D0043
:104CB00032004300390037002D0030003000300052
:104CC00034002D0030003000300030002D00340062
:104CD00063003600350036003400360037003600F9
:104CE0003500370032007D00000000000A0000009F
:104CF00000000306B200080001000000A800080040
:104D000002000100A0001400030057494E55534211
:104D10000000000000000000000084000400070004
:104D20002A004400650076006900630065004900C0
:104D30006E0074006500720066006100630065002B
:104D400047005500490044007300000050007B00FC
:104D5000430045003800300039003200360034008E
:104D60002D0034004200320034002D003400450094
:104D7000380031002D0041003800420032002D0083
:104D80003500370045004400300031004400350054
:104D900038003000450031007D00000000000000B8
:104DA0005931D0C08B31D0C0C530D0C00000000018
:104DB00000000000E131D0C0F931D0C00000000097
:104DC00000000000000000005534D0C05534D0C0B1
:104DD0005534D0C06534D0C04532D0C07132D0C057
:104DE0007532D0C000000000000000007932D0C051
:104DF0009132D0C000000000000000000000000060
:104E00005534D0C05534D0C05534D0C06534D0C02E
:104E10001201100200000040972C11100102010243
:104E20000301040309040E034C00650064006700DD
:104E3000650072000E034E0061006E006F002000DE
:104E400053000A0330003000300031002800000019
:104E500000010400010000000000000001015749AA
:104E60004E5553420000000000000000000000000A
:104E70000000000009024000020102C032090400E3
:104E80000002030000020921110100012222000793
:104E900005820340000107050203400001090401E7
:104EA0000002FFFFFF02070583034000010705031F
:104EB000034000010A06000200000040010000005B
:104EC000030000000000800020000000010000003E
:104ED00000000000FFFFFF000000000000000000D5
:104EE000050102000C0004000700000000000000A3
:104EF000FFFFFF000000000000000000C048D0C01D
:104F000005027A000C000400070000000000000009
:104F1000FFFFFF000000000000000000E048D0C0DC
:104F2000071006000C0074002000000000000000C4
:104F3000FFFFFF00000000000880000000000000EC
:104F4000071106001A007400200000000000000095
:104F5000FFFFFF00000000000880000000000000CC
:104F60002573202825642F256429002573002564D6
:104F70002F25640033334677669A89233434666676
:104F800033443345686667678866686768683333A3
:104F900065666556AA787777886666888834457826
:104FA00066AB899977997866768876AB6867674546
:104FB000454567566767775677675667773445671D
:104FC00034AA7777777745564577679A6767564566
:104FD00066456676030000000000800020000000A7
:104FE0000100000000000000FFFFFF0000000000C3
:104FF00000000000050102000C0004000700000092
:1050000000000000FFFFFF000000000000000000A3
:10501000C048D0C005027A000C0004000700000060
:1050200000000000FFFFFF00000000000000000083
:10503000E048D0C005103800020010001000000049
:1050400000000000FFFFFF00000000000A800000D9
:1050500000000000071100001C008000200000007C
:1050600000000000FFFFFF000000000008800000BB
:10507000000000000300000000008000200000008D
:105080000100000000000000FFFFFF000000000022
:1050900000000000050102000C00040007000000F1
:1050A00000000000FFFFFF00000000000000000003
:1050B000C048D0C005027A000C00040007000000C0
:1050C00000000000FFFFFF000000000000000000E3
:1050D000E048D0C0050F10000800100010000000CC
:1050E00000000000FFFFFF000000000000000000C3
:1050F00000000000071029000C00800020000000C4
:1051000000000000FFFFFF0000000000080000009A
:1051100000000000071129001A0080002000000094
:1051200000000000FFFFFF0000000000080000007A
:1051300000000000030000000000800020000000CC
:105140000100000000000000FFFFFF000000000061
:1051500000000000050102000C0004000700000030
:1051600000000000FFFFFF00000000000000000042
:10517000C048D0C005027A000C00040007000000FF
:1051800000000000FFFFFF00000000000000000022
:10519000E048D0C0051038000200100010000000E8
:1051A00000000000FFFFFF00000000000A80000078
:1051B00000000000071100001C008000200000001B
:1051C00000000000FFFFFF00000000000A80000058
:1051D00000000000000000000000000000000000CF
:1051E00000000000000000000000000000000000BF
:1051F00000000000000000000000000000000000AF
:04000005C0D0000166
:00000001FF
