:02000004C0D06A
:10000000B0B58CB062B601F0B9FC234C2120C10020
:10001000204604F059FC6D46284604F091FCA88562
:1000200080B205281ED0002826D16D46284602F051
:10003000EDFC0A9001F0B4FD002003F0ABFB0120C1
:1000400003F0A8FB01F084FC01F09AFB02F0D2FC63
:10005000A84202D10A9802F0D9FC6846808D002897
:10006000D4D017E06846002181850A9802F0CEFCC2
:100070000A9802F0CBFCC9E76846002484850A98F8
:1000800002F0C4FC0A9802F0C1FC01F0DDFB20463E
:100090000CB0B0BD01F077FCB0070020F0B5F5B0B2
:1000A00014460D4606466DA82027394604F00CFC80
:1000B000142C1AD30120010202A800F00DFB002825
:1000C0001AD101976DA8009002A801214023324661
:1000D00000F0F6FA00280FD102A800F0EBFA6DA9A3
:1000E0000C311422284604F0F4FB132C01D8002014
:1000F00000E0012075B0F0BD01F045FCF0B5521AEA
:100100008A4214DD01230C4C7C44455C0026A75D2B
:10011000BD4203D0761C3A2EF9D109E0491C914228
:1001200001DB002300E001239142EED100E0002337
:1001300001209843F0BDC04682480000B0B5531A74
:100140008B4214DD445C303C092C0ED84C00E44357
:10015000A2184C1C2146002A05D0455C303D521E99
:100160004C1C0A2DF6D3994201DA0020B0BD0120C3
:10017000B0BD70B5531A8B4217DD4C00121B012421
:10018000455C2E46303E0A2E06D32E46613E062E94
:1001900002D3413D052D09D8491C994201DB0024B9
:1001A00000E00124521EEBD100E000240120A04316
:1001B00070BD70B5531A8B4219DD4C00121B01241F
:1001C000455CDF262E40413E1A2E07D32E46303E98
:1001D0000A2E03D320263543202D09D1491C9942EC
:1001E00001DB002400E00124521EE9D100E00024DC
:1001F0000120A04370BD0000F0B5B3B01C46154609
:100200000F46079009A8A62104F05EFB0021CE430B
:10021000782F6FD8002F019409D000210798405CF7
:10022000002804D1491C8F42F8D1002238E0029105
:100230000298391A8A204843642104F0A1F90299EE
:1002400002468F422BD903960095164605970492D5
:1002500007980691405C711E0891164609ACA15D95
:1002600009020F183A253846294604F013FA454387
:10027000791BA15508998E4202D83937732F04D3C0
:10028000711E002E0E46E9DC039E0699491C059F4F
:10029000B942049ADCD1029F009D039E00E00F4604
:1002A000501C002409A9095D002903D1641CA04247
:1002B000F8D10446B818001B401C0199884219D88F
:1002C000164631222846394604F00BFBB44201D9C8
:1002D0003E460FE0314609A80019311B491C074A68
:1002E0007A443E460378D35CAB55401C491E761CCD
:1002F0000029F7D1304633B0F0BDC046AA46000011
:10030000F0B585B00446581E092801D900201AE02E
:100310001746002501260396019504910294204674
:1003200029461C4602F0B8F923467851A6420398A4
:1003300000D201982D1D04998D4204D8741C9E4250
:100340002646029CEBD305B0F0BD0000F0B589B0A5
:10035000079208900291481E0390092862D81E4611
:10036000002333487844019019461A4600960591B7
:10037000079885181746B41A06939E000898835963
:1003800001200490C007834328462146019A01F0CA
:100390008DFF284604F0EEFA00283CD0A0423AD265
:1003A000089989193A46C2190868002801D4009EA4
:1003B00013E007988518009E1746B41A1D4A7A4420
:1003C0002846214601F072FF284604F0D3FA00289F
:1003D00024D0A04222D23A46C219039806998842F4
:1003E00012D0079885181746B41A134A7A4428463B
:1003F000214601F05BFF284604F0BCFA00280DD02E
:10040000A0420BD23A46C2190599491C8BB20298F8
:100410008342ACD308E00798009901E00798314681
:1004200004F052FA00200490049809B0F0BDC046D0
:1004300021520000764B0000D84500000246836838
:1004400059180020994204D35368994201D8916009
:100450000120704710B5426883689A420AD0046848
:10046000E45C0C708168491C06D24468A14203D840
:10047000816001E000200870D01A411E884110BD43
:10048000B0B515460A46044600686168A368C018FE
:10049000C91A2B46FFF734FF002807D0A900A2682D
:1004A000511803D26268914200D8A160B0BDB0B5C6
:1004B0001446436882689D1AA54206D800688218CF
:1004C000084611462A4604F008FAA54201D9002040
:1004D000B0BD0120B0BDB0B5154604464268806885
:1004E000121AAA4201D90020B0BD23681B18084681
:1004F000194604F0F2F9A26851190120914203D380
:100500006268914200D8A160B0BDF0B597B01F46B7
:1005100015460E4602900FA8202104F0D5F903AC31
:10052000204604F00DFAA08584B2002C29D103A83E
:1005300002F06CFA0D90009621240FAE2046294659
:100540003A46334602F0D2F9202220463146029B39
:1005500000F0AAF8002812D102F04CFA03A9884250
:1005600002D10D9802F052FA0FA8202104F0C0F930
:1005700003A8808D002802D1002017B0F0BD01F043
:1005800002FA03A8002181850D9802F03FFA204667
:1005900001F0F9F9B0B514460D46024621200123B9
:1005A00000F07CF8002807D1093540222046294672
:1005B00004F093F90020B0BD01F0E5F9F0B5A5B065
:1005C00019AD2821284604F07FF911AE20243046C9
:1005D000214604F079F9BF2080002A4F3B5CB5200A
:1005E00080003A1828463146FFF78FFF05AD2846B0
:1005F00004F0A6F9A88585B2002D3AD105A802F02D
:1006000005FA0F904820249023A8039024A8029074
:100610000520C001381801900094132040013B18B8
:1006200019A81949032200F033F800281FD1249C8F
:10063000239D02F0DFF905A9884202D10F9802F04C
:10064000E5F919A8282104F053F905A8808D0028A0
:100650000DD10020002C07D401210D400B497D5401
:100660005921C9007C5400E0C04325B0F0BD01F021
:100670008AF905A8002181850F9802F0C7F928465C
:1006800001F081F9A804002001060000C902000061
:1006900003B4014835E000001500000003B4014830
:1006A0002FE000001B00000003B4014829E0000017
:1006B0001C00000003B4014823E000002F000000EC
:1006C00003B401481DE000003200000003B40148FB
:1006D00017E000003300000003B4014811E00000FF
:1006E0004400000003B401480BE000005600000085
:1006F00003B4014805E000005800000003B40248BC
:10070000FFE70249084700007100000001001200E5
:1007100070B50D460446FF2040006168814201D952
:10072000F9266AE0A0682168081800210A22FFF76C
:1007300005FD002850D0A0682168081828620A2109
:100740002046FFF77BFE002848D02946243120466A
:10075000FFF780FE002843D0A16822685018A862E5
:10076000515C012905D101212022FFF722FD00283B
:100770003AD021212046FFF761FE002832D0A86A36
:100780000078401E022831D8012620463146FFF766
:1007900055FEA0682168081802210822FFF7E9FC2D
:1007A000002825D0A0682168081809212222FFF717
:1007B000A5FC00281ED0A06821680818E8622B213B
:1007C0002046FFF73BFE002816D06068A1688142F2
:1007D00013D00620C64310E0F8260EE0F7260CE002
:1007E000F6260AE0F52608E0DC2606E0F42604E01A
:1007F000F32602E0F22600E0F12670B270BDF0B5FB
:1008000081B00D460446FF2040006168814201D955
:10081000F927D7E0A0682168081800210A22FFF70D
:100820008DFC002800D1BEE0A0682168081828626D
:100830000A212046FFF702FE002800D1B5E0294634
:1008400024312046FFF706FE002800D1AFE0A06863
:100850002168081800210822FFF78BFC002800D12E
:10086000A7E0A0682168081809212222FFF746FCAA
:10087000002800D19FE0A0682168081828632B2178
:100880002046FFF7DBFD002800D196E0A068216834
:100890000818686320212046FFF7D0FD002800D10A
:1008A0008DE02E46383620463146FFF7D3FD00282E
:1008B00000D186E0A0682168081800210822FFF70F
:1008C00058FCDE2700287DD0A0682168081809217F
:1008D0002222FFF713FC002877D0A06821680818AF
:1008E000E8632B212046FFF7A9FD00286FD0A06800
:1008F0002168081800211022FFF720FC002868D08A
:10090000A06821680818286410212046FFF796FD8A
:10091000002860D0307802282ED3A06821680818FB
:1009200000210822FFF725FC002856D0A068216886
:10093000081809212222FFF7E1FB002851D0A06806
:100940002168081868642B212046FFF777FD0028EE
:100950004BD0A0682168081800211022FFF7EEFB99
:10096000002844D0A06821680818A86410212046F7
:10097000FFF764FD00283CD0A06821680818E864EF
:1009800021212046FFF75AFD00281BD0E86C007893
:10099000FE210140022922D16068A168814222D053
:1009A0000620C7430EE0F0270CE0EF270AE0EE2711
:1009B00008E0ED2706E0EC2704E0EB2702E0EA2759
:1009C00000E0E92778B201B0F0BDE727FAE7E627B3
:1009D000F8E7E527F6E7E427F4E7E327F2E7DD2782
:1009E000F0E7E227EEE70127ECE7E127EAE7E02777
:1009F000E8E7DF27E6E7000010B584B00178E029DA
:100A000013D10022039202920192417804290FDC53
:100A100003291CD0042936D18178002946D1C07819
:100A2000002843D100F020FB43E0372040023EE0A5
:100A3000052915D0062926D18178002926D0032939
:100A400034D8C37880241C43802C23D02EE08178B6
:100A500000292BD1C078002828D100F067FB28E0BE
:100A60008178012922D8C378002B1FD18368002BFD
:100A700021D00193039200790290481E814101A880
:100A800000F006FB15E06D20000210E0C378802B1B
:100A90000CD180238468002C0DD00194039200793E
:100AA0000290DA0901A801F051FE02E0034800F0CB
:100AB00061FE04B010BD0148401CF8E7866A0000E2
:100AC00080B5024801680120884780BD6802002087
:100AD00080B5024801680020884780BD6802002078
:100AE00070B586B02D200001254C205C2178014393
:100AF00003D00020207023483BE0234D3C262846AD
:100B0000314603F0E1FEBF208000215CB52080006B
:100B100020182A463346FFF719FC002826D01C4827
:100B20002B2103F0D1FE01AD14262846314603F0F7
:100B3000CBFE0834204629463246FFF7AFFA00289C
:100B400016D001A8009012482B21144A7A4414238D
:100B500001F0ACFB10481249794401601149794415
:100B600000242046224602F0F7FF05E0074800E097
:100B7000084800F0FFFD0446204606B070BDC046A0
:100B8000A804002007B000000002002001B000000F
:100B90003C02002002B0000068020020A63E0000D7
:100BA000BD3900000640000080B502480168012000
:100BB000884780BD6802002080B502480168012096
:100BC000884780BD68020020F0B58BB02D20000161
:100BD000304F385C012811D1387801280ED14720D8
:100BE000C200B8580178012901920BD1411C2C4D4B
:100BF0002022284603F071FE20350CE000203870DA
:100C000025483AE0232000013958244D0A2228467D
:100C100003F063FE0A3500242C708F2080003958C1
:100C2000204D2B262846324603F057FEAC55093599
:100C300002AE22223046294603F04BFE304600F039
:100C400099F9002818D0019EB8590090174D4521F8
:100C5000184A7A442123284601F028FB44202C54CA
:100C60001348154979440160B8590078012808D122
:100C700012497944002406E00B4800F07BFD04464D
:100C800005E00F4979442046224602F065FF2046E0
:100C90000BB0F0BDA804002007B000006C020020DB
:100CA000E8020020BC020020017000007702002052
:100CB00068020020A03D0000CD3800009A3F0000EF
:100CC000443F000080B5024801680120884780BD8C
:100CD00068020020F0B581B02D2000011E4F385C65
:100CE00001282ED1387801282BD1092080013958CC
:100CF00009311B4E222530462A4603F0EEFD002422
:100D00007455304600F036F900281ED0932080003C
:100D100039580931144E30462A4603F0DEFD745529
:100D2000252000013858114900F062F91048114996
:100D300079440160104979442046224602F00CFFB4
:100D400007E000203870054800E0064800F012FD7A
:100D50000446204601B0F0BDA804002007B0000002
:100D60000C03002001700000380300206403002001
:100D700068020020013800005E3F0000F0B581B03D
:100D80002D200001264F385C01283ED138780128FB
:100D90003BD10920800139580931234E22253046A4
:100DA0002A4603F09AFD00247455304600F0E2F81C
:100DB00000282ED093208000395809311C4E30462F
:100DC0002A4603F08AFD7455952080003958093170
:100DD000184E30462A4603F080FD74552520000148
:100DE0003858154900F004F94B20C0003858134911
:100DF00000F0FEF812481349794401601249794421
:100E00002046224602F0A8FE07E000203870054880
:100E100000E0064800F0AEFC0446204601B0F0BDFC
:100E2000A804002007B000000C030020017000009F
:100E3000380300207803002064030020A40300206E
:100E400068020020393700000E3F0000F0B5B9B04D
:100E500001AB07C32FAE28273046394603F034FDD7
:100E60001CAC4C21204603F02FFD04AD2946403137
:100E70003046019A029BFFF748FB304621462A463E
:100E8000FFF788FB3046394603F032FD0095094AEA
:100E90007A444024039E30462146234601F006FA58
:100EA0003E982946224603F014FD82200021315449
:100EB00039B0F0BD623B0000F0B5C9B00291014607
:100EC0001EA802703F20085C01252840801C03AC4E
:100ED0002070601C2026324603F0FBFC212129AF44
:100EE00020463A463346FFF7F1FB31AC2046FFF788
:100EF000F9FB1420019024A80090204629463A4688
:100F00003346FFF7DDFB002831D131A8FFF7D2FBD4
:100F10001EAD681C24A9142203F0DBFC152116ACBD
:100F20002026284622463346FFF7D0FB204631468E
:100F300022463346FFF7CAFB0CA801460CCD0CC174
:100F40001CCD1CC1169A42752B780B70110E0176C0
:100F5000110CC175110A817519212224029D2A469E
:100F60002346FFF749F90020285549B0F0BD00F0AD
:100F70000AFD000070B582B00446BF208000174E05
:100F8000315C174D0095B52080003018154AFFF7E9
:100F90005DFFB720800030581349884201D02822D5
:100FA00000E01C22114E28463146FFF785FF3078BD
:100FB000217881420CD1601C00221146212A05D0E3
:100FC0004A1C435C74186478A342F6D0202901D8E7
:100FD000002000E0012002B070BDC046A80400203F
:100FE00039040020B60300200100008079040020AD
:100FF000F0B582B00022835C302B04D1521C102A41
:10100000F9D100220EE0092A0CD92E224A70302292
:101010000A70022283181B7A8B54521C082AF9D1B9
:1010200008201CE08B1A01930A24A31A00930925B7
:10103000AD1A00273E4696420CD3092E06D1477AB8
:101040002E23009C0B554F55012703E0835D019C27
:10105000E419A355761C102EEDD1B81A10300022D9
:101060000A5402B0F0BD000080B584B0074878444F
:1010700001F004FB00210391042102910190092059
:10108000010301A800F036FB04B080BDBE3C0000A7
:10109000F0B59FB0019106466120C100214D284660
:1010A00003F026FC2D20000100212954297015A8E9
:1010B000282103F009FC02A84C2103F005FCBF2005
:1010C000840029193046FFF7C5F9002821D02A5D90
:1010D000B52080002F1830463946FFF7D1F9002897
:1010E00017D02B5D2946483115AE30463A46FFF7FA
:1010F0000CFA083502A930462A46FFF74BFA282198
:10110000304603F0F5FB0198002807D0FFF7E8FC14
:1011100002E0054800F02EFB1FB0F0BD01F0C8FA58
:10112000FAE7C046A8040020876A000080B584B0B2
:1011300068460221817000214170012202700391F2
:101140000321029101900920010301A800F0D2FAC5
:1011500004B080BD80B500F095FD80BDF0B581B0D4
:10116000F54D28780D2805DC052800D1AEE00D28C6
:101170000DD057E00E2800D102E1152852D1EF48DA
:101180008079012803D1A879000700D465E2EC4CEE
:101190000027676001202070204601F0D1FB042069
:1011A00001F042FC6060002800D14DE2692800D1C6
:1011B000CAE1972800D147E2C425E24C60590028D3
:1011C00000D139E2C226A05BC821615C80B28842AE
:1011D00000D331E201F0F4FB002800D02CE201F052
:1011E00077FBAA2804D101F09DFBAA2800D023E2B6
:1011F0006159A25B50010818D023E358002B04D09A
:101200009847002807D0A25B6159012801D15001FD
:10121000081800F037FDA05B401CA053615900295D
:10122000D2D109E2C64C0027676001202070204619
:1012300001F086FB042001F0F7FB6060692800D014
:10124000F2E000F0C5FC00F0C5FCC225BD4E7753AE
:10125000042001F0E9FB6060002800D1F4E1972848
:1012600000D1F1E1C4243059002800D1ECE1705BD9
:10127000C821715C80B2884200D3E5E101F0A0FB97
:10128000002800D0E0E101F023FBAA2804D101F0FE
:1012900049FBAA2800D0D7E13159725B50010818E8
:1012A000D023F358002B04D09847002807D0725B56
:1012B0003159012801D15001081800F0E3FC705B9E
:1012C000401C705331590029D2D1BDE1E44C0027B4
:1012D000676001202070204601F032FB042001F0FD
:1012E000A3FB6060002800D1AEE1972800D1ABE1FC
:1012F000692800D067E100F06BFC00F06BFCC225B0
:10130000D84E7753042001F08FFB6060002800D195
:101310009AE1972800D197E1C4243059002800D1E0
:1013200092E1705BC821715C80B2884200D38BE18E
:1013300001F046FB002800D086E101F0C9FAAA2896
:1013400004D101F0EFFAAA2800D07DE13159725B97
:1013500050010818D023F358002B04D098470028D8
:1013600007D0725B3159012801D15001081800F0F3
:1013700089FC705B401C705331590029D2D163E164
:10138000B74D00266E6001202870284601F0D8FA7B
:10139000042001F049FB686069287BD100F018FC4B
:1013A00000F018FCC224AF4E00203053042001F09E
:1013B0003BFB6860002800D146E1972800D143E15B
:1013C000C4257059002800D13EE1305BC821715C12
:1013D00080B2884200D337E101F0F2FA002800D051
:1013E00032E101F075FAAA2804D101F09BFAAA288B
:1013F00000D029E17159325B50010818D023F3580D
:10140000002B04D09847002807D0325B715901287F
:1014100001D15001081800F035FC305B401C3053FE
:1014200071590029D2D10FE1C4258E4C6059002892
:1014300000D101E1C226A05BC821615C80B2884274
:1014400000D3F9E001F0BCFA002800D0F4E001F08C
:101450003FFAAA2804D101F065FAAA2800D0EBE0EF
:101460006159A25B50010818D023E358002B04D027
:101470009847002807D0A25B6159012801D150018B
:10148000081800F0FFFBA05B401CA0536159002925
:10149000D2D1D1E00446DC20724D295800290FD06A
:1014A0000A46643A00D232462A50642908D8D82124
:1014B0006958002904D0E022AA582A500020884701
:1014C000002C00D1C0E0972C00D1BDE0C4242859E5
:1014D00000282BD0C226A85BC821695C80B2884254
:1014E00024D201F06DFA002820D101F0F1F9AA28E8
:1014F00003D101F017FAAA2818D12959AA5B500183
:101500000818D023EB58002B04D09847002807D0A8
:10151000AA5B2959012801D15001081800F0B2FB3B
:10152000A85B401CA85329590029D5D1C820285CA4
:10153000C221695A84E0C046B8080020100C00207F
:1015400038090020B007002000F042FB00F042FB09
:10155000C225444E7753042001F066FA60600028EB
:1015600072D0972870D0C424305900286CD0705B9A
:10157000C821715C80B2884266D201F021FA00284D
:1015800062D101F0A5F9AA2803D101F0CBF9AA286C
:101590005AD13159725B50010818D023F358002BEF
:1015A00004D09847002807D0725B3159012801D137
:1015B0005001081800F066FB705B401C70533159F5
:1015C0000029D5D140E0D420264C2058002803D053
:1015D000E978490800F09EFBC425605900282BD00B
:1015E000C226A05BC821615C80B2884224D201F08F
:1015F000E7F9002820D101F06BF9AA2803D101F006
:1016000091F9AA2818D16159A25B50010818D0237A
:10161000E358002B04D09847002807D0A25B6159FB
:10162000012801D15001081800F02CFBA05B401CE0
:10163000A05361590029D5D1C820205CC221615A2C
:10164000814201D301F0BCF901F0BAF9002801D1BF
:1016500000F0A0F9012001B0F0BD052000F093F9E1
:1016600038090020B0070020B0B505460720284003
:101670000024012812D0022812D1002907D00A48DC
:1016800001F092F9280609D501F016F906E041208B
:1016900081000548002201F09FF904462046B0BDB4
:1016A000022000F070F9C0460C0B002010B50F4C62
:1016B000207802280BD001280DD000280AD1012063
:1016C00020700B480188002000F07AFB10BD00203C
:1016D0002070C04310BD02202070054801881020F2
:1016E00000F06EFB0121217010BDC046A004002057
:1016F0009C040020F0B581B00D460027002816D0CC
:1017000006464068B168411A0B200403812040005E
:1017100081420DD8821C14493046FEF7C8FE0028CD
:10172000394606D07068B168411A2C4601E02C4653
:1017300039460E4D29600C48224602F01BFF2868EE
:10174000811C29600A4C2278012A384607D0022AD7
:1017500007D189B2202000F033FB002129602770D7
:1017600000E0F84301B0F0BD0C0B00209C04002009
:10177000A004002080B501460020FFF7BBFF80BD1C
:10178000F0B58FB02B48002707602B480770612009
:10179000C1002A4803F0ACF8294C2A4D6E46304669
:1017A00003F0CEF8B08586B26846002E09D0052E2B
:1017B00038D087850A9801F029F93046FFF7DAFF1B
:1017C00015E001F023F90A900C970D970E97FFF79B
:1017D0006DFF00281FD402460CA8214600F02CFF04
:1017E000002811D00CA8FFF707F9002813D401F046
:1017F00001F96946884202D10A9801F007F9684662
:10180000808D0028CAD00BE02846FFF7B3FF0A9866
:1018100001F0FCF8C2E70A9801F0F8F80FB0F0BD4B
:1018200000F0B1F887850A9801F0F0F8052000F083
:10183000AAF8C0469C040020A0040020A8040020B0
:101840000C0B0020876A000010B58CB06C46204657
:1018500003F076F8A085000406D1684601F0D6F8BA
:101860000A90FF2001F092F801F0C4F8694688421E
:1018700002D10A9801F0CAF86846808D002801D18B
:101880000CB010BD00F07FF880B500F001F880BD0D
:10189000B0B584B00F49794401A8024638C938C2AE
:1018A000094C00940321094A8323FFF7CFFA084922
:1018B00028222046FFF700FB074979440020024612
:1018C00002F04AF904B0B0BDC3090020400900206D
:1018D000030A0020DA380000A638000080B500F0C6
:1018E00001F880BDB0B584B00F49794401A8024623
:1018F00038C938C2094C00940321094A8323FFF7F1
:10190000A5FA08491C222046FFF7D6FA0749794470
:101910000020024602F020F904B0B0BDA90A002060
:10192000260A0020E90A0020BA38000086380000A4
:1019300080B5034979440020024602F00DF980BDCC
:101940000438000080B5FF2001F020F880BD0000C1
:1019500080B506480078002801D102F04DFD044909
:1019600079440020024602F0F7F880BDB00700205D
:101970007037000080B5FFF7EBFF80BD80B5002019
:1019800001F044F880BD044601F034F8214602F02D
:10199000E3FF000080B503487844052101F004F816
:1019A00080BDC0461838000010B51648C07803281E
:1019B00007DC01280DD002281FD1134801F0EAFAF4
:1019C00010BD042816D0082817D10F4801F0E0FAFE
:1019D00010BD0D4C0121204601F0D5FA204601F042
:1019E000B3FA0A488179002908D10C30122102F09B
:1019F0006BFF10BD044801F0C9FA10BD0520FFF7C8
:101A0000C2FFC046B8080020940C0020100C002033
:101A10007F210140052903D802484018007B704708
:101A200000207047100C002080B51548C2787F2137
:101A300011400279042A14D0022A06D0012A1DD1AD
:101A4000811D114801F090F980BD052916D84A0082
:101A50000C4B9A1800235382821D0B4801F008FAA0
:101A600080BD05290AD8074A521843797A2B00D33A
:101A70007A231373821D044801F0A4F980BDC04687
:101A8000B8080020100C0020940C002070B5FF2A2C
:101A90001DD815460E4604460D484271202101719D
:101AA0005021017080212143C170D11C8170090A2D
:101AB0004170062100F078FF3046294600F074FF9F
:101AC0006006000E034908187D210901418270BD9E
:101AD000B8080020100C002080B50A46014682207C
:101AE0001423FFF7D3FF80BD80B50A46014683204B
:101AF0001423FFF7CBFF80BD10B5264881784278CC
:101B00001202521801780F2908DC0E291CD00F2967
:101B10002DD1012A32D1FFF747FF33E010292BD016
:101B2000162924D11C490B780124002B2BD10A2320
:101B30000B7006238B717D2A00D37D224A80C11C45
:101B4000164802F0C6FE1EE01348816864318160C9
:101B50001C21425A002A07D0642A134600D8642365
:101B6000643B4352642A10D9891E1029F1D1022006
:101B7000FFF7F4FA044606E0032A01D2002402E04B
:101B8000FFF752FF0124204610BD002101700520FF
:101B9000FFF7F9FEB8080020100C00200C0B002005
:101BA00080B500F07BFE0D2802D3FF2000F0EEFE92
:101BB0000548202102F088FE00F0F2FA03480021D7
:101BC0000160416080BDC046100C0020300C002038
:101BD0007047000002480021016041607047C04624
:101BE000300C0020F0B587B00546084600F046FDF1
:101BF000002843D00446006900283FD0284600F062
:101C00003DFD01466D461C22284602F062FE266814
:101C1000EE8067682F8100F0D3FE00282ED1B9B284
:101C2000B2B2174D65202870A06842434A4351075D
:101C3000D608002900D0761C04278740B8191D302B
:101C4000A870000A68700321284600F0ADFE6846BF
:101C50001C2100F0A9FEA06828700121284600F090
:101C6000A3FEE06800F00AFDB9B200F09DFEB5B237
:101C7000206900F003FD294600F096FE07B0F0BD94
:101C8000B808002070B500F0F9FC0446C06900F007
:101C9000F5FC054621787F2008400AD0002D09D0A8
:101CA000052802D1A07E00282DD000F089FE002852
:101CB00011D070BD00F084FE0028FAD114481C2514
:101CC00085700021417065210170032100F06CFED8
:101CD0002046294614E0284602F04CFE06460C48F1
:101CE0006521017031461C318170090A4170032160
:101CF00000F05AFE1C21204600F056FEB1B22846E4
:101D000000F052FE70BD20462946FFF76BFF70BD04
:101D1000B808002070B5002825D00B460246124CAA
:101D200003CC083C984201D1491C61601843002B48
:101D300002D02060054605E00025256065600B4E59
:101D4000761C30439D4201D000236360082909D3EB
:101D5000074C4C430123074DAC4201D29C07204362
:101D6000DB079843904770BD300C0020FFFFFF7FDA
:101D7000ABAAAAAA56555555F0B581B00F4E01240D
:101D80003470B11CFF2702377A1C204600F0F2FDA8
:101D9000054670703A1A8719F91C022000F0EAFD16
:101DA000B8702D18AE19F47000F0D8FD0021B17193
:101DB000902171713071E81D01B0F0BD0C0B002055
:101DC000F0B585B00246400707D01646F0B289B29A
:101DD000FFF74AFC80B205B0F0BD844D85487844D9
:101DE0000090814C1646102717400804049677D0BF
:101DF000002F75D10291039200F0E2FD002808D077
:101E000080210022204600F0E7FD012000F0FCF8D0
:101E1000F2E7A8682978092908DD0A29029A0ED074
:101E200001900B2922D17548784404E001900729DC
:101E30000098029A17D191B200F01EFA1DE0FF201F
:101E4000063096B2864200D3CBE0A27053202070B9
:101E5000100A60700321204600F0A6FD6448314658
:101E600000F0A2FD27E0002900D1B7E0F0B291B266
:101E7000FFF7FAFB002800D0B0E0287800281AD03D
:101E80007D20000101990E185D487844052100F07D
:101E90008BFD80210022204600F09EFDA868B04204
:101EA00000D398E0FFF728FE00F08AFD0028F0D16B
:101EB00028780028E8D10020A8712870688004994B
:101EC000890687D44C487844052100F06DFD0498BC
:101ED00040B20028039A03D5052000F057FD039A6D
:101EE000002F434F04D1500672D40020A8712870EF
:101EF0000020688043487844052100F055FD80218A
:101F000000262046324600F067FD03280FD3A17853
:101F1000627812025118C91C814208D1FFF7ECFD0A
:101F200028780028E6D068880028E3D001E02E70E9
:101F3000DEE73978B02900D04CE77978A72910D0AE
:101F400002291DD0012900D044E7B978FA780A4364
:101F500000D03FE70720049E0640FFF70DFF014633
:101F600031E0B978FA780A4300D033E720494E705F
:101F7000902008707F20C043049E0643022122E087
:101F8000B978FA780A4300D024E700F0CBFCAA28FD
:101F900010D10120164F3870B81C402100F0B6FC5B
:101FA0007870811C89B290227A54C11C89B27E5407
:101FB000011D05E085200E49487069200870022146
:101FC0000720049E0640F2B2700700D10BE7FDE641
:101FD0006888401FFEE60520FFF7D5FC0420FFF7C8
:101FE000D2FC0220FFF7CFFCB8080020100C002024
:101FF0000C0B0020F7FCFFFFEA320000BDFCFFFFE6
:1020000026330000BA320000B0B504460F487844C9
:10201000052100F0C9FC0B4D80210022284600F06C
:10202000DBFC2878152808D80121814006480142A8
:1020300003D0002C01D00020B0BDFFF75DFD411E94
:102040008841B0BDB808002020702000A2310000F7
:10205000F0B581B0009205464A4CA1420FD00F4620
:10206000484C40262046314602F02EFC009A402A79
:1020700000D332462046394602F02FFC414CA0786E
:1020800001280ADC00282ED001286AD1E01C042196
:10209000FEF72EFB4021204630E002282CD00528F8
:1020A0005FD12079E17809020818374E316800279E
:1020B00081425DD13068002823D00098401F82B251
:1020C00032490B68934200D20868224681B23B290C
:1020D00000D33B2085B22E4C2068511D2A4602F0C9
:1020E000FCFB246833E00027A77167712771E77054
:1020F00040212046A8473BE022484021A84700272E
:1021000036E0A07961790902091822480160016866
:102110004122920091422BD800681C4908606078E7
:102120002278120210181C4A10600A680098C01F1A
:1021300083B29A4200D2086881B2392900D339208B
:1021400085B2E11D154C20462A4602F0C2FB0F481D
:102150000168491B016060190D4908603068401C26
:1021600030600A480068002801D0012707E00227F4
:1021700005480021016006480160044801603846B6
:1021800001B0F0BD380C0020780C0020800C00203D
:10219000840C00207C0C0020880C00200C0B0020FC
:1021A0000348002101600348016003480160704753
:1021B000780C0020840C0020800C0020F0B581B049
:1021C000274A1568274B1968002921D0002D1FD0F8
:1021D0000090274C671D3B263846314602F074FBC1
:1021E000204A0520A07023480168090A2170006870
:1021F00060701D490868000AE0700868207109686D
:10220000106800290CD03B2800D81668384612E028
:1022100015480021016011601448017019601DE02B
:10222000392801D9392600E016681068000A607163
:102230001068A071E01D2946324602F04EFB094BA2
:10224000009A07491868801B1860A8190860064999
:102250000868401C086006484021904701B0F0BD66
:10226000840C0020800C0020780C0020100C002032
:10227000380C0020880C002080B500290BD0064ABD
:1022800000231360054A1160054A064B1360064A95
:102290001160FFF793FF80BD780C0020800C0020B8
:1022A000840C00200C0B00207C0C002081B0F0B5C9
:1022B00090B015930990002800D1ADE10D46022998
:1022C00000D2A9E114460998294602F0FDFA15A8A2
:1022D0000B902078002800D19EE1691E0891012111
:1022E00006910026089D002805D0252803D0A019B6
:1022F0004078761CF7E7AE4200D32E460998214677
:10230000324602F0EAFAAD1B089500D184E1099843
:1023100080190990A05DA419252800D077E1641CDC
:1023200000202023074607902178641C00222D29D5
:102330000DDC1046F8D0252900D1E1E02A2900D093
:1023400064E12078732800D061E1022028E0472969
:102350002BDC0A46303A0A2A11D20A971F4630224D
:102360000B465340079D2B4300D03A460A23079D56
:102370006B4359183039079113460A9FD4E72E2929
:1023800000D043E120782A2800D040E16078482836
:1023900004D0732802D0682800D03BE1641C0120DF
:1023A0000B990A1D0B920F68BEE7672909DC6229A9
:1023B0000FDC482900D1A5E0582900D026E10120F2
:1023C00020E0722917DC682900D19FE0702918D01D
:1023D0001CE1632900D19EE0642900D016E10B982E
:1023E000011D0B910068C11742184A40C10F00201F
:1023F00002900A270DE0732900D199E0782900D0D6
:1024000004E1002002900B98011D0B91026800214D
:102410001027079E0A9297420393049101D9012540
:1024200011E0721E384605461646002138462A46F7
:102430000B4602F01BFA4A1E91410A9A904202D8BA
:10244000721E0029EFD007960026049900290594F2
:1024500001D1019101E0F0430190039B0798401ADC
:102460000029069C09D0D9B200263029344604D16F
:102470000CA92D220A700126069C811E0D290BD85D
:10248000411E09D00CA88019DAB202F02AFA079886
:10249000301801994018461E002C03D10CA82D219C
:1024A0008155761C002D1AD03C460298002802D097
:1024B000604F7F4401E05E4F7F440A98294602F056
:1024C0005FF8214602F0E2F8785C0CA988552846AE
:1024D000214602F055F8761CAC420546EDD9089C21
:1024E000A64200D326460CA90998324602F0F5F917
:1024F000A41B0894059C00D18EE00998801984E003
:1025000025200CE02546484A7A4402E02546474A01
:102510007A44069B10E00B98011D0B910068099905
:1025200008700898401E089076D00998401C6CE00E
:1025300025463C4A7A4400230B990C1D0B94C0B2EB
:10254000096802283CD001282C460AD000283746CA
:1025500007D1254600200C5C401C002CFBD1471EF7
:102560002C46002B20D0002F089D4FD07800281A31
:102570000A90022D50D328460B7825461C09145D7D
:10258000099E34700F241C40135D7370022843D0E1
:102590002C460546851E099B9B1C0993491C7F1EE2
:1025A000E7D10A98089031E0089DAF423E4601D33A
:1025B0002E462F460998324602F08FF9AD1B0DE0EA
:1025C000087800282C4621D1089DAF4200D32F4621
:1025D00020220998394602F084F9ED1B08951BD09A
:1025E0000998C01909900798B0420FD9851B089E19
:1025F000B54200D3354620220998294602F071F9E8
:10260000761B089608D00998401909902078002870
:1026100002D066E62A20FAE7002010B0F0BC02BC27
:1026200001B00847812C0000BD2C0000A52C000043
:10263000FD2C0000132D000010B50023052A13D334
:102640000C79521FA2420FD10A7802704A78427068
:102650008A788270CA78C2700A7902710A79002A6F
:1026600000D04A1D82600123184610BD7A460249F7
:10267000C91C891A401A70476D26D0C080B504491C
:10268000884204D30349884201D2FFF7EFFF80BD9F
:102690000000D0C00058D0C0425C120640184178FB
:1026A00009048918827812028918C07808187047BE
:1026B000B0B59CB003AD0420687041202870A81C00
:1026C0000D4C21460831402202F003F9422020221D
:1026D0002A54284643304834214602F0FAF80020B4
:1026E0000290632001900095092001036846FFF7DE
:1026F00001F81CB0B0BDC046A8040020F0B597B0EA
:1027000004AE751C4921284602F0DEF85920C000AD
:102710000C4F3C5C34700520C00139182846224615
:1027200002F0D7F8A0190849795C417000200390A5
:10273000A01C029001960920010301A8FEF7DAFF10
:1027400017B0F0BDA8040020C9020000F0B585B0A4
:10275000044600291CD02D200001474E305C012882
:1027600036D113464120C700F05962681118002B7A
:1027700032D0444B994209D3311808312046FDF735
:10278000AAFE00284BD0F05961684118F1511CE0B5
:102790006120C100384D284602F0AAF82D20000122
:1027A0000121295400202870BF208600A919204645
:1027B000FDF750FE00280DD0AA5DB5208000291835
:1027C0002046FDF75DFE002804D00920000327E025
:1027D0002A4825E02C4823E0FF235B0099421ED8BD
:1027E000311808312046FDF776FE002817D0F05941
:1027F00061684018F0510024049403903546083570
:1028000002955E20305C0090B07C01903A280DD19A
:1028100021200001311802A8FDF77AFF0CE01848CA
:10282000FEF7A8FF0446204605B0F0BD21200001B8
:10283000311802A8FDF7E3FF01280FD10120307005
:10284000F15913204001321820232846FDF73EFF9E
:1028500001983A2804D1FEF7B7F9E3E780B2DFE741
:102860000098022804D00128DDD1FEF733FAD9E719
:10287000FEF784FAD6E7C046A804002007B000009F
:1028800004B00000FF010000876A000001DF00299A
:1028900000D170470846FFF776F8000080B584B095
:1028A000002002900190034801A9FFF7EFFF04B058
:1028B00080BDC0463801006080B582B00020019024
:1028C00002486946FFF7E2FF02B080BD3C020060AB
:1028D00080B582B00020019003486946FFF7D6FF1B
:1028E000C0B202B080BDC0464F9F006010B588B036
:1028F0000A9C05940493039202910190024801A955
:10290000FFF7C4FF08B010BDBA53006080B584B0B3
:102910000191009002486946FFF7B8FF04B080BDFE
:10292000FCA8006080B582B0002001900348694691
:10293000FFF7ACFFC0B202B080BDC0463CA0006053
:1029400080B584B0002102910190034801A9FFF7EE
:102950009DFF04B080BDC0465864006080B582B061
:102960000020019002486946FFF790FF02B080BD49
:102970006E6A006080B586B001AB07C3024801A94A
:10298000FFF784FF06B080BDD474006080B584B0CA
:10299000002102910190034801A9FFF777FF04B0DD
:1029A00080BDC046BE9A006080B584B001910090A1
:1029B00002486946FFF76AFF04B080BD818300606A
:1029C00080B582B00020019002486946FFF75EFFA3
:1029D00002B080BDBB84006080B586B001AB07C388
:1029E000034801A9FFF752FF80B206B080BDC04680
:1029F000E485006080B582B00020019002486946FD
:102A0000FFF744FF02B080BDB187006080B584B09D
:102A1000002102910190034801A9FFF737FF04B09C
:102A200080BDC046060B016080B584B000210291D4
:102A30000190034801A9FFF729FFC0B204B080BD8F
:102A40008B9C0060024900200860024908607047C2
:102A5000900C00208C0C002010B507480221C1709A
:102A600001218170002444704F2101700421FFF77F
:102A70009BFF204610BDC046B808002070B582B04C
:102A80006D4600242C710320E8700220A8706C7041
:102A90004F262E7005212846FFF786FF0120E8709B
:102AA000A8706C702E7004212846FFF77DFF204629
:102AB00002B070BD10B582B001A80221C170012121
:102AC0008170002444704F2101700421FFF76CFFD6
:102AD000204602B010BD000070B582B0144800243A
:102AE0000460144804606D46AC716971012028715E
:102AF0000421E9700526AE706C704F242C70012AF9
:102B000005DC002A0AD0012A0AD1084606E0022A7A
:102B100003D0032A04D1022000E003206946887113
:102B20006846C3710821FFF73FFF002002B070BD67
:102B30008C0C0020900C0020B0B582B00D46684689
:102B40000024447140210171C570032181704470DB
:102B5000502101700621FFF727FF280601D50748FD
:102B600000E0054801687F2215400122AA400A437F
:102B70000260204602B0B0BD900C00208C0C0020FA
:102B8000B0B582B00D4668460024447180210171C1
:102B9000C570032181704470502101700621FFF738
:102BA00003FF280601D5074800E0054801687F2299
:102BB00015400122AA4091430160204602B0B0BDF9
:102BC000900C00208C0C0020080601D5054800E080
:102BD000034802787F200140012088401040704760
:102BE000900C00208C0C002010B582B0684601715A
:102BF0000321C17002218170002444704F210170B3
:102C00000521FFF7D1FE204602B010BDB0B582B05D
:102C10001C4615466846437120220271C17050213E
:102C20000170D91C8170090A41700621FFF7BCFEB2
:102C300028462146FFF7B8FE002002B0B0BD10B50F
:102C400082B06846427130220271C17003218170E6
:102C500000244470502101700621FFF7A5FE204694
:102C600002B010BDF0B581B0002814D015460E4654
:102C700004460746DC3745208100204601F024FE4B
:102C8000002E00D07E612570012038702046FFF7AD
:102C9000D9FE002000E0022001B0F0BDB0B504462E
:102CA000DC20012121541720C543601943218900EC
:102CB0004058002806D04068FFF7E0FC0246217922
:102CC000204690470835F0D12046FFF7F3FE204616
:102CD000FFF7C2FE0020B0BD002A08D00346002046
:102CE000022B03D8DB00C918F423CA507047022016
:102CF000704780B5FFF7C2FE002080BDF0B581B0FF
:102D00000C4605460026F4272846314600F05FF9B8
:102D1000002807D0E8590068FFF7B0FC02462846B3
:102D2000214690470837761C032EEDD1002001B0D4
:102D3000F0BDF0B581B00C4605460026F4272846C4
:102D4000314600F044F9002807D0E8594068FFF701
:102D500095FC02462846214690470837761C032EEC
:102D6000EDD1002001B0F0BD70B504460646D43662
:102D700035461435284600F061FBD420012121504E
:102D8000EE20205A7060317D1F200840022808D0B4
:102D900001280BD000280ED12046294600F022F948
:102DA0000EE02046294600F0C6FA09E020462946F2
:102DB00000F09DFA04E0802001402046FFF7BCFEB1
:102DC000002070BDF0B583B0029204460646DC36A2
:102DD000019100291AD00027F4252046394600F039
:102DE000F6F800280DD060598069002809D03178A4
:102DF000032906D1FFF742FC034620460199029AB7
:102E0000984708357F1C032FE7D12EE020468030FD
:102E1000416D032929D10068E16F81420AD9091A5D
:102E2000E167814200D301468AB22046029900F050
:102E30001FFD1AE00025F4272046294600F0C7F8B8
:102E400000280BD0E0590069002807D03178032909
:102E500004D1FFF713FC01462046884708376D1C54
:102E6000032DE9D1204600F00AFD002003B0F0BD9B
:102E7000F0B581B004460746D437009100291AD036
:102E80003D460026F4272046314600F0A0F80028F1
:102E90000CD0E0594069002808D0297A032905D1CF
:102EA000FFF7ECFB02462046009990470837761C56
:102EB000032EE8D145E0386802283CD1E069256A54
:102EC000A84209D9401BE061F96B4919F96382B244
:102ED000204600F0BFFC2EE0A6693046294601F0EE
:102EE000D5FBAE420CD300290AD17868864207D2BE
:102EF0000025204629462A4600F0ACFC7D601AE0F9
:102F00000025F4262046294600F061F800280BD061
:102F1000A059C068002807D0397A032904D1FFF7E7
:102F2000ADFB01462046884708366D1C032DE9D1CC
:102F3000204600F0B0FC387B012802D13946002041
:102F40003873002001B0F0BD70B50446DC200121CB
:102F5000215480204021215021620025F426204662
:102F6000294600F034F8002807D0A0594068FFF740
:102F700085FB024621792046904708366D1C032DBB
:102F8000EDD1002070BD0174002070470020704713
:102F90000020704770B50446DC20205C032814D163
:102FA0000025F4262046294600F011F8002808D014
:102FB000A059C069002804D0FFF760FB01462046F5
:102FC000884708366D1C032DECD1002070BD022906
:102FD00006D8C9004018F4214058411E8841704766
:102FE0000020704780B54A78042A08DD072A0FDCE4
:102FF000052A14D0062A1BD100F021F81DE0002A72
:1030000010D0012A17D0032A12D100F02AF914E0B7
:10301000082A0AD0092A0BD100F0B1F80DE000F01F
:103020008BF80AE000F0F9F807E000F0DFF804E0C0
:1030300000F06EFB01E000F031F9002080BDB0B57A
:1030400082B00D46044601A8002101802046F030E0
:103050006B881A0A052A11DC012A1AD0022A21D00B
:10306000032A32D1D9B2022934DC002958D00129EF
:103070005CD0022929D10068C0680CE0062A19D06A
:10308000072A1FD00F2A20D10068C069002802D16A
:103090001BE000680068FFF7F1FA0246207C01A9F6
:1030A00090472BE04068002829D0217C00291FD0C0
:1030B000C06A1EE0217C002907D14068002804D0A6
:1030C000406B16E0217C00290DD02046294600F0F7
:1030D0001FFB23E0032926D004292AD00529F4D197
:1030E00000688069D7E740680028EED0006B00E0F8
:1030F000806AFFF7C3FA014601A88847014601A884
:103100000288002A0AD0E888002807D0824200D32B
:10311000024601A80280204600F086FB02B0B0BD46
:1031200000684068B7E700680069B4E70068806835
:10313000B1E700684069AEE770B5044688880028AA
:1031400007D1C888002804D12646DC363078032809
:1031500003D1204600F0DCFA70BD88787F25054059
:10316000B57020462946FFF73FFD204600F087FB5B
:10317000002D01D0022000E00120307070BD70B53C
:103180000D4604468E78022E1CD2DC20215C20469F
:10319000DC30032906D0022914D1002E22D00321CD
:1031A000017008E0002E12D06068B0421AD0C1B29F
:1031B0002046FFF7BEFD666020463146FFF79EFDC4
:1031C00002280FD12046294600F0A2FA70BD002146
:1031D00061600221017020463146FFF7AAFD2046BA
:1031E00000F04DFB204600F04AFB70BD80B5CA8858
:1031F000012A0AD1DC22825C032A09D0022A04D1E6
:10320000002181600146083103E000F081FA80BDB1
:10321000011D012200F008FB80BDB0B50446DC2092
:10322000205CFE220240022A0FD12046DC30012120
:10323000E16025460C35806800280AD0204600F061
:103240002AFBE1680220084304E0204600F060FA0F
:10325000B0BD0320E06002222046294600F0E4FAD7
:10326000B0BDB0B504464888012816D10D46E4200B
:1032700001212150287902280CD8C0002018F421FF
:103280004058002806D08068FFF7F8F9024620462B
:1032900029469047204600F0F2FAB0BDB0B50D4681
:1032A0000446DC20205CFE21014002291AD16888F6
:1032B00001281BD12046DC300021816028790228BA
:1032C0000CD8C0002018F4214058002806D080688F
:1032D000FFF7D4F90246204629469047204600F0E1
:1032E000CEFAB0BD2046294600F012FAB0BDB0B506
:1032F0000D460446DC20205C032816D128790228DC
:1033000013D8C0002018F421405800280DD0806840
:10331000FFF7B4F90246204629469047E88800287E
:1033200007D1204600F0ABFA03E02046294600F022
:10333000EFF90020B0BDB0B582B00D460446097962
:103340007F200840072804D32046294600F0E0F9F2
:1033500071E0022912D82A7860231340202B0DD166
:10336000CA00A218F423D258002A07D09068FFF7A9
:1033700085F902462046294690475CE06A78002A93
:103380000AD0012A11D0032A55D1DC20205C032861
:103390001AD002280FD0D7E7DC22A25C032A2ED055
:1033A000022AD1D100280BD145E0DC22A25C032AFD
:1033B00031D0022AC8D180200A460243802A3AD05E
:1033C0002046FFF7B9FB36E06888002807D1802047
:1033D0000843802803D02046FFF7AEFB2979022955
:1033E00026D8C8002018F4214058002820D0806832
:1033F000FFF744F9024620462946904718E0204648
:10340000FFF7E2FB411E884101A908800222204605
:1034100000F00AFA0FE06A88002A0CD1002807D0D1
:103420002046FFF7ADFB2879022801D8C000D9E774
:10343000204600F024FA002002B0B0BD0A780270E5
:103440004A7842708A78CB781B029A1842800A79AF
:103450004B791B029A1882808A79C97909028918E6
:10346000C180704710B504468021FFF765FB00213D
:103470002046FFF761FB10BDF0B583B00E46054650
:1034800002A80024048001A8047009786020084084
:1034900010D0202837D1707801460A39022932D35A
:1034A00002281BD0032819D02846314600F030F9F5
:1034B000022428E070780B2813D00A280ED00628A2
:1034C00021D1F078002421280FD02228224621463D
:1034D00016D102AF384600F049F80AE001A90122EE
:1034E0000EE0284600F0CBF90DE002AF384600F0C0
:1034F00029F801463A88F088824200D302463A8091
:10350000284600F091F9204603B0F0BDF0B581B037
:10351000044682210326402532462B46FFF7DCFA7B
:1035200002272046394632462B46FFF7D5FA204679
:1035300039462A46FFF783FB002001B0F0BD00208A
:10354000704700000146EC20064A125C0020002A69
:1035500001D0034600E009230B80002A01D1024874
:1035600078447047940C0020781C00000146EC2041
:10357000064A125C0020002A01D0034600E0222304
:103580000B80002A01D1024878447047940C002037
:10359000591C000080B5022903D103487844FEF786
:1035A0000DFE002080BDC04639E5FFFFB0B5022901
:1035B0001AD1144602214022FFF741FB0B4DA87996
:1035C000002811D10220FEF723FA02460948784468
:1035D0002146FEF73DFD022806D107202870012074
:1035E000A8710348006868800020B0BD100C00205E
:1035F0007C0C002007E5FFFF70B5044683210325FE
:1036000040262A463346FFF767FA204629462A46CF
:103610003346FFF761FA204629463246FFF70FFB93
:10362000002070BD002070470020704780B503293E
:1036300003D103487844FEF7C1FD002080BDC04699
:10364000B1E4FFFFB0B503291AD11446032140228B
:10365000FFF7F5FA0B4DA879002811D10320FEF7EA
:10366000D7F90246094878442146FEF7F1FC0228C2
:1036700006D10B2028700520A871034800686880D7
:103680000020B0BD100C00207C0C00207FE4FFFF68
:1036900012200880014878447047C0468E1D000003
:1036A00004200880014878447047C046901D0000FF
:1036B0000E200880014878447047C046841D0000F1
:1036C0000E200880014878447047C046821D0000E3
:1036D0000A200880014878447047C046801D0000D9
:1036E0000E200880014878447047C046621D0000E3
:1036F0000E200880014878447047C046521D0000E3
:1037000039200880014878447047C046FD1A0000FF
:1037100080B50A7852B2002A02D4FFF7A3FE80BD1A
:103720004A78772A0CD0062AF7D14A88144B9A4255
:10373000F3D1CA88122A00D31222124979441CE01C
:103740008A88042A06D1CA88282A00D328220E494A
:10375000794412E08A88052A06D1CA88922A00D3C1
:1037600092220A49794408E08A88072AD5D1CA8872
:10377000B22A00D3B2220649794400F055F880BD40
:10378000EE030000201B0000101D00000A1B0000BB
:10379000881B0000B0B50446452085001548294621
:1037A00001F092F814480C30122101F08DF8002C31
:1037B0001BD0104C2046294601F086F80F49794469
:1037C000002520462A46FFF74DFA0D4A7A4428463E
:1037D0002146FFF781FA01200A4A7A442146FFF781
:1037E0007BFA2046FFF785FAB0BD0248FFF756FA8C
:1037F000B0BDC046940C0020100C00207E1A0000C2
:10380000E81B0000121C00004021018001487844A0
:103810007047C0467A1C00000A21018001487844A4
:103820007047C046AA1C0000B0B50C46D421022344
:1038300043508261C2610146D431CC63016A914236
:1038400000D80A4693B2002529462246FFF7DEF942
:103850002846B0BDB0B50C46016A914200D80A4670
:1038600093B2002529462246FFF7D0F92846B0BD7D
:1038700010B500242146FFF7E2F9204610BD10B52F
:10388000D421042242500024214622462346FFF739
:10389000BDF9204610BD10B5D421052242500024A8
:1038A00021462246FFF7CBF9204610BD10B511493D
:1038B0000A780120012A1BD8521E0C235343CB182F
:1038C0009A8B002A14D05969002911D01B8B002B28
:1038D00005D194006418241F2468E41C08D1934285
:1038E00005D29A005118091F0968891C00D00020D0
:1038F00010BDC046B007002010B50E490A7801205F
:10390000012A16D8521E0C235343CB189A8B002A37
:103910000FD0596900290CD01B8B541E9C4208DD26
:10392000921E9A4204DD9A0051184968891C00D001
:10393000002010BDB00700200948017800290CD0F4
:103940000C224A431118C8898989814201D9012072
:1039500004E0814201D2FF2000E0002040B2704725
:10396000B007002070B50146154A1078012826D806
:10397000401E0C234343D218958B002D1FD0546951
:10398000002C1CD0012D1AD0138B6E1E9E4216DD0A
:1039900016461836AD1E9D420ADB9D002C19646840
:1039A000A51C0CD0E41C03D100213180518304E01C
:1039B0005C1C34805383002901D000F039F870BDBD
:1039C000B007002080B50120FFF7CCFF80BD0000CC
:1039D000B0B516490878012826D8401E0C2242436B
:1039E00089188A8B002A1FD04C69002C1CD0012A10
:1039F0001AD00D8B0B461833002D09D0AA001219CE
:103A0000121F1268921C0FD06A1E1A804D8309E0A3
:103A100095002C19241F2468E41C05D1941E1C80D9
:103A2000521E4A8300F004F8B0BDC046B007002023
:103A3000F0B581B004460C2060431A490E18706935
:103A4000318B890040580321C943884227D8374623
:103A500018371436FEF712FE31683A8892008958FA
:103A600005680846FEF70AFE002D06D00068FEF73E
:103A700005FE01462046884711E08068FEF7FEFDFE
:103A800005463068398889004058FEF7F7FD4068E0
:103A9000FEF7F4FD02462046294600F05DF801B02D
:103AA000F0BDC046B0070020F0B581B029480178CC
:103AB000012925D84C1E0C2161434518A98B0029EA
:103AC0001ED0686900281BD02A8B8A4218D22F4644
:103AD00014372E46183691004058FEF7CFFD806807
:103AE00000280FD03868318889004058FEF7C6FD9D
:103AF0008068FEF7C3FD01460022204600F02CF846
:103B000001B0F0BD28461C3000880028F8D0801E87
:103B100032889042F4DB396893005B185B68DF1CE5
:103B200010D09B1CECD11346920052185268921C84
:103B300004D15B1C33809AB29042F5DA581C308075
:103B40006B8302E00020308068832046FFF770FF1F
:103B5000D6E7C046B007002070B5002800D070BD81
:103B600014460D46194E301D1A2100F0ADFE002DF1
:103B7000F5D02846FEF782FD7061B18B8A0082582D
:103B8000521C06D0491C8AB292008258521CF9D1AC
:103B9000B183002C16D02046FEF770FD04467069F4
:103BA000318B89004058411C0CD0FEF767FDA042C4
:103BB00008D0308B7083401C3083716980B28000E4
:103BC0000858F0E70020FFF733FF70BDB007002072
:103BD00080B50A49884208D00949884208D0094975
:103BE000884208D1FFF7F4FE05E0FFF75DFF02E031
:103BF0000120FFF7B7FE002080BDC0460300008013
:103C0000020000800100008010B50146002000295C
:103C10000FD1084CA18B228B8A420AD26069FEF731
:103C20002DFD218B89004058FEF728FD4068FEF7E6
:103C300025FD10BDB007002080B503480078401E68
:103C4000FFF7E2FF80BDC046B007002010B5044674
:103C500000F00CFC2420604308490818C821052204
:103C60004254C421064A7A444250D421054A7A4437
:103C70004250C1210122425410BDC046B00700206D
:103C80006E1800005FFFFFFF80B500F089FB002881
:103C900007D0A12203498A5C112A02D1B822024B23
:103CA0008B5280BDB00700200A80000010B504468A
:103CB000FFF7CCFF2420604304490818D021044AB0
:103CC0007A444250204600F0ABFB10BDB007002004
:103CD000C5FFFFFFF0B581B0009316460F460546BD
:103CE000FFF7B4FF094C6168221D0A23384600F033
:103CF00055F9242068432018D4214650D021009A39
:103D00004250284600F08CFB01B0F0BDB007002007
:103D100010B50446FFF790FF4168044A7A44044B0B
:103D20007B442046FFF7D6FF10BDC04615000000BB
:103D30002500000080B50349794400F0F9F800201F
:103D400080BDC046D5FFFFFF10B50446FFF774FFE6
:103D500006C8204600F04EF810BD0000F0B583B054
:103D600000920E4602901A4C277B0025E8430190F2
:103D7000FFF7E2FD012804D0401C06D101986060E5
:103D800000E06560A560E56025612773029800F09A
:103D90006DFB412080002058304301D10D4E7E4400
:103DA000009F221D0A233046019900F0F7F8A06019
:103DB000002805D0401E6168814205D9606003E09B
:103DC0006560A560E56025610298B84703B0F0BD65
:103DD000B0070020110D000010B50446FFF714FFD6
:103DE0004168034A7A442046FFF7B8FF10BDC04639
:103DF00029FFFFFFF0B583B015460E460746464C37
:103E0000A03420222046394600F067FD787810283B
:103E100018DC01282DD0022834D0102878D1002EAB
:103E200058D03D498D6830460E46FEF727FC0346C4
:103E30007068B168401C00900191012D55D8394A35
:103E40007A4454E001461139032961D20F21084018
:103E500001285DD13048068A002E59D07F2E00D32C
:103E60007F260291002D19D02846FEF707FC2A4F25
:103E700018E0FFF71BFD00284AD0274840680028BB
:103E80000AD045E0FFF738FD002841D022494868B4
:103E90008968491E88423BD1002439E041208000D6
:103EA0001D4F3858F989401800903D462035802133
:103EB0001E4A7A4428463346FEF7F8F9BC203D50A6
:103EC000397B0298014015480F2900D0801CB82189
:103ED00078521DE0104E7168B06800903046203076
:103EE0004B1C8021104A7A4404E00D4A7A44304643
:103EF00020308021FEF7DAF930462030BC217050A6
:103F00000648317B09090E2900D8801CB82170525F
:103F1000204603B0F0BDC046B00700200880FFFF78
:103F2000881600003F1700009C160000650B00007B
:103F300080B5164A90420BD0154A904213D0154ACC
:103F400090420FD114484268002A1BD0521E14E040
:103F500011498868002803D04968401E884201D171
:103F6000FFF7A2FD80BD0C48426883685B1E9A4241
:103F700002D1FFF727FD80BD521C42600078401E31
:103F8000884780BDFFF724FD80BDC0460300008048
:103F90000200008001000080B0070020F0B58DB065
:103FA00000239381029353814B1C059303D05368E4
:103FB0008B4200D8AEE004910392002802D0FEF7B5
:103FC0005DFB03E04120800054490858044600F09E
:103FD000D1FC014601200290012900DA9AE066181E
:103FE0004E48027B0F200C90024000200790019465
:103FF0000896B442204600D83046001B06900023A5
:1040000020460994E518B54239D21F460A905B1C38
:10401000180624D000210B931E46207840B2C3B26C
:10402000202B0CD300280AD43D4878441818203897
:1040300003780F2A08D10C980340C91806E00A2B10
:1040400008D00D2B02D105E018090918761E641C52
:104050003006E2D17229089E099C0B9B11D8297861
:1040600008460938022806D3202904D02D2902D079
:104070005F2900D00A9D28460A29C3D103E0069B88
:1040800001E03B460A98E118B14215D2002B13D04B
:10409000A04211D007461D46481E03782C2B06DC93
:1040A00018460938022806D3202B04D018E02D2BFF
:1040B00001D05F2B14D12B4605980028049906D017
:1040C0000798884203D10398406888421DD8E418B5
:1040D000B44202D20798401C0790B44289D310E042
:1040E00009782C292B4606DC084609380228E3D338
:1040F0002029E1D003E02D29DED05F29DCD03B1B55
:10410000DAE70798401C029004E003998B8101983C
:10411000201A488102980DB0F0BDC046B0070020BB
:104120005E150000F0B581B00646FFF785FD054637
:10413000114F3C46A03420222046314600F0CDFBF2
:1041400070780F2806DC01280AD0022811D1FFF769
:10415000D3FB07E0102809D011280AD1686806E0CF
:10416000FFF7A4FB002804D0002402E02868BC214B
:104170007850204601B0F0BDB007002010B50446CD
:1041800000F074F9242060430B490818C821052267
:104190004254C421094A7A444250D421084A7A44FC
:1041A0004250D021074A7A444250C1210122425450
:1041B000204600F035F910BDB00700205214000071
:1041C0002FFAFFFF7BFFFFFFF0B581B00646FFF738
:1041D00033FD0546144F3C46A0342022204631468C
:1041E00000F07BFB70780F2807DC012811D0022833
:1041F00012D00F2815D1286808E01038022810D2F4
:10420000A120385C0007800E28184068BC21785037
:1042100007E0FFF74BFB01E0FFF76EFB002800D043
:104220000024204601B0F0BDB007002010B50446C0
:1042300000F01CF92420604308490818C821062210
:104240004254C421064A7A444250D421054A7A4451
:104250004250C1210122425410BDC046B007002087
:10426000421400007FF9FFFF10B5044600F0FEF88D
:10427000242060430B490818C82106224254C42157
:10428000094A7A444250D421084A7A444250C12112
:1042900001224254D021064A7A444250204600F07E
:1042A000BFF810BDB00700200614000043F9FFFF5F
:1042B0002DFFFFFFF0B581B00646FFF7BDFC0546B8
:1042C000114F3C46A03420222046314600F005FB29
:1042D00070780F2806DC01280AD0022811D1FFF7D8
:1042E0000BFB07E0102809D011280AD1686806E006
:1042F000FFF7DCFA002804D0002402E02868BC2183
:104300007850204601B0F0BDB007002010B504463B
:1043100000F0ACF8242060430B490818C82105229E
:104320004254C421094A7A444250D421084A7A446A
:104330004250D021074A7A444250C12101224254BE
:10434000204600F06DF810BDB007002022140000D8
:104350009FF8FFFF7BFFFFFF80B5FFF735FF0028C9
:1043600007D0A12203498A5C102A02D3B8220A236B
:104370008B5280BDB007002010B50446FFF756FFF2
:104380002420604304490818D021044A7A4442504A
:10439000204600F045F810BDB0070020C9FFFFFF20
:1043A000F0B581B00646FFF747FC0546114F3C4685
:1043B000A03420222046314600F08FFA707802287F
:1043C00004D0012808D1FFF771FA01E0FFF794FA51
:1043D00000280BD0002409E0A120385C0106090F59
:1043E00004D00007800E2858BC217850204601B028
:1043F000F0BDC046B007002010B5084C207800285A
:104400000AD12046C030242100F05EFA002060610D
:10441000A061E06101202070401E10BDB0070020A7
:10442000B0B504461048017800290ED0621C8A42BB
:104430000BD1242161434518FDF7CAFBC22000219E
:104440002952204600F022F8B0BD0022D243A21A21
:10445000531E9A414B1E99410A4204D14178AA2920
:1044600001D169214170B0BDB007002010B50446EC
:10447000FDF7AEFB002C00D010BD0348C030242156
:1044800000F022FA10BDC046B0070020F0B581B0A0
:1044900004460420FEF7C8FA002839D0972837D000
:1044A000242060431B490C18C420205800282FD01A
:1044B0002546C4352646C2362746D037C83430880C
:1044C000217880B2884223D2FEF77AFA00281FD1E1
:1044D000FEF7FEF9AA2803D1FEF724FAAA2817D17D
:1044E00028683188490140183968002902D0884776
:1044F000002807D0012803D12868318849014018D5
:10450000FCF728FE3088401C308029680029D7D16C
:1045100001B0F0BDB007002080B5002802D0FEF742
:10452000C7F802E00248FDF725F9FDF711FA80BD52
:104530008569000010B5002809D00B4C02202070BE
:10454000FCF73CF8002807D4FEF7D8F809E0064845
:1045500000210170054802E0002020700448FDF7AA
:1045600009F9FDF7F5F910BDA804002085690000E0
:1045700008B00000130A435440184270704700000E
:10458000002243088B4274D303098B425FD3030A92
:104590008B4244D3030B8B4228D3030C8B420DD3A5
:1045A000FF22090212BA030C8B4202D31212090233
:1045B00065D0030B8B4219D300E0090AC30B8B4271
:1045C00001D3CB03C01A5241830B8B4201D38B031F
:1045D000C01A5241430B8B4201D34B03C01A5241C4
:1045E000030B8B4201D30B03C01A5241C30A8B4207
:1045F00001D3CB02C01A5241830A8B4201D38B02F2
:10460000C01A5241430A8B4201D34B02C01A524195
:10461000030A8B4201D30B02C01A5241CDD2C30907
:104620008B4201D3CB01C01A524183098B4201D383
:104630008B01C01A524143098B4201D34B01C01A6E
:10464000524103098B4201D30B01C01A5241C308E6
:104650008B4201D3CB00C01A524183088B4201D355
:104660008B00C01A524143088B4201D34B00C01A41
:104670005241411A00D20146524110467047FFE7AD
:1046800001B5002000F0F0F802BDC0460029F7D0C7
:1046900076E7704703460B437FD4002243088B42E2
:1046A00074D303098B425FD3030A8B4244D3030BB9
:1046B0008B4228D3030C8B420DD3FF22090212BA7E
:1046C000030C8B4202D31212090265D0030B8B42FA
:1046D00019D300E0090AC30B8B4201D3CB03C01AE4
:1046E0005241830B8B4201D38B03C01A5241430BBF
:1046F0008B4201D34B03C01A5241030B8B4201D3AF
:104700000B03C01A5241C30A8B4201D3CB02C01A19
:104710005241830A8B4201D38B02C01A5241430A91
:104720008B4201D34B02C01A5241030A8B4201D380
:104730000B02C01A5241CDD2C3098B4201D3CB0127
:10474000C01A524183098B4201D38B01C01A5241D6
:1047500043098B4201D34B01C01A524103098B42DA
:1047600001D30B01C01A5241C3088B4201D3CB00C5
:10477000C01A524183088B4201D38B00C01A5241A8
:1047800043088B4201D34B00C01A5241411A00D258
:1047900001465241104670475DE0CA0F00D04942C1
:1047A000031000D34042534000229C4603098B4231
:1047B0002DD3030A8B4212D3FC22890112BA030AB9
:1047C0008B420CD3890192118B4208D3890192113B
:1047D0008B4204D389013AD0921100E08909C309C0
:1047E0008B4201D3CB01C01A524183098B4201D3C2
:1047F0008B01C01A524143098B4201D34B01C01AAD
:10480000524103098B4201D30B01C01A5241C30824
:104810008B4201D3CB00C01A524183088B4201D393
:104820008B00C01A5241D9D243088B4201D34B00AE
:10483000C01A5241411A00D20146634652415B10F0
:10484000104601D34042002B00D5494270476346D1
:104850005B1000D3404201B5002000F005F802BD16
:104860000029F8D016E770477047C046F0B5CE462D
:10487000474680B5070099463B0C9C4613041B0C29
:104880001D000E0061460004140C000C45434B4310
:1048900060436143C0182C0C20188C46834203D916
:1048A00080235B029846C444494679437243030C13
:1048B00063442D042D0CC918000440198918C0BC8C
:1048C000B946B046F0BDC04610B5002200F009F868
:1048D00010BD10B500F010F810BD10B500F015F8BF
:1048E00010BD0B0010B511001A0000F021F810BD2A
:1048F00010B500F046F810BD002310B59A4200D163
:1049000010BDCC5CC4540133F8E710B5884202D91D
:104910008B18984203D3002307E08B5C8354013A41
:10492000FBD210BDCC5CC45401339A42FAD1F8E7F3
:1049300003008218934200D1704719700133F9E7E0
:10494000F0C041464A4653465C466D4676467EC0B8
:104950002838F0C80020704710307CC8904699462F
:10496000A246AB46B54608C82838F0C8080000D1B2
:10497000012018470023C25C0133002AFBD1581ED6
:10498000704710B50A000021FFF7D2FF10BD313289
:104990003334353637383941424344454647484A2F
:1049A0004B4C4D4E505152535455565758595A61CD
:1049B00062636465666768696A6B6D6E6F70717259
:1049C000737475767778797A2F00436F6E666972A3
:1049D0006D20616464726573730050617468004196
:1049E00064647265737300417070726F7665005213
:1049F000656A656374003078252E2A480052657612
:104A0000696577007472616E73616374696F6E00BB
:104A1000416D6F756E7400424F4C20252E2A730035
:104A200054696D657374616D700054656D702070AC
:104A300075626C6963206B6579005374617274757B
:104A400070206164647265737300417574686F727D
:104A5000697A650073746172742075700053656EB5
:104A6000642066726F6D20796F757200546F2072CA
:104A7000656370206164647265737300416D6F7566
:104A80006E743A2000546F2072656370203120618B
:104A900064647265737300546F20726563702032B2
:104AA000206164647265737300416D6F756E74206C
:104AB000313A2000416D6F756E7420323A2000004B
:104AC000784ED0C0CA49D0C00D43D0C0C04AD0C073
:104AD0000000000000000000DA49D0C00002002001
:104AE000D93DD0C0D84AD0C000000000000000006E
:104AF000DF49D0C03C020020D93DD0C0F04AD0C030
:104B00000000000000000000C10AD0C0000000004A
:104B10000000000000000000084BD0C0FFFFFFFFB6
:104B2000F04ED0C0E749D0C07D41D0C0204BD0C0AE
:104B3000184BD0C000000000D10AD0C00000000017
:104B40000000000000000000384BD0C0FFFFFFFF56
:104B5000084ED0C0EF49D0C07D41D0C0504BD0C02E
:104B6000484BD0C000000000C84AD0C0E04AD0C0C6
:104B7000F84AD0C0284BD0C0584BD0C0FFFFFFFF31
:104B80003A4AD0C0BC020020D93DD0C0804BD0C032
:104B90000000000000000000A90BD0C000000000D1
:104BA0000000000000000000984BD0C0FFFFFFFF96
:104BB000F04ED0C04A4AD0C0544AD0C06942D0C09A
:104BC000B04BD0C0A84BD0C000000000884BD0C074
:104BD000BC4BD0C0584BD0C0FFFFFFFFB90BD0C0BB
:104BE000000000000000000000000000DC4BD0C00E
:104BF000FFFFFFFFF04ED0C0E749D0C0E802002021
:104C00006942D0C0F44BD0C0EC4BD0C000000000D3
:104C1000004CD0C0584BD0C0FFFFFFFF5D4AD0C052
:104C20000C030020D93DD0C01C4CD0C000000000B7
:104C3000000000006C4AD0C038030020D93DD0C02D
:104C4000344CD0C000000000000000007C4AD0C0FE
:104C500064030020AD3CD0C04C4CD0C0000000002C
:104C600000000000C50CD0C00000000000000000E3
:104C700000000000644CD0C0FFFFFFFFF04ED0C02A
:104C8000E749D0C0044AD0C06942D0C07C4CD0C0F3
:104C9000744CD0C000000000244CD0C03C4CD0C0AC
:104CA000544CD0C0884CD0C0584BD0C0FFFFFFFF41
:104CB000854AD0C038030020D93DD0C0B04CD0C008
:104CC0000000000000000000974AD0C078030020D8
:104CD000D93DD0C0C84CD0C000000000000000008A
:104CE000A94AD0C064030020AD3CD0C0E04CD0C085
:104CF0000000000000000000B44AD0C0A40300205F
:104D0000AD3CD0C0F84CD0C0000000000000000056
:104D1000244CD0C0B84CD0C0E84CD0C0D04CD0C08F
:104D2000004DD0C0884CD0C0584BD0C0FFFFFFFF13
:104D3000547265650000000000000000FFFFFF00E6
:104D4000FFFFFFFF7FFE3FFC1FF80FF07FFE3FFCE1
:104D50001FF80FF047E27FFE7FFE7FFEFFFFFFFFA1
:104D6000100000001000000001000000384DD0C00D
:104D7000404DD0C000000000FFFFFF00E001FEC179
:104D8000FD387F06DF81FFC47FF3FFBC1FE7E7F13B
:104D90003FF80778000000000E0000000E00000041
:104DA00001000000744DD0C07C4DD0C00000000058
:104DB000FFFFFF000000FEC1FF3030EC0D03C3DE3B
:104DC0003030EC0D03C3C0F03FF8070000000000D6
:104DD0000E0000000E00000001000000AC4DD0C02D
:104DE000B44DD0C000000000FFFFFF00008001E6CE
:104DF000C071383807FC001E8007F003CEC1E138CF
:104E000070061800000000000E0000000E000000F8
:104E100001000000E44DD0C0EC4DD0C00000000007
:104E2000FFFFFF00000000000C8007F003FEC1FF41
:104E3000F03FF003CC0033C00C0000000000000085
:104E40000E0000000E000000010000001C4ED0C04B
:104E5000244ED0C000000000FFFFFF000000000053
:104E60001EE01F1C0E03638C19630C0C87837F806C
:104E700007000000000000000E0000000E0000000F
:104E800001000000544ED0C05C4ED0C000000000B5
:104E9000FFFFFF0048124208040000000700000066
:104EA000010000008C4ED0C0944ED0C00000000025
:104EB000FFFFFF0021842401040000000700000020
:104EC00001000000AC4ED0C0B44ED0C000000000C5
:104ED000FFFFFF00000000000000C000380067E096
:104EE000381C9C037E000F800100000000000000C1
:104EF0000E0000000E00000001000000CC4ED0C0EB
:104F0000D44ED0C0697320726561647900566572B1
:104F100073696F6E00312E302E320053686F772028
:104F2000686F7420707562206B6579006D2F343462
:104F3000272F363434272F30270053686F772063AC
:104F40006F6C6420707562206B6579006D2F34344E
:104F5000272F363434272F31270053686F77206886
:104F60006F7420616464726573730053686F772097
:104F7000636F6C6420616464726573730041626F77
:104F800075740051756974005472656520617070A4
:104F90000028632920323032322054686520506561
:104FA0006E004261636B00486F7420707562206B05
:104FB00065793A00486F7420616464726573733A6E
:104FC00000436F6C6420707562206B65793A004312
:104FD0006F6C6420616464726573733A0000000052
:104FE000604DD0C0304DD0C0044FD0C07943D0C048
:104FF000E04FD0C000000000000000000D4FD0C006
:10500000154FD0C0AD3CD0C0FC4FD0C00000000058
:10501000000000008918D0C000000000000000005F
:10502000000000001450D0C0FFFFFFFF5A4FD0C057
:105030002C4FD0C0AD3CD0C02C50D0C02450D0C0DC
:1050400000000000DD18D0C00000000000000000DB
:10505000000000004450D0C0FFFFFFFF6B4FD0C0E6
:105060004C4FD0C0AD3CD0C05C50D0C05450D0C02C
:10507000000000003119D0C0000000000000000056
:10508000000000007450D0C0FFFFFFFFD04DD0C023
:105090007D4FD0C07D41D0C08C50D0C08450D0C096
:1050A000000000004519D0C0000000000000000012
:1050B00000000000A450D0C0FFFFFFFF404ED0C052
:1050C000834FD0C07D41D0C0BC50D0C0B450D0C000
:1050D00000000000EC4FD0C03450D0C06450D0C0AD
:1050E0000450D0C09450D0C0C450D0C0FDFFFFFFCA
:1050F000FFFFFFFF884FD0C0914FD0C0AD3CD0C064
:10510000F450D0C000000000000000007519D0C0AD
:105110000000000000000000000000000C51D0C0A2
:10512000FFFFFFFF984DD0C0A24FD0C07D41D0C03F
:105130002451D0C01C51D0C000000000FC50D0C091
:105140002C51D0C0FDFFFFFFFFFFFFFFB44FD0C0C9
:10515000030A0020D93DD0C04C51D0C0000000004F
:10516000000000005451D0C02C51D0C0FDFFFFFF03
:10517000FFFFFFFF2C000080840200800000008001
:10518000CF4FD0C0E90A0020D93DD0C08051D0C057
:1051900000000000000000008851D0C02C51D0C099
:1051A000FDFFFFFFFFFFFFFF2C0000808402008057
:1051B00001000080600002000030313233343536A7
:1051C000373839616263646566303132333435367D
:1051D0003738394142434445460000000921110156
:1051E000000122220006A0FF0901A1010903150008
:1051F00026FF007508954081080904150026FF0068
:10520000750895409108C0050F3900021810050077
:1052100038B60834A909A0478BFDA0768815B66575
:1052200000011E001C100500DF60DDD88945C74C59
:105230009CD2659D9E648A9F00000306B2007700A1
:105240009136D0C0A136D0C0B136D0C0C136D0C0A2
:10525000D136D0C0E136D0C0F136D0C00137D0C091
:1052600012034D005300460054003100300030005E
:105270007700920000000001050001008800000096
:10528000070000002A004400650076006900630002
:10529000650049006E0074006500720066006100E0
:1052A000630065004700550049004400730000009A
:1052B000500000007B0031003300640036003300F2
:1052C0003400300030002D00320043003900370038
:1052D0002D0030003000300034002D003000300050
:1052E000300030002D0034006300360035003600F9
:1052F00034003600370036003500370032007D00BC
:10530000000000000A00000000000306B2000800D0
:1053100001000000A800080002000100A000140025
:10532000030057494E5553420000000000000000A2
:1053300000008400040007002A0044006500760095
:1053400069006300650049006E007400650072002A
:105350006600610063006500470055004900440095
:105360007300000050007B0043004500380030000F
:1053700039003200360034002D0034004200320083
:1053800034002D0034004500380031002D0041006C
:105390003800420032002D0035003700450044003F
:1053A0003000310044003500380030004500310045
:1053B0007D000000000000000D35D0C03F35D0C09A
:1053C0007934D0C000000000000000009535D0C046
:1053D000AD35D0C00000000000000000000000005B
:1053E0000938D0C00938D0C00938D0C01938D0C069
:1053F000F935D0C02536D0C02936D0C00000000015
:10540000000000002D36D0C04536D0C0000000009E
:1054100000000000000000000938D0C00938D0C0EA
:105420000938D0C01938D0C0120110020000004065
:10543000972C1110010201020301040309040E0359
:105440004C00650064006700650072000E034E00AA
:1054500061006E006F00200053000A03300030002E
:1054600030003100280000000001040001000000AD
:1054700000000000010157494E5553420000000052
:1054800000000000000000000000000009024000D1
:10549000020102C0320904000002030000020921D7
:1054A00011010001222200070582034000010705C7
:1054B00002034000010904010002FFFFFF0207058B
:1054C0008303400001070503034000010A060002B0
:1054D0000000004001000000030000000000800008
:1054E000200000000100000000000000FFFFFF009E
:1054F0000000000000000000050102000C00040094
:105500000700000000000000FFFFFF000000000097
:1055100000000000984ED0C005027A000C00040084
:105520000700000000000000FFFFFF000000000077
:1055300000000000B84ED0C0071006000C00740038
:105540002000000000000000FFFFFF00000000003E
:105550000880000000000000071106001A00740017
:105560002000000000000000FFFFFF00000000001E
:1055700008800000000000002573202825642F25E6
:1055800064290025730025642F2564003333467792
:10559000669A8923343466663344334568666767A0
:1055A000886668676868333365666556AA78777772
:1055B000886666888834457866AB89997799786675
:1055C000768876AB6867674545456756676777565F
:1055D000776756677734456734AA77777777455684
:1055E0004577679A6767564566456676030000000B
:1055F000000080002000000001000000000000000A
:10560000FFFFFF0000000000000000000501020095
:105610000C0004000700000000000000FFFFFF0076
:105620000000000000000000984ED0C005027A0083
:105630000C0004000700000000000000FFFFFF0056
:105640000000000000000000B84ED0C00510380077
:10565000020010001000000000000000FFFFFF002B
:10566000000000000A800000000000000711000098
:105670001C0080002000000000000000FFFFFF0071
:10568000000000000880000000000000030000008F
:105690000000800020000000010000000000000069
:1056A000FFFFFF00000000000000000005010200F5
:1056B0000C0004000700000000000000FFFFFF00D6
:1056C0000000000000000000984ED0C005027A00E3
:1056D0000C0004000700000000000000FFFFFF00B6
:1056E0000000000000000000B84ED0C0050F100000
:1056F000080010001000000000000000FFFFFF0085
:105700000000000000000000000000000710290059
:105710000C0080002000000000000000FFFFFF00E0
:105720000000000008000000000000000711290030
:105730001A0080002000000000000000FFFFFF00B2
:10574000000000000800000000000000030000004E
:1057500000008000200000000100000000000000A8
:10576000FFFFFF0000000000000000000501020034
:105770000C0004000700000000000000FFFFFF0015
:105780000000000000000000984ED0C005027A0022
:105790000C0004000700000000000000FFFFFF00F5
:1057A0000000000000000000B84ED0C00510380016
:1057B000020010001000000000000000FFFFFF00CA
:1057C000000000000A800000000000000711000037
:1057D0001C0080002000000000000000FFFFFF0010
:1057E000000000000A80000000000000000000002F
:1057F00000000000000000000000000000000000A9
:04000005C0D0000166
:00000001FF
