:02000004C0DE5C
:100000002DE9F0418CB062B602F0E6FA254F4FF4CC
:1000100088746D4600264FF0010800BF09EB070009
:10002000214605F01AFB284605F058FB81B2052948
:10003000ADF82C001CD021BB284603F06BFB0A90C6
:1000400002F016FC304604F0B3FA404604F0B0FA71
:1000500002F0ACFA02F006F903F052FBA84202D11A
:100060000A9803F057FBBDF82C000028D6D017E003
:100070000A98ADF82C6003F04DFB0A9803F04AFB98
:10008000CCE70A980024ADF82C4003F043FB0A9813
:1000900003F040FB02F054F920460CB0BDE8F081BB
:1000A00002F09DFAA0040000F0B5F5B06DAE0D466B
:1000B000074630462021144605F0CFFA142C18D3F9
:1000C00002A84FF4807101F0DBF8C0B92020019044
:1000D00002A801213A464023009601F0C9F870B900
:1000E00002A801F0C1F806F10C012846142205F01F
:1000F000B7FA0020132C88BF012075B0F0BD02F0C4
:100100006EFA00002DE9F04D8EB090F800B0044674
:100110000BF07F0ABAF1050F0D910B9200F0B98038
:10012000208B154600F0E0FA002800F0B28090F82D
:1001300006C020894FF0000E08900D98002800F0AE
:100140008681002D00F08381E18843F23903643118
:1001500089B2208BCDE900310D99EAB20026CDE9B4
:1001600003120021002243F239030027D046CDF8C4
:1001700028C002960C97059600F0F2FAE188052D4A
:100180001FFA80FACDF818B0C0F0AC81514580F06C
:10019000A981208BEB4A002603217A44642343F291
:1001A0003907CDE90073CDE90262049100210022F4
:1001B00043F23903059600F0D3FA0D9AE1884FEA2D
:1001C000550EB6EB550F02EB55020C9200F08B81E9
:1001D000DDF828C08A4540F28881B5EB0E0700F0B3
:1001E000848180B20990002643F23903208BCDE947
:1001F00000310D995FFA8EF24FF0000ACDE903123B
:100200000021002243F23903F346CDF808A0CDF8CF
:1002100014A000F0A5FAE18843F2390385B2208BDF
:10022000CDE900310C99FAB2CDE903120021002288
:1002300043F23903CDF808A0CDF814A000F090FAED
:10024000099980B26A18E18802EB000A8A4540F2F7
:100250004482012E06D046B9DE46DDF828C0ABF157
:10026000010E05E00C9801300C90DDF828C0DE4648
:100270000B9DBEF1000F18BF8A4540F23681DDE9C3
:100280000C20801A47194FF0010020EA0606ABD176
:100290002BE100200C9000204FF0000E08904FF052
:1002A000000C0020079000200990E3882689E77A57
:1002B00058087108B0EB560F0A4638BF5A08BA42C0
:1002C000B84603D888422CBF88468046AAF1010070
:1002D000042807D3BAF1060F00F0BC80BAF1070F6B
:1002E00040F0D080BAF1040F08BF002F0BD0BBF153
:1002F000810FCDF828C00FDCBBF1020F13D0BBF18A
:10030000070F10D0C1E02069B4F90210B4F904203D
:10031000009603F03FFAB5E0BBF1870F03D0BBF1C5
:10032000820F40F0B2806069B4F90210B4F9042081
:10033000BAF1070F08BFA2EB0C02089F08BF3E46A8
:100340000096754603F026FAAC460B98DDF828E0D7
:10035000002800F097800D98002800F09380BAF1F3
:10036000040F00F08F805846D4F8108062690BF0BB
:100370007D00012806D1207B0128404604BF10469D
:1003800042468046079EB4F90210099DB346208B71
:10039000B4F904706B18BAF1070F08BFCEF1000B67
:1003A000E1880BEB070E491BBAF10707258918BF37
:1003B0003746CDE900E10D99ED1B0026CDE9031C80
:1003C000414602950596154600F0CAF90C99002998
:1003D00058D0B4F90420E188DDF824A00895B4F8D9
:1003E00018E083B20BEB02002A462589A1EB0A062E
:1003F000BC49ED1B79444FF0030CCDE90006CDE973
:100400000251704641460026CDF810C0059600F016
:10041000A7F9E3882589B4F90410A3EB0A0683B28F
:10042000E81B0B9F0D9D0BEB01022F440C9D218BB4
:10043000CDE9002602AA7F1BA1C2089A4FF0000C4A
:1004400008464146CDF814C000F08AF91AE00020B1
:100450000C9026E7B4F90210B4F90420237B20693C
:100460003944012B3A4404D0A37A9F4201D9FB1AA4
:1004700000E000236669FF25CDE900533B46029664
:1004800000F062FA0EB0BDE8F08D207BCDF820E0E0
:10049000012859D1B4F902102069B4F9042041446B
:1004A000A3EB4803009603F075F9B4F904202389FF
:1004B0002069B4F902104244A3EB48074346009771
:1004C00003F068F9B4F90220E188B4F9043027890F
:1004D0002069A2EB0802114408EB0302A7EB4807CE
:1004E000434694E0AE46DDF828C0208B00F440423D
:1004F000B2F5004F05D0B2F5804F08D1A1EB0A014B
:1005000002E04908A1EB5A0121EAE17100E0002173
:10051000DDF818B000F44050C246B0F5005F099114
:1005200006D0B0F5805F09D12089A0EB0C0006E071
:1005300020896FEA5C0101EB500000E00020079089
:10054000B3E600BF45560000B4F902106069B4F983
:1005500004204144A3EB4803009603F01BF9B4F9CF
:10056000042023896069B4F902104244A3EB4807D0
:100570004346009703F00EF9B4F902306FEA08021F
:10058000E188B4F904701A4423896069114408EBC6
:100590000702A3EB48074346009703F0FBF8B4F9C2
:1005A0000210E3882069B4F90420A77A4144A3EB40
:1005B0004803009703F0EEF8B4F904202389B4F956
:1005C00002101A44E3882069A77A4144013AA3EB58
:1005D0004803009703F0DEF8B4F904202789206966
:1005E000B4F90210A37A4244A7EB4807009703F03E
:1005F000D1F8E188B4F90220B4F9043027892069E0
:10060000114408EB0302A37A0139A7EB48070097CE
:1006100003F0C0F8DDF820C0B8F1020FFFF495AE8A
:10062000207BCDF818B001284FF0000B04D0A07A41
:10063000B8EB000028BF8346B4F90210B4F90420D7
:10064000D4E90407C02341444244CDE9003B43467A
:10065000029700F079F9E188A27AB4F90230B4F98E
:10066000047020691944424466693023891A08EBF2
:100670000702CDE9003B4346029600F065F9B4F964
:1006800004202389A77AB4F902101A4408EB07035F
:1006900020696769D21A0C234144CDE9003B4346E7
:1006A000029700F051F9E188A27AB4F90230B4F966
:1006B0000470194442442389891ABA1A2069676967
:1006C0001A440323CDE9003B4346029700F03CF96E
:1006D000DDF818B0DDF820C037E6DDF828C0DE46CA
:1006E00003E700BFEB530000F0B581B00E490F4E99
:1006F0007944044608687E446FF31F3488B106EBE2
:10070000800151F8045C471E284602F023FE006871
:10071000A0423846F2D1284601B0BDE8F04002F0D0
:1007200019BE002001B0F0BDB06400009E6400005E
:1007300080B586B09C464FF0000E43F23903CDE9F8
:100740000031CDE902E20021002243F23903CDF865
:1007500014E0CDF810C000F003F880B206B080BD00
:100760002DE9F04DA0B0289F43F2390583EA050634
:100770007D4056EA0504254608BF27460F970B9390
:1007800018BF1D460892CDE91021FFF7ADFF0028E4
:1007900000F0C980DDF8B0A08346B4FA84F0BAF165
:1007A000000F4FEA50100D9000F0BF80DDE92910D6
:1007B0009BF8042029440E910F992B9B0844079025
:1007C000012090400A92099013F8014BBBF80810E1
:1007D0009BF805E08C4203D3BBF80A00A0420FD27D
:1007E000C02C03D304F03F04002605E060B2B0F152
:1007F000FF3F65DD002600244FF000081CE000BF2D
:10080000DBF81000671A0C93764602F0A3FDDBF8C4
:100810000C100446084602F09DFD00EB870041885D
:10082000DBF80C0004EB010802F094FDB6460C9BCB
:1008300010F827409BF807600F9A0D98002805EBE9
:10084000040005D00E99A9B30E99884232D975E0FB
:100850000E9988420ADD0F9A0799724402EB0E0046
:100860000B9F884210460F9201DD6BE02F46B8F1D6
:10087000000F14D0B4460A9E09990EFB06F060439F
:10088000009110A90191CDE9038038461146224616
:100890001D4673460296664602F062FF07E008981E
:1008A00039461D462346CDF800E002F073FFA0193B
:1008B0002B463844BAF1010A05467FF485AF35E08E
:1008C000A0064FF00F00CDF818E00C9358BF0E2093
:1008D000FFF70AFFF0B10746006902F03BFDF96837
:1008E0008046084602F036FD04F01F0400EB840049
:1008F0004188F868884402F02DFD10F824409BF8E8
:1009000006000F9AB97997F805E010440C9B421A3B
:10091000002692E70F9A0C9BDDF818E000260024D1
:100920004FF0000889E7002508E028460D9909B135
:10093000054603E080B20F9940EA0145284620B001
:10094000BDE8F08DA8B2F6E72DE9F04D98B017920A
:10095000219A07469E1A002A104618BF012000253A
:10096000002E1296C8BF0125002B1393169100F19B
:10097000C281139E209928401590C6F10100119064
:1009800001F00100129B109001F002000C90581E23
:10099000079001F004000D9001F008000B9001F0A9
:1009A00010000F9001F020000A9001F040000E901E
:1009B00001F0800009901698911B1044801B039150
:1009C000C3F10101CDE9051001304FF0000B4FF0EC
:1009D000FF314FF0010A4FF000080490089700BF64
:1009E00010984C1C149128B90C98002853D01598D5
:1009F00018BB46E01598C8B31798A2460844451C92
:100A000007983C46169F331A22984FF0010C39463E
:100A10002A46CDF800C002F0BDFE0599F019274620
:100A2000129B54464FF0010A014438462A46CDF83D
:100A300000A002F0AFFE0C9868B31398B04217986C
:100A400006EB00050AD0039814992A460844831C33
:100A500022981699CDF800A002F09CFE06981499F1
:100A6000129B0844811C38462A4610E017983346EA
:100A7000421816993846CDF800A002F08BFE0C986B
:100A800048B1179816993044421E38462346CDF88F
:100A900000A002F07FFE0D9830B90B9800285DD0C1
:100AA000159830BB38E000BF159800281698A0EBC9
:100AB000060525D017981499DDF81CA00844471C9A
:100AC00022984FF0010CA6EB0A0329463A46CDF8CE
:100AD00000C002F05FFE0898129BA5EB0A014FF0E0
:100AE000010A3A46089FCDF800A002F053FE0B9889
:100AF000A0B31398B04218D11798351824E000BF5E
:100B0000179814993346421838462946CDF800A064
:100B100002F040FE0B9808B31698234600EB0B0139
:100B200017983044421E384614E01698149A00EB89
:100B30000B011798CDF800A0351803981044831CBA
:100B400022982A4602F026FE0498129B00EB0B0125
:100B500038462A46CDF800A002F01CFE0F9828B9AE
:100B60000A98002855D0159828BB49E01598DDF85B
:100B70005CA0DA44C0B30798CDF80880A0463C4694
:100B8000169F331A2298394652460125009502F0E5
:100B900001FE0599F0192746129B4446DDF80880AE
:100BA0000144384652464FF0010ACDF800A002F049
:100BB000F1FD0A9868B313981499B0421798A0EB06
:100BC00006050AD003982A460844831C22981699E1
:100BD000CDF800A002F0DEFD14990698129B08449F
:100BE000811C38462A4610E016993846524633464C
:100BF0004FF0010ACDF800A002F0CCFD0A9840B1F8
:100C000017981699821B38462346CDF800A002F0AB
:100C1000C1FD0E9830B90998002857D0159818BB17
:100C200033E000BF1698871B15980028179800EB33
:100C30000B051FD0A246079C22984FF0010C331BD6
:100C400039462A46CDF800C002F0A4FD391B089FA2
:100C5000129B54464FF0010A38462A46CDF800A0B0
:100C600002F098FD099888B31398B04215D11798EF
:100C7000851B21E0089839462A4633460746CDF8B9
:100C800000A002F087FD099800B31698234600EBF8
:100C90000B011798821B384614E01698149A00EB43
:100CA0000B011798CDF800A0851B03981044831CF6
:100CB00022982A4602F06EFD0498129B00EB0B016D
:100CC00038462A46CDF800A002F064FD08F101087C
:100CD000119A701E4146012AACBF091A304602EB38
:100CE000410101311191ABF1010B84422146139670
:100CF0000646FFF675AE18B0BDE8F08D2DE9F04D53
:100D000088B00E468968022926D8B0F90220B0F9C9
:100D1000040007920690F0680122D6E9007B02FAEF
:100D200001F802F017FB3169D6F808A0054608461D
:100D300002F010FB0446B168D6E900025B46484366
:100D400050430490DDE906103A46CDE90085CDF820
:100D500008A0039402F004FD08B0BDE8F08D000087
:100D600070B5B2F1FF3F02DDD043C00F70BD074E3A
:100D70007E44435C002400BF355DAB4204D00134A7
:100D80003A2CF9D1F0E700BF0131F2E7345E000000
:100D9000012ABCBF012070470A4400BF435C303BBE
:100DA000092B02D801319142F8DB00200A2B38BF11
:100DB000012070472DE9F04DACB00DF1080B8A46CB
:100DC00080465846A6211E46154604F046FCBAF158
:100DD000780F58D84FF0000CBAF1000F09D000BFBF
:100DE00018F80C0028B90CF1010CE245F8D10027E5
:100DF00039E0BAEB0C004FF08A0101FB00F03249F8
:100E0000A0FB01014FEA51172CD930493A22634621
:100E1000BE463C46CDE9005618F80350671E74469E
:100E20001BF80400BC4205EB002080FB0156064481
:100E30004FEA661505EBD67505FB12060BF8046044
:100E400002D83930732805D3002CA4F10104E7DC63
:100E50004FF0FF3401335345DED1DDE90056E24661
:100E6000774600E0E246781C002400BF1BF804101F
:100E700019B90134A042F9D104460AEB0700001B5E
:100E80000130B04204D94FF0FF302CB0BDE8F08DF6
:100E900028465146312204F0E7FBBC4201D95046B6
:100EA000F3E70B4A381B411C7A440BEB040300BFE9
:100EB00013F8010B0139175C0AF1010005F80A70FB
:100EC0008246F5D1E1E700BF1F85EB5109CB3D8D8F
:100ED000FC5C00002DE9F04581B00746581E09284A
:100EE0004FF0000016D81C4690468A460126002581
:100EF0003846294602F04CFA48F805000435A64267
:100F00004FF0000028BF0120554503D8A64206F146
:100F10000106EDD301B0BDE8F08500002DE9F04DEC
:100F200084B015460A4601910139092903930291BB
:100F300058D807462D484FF0000A78444FF0000873
:100F40004FF0000B009000BF039957F82A0005EB03
:100F50000B04A1EB0B06009A20F00043204631461B
:100F600002F022F8204604F0C7FBB8B3B04235D2F5
:100F700057F82A108344B1F1FF3F11DC03981C4A53
:100F800005EB0B04A0EB0B067A442046314602F039
:100F90000BF8204604F0B0FB00B3B0421ED28344ED
:100FA0000298504511D00398124A05EB0B04A0EBB0
:100FB0000B067A442046314601F0F6FF204604F045
:100FC0009BFB58B1B04209D2834408F10108019853
:100FD0001FFA88FA8245B7D3012004E00399284616
:100FE00004F03BFB002004B0BDE8F08DCA470000D0
:100FF0000F480000764700008268891805D24268D1
:1010000091429EBF81600120704700207047D0E967
:1010100001C39C450AD00268D25C0A708168013124
:1010200006D24268914298BF816001E000200870BA
:10103000BCEB030018BF01207047B0B5044615464D
:101040000A460068D4E901310844591A2B46FFF7D3
:1010500041FF40B1A26802EB8501914203D362686F
:10106000914298BFA160B0BDB0B5D0E9015314461C
:10107000ED1A954206D80068C218084611462A465D
:1010800004F0F0FA0020A54298BF0120B0BDB0B531
:101090000446D0E9013015461A1AAA4284BF00203E
:1010A000B0BD236803440846194604F0DBFAA06883
:1010B000401903D26168884298BFA0600120B0BD8A
:1010C0002DE9F04D96B08B4682460EA820211F4692
:1010D000904604F0C2FA02A804F000FB84B2ADF816
:1010E000340054BB02A802F015FB21240EAD0C9075
:1010F0006E46204641463A462B46C6F800B002F0FE
:101100008DFA202220462946534600F0A9F890B9CE
:1011100002F0F6FA02A9884202D10C9802F0FAFA1B
:101120000EA8202104F0A5FABDF8340018B900205B
:1011300016B0BDE8F08D01F052FA0C980021ADF820
:10114000341002F0E7FA204601F049FAB0B514462F
:101150000246212001230D4600F07EF838B905F142
:1011600009012046402204F07DFA0020B0BD01F0C4
:1011700036FA00002DE9F041A4B018AD2821284628
:1011800004F06BFA10AE20243046214604F065FAD4
:10119000DFF8B880314609EB080090F8FC3200F522
:1011A00035722846FFF78CFF04A804F097FA81B245
:1011B0000029ADF83C003ED104AD284602F0AAFA61
:1011C0000E904820239009EB08006E4623A900F5F5
:1011D000207222AFC6E90042B16000F5187318A86A
:1011E00040F201610322F76000F032F808BBDDE94C
:1011F000224602F085FAA84202D10E9802F08AFA3D
:1012000018A8282104F035FABDF83C0088B9002E52
:101210000AD4484609EB080004F0010180F8C862CE
:1012200080F8C912002001E04FF0FF3024B0BDE883
:10123000F08101F0D4F90E980C460021ADF83C1075
:1012400002F068FA204601F0CAF900BF98010000D8
:1012500003B44FF0240023E003B44FF02A001FE052
:1012600003B44FF02B001BE003B44FF0390017E03C
:1012700003B44FF03C0013E003B44FF03E000FE026
:1012800003B44FF04E000BE003B44FF0600007E0F2
:1012900003B44FF0620003E003B44FF07B00FFE7BC
:1012A0000049084701808000B0B504464068B0F5A9
:1012B000FF7F01D9F9204EE00D462068A1680A227F
:1012C00008440021FFF764FDC0B32068A16808440A
:1012D000286220460A21FFF78FFE88B305F124011A
:1012E0002046FFF794FE68B32068A1680844A8620E
:1012F00020462121FFF780FE30B3A86A007800F075
:10130000FE00022822D1A06821680130A0600844B4
:101310000A212222FFF724FDD0B12068A1680844E9
:10132000E86220462B21FFF767FE98B1D4E901124D
:101330006FF006008A4208BF01200CE0F3200AE0AB
:10134000F82008E0F72006E0F62004E0F22002E0B2
:10135000F42000E0F52040B2B0BD70B5044640680E
:10136000B0F5FF7F01D9F920B3E00D462068A168F0
:101370000A2208440021FFF70BFD002800F09C80A2
:101380002068A1680844286220460A21FFF734FE3D
:10139000002800F0938005F124012046FFF737FE76
:1013A000002800F08D802068A168222208440A21CC
:1013B000FFF7D6FC002800F085802068A16808446B
:1013C000286320462B21FFF717FE00287CD02068D9
:1013D000A1680844686320462021FFF70DFE00281D
:1013E00074D005F1380620463146FFF710FE00287C
:1013F0006ED02068A168222208440A21FFF7B0FCC1
:1014000000285FD02068A1680844E86320462B21AB
:10141000FFF7F2FD00285ED02068A1681022084482
:101420000021FFF7B5FC002857D02068A1680844C8
:10143000286420461021FFF7DFFD00284FD03078C8
:10144000022822D32068A168222208440A21FFF73B
:1014500087FCB8B32068A1680844686420462B2143
:10146000FFF7CAFD002840D02068A1680A2208447E
:101470000021FFF78DFCD0B32068A1680844A86460
:1014800020461021FFF7B8FD98B32068A1680844F2
:10149000E86420462121FFF7AFFD10B3E86C007827
:1014A00000F0FE0002281ED1D4E901126FF0060000
:1014B0008A4208BF01200CE0E9200AE0F82008E099
:1014C000F72006E0F42004E0F12002E0F02000E044
:1014D000EF2040B270BD8020FBE7E820F9E7ED2067
:1014E000F7E7EA20F5E7F220F3E7EC20F1E7E72061
:1014F000EFE7EB20EDE780B584B00178E02913D168
:1015000041780022042903920292019213DC0329FC
:101510001FD0042938D18178002948D1C07800280B
:1015200045D100F02FFA46E04FF4DC4004B0BDE8AE
:10153000804000F093BE052912D0062924D181787D
:1015400029B3032933D8C27842F08003802B22D0FC
:101550002DE0817859BBC07848BB00F075FA2AE0CD
:101560008178012923D8C2780ABB82682AB300791E
:101570000029CDE901204FF00000039001A818BF19
:10158000012100F013FA16E04FF4DA4011E0C278BE
:10159000802A0CD1802283687BB10079D209CDE901
:1015A00001300020039001A801F052FF03E046F64D
:1015B000862000F053FE04B080BD46F68720F8E791
:1015C000024859F800100120084700BF68000000D9
:1015D000024859F800100020084700BF68000000CA
:1015E00070B586B02C4D09EB050090F8D00219F8C3
:1015F0000510084305D000214BF2070009F805103B
:101600003CE026483C2109EB0004204604F025F884
:1016100009EB050090F8FC1200F5357022463C23DA
:10162000FFF77CFC40B31E4E2B2109EB060004F0B3
:1016300014F801AC2046142104F00FF809EB050062
:10164000083021461422FEF72FFDE0B1164A09EBBF
:1016500006007A442B211423009401F0A5FC1349C1
:101660001048794449F800101149002079440022BB
:10167000002403F003FA0BE04BF2010006B0BDE8D2
:10168000704000F0EBBD4BF2020000F0E7FD0446B5
:10169000204606B070BD00BF9801000000000000A9
:1016A0003C0000006800000078410000873F000017
:1016B0001C560000024859F800100120084700BFDE
:1016C0006800000070B582B0244909EB010090F871
:1016D000D002012838D119F80100012834D120485E
:1016E00009EB0106D6F8301209EB000420460A2265
:1016F00003F0B8FF1B480025A572D6F83C1209EB91
:10170000000420462B2203F0ADFF84F82B5016482E
:10171000D6F83862164A09EB00047A44204645217F
:101720002123009601F040FC12491048794484F8C6
:10173000445049F80010104900207944002203F079
:101740009DF9002002B070BD00224BF2070009F89D
:10175000012002B0BDE8704000F080BD980100009B
:101760006C000000BC000000770000006800000072
:10177000B0400000D93E0000B2550000024859F8C0
:1017800000100120084700BF6800000070B5224922
:1017900009EB010090F8D002012833D119F80100BB
:1017A00001282FD109EB01051C4AD5F8400209EBAD
:1017B000020400F109012046222203F053FF184AD7
:1017C0000026D5F84C0284F8226009EB020400F1EF
:1017D00009012046222203F045FF1249D5F85002A4
:1017E000494484F8226000F025F810490E487944F5
:1017F00049F800100E4900207944002203F03EF918
:10180000002070BD00224BF2070009F80120BDE85E
:10181000704000F023BD00BF98010000E800000008
:10182000140100006C01000068000000173E000079
:10183000E05500002DE9F041002200BF835C302B11
:1018400004D10132102AF9D1002210E0092A0ED960
:1018500030220A702E224A708A1C0A30002300BFF0
:10186000C65CD6540133062BFAD108201CE0C2F125
:10187000090CC2F10A0E8B1A00254FF02E08002623
:1018800096420CD3092E07D1457A01F80E8001F853
:101890000C50012503E000BF875D5C19A755013698
:1018A000102EEDD1A81A103000220A54BDE8F081A4
:1018B00070B52B4909EB010090F8D002012846D100
:1018C00019F80100012842D109EB0105254AD5F894
:1018D000400209EB020400F109012046222203F034
:1018E000C1FE214A0026D5F84C0284F8226009EB9B
:1018F000020400F109012046222203F0B3FE1B4A34
:10190000D5F8540284F8226009EB020400F10901C1
:101910002046222203F0A6FE1549D5F8500249447C
:1019200084F82260FFF786FF1249D5F8580249442F
:10193000FFF780FF11491048794449F80010104919
:1019400000207944002203F099F8002070BD0022A5
:101950004BF2070009F80120BDE8704000F07EBCA2
:1019600098010000E80000001401000040010000A0
:101970006C0100007E01000068000000CD3C00000A
:10198000AE54000080B584B00748784401F0E2FC12
:101990000190042002900020039001A84FF4104110
:1019A00000F014FC04B080BDB83D0000F0B59DB05F
:1019B000244F0C4609EB0706054630464FF44271AA
:1019C00003F057FE002086F8D00209F8070013A89C
:1019D000282103F042FE68464C2103F03EFE06F546
:1019E0003F712846FFF713FB18B309EB070090F887
:1019F000FC2200F535712846FFF71FFBC8B109EB43
:101A0000070696F8FC3213AD06F1480106F535726B
:101A10002846FFF755FB06F1080269462846FFF7FE
:101A200095FB2846282103F024FE44B1FFF7D8FD9A
:101A300003E046F6872000F011FC1DB0F0BD01F078
:101A4000B3FCFAE79801000080B584B001208DF85E
:101A500001008DF803000DF1010000210190032029
:101A60008DF80210CDE9020101A84FF4104100F0F9
:101A7000ADFB04B080BD00F040BF0000F0B581B008
:101A8000DFF8A05619F805000D2805DC052800F040
:101A9000FA800D2812D087E00E2800F06A81152800
:101AA00040F08280DFF8880648448079012805D11B
:101AB00009EB05008079000740F13083DFF86856B4
:101AC000012009F8050009EB0504002060602046AC
:101AD00001F0C0FD042001F02BFE0028606000F042
:101AE0001583972800F01283692840F06A8200F07D
:101AF000D9FE00F0D9FEDFF83446002009EB0406D9
:101B0000A6F8CA00042001F013FED6F8CC1009EBA9
:101B100005020029506000F0F982002800F0F682EA
:101B2000972800F0F38209EB0400B0F8CA1090F88F
:101B3000D000814280F0EA8201F064FDAA2804D13D
:101B400001F07CFDAA2840F0E18209EB0401B1F824
:101B5000CA0091F8D020904280F07881014609EBCC
:101B60000402D2F8D830D2F8CC2002EB40103BB1BE
:101B7000984760B109EB0401D1F8CC20B1F8CA1044
:101B800089B2012808BF02EB411000F0B6FE09EB54
:101B90000403B3F8CA0093F8D020411C88B29042E5
:101BA000A3F8CA10DBD351E1DFF87C55012009EB23
:101BB000050409F8050000262046666001F04AFD8C
:101BC000042001F0B5FD6928606040F0458100F017
:101BD00069FE00F069FEDFF85445042009EB0407B4
:101BE000A7F8CA6001F0A4FDD7F8CC1009EB0502F4
:101BF0000029506000F08A82002800F08782972830
:101C000000F0848209EB0400B0F8CA1090F8D0000C
:101C1000814280F07B8201F0F5FCAA2804D101F01A
:101C20000DFDAA2840F0728209EB0401B1F8CA0048
:101C300091F8D020904280F00981014609EB04021E
:101C4000D2F8D830D2F8CC2002EB40103BB1984704
:101C500060B109EB0401D1F8CC20B1F8CA1089B207
:101C6000012808BF02EB411000F047FE09EB040316
:101C7000B3F8CA0093F8D020411C88B29042A3F870
:101C8000CA10DBD3E2E0DFF8A064012009F8060007
:101C900009EB060400206060204601F0DBFC042014
:101CA00001F046FD0028606000F03082972800F0C7
:101CB0002D82692840F0CD8100F0F4FD00F0F4FDA4
:101CC000DFF86844002009EB0405A5F8CA000420E9
:101CD00001F02EFDD5F8CC1009EB0602002950606A
:101CE00000F01482002800F01182972800F00E8284
:101CF00009EB0400B0F8CA1090F8D000814280F0DF
:101D0000058201F07FFCAA2804D101F097FCAA28E3
:101D100040F0FC8109EB0401B1F8CA0091F8D02031
:101D2000904280F09380014609EB0402D2F8D8304B
:101D3000D2F8CC2002EB40103BB1984760B109EBE0
:101D40000401D1F8CC20B1F8CA1089B2012808BF2B
:101D500002EB411000F0D1FD09EB0403B3F8CA0017
:101D600093F8D020411C88B29042A3F8CA10DBD36C
:101D70006CE0DFF8B463012009EB060509F8060002
:101D8000002728466F6001F065FC042001F0D0FCBC
:101D90006928686040F0A98000F084FD00F084FDAF
:101DA000DFF88843042009EB0405A5F8CA7001F0A8
:101DB000BFFCD5F8CC1009EB06020029506000F0FA
:101DC000A581002800F0A281972800F09F8109EBEF
:101DD0000400B0F8CA1090F8D000814280F09681DB
:101DE00001F010FCAA2804D101F028FCAA2840F038
:101DF0008D8109EB0401B1F8CA0091F8D02090421E
:101E000024D2014609EB0402D2F8D830D2F8CC2013
:101E100002EB40103BB1984760B109EB0401D1F8E7
:101E2000CC20B1F8CA1089B2012808BF02EB4110DA
:101E300000F063FD09EB0403B3F8CA0093F8D02067
:101E4000411C88B29042A3F8CA10DBD3904240F004
:101E50005D8101F07BFC59E1B44C09EB0400D0F842
:101E6000CC00002800F0488109EB0400B0F8CA104B
:101E700090F8D000814280F03F8101F0C3FBAA2896
:101E800004D101F0DBFBAA2840F0368109EB040104
:101E9000B1F8CA0091F8D020904280F02981014623
:101EA00009EB0402D2F8D830D2F8CC2002EB401073
:101EB0003BB1984760B109EB0401D1F8CC20B1F8EF
:101EC000CA1089B2012808BF02EB411000F015FDCD
:101ED00009EB0403B3F8CA0093F8D020411C88B280
:101EE0009042A3F8CA10DBD302E1904D044609EBFF
:101EF0000500D0F8E400A0B1B0F1640238BF0022C0
:101F000009EB05016428C1F8E4200AD8D1F8E010F3
:101F100039B109EB0500D0F8E820C0F8E420002032
:101F20008847002C00F0F280972C00F0EF8009EB3E
:101F30000500D0F8CC00002840D009EB0500B0F82F
:101F4000CA1090F8D000814238D201F05BFBAA2879
:101F500003D101F073FBAA2830D109EB0501B1F8D8
:101F6000CA0091F8D020904224D2014609EB050224
:101F7000D2F8D830D2F8CC2002EB40103BB19847D1
:101F800060B109EB0501D1F8CC20B1F8CA1089B2D3
:101F9000012808BF02EB411000F0AFFC09EB05037C
:101FA000B3F8CA0093F8D020411C88B29042A3F83D
:101FB000CA10DBD3904208BF01F0C8FB09EB050053
:101FC0009CE05A4C09EB0400D0F8CC00002800F04B
:101FD000938009EB0400B0F8CA1090F8D000814259
:101FE00080F08A8001F00EFBAA2804D101F026FBC4
:101FF000AA2840F0818009EB0401B1F8CA0091F8E9
:10200000D020904274D2014609EB0402D2F8D830B5
:10201000D2F8CC2002EB40103BB1984760B109EBFD
:102020000401D1F8CC20B1F8CA1089B2012808BF48
:1020300002EB411000F061FC09EB0403B3F8CA00A5
:1020400093F8D020411C88B29042A3F8CA10DBD389
:102050004EE0364C09EB0400D0F8DC0028B109EB67
:102060000501C978490800F06FFC09EB0400D0F8BD
:10207000CC00002840D009EB0400B0F8CA1090F85A
:10208000D000814238D201F0BDFAAA2803D101F074
:10209000D5FAAA2830D109EB0401B1F8CA0091F8A9
:1020A000D020904224D2014609EB0402D2F8D83065
:1020B000D2F8CC2002EB40103BB1984760B109EB5D
:1020C0000401D1F8CC20B1F8CA1089B2012808BFA8
:1020D00002EB411000F011FC09EB0403B3F8CA0055
:1020E00093F8D020411C88B29042A3F8CA10DBD3E9
:1020F000904208BF01F02AFB09EB0400B0F8CA10B7
:1021000090F8D000814228BF01F0E2FA01F0E0FA35
:1021100008B900F06BFA012001B0F0BD052000F015
:102120005EFA00BFB0050000DC060000A00400005D
:10213000B009000010B5044600F0070001280AD0DD
:10214000022811D10A48484439B101F0B5FA2006F5
:1021500048BF01F04DFA002010BD4FF482710022FB
:10216000BDE8104001F0BEBA022000F038FA00BF0E
:10217000AA08000010B5134C19F8040002280ED06C
:10218000012812D0002818BF10BD0F48012239F8CD
:102190000010002009F8042000F038FC10BD0020D9
:1021A00009F804004FF0FF3010BD0748022239F84B
:1021B0000010102009F8042000F028FC012109F883
:1021C000041010BD940100009001000070B50C4691
:1021D000B8B105464068A968401AB0F5817F0CD8AF
:1021E0001B484FF4827209EB00012846FEF73CFFC2
:1021F00018B1D5E90101411A04E000214FF430443F
:1022000000E000211248134D4844224649F80510C9
:1022100003F01CFA104C59F8050019F804100230AC
:1022200001294FF0000649F8050009D002290BD119
:1022300081B2202000F0EAFB002149F8051000E0FF
:10224000002009F8046070BD4FF0FF3070BD00BF82
:10225000AA0800009001000094010000014600203F
:10226000FFF7B4BF2DE9F0458FB03149002649F89A
:1022700001603049304A09F8016009EB02004FF46F
:10228000427103F0F6F9DFF8B4A06C460CAD46F6E7
:10229000872800BF204603F021FA87B2ADF82C0052
:1022A00057B1052F3BD00A98ADF82C6001F032FAF7
:1022B0003846FFF7D3FF16E0204601F02BFA0A90CC
:1022C000CDE90C660E96FFF755FF00281FD4024695
:1022D00009EB0A01284601F01BF888B12846FFF7F0
:1022E0000AF9002813D401F00BFAA04202D10A988F
:1022F00001F010FABDF82C000028CBD00DE000BF93
:102300004046FFF7ABFF0A9801F004FAC2E70A98CB
:1023100001F000FA0FB0BDE8F08500F060F90A980E
:102320000021ADF82C1001F0F5F9052000F057F967
:10233000900100009401000098010000AA0800002C
:1023400010B58CB06C46204603F0C8F90104ADF816
:102350002C000BD001F0D4F9A04202D10A9801F070
:10236000D9F9BDF82C0040B90CB010BD684601F099
:10237000D1F90A90FF2001F091F900F030F900F056
:1023800001B800002DE9F041FCB004208DF82F01C8
:10239000282019AC8DF8F8002046282103F05DF9BB
:1023A00006AD28464C2103F058F94A4803AA784460
:1023B000DFF8188190E8C8001146C8C109EB08068B
:1023C00006F1400120460323FEF77AFE2046294607
:1023D0003246FEF7BBFE2046282103F04AF90DF2F3
:1023E0002F14601C3146402203F03AF95CAD2046C0
:1023F00041212A462023FEF73FFF64AC2046FEF72A
:1024000043FF0DF21B1014270090204601212A469D
:1024100020230197FEF72CFF002854D164A8FEF773
:1024200023FF3EAC36AD204621212A462023FEF76D
:1024300023FF284620212A462023FEF71DFF2CA833
:10244000CCCC0146CCC1CCCCCCC122783E9B0A700E
:10245000190E8DF8D410190C8DF8D310190A8DF8B7
:10246000D1308DF8D2100DF18D0225212223FEF7F7
:10247000A1FC00258DF8AF50154E174A09EB060454
:1024800009EB08077A44204683214023009700F097
:102490008BFD84F8825000BF09EB0600405DA0F17F
:1024A000410105299EBF203009EB06014855013541
:1024B000832DF1D1094900207944002202F0DEFA8F
:1024C0007CB0BDE8F08100F08AF800BF670700002B
:1024D000E4060000F64D000046330000A84C000062
:1024E00000F000B82DE9F041A2B018AC2046282138
:1024F00003F0B3F80DF1140840464C2103F0ADF899
:10250000214802AA78441E4B90E8E0001146E0C141
:1025100009EB030505F1400120460323FEF7D0FD3A
:10252000204641462A46FEF711FE2046282103F0A8
:10253000A0F8144E154A09EB06047A44204683217C
:102540004023009500F030FD002084F8820000BF99
:1025500009EB0601095CA1F14102052A9EBF203169
:1025600009EB0602115401308328F1D108490020FB
:102570007944002202F082FA22B0BDE8F08100BF67
:102580004A080000C7070000944C00009032000089
:10259000184C0000024900207944002202F06EBA73
:1025A000A04B0000FF2001F079F8000080B507483B
:1025B00019F8000008B902F03DFF054900207944F0
:1025C0000022BDE8804002F059BA00BFA00400001C
:1025D000124B0000FFF7EABF002001F09BB8044651
:1025E00001F08EF8214603F07FF800000248052133
:1025F000784401F061B800BFC04B000010B51C4822
:102600004844C078032809DC012812D0022824D1CC
:1026100018484844BDE8104001F0B8BB04281DD05C
:10262000082818BF10BD13484844BDE8104001F009
:10263000AABB1048012109EB0004204601F09DFBD4
:10264000204601F07BFB0C4809EB0001897959B960
:1026500048440C30122103F000F810BD05484844EE
:10266000BDE8104001F08DBB0520FFF7B8FF00BFAB
:10267000B0050000340A0000B009000000F07F003F
:10268000052884BF00207047024949440844007B64
:10269000704700BFB009000080B51C4A09EB020179
:1026A0000879C978042801F07F010CD002281BD0DA
:1026B000012818D1174809EB020148440631BDE84A
:1026C000804001F04CBA052988BF80BD10484A44BB
:1026D00053794844DFF83CC00844037309EB0C000D
:1026E000063201F069FA80BD0529FCD80848094B7B
:1026F000484400EB41004FF0000C4A44A0F812C0DF
:1027000009EB0300063201F0ABFA80BDB005000012
:10271000B0090000340A0000FF2A88BF704770B576
:10272000044612480E46502109F800104844D11CB6
:1027300015460A0A817044F08001C17020210171A0
:1027400006214270457100F0B7FF3046294600F07F
:10275000B3FF074804F07F01484400EB41004FF409
:10276000FA614182BDE87040704700BFB0050000CB
:10277000B00900000A46014682201423FFF7CCBFAF
:102780000A46014683201423FFF7C6BF80B53549AA
:1027900009EB0102537819F8010092780F2842EAF8
:1027A00003220DDD102814D0162816D01A284AD17D
:1027B00009EB0100C078032845D102F053FE48E040
:1027C0000E2824D00F283ED1012A04D1FFF716FF8E
:1027D0003FE0032A3BD2002080BD234819F8003097
:1027E000BBBB09EB000C06238CF806300A2309F862
:1027F00000301E48494448440331B2F5807F88BF09
:1028000040F20112ACF8022002F02AFF21E0DFF8CA
:1028100058C009EB0C018A6864328A600E2100BF3F
:1028200009EB0C0232F8112052B11346642A98BF0A
:102830006423643B09EB0C00642A20F811300AD9A8
:1028400001390829ECD10220FFF718F980BDFFF704
:1028500023FF012080BD002009F80C000520FFF7B0
:10286000BEFE00BFB0050000B0090000AA080000CD
:1028700080B500F0B2FE0D280DD208482021484452
:1028800002F0EBFE00F0E8FA0548002149F80010DC
:102890004844416080BDFF2000F000FFB009000007
:1028A000D0090000704700000348002149F80010DB
:1028B00048444160704700BFD0090000B0B588B0FF
:1028C0000546084600F046FDA8B10446006990B1EF
:1028D000284600F03FFD01AD014628461C2202F0CB
:1028E000BFFED4E90001ADF80A00ADF80C1028468F
:1028F0002146FEF703FA08B0B0BDB0B500F02AFDDE
:102900000446C06900F026FD217811F07F0108BF60
:10291000B0BD054650B1052901D1A07E70B1284651
:1029200002F0EAFE82B22046294602E0204600215B
:1029300000220023BDE8B040FDF7E4BB2046294655
:10294000BDE8B040FFF7BABFB0B110B5DFF864E042
:10295000844659F80E000B4609EB0E01496898426F
:1029600002BF013109EB0E02516040EA030023B1BE
:10297000024649F80E0008E07047002209EB0E04F9
:1029800049F80E20626040F000409A421EBF09EBF9
:102990000E0200235360082908D3074A4A4312F164
:1029A000AA3F38BF40F0804020F00040BDE8104012
:1029B000604700BFD0090000ABAAAAAAF0B581B059
:1029C0001148012509EB000609F80050B11C01204F
:1029D0004FF4817200F056FE04467070871940F281
:1029E0000110F91C021B022000F04CFE0444264496
:1029F000B870F57000F03CFE3071902000217071CD
:102A0000E01DB17101B0F0BDAA0800002DE9F04D44
:102A100082B083464007884608D05FFA8BF01FFAE1
:102A200088F102B0BDE8F04DFFF784BB8948874FBD
:102A300078440090884D844C7D440026DA465FEA55
:102A400008400AF0100000F08580002840F08280E5
:102A5000019000BF00F03CFE50B109EB04004FF4C0
:102A60009671002200F03EFE012000F0FDF8F1E733
:102A700009EB070019F807108668092906DD0A29FD
:102A80000CD00B2926D17648784402E0009807291B
:102A90001DD11FFA88F100F067FA24E01FFA88F6CA
:102AA000B6F5827F00F2CD80532009F8040009EBCF
:102AB00004004FEA18214170032180F8028000F0E1
:102AC000FBFD63483146484400F0F6FD2BE0002949
:102AD00000F0B4805FFA8BF01FFA88F1FFF72AFB51
:102AE000002840F0AB8019F80700E0B106F5FA665F
:102AF0002846052100F0E0FD09EB04004FF4967133
:102B0000002200F0EFFD09EB07008068B04280F082
:102B10008F80FFF73BFE00F0DBFD0028ECD119F8B9
:102B200007000028E4D1002009EB07015FEA8B626F
:102B300009F807008871488076D448480521784410
:102B400000F0BAFD4FFA8BF0B0F1FF3F01984FF063
:102B5000000670DD38B95FEA4A6061D409EB07000E
:102B600009F807608671AA46394D09EB07004680CF
:102B70003C480521784400F09FFD09EB04004FF428
:102B80009671002200F0AEFD032815D309EB040175
:102B90004A78897841EA0221033181420CD1FFF75A
:102BA000F5FD19F807000028E2D009EB070040887E
:102BB0000028DDD004E000BF09F80760D5E700BFBA
:102BC00019F80510B0292FD109EB05014978A7297B
:102BD0000ED0012901BF09EB05018A78C97851EAB5
:102BE000020121D1FFF7EAFE80460BF0070B0FE050
:102BF00009EB05018A78C978114315D1902009F8AD
:102C0000050009EB05006BF07F0B4FF002084670E2
:102C100055465FEA4B705FFA8BFA3FF410AFFCE663
:102C200009EB07004088053880B202B0BDE8F08D9E
:102C30000520FFF7D4FC052000F030FD0420FFF74D
:102C4000CEFC0220FFF7CBFCB0050000B00900006D
:102C5000AA08000041FDFFFF78470000724600000F
:102C6000F5FCFFFF3C460000B0B5044611480521C5
:102C7000784400F021FD0D4D4FF4967109EB0500ED
:102C8000002200F02FFD19F80500152808D80121B1
:102C9000074A01FA00F0104202D00CB10020B0BD8A
:102CA000FFF774FD002818BF0120B0BDB00500007B
:102CB00020702000404500002DE9F04581B0DFF88C
:102CC0007CA10E4609EB0A0114468E4280460ED0C6
:102CD00009EB0A0738464021402502F0BEFC402C93
:102CE00038BF2546384631462A4602F0BBFC09EB80
:102CF0000A00807801280BDCB0B3012840F09680F0
:102D000009EB0A04E01C0421FEF7C2FA204639E070
:102D1000022835D0052840F0898009EB0A00484E8A
:102D2000C178007959F8062040EA012082422BD16F
:102D300059F80600B8B34349601F59F8012083B21F
:102D40009A4238BF59F8010081B23B293E4928BF59
:102D50003B2059F8015084B209EB0A00411D284676
:102D6000224602F07FFC52E009EB0A0000240146F3
:102D700001F8034FCC708C7040210471C04704E00F
:102D800009EB0A004021C04700242D48002149F8E2
:102D900000102C482C4A49F8001049F8021020462F
:102DA00001B0BDE8F08509EB0A0041798279274836
:102DB00042EA012149F8001059F80010B1F5827F6C
:102DC000E2D859F800001F4909EB0A0249F801004E
:102DD00019F80A0052781E4B42EA002249F80320F3
:102DE000E01F59F8012083B29A4238BF59F8010018
:102DF00081B23929174928BF392084B209EB01056E
:102E000009EB0A00C11D2846224602F029FC0E49A2
:102E100028190C4A49F8010059F80200001B49F82A
:102E2000020059F80600013049F80600054859F833
:102E3000000008B10124B2E70224A6E7D809000087
:102E4000180A0000200A0000240A00001C0A0000E2
:102E5000280A0000AA0800000548002149F80010CF
:102E60000448054A49F8001049F80210704700BFAD
:102E7000180A0000200A0000240A00002DE9F04D85
:102E8000334EDFF8D0A059F8061061B359F80A4064
:102E90004CB3DFF8CC80834609EB0805681D3B2165
:102EA00002F0DBFB2F482C4F59F80010090A09F8F3
:102EB000081059F8000068700520A87059F807003C
:102EC000000AE87059F80700287159F8071059F8F6
:102ED0000600A9B13B2809EB080094BF59F8065039
:102EE0003B2505301BE01C48002149F800101B4819
:102EF00049F8061049F80A1009F80010BDE8F08DED
:102F0000392894BF59F80650392559F8060009EBBD
:102F10000801000A487159F806008871C81D214649
:102F20002A4602F09FFB601949F80A0059F806008A
:102F30005B46401B49F8060059F807004021421C37
:102F400009EB080049F80720BDE8F04D184700BF1D
:102F5000200A0000240A0000180A0000B00900003E
:102F6000D8090000280A000091B1DFF828C000232A
:102F7000094A49F80C30DFF824C04A44084B49F8A4
:102F80000C20084A49F8031049F80210FFF776BFF1
:102F9000704700BF180A0000AA080000240A0000B9
:102FA000200A00001C0A000081B02DE9F04D89B014
:102FB0000028119300F09C810E460229C0F09881F0
:102FC00031461546804602F048FB287811A90028B2
:102FD000049100F08D81741E002700BF30B12528B8
:102FE00004D0E81940780137F8E700BFA74228BFAE
:102FF0002746404629463A4602F034FBE41B00F0DF
:103000007781E85DB84425283D4440F05F81013573
:103010004FF0000B202200260020013515F8011C7E
:1030200001352D2912DC4FF00000F7D0252900F0E2
:10303000E6802A2940F048812B4613F8010D7328B9
:1030400040F05481049902201D4625E0472927DCE1
:10305000A1F130030A2B0DD281F0300353EA0B03A8
:103060000BEB8B0301EB430108BF3022A1F1300BC6
:10307000013DD2E72E2940F0278115F8010C2A28BE
:1030800040F034812878482804D0732802D068287A
:1030900040F02B81049901200B1D04930E68BCE7BE
:1030A00067290CDC622912DC482900F0AC80582921
:1030B00040F00A81CDF80C804FF0010C27E0722916
:1030C0001BDC682900F0A28070291CD0FCE0632979
:1030D00000F0A180642940F0F7800498CDF80C80BE
:1030E000011D049100680028074600D54742C00F23
:1030F0004FF0000C4FF00A0810E0732900F09580A3
:10310000782940F0E1804FF0000CCDF80C80049855
:103110004FF01008011D049107680020B84502D93E
:103120004FF0010A0FE0ABF1010341468A46A8FBCC
:103130000116002E18BF0126B9429B4603D8002E67
:10314000ABF10103F2D00028034618BF4FF0FF3364
:1031500048B1D1B230290AD12D2101264FF0010EFC
:103160008DF8141006E04FF0010E002602E0002654
:103170004FF0000EABEB0000811E0D2911D8411E4F
:103180000FD005A83044D2B2CDF808C0CDE9003E3A
:1031900002F06AFA009906EB0B00DDE901EC084445
:1031A000461EBEF1000F05A902BF2D20885501362D
:1031B000BAF1000F16D0544A54487A447844BCF10E
:1031C000000F08BF104600BFB7FBFAF3D045B3FBB2
:1031D000F8F2BAFBF8FA02FB1832825C8A5506F163
:1031E0000106F1D9A64228BF2646DDF80C803246FA
:1031F000404602F037FAA41B7AD0B04464E0013CA8
:103200004FF025000DE03E4A7A4401E03D4A7A4401
:103210004FF0010C0DE00498013C00F10401049111
:10322000006808F8010B4FD162E0344A4FF0000CFF
:103230007A440499C0B20B1D04930968022841D056
:10324000012808D03E4630B9002000BF0B5C013099
:10325000002BFBD1461EBCF1000F1BD0A6B3A4EB84
:10326000460000BF022C43D30B78022C4FEA131701
:10327000D75D03F00F0388F80070D35C88F8013045
:1032800036D0023C08F10208013E01F10101E9D10A
:10329000044619E0A64228BF26464046324602F0C0
:1032A000E1F9A41B24D03746BB45B0440CD9ABEBA5
:1032B0000706A64228BF264640463146202202F095
:1032C000D3F998E7087828B115F8010D00287FF4A4
:1032D00083AE0DE0A64228BF264640463146202256
:1032E00002F0C2F9A41BDFD102E02A20013DEDE784
:1032F000002009B0BDE8F04D01B07047853F0000E7
:10330000BD3F0000A73F0000FB3F00000940000058
:10331000052A14D30B79053A9A4210D10A78027023
:103320004A7842708A788270CA78C2700A790271CB
:103330000A79002A18BF4A1D8260012070470020C8
:10334000704700007A460249C91C891A401A704722
:103350004533DEC00A4981420A4906D8814204D376
:1033600080B5FFF7EFFFBDE8804007498842074A74
:1033700005D3904288BF7047401A4A4610447047B0
:103380000000DEC0007ADEC000007ADA00787ADA67
:103390004218405C517893780904D27841EA006081
:1033A00040EA032010447047B0B59CB01349412057
:1033B0008DF80D0004200DF10D0409EB01058DF8C9
:1033C0000E00A01C05F10801402202F049F920205E
:1033D0008DF84F0004F1430005F14801202202F06E
:1033E0003FF9632001900020029068464FF410419D
:1033F0000094FEF7EBFE1CB0B0BD00BF98010000CA
:10340000F0B597B00DF11206741C2046492102F068
:1034100024F90E4809EB000797F8C85207F5207108
:1034200020462A468DF8125002F01AF997F8C91270
:10343000A81941700020AA1C039001A84FF4104164
:10344000CDE90162FEF7C2FE17B0F0BD98010000A1
:1034500070B5F0B0044651B35B4D09EB050090F830
:10346000D002012844D109EB05001346D0F8080228
:103470006268002B02EB000140D0B1F5FF7F0FD94D
:1034800009EB0501084400F108012046FDF7FFFDA6
:1034900000285AD009EB05016068D1F808120144F0
:1034A00009EB05024FF41040C2F808124FE0464EF7
:1034B0004FF4427109EB0605284602F0DAF80120C4
:1034C00085F8D002002009F8060005F53F71204676
:1034D000FDF79DFD78B109EB060090F8FC2200F5A0
:1034E00035712046FDF7A9FD28B14FF410402EE0BC
:1034F0004BF207002BE046F6872028E0B1F5FF7F6E
:1035000023D809EB0501084400F108012046FDF726
:10351000BEFDD0B109EB05016068D1F8082201F1C8
:1035200008031044C1F80802CDE96D3000208E7CFC
:1035300091F85E406F9009EB05003A2E00F504719A
:103540006DA809D1FDF7B0FE08E04BF2040070B0A1
:10355000BDE87040FEF782BEFDF7FFFE012820D1D6
:10356000012009F8050002A84FF48071FDF788FEDC
:1035700040BB09EB0500D0F8083200F1080200F565
:1035800018702025009002A801210195FDF770FE1A
:10359000C0B902A8FDF768FE3A2E07D1FEF792F8EF
:1035A00002E080B2FEF75AFE70B070BD022C04D06B
:1035B000012C05D1FEF7EAF8F6E7FEF779F9F3E713
:1035C0000020F1E7FFF70BF89801000001DF002968
:1035D00000D170470846FFF702F880B582B000209E
:1035E000CDE9000069460120FFF7F0FF02B080BD81
:1035F00080B582B00020019069460220FFF7E6FF07
:1036000002B080BD80B582B00020019069469F2045
:10361000FFF7DCFFC0B202B080BD000080B586B00D
:103620000DF1040EDDF820C08EE80F10024801A94C
:10363000FFF7CCFF06B080BD5300000580B582B017
:10364000002001906946A020FFF7C0FFC0B202B081
:1036500080BD000080B582B000900020019003483A
:103660006946FFF7B3FF02B080BD00BF64000001F0
:1036700080B582B00020019069466A20FFF7A6FF5E
:1036800002B080BD80B584B001AB07C3024801A978
:10369000FFF79CFF04B080BD7400000382B000906F
:1036A0000020019003486946FFF790FFFFDE00BF4E
:1036B000FEE700BF9A00000180B582B0CDE90001AD
:1036C00002486946FFF782FF02B080BD8300000216
:1036D00080B582B00020019069468420FFF776FF14
:1036E00002B080BD80B584B001AB07C3034801A917
:1036F000FFF76CFF80B204B080BD00BF85000003FF
:1037000080B582B00020019069468720FFF75EFFF8
:1037100002B080BD80B582B00090002001900348C7
:103720006946FFF753FF02B080BD00BF0B010001E7
:1037300080B582B000900020019003486946FFF7F1
:1037400045FFC0B202B080BD9C00000180B582B0D0
:103750000020019069467A20FFF738FF02B080BD53
:1037600070B58AB0DDF848C0DDE9104EDDE90E65C0
:1037700001900748029101A9039204930596CDE9AF
:103780000654CDE908ECFFF721FF0AB070BD00BF79
:103790007C00000980B586B00DF1040EDDF820C074
:1037A0008EE80F10024801A9FFF710FF06B080BD98
:1037B0007D00000504480021044A49F8001000205B
:1037C00049F80210704700BF2C0A0000300A0000C0
:1037D00080B508484F2109F8001048440021417085
:1037E000012181700221C1700421FFF765FF0020D3
:1037F00080BD00BFB005000070B582B002208DF81A
:10380000050003200DF103044F2500268DF8060066
:10381000204605218DF803508DF804608DF807606F
:10382000FFF74AFF01208DF805008DF806002046BD
:1038300004218DF803508DF80460FFF73DFF002050
:1038400002B070BD80B582B04F208DF8040000201A
:103850008DF8050001208DF8060002208DF8070084
:1038600001A80421FFF728FF002002B080BD00005E
:1038700080B582B01A484FF0000C49F800C04F20C4
:103880008DF800000520DFF854E08DF802000420D8
:103890008DF803000120012A49F80EC08DF801C0FF
:1038A0008DF804008DF805108DF806C004DC52B1C7
:1038B000012A0AD1042006E0022A03D0032A04D1F7
:1038C000022000E003208DF80600684608218DF8EC
:1038D0000730FFF7F1FE002002B080BD2C0A000087
:1038E000300A000010B582B00C46502003218DF83C
:1038F000020000208DF8041040218DF803008DF89F
:1039000006108DF807000DF1020006218DF8054024
:10391000FFF7D2FE0A4A2306084B4A4404F07F0010
:103920004FF0010158BF09EB0302136801FA00F0E0
:1039300043EA00010020116002B010BD300A00000F
:103940002C0A000010B582B00C46502003218DF8DF
:10395000020000208DF8041080218DF803008DF8FE
:1039600006108DF807000DF1020006218DF80540C4
:10397000FFF7A2FE0A4A2306084B4A4404F07F00E0
:103980004FF0010158BF09EB0302136801FA00F080
:1039900023EA00010020116002B010BD300A0000CF
:1039A0002C0A00000848074A48440B0658BF09EB98
:1039B0000200007801F07F01012202FA01F10840C3
:1039C000704700BF300A00002C0A000080B582B0AA
:1039D0004F208DF8030000208DF8040002208DF8A0
:1039E000050003208DF806008DF807100DF1030087
:1039F0000521FFF761FE002002B080BDB0B582B0A6
:103A000050208DF80200D81C1546020A8DF80400DB
:103A100020208DF805108DF806000DF1020006211A
:103A20001C468DF803208DF80730FFF745FE284629
:103A30002146FFF741FE002002B0B0BD80B582B044
:103A400050208DF8020000208DF8030003208DF82F
:103A5000040030208DF805108DF806000DF10200ED
:103A600006218DF80720FFF727FE002002B080BD59
:103A700098B170B50E464FF48A711546044601F0B0
:103A8000ECFD0EB1C4F8F060012084F8DC002046A3
:103A90002570FFF78FFE002070BD022070470000E8
:103AA000B0B504460120F42584F8DC00605930B13B
:103AB0004068FFF74FFC21790246204690470835C1
:103AC000B5F5867FF2D12046FFF7BCFE2046FFF712
:103AD0007FFE0020B0BD3AB102289CBF01EBC000C0
:103AE000C0F8F420002070470220704780B5FFF72F
:103AF00083FE002080BD000070B50C460546002600
:103B00002846314600F05FF950B105EBC600D0F809
:103B1000F4000068FFF71EFC024628462146904745
:103B20000136032EECD1002070BD000070B50C46AC
:103B3000054600262846314600F045F950B105EB10
:103B4000C600D0F8F4004068FFF704FC024628469F
:103B5000214690470136032EECD1002070BDB0B550
:103B600000F1E8050446284600F062FB94F8E800FE
:103B70000121B4F8EE20C4F8D41000F01F0102298E
:103B8000C4F8D82007D001290AD071B920462946A7
:103B900000F025F90EE02046294600F0CDFA09E0B4
:103BA0002046294600F0A6FA04E000F080012046F5
:103BB000FFF798FE0020B0BDF0B581B01546044671
:103BC000E1B10E46002700BF2046394600F0FBF861
:103BD00080B104EBC700D0F8F400806950B194F8CC
:103BE000DC10032906D1FFF7B5FB0346204631461A
:103BF0002A4698470137032FE6D12DE0D4F8D400A8
:103C0000032829D1D4E91F1081420AD9091AE16792
:103C1000814238BF084682B22046294600F037FD6F
:103C20001AE000252046294600F0CDF870B104EBDB
:103C3000C500D0F8F400006940B194F8DC10032905
:103C400004D1FFF787FB0146204688470135032D45
:103C5000E8D1204600F021FD002001B0F0BD0000B9
:103C600070B50446E1B10D46002600BF204631463E
:103C700000F0A9F880B104EBC600D0F8F400406968
:103C800050B194F8DC10032906D1FFF763FB02461C
:103C900020462946904700BF0136032EE6D14AE070
:103CA000D4F8D40002283FD1D4E9071081420BD9BF
:103CB0000A1AD4F81011E261014492B22046C4F805
:103CC000101100F0D7FC2FE0A169814211D3B1FBA4
:103CD000F0F202FB101060B9D4F8D800814208D28B
:103CE000204600210022002500F0C4FCC4F8D85072
:103CF0001AE000252046294600F065F870B104EB73
:103D0000C500D0F8F400C06840B194F8DC10032975
:103D100004D1FFF71FFB0146204688470135032DDC
:103D2000E8D1204600F0C4FC94F8E000012804BF6C
:103D3000002084F8E000002070BD0000B0B504460B
:103D40004020C4F8800020620120002584F8DC00B7
:103D50002046294600F037F850B104EBC500D0F8F2
:103D6000F4004068FFF7F6FA2179024620469047B2
:103D70000135032DECD10020B0BD024600201174A6
:103D8000704700207047002070470000B0B504461F
:103D900090F8DC00032814D1002500BF20462946F6
:103DA00000F011F850B104EBC500D0F8F400C06980
:103DB00020B1FFF7CFFA0146204688470135032D91
:103DC000ECD10020B0BD022984BF0020704700EB79
:103DD000C100D0F8F400002818BF0120704780B55A
:103DE0004A78042A08DD072A0EDC052A13D0062AA1
:103DF0001AD100F020F81CE082B1012A17D0032A62
:103E000012D100F02FF914E0082A0AD0092A0BD1A8
:103E100000F0B6F80DE000F091F80AE000F0FEF8CE
:103E200007E000F0E5F804E000F07EFB01E000F0C0
:103E300037F9002080BDB0B582B00D4649880446F0
:103E4000080A00220528ADF8062012DC01281BD044
:103E5000022825D0032835D1C8B2022837DC002833
:103E60005CD0012862D002282CD1D4F8F000C068C0
:103E70000DE006281DD0072822D00F2822D1D4F823
:103E8000F000C06918B91DE0D4F8F0000068FFF731
:103E900061FA237C02460DF10601184690472DE099
:103EA000D4F8F400E8B1217C00290CBF806AC06A14
:103EB0001EE0207C30B9D4F8F40018B1406B17E054
:103EC000207C80B12046294600F02EFB24E0032808
:103ED00028D004282ED00528F4D1D4F8F000806929
:103EE000D5E700210BE0D4F8F4000028EAD0006BFD
:103EF000FFF730FA01460DF1060088470146BDF88C
:103F0000060048B1EA883AB1904238BF02462046DE
:103F1000ADF8062000F09AFB02B0B0BDD4F8F00076
:103F20004068B4E7D4F8F0000069B0E7D4F8F000D6
:103F30008068ACE7D4F8F0004069A8E7B0B58A889B
:103F400004462AB9C88818B994F8DC00032804D1BB
:103F50002046BDE8B04000F0E7BA887800F07F0561
:103F60002046294684F8DE50FFF730FD204600F059
:103F700094FB002D0CBF0120022084F8DC00B0BDB2
:103F800070B58E780D46022E04461AD294F8DC00E5
:103F9000032807D0022814D12EB30320666084F8CA
:103FA000DC0008E09EB16068B0421CD0C1B220467F
:103FB000FFF7BCFD666020463146FFF79DFD0228F5
:103FC00011D120462946BDE8704000F0ADBA02206C
:103FD00084F8DC000020606020463146FFF7A6FD33
:103FE000204600F05AFB2046BDE8704000F055BB6B
:103FF000CA88012A18BF00F097BA90F8DC20032A7B
:1040000006D0022A08D10022014641F8082F00E01C
:10401000011D012200F01ABB00F086BAB0B50446BB
:1040200090F8DC0000F0FE0002280DD101202546AA
:1040300045F80C0FD5F8D80058B1204600F038FBF1
:10404000E06840F0020305E02046BDE8B04000F023
:104050006BBA0323204629460222E360BDE8B04044
:1040600000F0F4BAB0B50D464988012918BFB0BDBB
:104070000446287901210228C4F8E4100BD804EB87
:10408000C000D0F8F40030B18068FFF763F9024651
:104090002046294690472046BDE8B04000F0FDBAD2
:1040A000B0B5044690F8DC000D4600F0FE00022892
:1040B0001AD16888012818BFB0BD287900210228CC
:1040C000C4F8E4100BD804EBC000D0F8F40030B111
:1040D0008068FFF73FF90246204629469047204670
:1040E000BDE8B04000F0D9BA20462946BDE8B0404E
:1040F00000F01ABAB0B5044690F8DC000D4603286B
:1041000014D12879022811D804EBC000D0F8F400AB
:1041100060B18068FFF71EF90246204629469047A5
:10412000E88838B9204600F0B8FA03E0204629466E
:1041300000F0FAF90020B0BDB0B582B00D460979A3
:10414000044601F07F02072A04D32046294600F0E6
:10415000EBF96AE0022911D8287800F060002028E5
:104160000CD104EBC100D0F8F40038B18068FFF73F
:10417000F1F8024620462946904756E0687800B399
:10418000012826D0032850D194F8DC00032824D13C
:10419000688838B941F08000802803D02046FFF7B6
:1041A000A1FB297902293DD804EBC100D0F8F40025
:1041B000C0B38068FFF7CEF80246204629469047F4
:1041C00030E094F8DC00032811D00228BDD152B9A8
:1041D0002BE094F8DC00032818D00228B5D141F078
:1041E0008000802821D02046FFF77CFB1DE0204680
:1041F000FFF7D8FB002818BF0120ADF806000DF12D
:1042000006012046022200F021FA0EE0688860B91B
:1042100042B12046FFF796FB2879022802D804EB2A
:10422000C000C3E7204600F038FA002002B0B0BD5D
:104230000A7802704A7842708A78CB7842EA032280
:1042400042800A794B7942EA032282808A79C979CD
:1042500042EA0121C180704710B580210446FFF772
:1042600041FB20460021BDE81040FFF73BBBB0B545
:1042700082B00D4609780446002011F06001ADF8C7
:1042800006008DF8050010D020293CD16878A0F1F7
:104290000A01022936D3022818D0032816D0204656
:1042A000294600F041F902202DE068780B2812D051
:1042B0000A280BD0062825D1E87821280FD02228FB
:1042C0001BD10DF1060000F04DF80CE00DF10501D9
:1042D0002046012214E0204600F0DFF912E00DF143
:1042E000060000F029F8BDF80630EA88014693423E
:1042F00038BF1A46ADF8062001E000220021204612
:1043000000F0A4F9002002B0B0BD10B58221032254
:1043100040230446FFF7ACFA204602210322402343
:10432000FFF7A6FA204602214022FFF787FB002074
:1043300010BD002070470000084A014609EB02004A
:1043400090F8EC000023002805484FF00002784464
:104350000CBF092310460B80704700BF340A0000D1
:104360008A2E0000084A014609EB020090F8EC0092
:104370000023002805484FF0000278440CBF222398
:1043800010460B80704700BF340A0000672E000003
:10439000022906D180B504487844FEF76FFDBDE8D8
:1043A00080400020704700BFD9E3FFFFB0B502296D
:1043B0001FD1144602214022FFF740FB0E4D09EBAE
:1043C00005008079A8B90220FEF758F902460C488A
:1043D00021467844FEF770FC02280AD1072109EB38
:1043E000050009F805100121044A817159F80210ED
:1043F00041800020B0BD00BFB00900001C0A0000D1
:104400009FE3FFFF10B58321032240230446FFF7FB
:104410002FFA2046032103224023FFF729FA2046E2
:1044200003214022FFF70AFB002010BD0020704747
:1044300000207047032906D180B504487844FEF770
:104440001DFDBDE880400020704700BF41E3FFFF35
:10445000B0B503291FD1144603214022FFF7EEFA1D
:104460000E4D09EB05008079A8B90320FEF706F987
:1044700002460C4821467844FEF71EFC02280AD169
:104480000B2109EB050009F805100521044A81718B
:1044900059F8021041800020B0BD00BFB0090000F3
:1044A0001C0A000007E3FFFF0248122278440A803A
:1044B000704700BF782F00000248042278440A8029
:1044C000704700BF7A2F000002480E2278440A800D
:1044D000704700BF6E2F00000248182278440A80FF
:1044E000704700BF6C2F000002480A2278440A80FF
:1044F000704700BF742F00000248182278440A80D9
:10450000704700BF4C2F00000248182278440A80F0
:10451000704700BF3C2F00000248392278440A80CF
:10452000704700BFE72C000080B591F90020B2F180
:10453000FF3F03DDBDE88040FFF78EBE4A78772A53
:104540000DD0062AF6D14A8840F2EE339A42F1D1D4
:10455000CA88122A28BF1222114979441CE08A888D
:10456000042A06D1CA88282A28BF28220D4979445E
:1045700012E08A88052A06D1CA88922A28BF922288
:104580000949794408E08A88072AD3D1CA88B22A1F
:1045900028BFB2220549794400F058F880BD00BF19
:1045A000022D0000FC2E0000EC2C00006A2D000003
:1045B000B0B5194D044609EB05004FF48A7101F0BE
:1045C0004CF81648122148440C3001F046F8ECB182
:1045D00009EB050420464FF48A7101F03EF81049BA
:1045E000204679440022FFF743FA0E4A00207A441D
:1045F0002146FFF770FA0C4A01207A442146FFF762
:104600006AFA2046BDE8B040FFF770BA09EB050032
:10461000BDE8B040FFF744BA340A0000B00900001A
:104620005A2C0000C62D0000F22D00000146024861
:10463000402278440A807047622E000001460248FA
:104640000A2278440A807047922E000080B58C467A
:104650000221C0F8D410016AC0E90622C0F810C1D6
:10466000914288BF11468BB200216246FFF7C6F91E
:10467000002080BD80B5036A8C46934288BF1346F4
:104680009BB200216246FFF7B9F9002080BD80B5DA
:104690000021FFF7D3F9002080BD80B50421C0F8C8
:1046A000D410002100220023FFF7A8F9002080BDCC
:1046B00080B50521C0F8D41000210022FFF7BEF913
:1046C000002080BD154919F80100012823D80138C0
:1046D00009EB010200EB400302EB8300808CD0B1B8
:1046E00009EB010202EB8302D269A2B1494401EB5A
:1046F0008301098C29B902EB800353F8043C03338E
:1047000009D1814205D202EB810050F8040C02303D
:1047100001D0002070470120704700BFA0040000B6
:10472000134819F8001001291FD8013909EB0002BC
:1047300001EB410302EB8301898CB1B109EB00026B
:1047400002EB8302D26982B1484400EB8300008C03
:104750004B1E834209DD0239814204DD02EB8000F9
:104760004068023001D0002070470120704700BF30
:10477000A00400000A4819F8001069B101EB4101DA
:10478000484400EB8100818AC08A814201D901201E
:1047900003E001D2FF2000E0002040B2704700BFDC
:1047A000A0040000114819F8001001291BD8013994
:1047B00009EB000201EB410102EB8102928C92B104
:1047C00009EB000303EB8103DB6963B1484400EBB1
:1047D0008100008C904206D253F8200010F1040FA3
:1047E00098BFFEF7B7BD0020704700BFA0040000CF
:1047F00070B5214A19F8021001293CD88646481E96
:1048000009EB020100EB400301EB8301898C91B3BA
:1048100009EB020505EB8305ED6965B301292AD093
:1048200009EB020404EB830C3CF8204F4E1EA64219
:1048300021DD0239A1420FDB05EB840149688D1CA3
:1048400008BF70BD033107D14A44002102EB830247
:10485000ACF8001051840AE009EB020101EB83017E
:104860004C84611CBEF1000FACF8001003D0BDE811
:10487000704000F04DB870BDA00400000120FFF7AB
:10488000B7BF000010B5214919F80100012813D85D
:10489000013809EB010300EB400203EB82039B8C20
:1048A00053B109EB010404EB8204D4F81CE0BEF11F
:1048B000000F18BF012B00D110BD09EB010404EB60
:1048C000820C3CF8204F6CB10EEB840353F8043C8F
:1048D0000233F1D0494401EB82014C84611EACF8F3
:1048E00000100EE00EEB830454F8044C033418BFA0
:1048F00010BD49449C1E013B01EB8201ACF8004015
:104900004B84BDE8104000F003B800BFA0040000D5
:10491000F0B581B01E49044609EB010004EB4401E7
:1049200000EB810555F81C0F2E4636F8041F50F891
:10493000210010F1040F84BF01B0F0BDFEF70AFDA5
:1049400029683288076851F82200FEF703FD47B155
:104950000068FEF7FFFC0146204601B0BDE8F040CC
:1049600008478068FEF7F6FC29683288054651F84A
:1049700022100846FEF7EEFC4068FEF7EBFC02460C
:104980002046294601B0BDE8F04000F077B800BFEE
:10499000A00400002DE9F04581B0374D19F805005D
:1049A000012858D8A0F1010A09EB05000AEB4A06D4
:1049B00000EB860434F8240F00284CD009EB0501E5
:1049C00001EB860757F81C1F002944D009EB0502AC
:1049D00002EB860838F8202F82423CD251F82200A0
:1049E000FEF7B8FC806888B13868B8F8001050F855
:1049F0002100FEF7AFFC8068FEF7ACFC0146504694
:104A0000002201B0BDE8F04500F038B8208810B3AE
:104A1000B8F80020023890421DDB396801EB8203B0
:104A20005B68DF1C1AD0023315D1134601EB8202FA
:104A30005268023205D101339AB29042A8F8003090
:104A4000F4DA09EB050000EB86004384591C50465C
:104A5000A8F800100BE001B0BDE8F08509EB0500F7
:104A6000002100EB8602A8F800105046518401B0E6
:104A7000BDE8F045FFF74CBFA004000070B500B1E1
:104A800070BD214E0D4609EB06000430222114466C
:104A900000F0E3FD002DF3D02846FEF75BFC09EBA8
:104AA0000602918CD06150F82120013209D000BF5C
:104AB00001318AB250F822200132F9D109EB060007
:104AC0008184E4B12046FEF745FC09EB0601CA6982
:104AD000098C52F821104A1C11D004460846FEF7F2
:104AE00039FCA0420BD009EB0600028CC169531CB3
:104AF0009DB251F8251042844A1C0384EED1002057
:104B0000BDE87040FFF704BFA004000080B50A496B
:104B1000884208D00949884208D00949884208D10A
:104B2000FFF7B0FE05E0FFF735FF02E00120FFF7D9
:104B30005FFE002080BD00BF0300008002000080F7
:104B40000100008010B5A8B90B4809EB00018A8C60
:104B5000098C91420ED209EB0004E069FEF7FAFBE2
:104B6000218C50F82100FEF7F5FB4068BDE81040AD
:104B7000FEF7F0BB002010BDA0040000024819F8A9
:104B800000000138FFF7DEBFA004000080B5FFF78A
:104B900009FE38B1044819F800000138FFF7B8FEE3
:104BA000012080BD002080BDA004000010B5044697
:104BB00000F0AAFC0A480B4A484404EBC4017A44BA
:104BC00000EB81000521C0F8CC2080F8D010064A07
:104BD00001217A4480F8C910C0F8DC2010BD00BF64
:104BE000A00400002229000037FFFFFF80B500F07D
:104BF000F1FB58B1064909EB010292F8A920112AEC
:104C000002BF494448F20A02A1F8C02080BD00BF9B
:104C1000A004000010B50446FFF7C8FF0748084A83
:104C2000484404EBC40100EB81017A442046C1F8FA
:104C3000D820BDE8104000F037BC00BFA004000041
:104C4000BFFFFFFF2DE9F0410D461449904606468F
:104C500009EB010200EBC00002EB800707201049BE
:104C600087F8D000012087F8C900107B7944C7F885
:104C7000CC1052F8041F00071C464FF008032846CA
:104C800008BF0A2300F094F9C7F8D8403046C7F8A7
:104C9000DC80BDE8F04100F007BC00BFA0040000CC
:104CA0001429000010B50446FFF768FF4168044A64
:104CB000044B7A447B442046BDE81040FFF7C2BF56
:104CC000130000002500000080B50349794400F07E
:104CD00031F9002080BD00BFD5FFFFFF10B50446AD
:104CE000FFF74CFFD0E900122046BDE8104000F06D
:104CF0006DB800002DE9F04581B0DFF89C800D46CD
:104D000009EB08010E7B92460446FFF733FD0128AC
:104D10000CD0013010D109EB080707F1080014216D
:104D200000F09BFC4FF0FF30786005E009EB0800D5
:104D30000430182100F091FC09EB080720463E736F
:104D40003E1D00F0E1FBD7F80C010823284313486F
:104D5000397B784418BF284609074FF0FF313246A7
:104D600008BF0A2300F024F9B86048B109EB080134
:104D700049680138814284BF09EB0801486005E0B9
:104D800009EB08000430182100F067FC204651466A
:104D900001B0BDE8F0450847A0040000D10A0000BA
:104DA00010B50849044609EB0100F02101732046C3
:104DB000FFF7C8FE4168044A20467A44BDE8104027
:104DC000FFF798BFA0040000E7FEFFFF2DE9F041C8
:104DD00082B0DFF84881064609EB080014460D460C
:104DE000A8303146202200F03DFC7078102820DCED
:104DF000012836D002283DD0102840F08980002DAF
:104E000045D009EB0806B0684649474C01287C4468
:104E10002846794488BF0C46FEF79CFA0346D6E93B
:104E2000010580210130009006F1280022460195FD
:104E300037E0A0F1110103296AD200F00F00461EED
:104E4000022E65D809EB080000EB4600858A002D8C
:104E50005ED07F2D28BF7F25BCB32046FEF77AFAAF
:104E600037E0FFF72FFC002852D009EB080040681C
:104E700058B14DE0FFF754FC002849D009EB080079
:104E8000D0E901010139884242D1002043E009EB19
:104E90000800D0E90116254A4B1C28307A448021AD
:104EA0000096FEF781F809EB08001D49027B0231EC
:104EB000EF2A84BF48F20801CFF6FF71A0F8C010B6
:104EC00000F12801C0F8C41022E009EB0800D0F876
:104ED0000C0109EB080707EB4601C989144A07F1E1
:104EE000280446187A44204680212B460096FEF777
:104EF0005BF8387B0A4900F00F000231C7F8C44064
:104F00000F2804BF48F20801CFF6FF71A7F8C010C0
:104F100009EB0800A83002B0BDE8F081A004000051
:104F20000880FFFF0B09000057090000D3090000AB
:104F3000520800001A4A90420ED01A4A904217D0E6
:104F4000194A904218BF7047184809EB000252688E
:104F500012B3A2F1010C17E0144809EB00018968B3
:104F600021B1484440680139814217D1FFF712BD91
:104F70000E4809EB0002D2E90123013B9A4208BF27
:104F8000FFF77CBC02F1010C19F8003009EB0002BC
:104F9000581EC2F804C00847FFF774BC704700BF32
:104FA000030000800200008001000080A0040000D7
:104FB0002DE9F04D88B00E46074602F10A000C219B
:104FC0000793144600F049FB701C049004D06068FD
:104FD000B04201D8002097E027B13846FEF7BAF971
:104FE000824603E04A484844D0F80CA1504600F0FD
:104FF00083FB0128C0F285800AEB000B002200230E
:10500000002502945046CDF804A00396002657468A
:10501000CDE905320AEB0608D8451DD2741C079865
:10502000E3B2002152460095FBF782FB722813D8A9
:1050300098F80000A0F10901022907D3202805D023
:105040002D2803D05F2818BFB84600BF0A2826467F
:105050004746DFD102E000BF3446B8460AEB040001
:1050600058450FD2039E74B1D0450CD010F8011CE6
:105070002C292FDCA1F10902022A04D3202902D015
:105080002CE000BF039E0498DDE9053278B1B242FE
:105090000DD102984068B04209D901980299AAEB53
:1050A000000001EB4301012B48810C8229D8013318
:1050B000A244022B4FF0000088BF0120DA454FF0D8
:1050C000000138BF0121084018BF0023DA4502441F
:1050D0009CD318E02D29D6D05F29D4D000782C2875
:1050E00008DCA0F109010229CDD3202818BFA8EBC4
:1050F0000A04C8E72D28C6D05F28C4D0A8EB0A044C
:10510000C1E7012000E0501C08B0BDE8F08D00BFF1
:10511000A004000070B50546FFF730FD134E0446AD
:1051200009EB0600A8302946202200F09BFA687897
:105130000F2806DC01280AD0022812D1FFF7F0FA66
:1051400007E0102808D011280BD1606805E0FFF7B0
:10515000B9FA30B1002070BD206809EB0601C1F832
:10516000C40009EB0600A83070BD00BFA004000019
:1051700010B5044600F0C8F90E4804EBC4014844D9
:105180000D4A00EB810105207A4481F8D00001200E
:10519000C1F8CC2081F8C9000848094A78447A440B
:1051A000C1F8D8002046C1F8DC20BDE8104000F06E
:1051B0007BB900BFA0040000D824000075FFFFFFEA
:1051C0006BF9FFFF70B50546FFF7D8FC194E044692
:1051D00009EB0600A8302946202200F043FA68783F
:1051E0000F280BDC012818D0022819D00F281CD159
:1051F000206809EB0601C1F8C40016E01038022847
:1052000013D209EB060090F8A91001F00F0104EB8E
:1052100081014968C0F8C41007E0FFF753FA01E0C4
:10522000FFF77EFA08B1002070BD09EB0600A83038
:1052300070BD00BFA004000010B5044600F064F982
:105240000A480B4A484404EBC4017A4400EB81004D
:105250000621C0F8CC2080F8D010064A01217A44FB
:1052600080F8C910C0F8DC2010BD00BFA004000009
:10527000B6240000ABF8FFFF10B5044600F044F977
:105280000E4804EBC40148440D4A00EB810106209E
:105290007A4481F8D0000120C1F8CC2081F8C900FF
:1052A0000848094A78447A44C1F8D8002046C1F831
:1052B000DC20BDE8104000F0F7B800BFA0040000FB
:1052C000702400001DFFFFFF63F8FFFF70B5054667
:1052D000FFF754FC134E044609EB0600A83029469C
:1052E000202200F0BFF968780F2806DC01280AD0D8
:1052F000022812D1FFF714FA07E0102808D011286D
:105300000BD1606805E0FFF7DDF930B1002070BD1A
:10531000206809EB0601C1F8C40009EB0600A830BB
:1053200070BD00BFA004000010B5044600F0ECF80A
:105330000E4804EBC40148440D4A00EB81010520EE
:105340007A4481F8D0000120C1F8CC2081F8C9004E
:105350000848094A78447A44C1F8D8002046C1F880
:10536000DC20BDE8104000F09FB800BFA0040000A2
:105370008024000075FFFFFFB3F7FFFF80B5FFF744
:1053800021FF58B1064909EB010292F8A920102A21
:1053900022BF494448F20A02A1F8C02080BD00BFE4
:1053A000A004000010B50446FFF746FF0748084A6E
:1053B000484404EBC40100EB81017A442046C1F863
:1053C000D820BDE8104000F06FB800BFA004000076
:1053D000BFFFFFFF70B50546FFF7D0FB144E044634
:1053E00009EB0600A8302946202200F03BF9687836
:1053F000022804D0012807D1FFF764F901E0FFF784
:105400008FF980B1002070BD09EB060090F8A9006B
:1054100010F0F00F07D000F00F0054F8200009EB57
:105420000601C1F8C40009EB0600A83070BD00BF3A
:10543000A0040000B0B50A4C19F8040068B909EBE3
:10544000040505F1C800242100F007F90020C5E992
:1054500007006862012009F804000138B0BD00BFF0
:10546000A004000080B5FFF791FB00B180BD0D489E
:1054700019F80010012909D109EB000100220020D0
:10548000A1F8CA20BDE8804000F00EB80029EDD197
:1054900009EB00014978AA2902BF484469214170FB
:1054A00080BD00BFA0040000B0B5164D044619F839
:1054B000051099B1601C884210D1FDF7F3F909EB92
:1054C000050004EBC40100EB8101002201F1C800DA
:1054D000A1F8CA20BDE8B04000F026B8002918BFE6
:1054E0000121B4F1FF3018BF0120084218BFB0BD40
:1054F00009EB05004078AA2802BF09EB05006921E5
:105500004170B0BDA004000010B50446FDF7CAF913
:1055100004B110BD034824214844C83000F09DF870
:1055200010BD00BFA00400002DE9F04581B0044685
:10553000FEF768F8AA2803D1FEF780F8AA284FD111
:105540006078A0B3608894F80880404531D2DFF8D5
:1055500098A0471C460100BF0130608019F80A007E
:10556000616801EB060568B100EBC00009EB0A01B8
:1055700001EB8000D0F8B41021B128468847A0B1D3
:10558000012800D1284628B1012808BF2846FCF789
:1055900072FA03E009EB0A00407808BB207A8742E0
:1055A00007D2608801372036D6E70020EBE74FF0BE
:1055B00000086088404513D1FEF7C8F86088E168AC
:1055C0000130608019B100200025884720B10648CD
:1055D00021784844417003E00348658048444570A1
:1055E00001B0BDE8F08500BFA004000080B510B197
:1055F000FDF7DAFE03E046F68510FCF72FFEBDE866
:105600008040FCF7D3BF000010B558B10E4C02200B
:1056100009F80400FBF7AEFDB0F1FF3F09DDFDF72F
:10562000EFFE0DE00848002109F8001046F685104D
:1056300004E0002009F804004BF20800FCF70EFE1D
:10564000BDE81040FCF7B2BF98010000130A00EB60
:10565000010C43548CF801207047002200F004B87C
:1056600000F00DB800F018B813460A46194600F0CD
:105670002DB800F000B80A46002100F027B80A440F
:10568000431E914200D1704710B511F8014B914271
:1056900003F8014FF9D110BD884210B501EB0204A7
:1056A00002D98442234607D8431EA14208D011F8EC
:1056B000012B03F8012FF8E7024401468A4200D18A
:1056C00010BD13F8014D02F8014DF7E702440346FF
:1056D000934200D1704703F8011BF9E7EC46A0E8BC
:1056E000F05F4FF000007047B0E8F05FE54608005B
:1056F00008BF0120704700BF034613F8012B002AA2
:10570000FBD1181A01387047256400417070726F20
:105710007665006D2F3434272F363332272F31270B
:10572000002573202825642F256429002F0054723A
:10573000616E73616374696F6E00252E2A73005267
:10574000656A656374005472656500436F6C64201C
:10575000707562206B65793A00436F6E6669726D91
:1057600020416464726573730025730053686F771A
:1057700020686F7420707562206B657900417574C4
:10578000686F72697A650053746172742055700095
:10579000416D6F756E7420313A2000270056657296
:1057A00073696F6E00526563702041646472657343
:1057B0007300416D6F756E743A200041626F7574AD
:1057C00000486F7420707562206B65793A003078FC
:1057D000252E2A48006D2F3434272F363332272FB9
:1057E0003027002E2E2E005472616E736665722073
:1057F00066726F6D3A0054726565204170700041A9
:105800006464726573730051756974004261636BFF
:1058100000312E302E310053746172747570204146
:105820006464726573730000416D6F756E7420322D
:105830003A20002863292032303232205468652013
:1058400050656E00697320726561647900506174FF
:10585000680052656370203120416464726573731F
:105860000053686F7720636F6C6420707562206BE3
:1058700065790025642F256400526563702032200D
:1058800041646472657373000000000000B06DC372
:105890000600802D490000000000000012C94FF9E9
:1058A0004B241200000088B72C0E87A61F020000B0
:1058B00038B1C60AFBF98D35D6C801000000007862
:1058C000D8B0C1C1DB3D7BBE01000000B0040000C8
:1058D000004066333366042066CCCC660200D3FEFB
:1058E0009E070000000000C0303FC3000000000021
:1058F00000C01A000000F00F00000000C006000009
:1059000023C68C11030000003C6666666666663C32
:1059100000000000C679188661180000008E0D0690
:10592000C370183E000000000F0CC681C1601E004D
:1059300000000030383834347E303000000080679A
:10594000181E86611E000000380C043E6666663C28
:10595000000000001F0C06C360300C000000003C7B
:1059600066663C6666663C000000003C6666667CD7
:1059700060301C000000006CC00600006CC01A0003
:1059800000606686611800000000003FF003000020
:1059900000000CC33033030000C083618E01180681
:1059A000000000E0C398DD5B2FBDF67E06E0070037
:1059B0000000183C3C7E667EE7C3000000009FCDDF
:1059C000E6B1D96C3E000000009EC16030180C3C6E
:1059D000000000003E6666666666663E0000008067
:1059E00067189E61181E0000806F189E61180600DF
:1059F00000007C0606766666667C0000000066662F
:105A0000667E666666660000006066666606008002
:105A100031C618638CB10300E666361E3E3666E674
:105A20000000008061188661183E000000709CE351
:105A3000BCE73DEF59CD6E760300000000009C39B5
:105A4000F3E6CD9E3D73E60000000000F8183366D3
:105A5000CC9831637C00000000009FCD66F3190CE8
:105A60000600000000F8183366CC9831637CC00053
:105A70000300001E3636361E363666000000006F04
:105A8000180E87E71E0000C0CF300CC3300C00009A
:105A900000666666666666663C000000C03CCFB382
:105AA000E7790C00000098B3DDEC6635AB71873BFD
:105AB000D8000000000000C3663C3C3C3C66C300CC
:105AC000000080B1CDC6C1603018000000803F0CDE
:105AD0008761380C7F000000C01B638C31C67800E2
