:02000004C0DE5C
:100000002DE9F0418CB062B602F010FC254F4FF4A0
:1000100088746D4600264FF0010800BF09EB070009
:10002000214605F034FC284605F072FC81B2052912
:10003000ADF82C001CD021BB284603F085FC0A90AB
:1000400002F040FD304604F0CDFB404604F0CAFB10
:1000500002F0D6FB02F0DAFA03F06CFCA84202D1FF
:100060000A9803F071FCBDF82C000028D6D017E0E8
:100070000A98ADF82C6003F067FC0A9803F064FC62
:10008000CCE70A980024ADF82C4003F05DFC0A98F8
:1000900003F05AFC02F028FB20460CB0BDE8F081CA
:1000A00002F0C7FBB0050000F0B5F5B06DAE0D462F
:1000B000074630462021144605F0E9FB142C18D3DE
:1000C00002A84FF4807101F03FF9C0B920200190DF
:1000D00002A801213A464023009601F02DF970B99B
:1000E00002A801F025F906F10C012846142205F0BA
:1000F000D1FB0020132C88BF012075B0F0BD02F0A9
:1001000098FB00002DE9F04D8EB090F800B0044649
:100110000BF07F0ABAF1050F0D910B9200F0B98038
:10012000208B154600F0E0FA002800F0B28090F82D
:1001300006C020894FF0000E08900D98002800F0AE
:100140008681002D00F08381E18843F23903643118
:1001500089B2208BCDE900310D99EAB20026CDE9B4
:1001600003120021002243F239030027D046CDF8C4
:1001700028C002960C97059600F0F2FAE188052D4A
:100180001FFA80FACDF818B0C0F0AC81514580F06C
:10019000A981208BEB4A002603217A44642343F291
:1001A0003907CDE90073CDE90262049100210022F4
:1001B00043F23903059600F0D3FA0D9AE1884FEA2D
:1001C000550EB6EB550F02EB55020C9200F08B81E9
:1001D000DDF828C08A4540F28881B5EB0E0700F0B3
:1001E000848180B20990002643F23903208BCDE947
:1001F00000310D995FFA8EF24FF0000ACDE903123B
:100200000021002243F23903F346CDF808A0CDF8CF
:1002100014A000F0A5FAE18843F2390385B2208BDF
:10022000CDE900310C99FAB2CDE903120021002288
:1002300043F23903CDF808A0CDF814A000F090FAED
:10024000099980B26A18E18802EB000A8A4540F2F7
:100250004482012E06D046B9DE46DDF828C0ABF157
:10026000010E05E00C9801300C90DDF828C0DE4648
:100270000B9DBEF1000F18BF8A4540F23681DDE9C3
:100280000C20801A47194FF0010020EA0606ABD176
:100290002BE100200C9000204FF0000E08904FF052
:1002A000000C0020079000200990E3882689E77A57
:1002B00058087108B0EB560F0A4638BF5A08BA42C0
:1002C000B84603D888422CBF88468046AAF1010070
:1002D000042807D3BAF1060F00F0BC80BAF1070F6B
:1002E00040F0D080BAF1040F08BF002F0BD0BBF153
:1002F000810FCDF828C00FDCBBF1020F13D0BBF18A
:10030000070F10D0C1E02069B4F90210B4F904203D
:10031000009603F059FBB5E0BBF1870F03D0BBF1AA
:10032000820F40F0B2806069B4F90210B4F9042081
:10033000BAF1070F08BFA2EB0C02089F08BF3E46A8
:100340000096754603F040FBAC460B98DDF828E0BC
:10035000002800F097800D98002800F09380BAF1F3
:10036000040F00F08F805846D4F8108062690BF0BB
:100370007D00012806D1207B0128404604BF10469D
:1003800042468046079EB4F90210099DB346208B71
:10039000B4F904706B18BAF1070F08BFCEF1000B67
:1003A000E1880BEB070E491BBAF10707258918BF37
:1003B0003746CDE900E10D99ED1B0026CDE9031C80
:1003C000414602950596154600F0CAF90C99002998
:1003D00058D0B4F90420E188DDF824A00895B4F8D9
:1003E00018E083B20BEB02002A462589A1EB0A062E
:1003F000BC49ED1B79444FF0030CCDE90006CDE973
:100400000251704641460026CDF810C0059600F016
:10041000A7F9E3882589B4F90410A3EB0A0683B28F
:10042000E81B0B9F0D9D0BEB01022F440C9D218BB4
:10043000CDE9002602AA7F1BA1C2089A4FF0000C4A
:1004400008464146CDF814C000F08AF91AE00020B1
:100450000C9026E7B4F90210B4F90420237B20693C
:100460003944012B3A4404D0A37A9F4201D9FB1AA4
:1004700000E000236669FF25CDE900533B46029664
:1004800000F062FA0EB0BDE8F08D207BCDF820E0E0
:10049000012859D1B4F902102069B4F9042041446B
:1004A000A3EB4803009603F08FFAB4F904202389E4
:1004B0002069B4F902104244A3EB48074346009771
:1004C00003F082FAB4F90220E188B4F904302789F4
:1004D0002069A2EB0802114408EB0302A7EB4807CE
:1004E000434694E0AE46DDF828C0208B00F440423D
:1004F000B2F5004F05D0B2F5804F08D1A1EB0A014B
:1005000002E04908A1EB5A0121EAE17100E0002173
:10051000DDF818B000F44050C246B0F5005F099114
:1005200006D0B0F5805F09D12089A0EB0C0006E071
:1005300020896FEA5C0101EB500000E00020079089
:10054000B3E600BF61580000B4F902106069B4F965
:1005500004204144A3EB4803009603F035FAB4F9B4
:10056000042023896069B4F902104244A3EB4807D0
:100570004346009703F028FAB4F902306FEA080204
:10058000E188B4F904701A4423896069114408EBC6
:100590000702A3EB48074346009703F015FAB4F9A6
:1005A0000210E3882069B4F90420A77A4144A3EB40
:1005B0004803009703F008FAB4F904202389B4F93A
:1005C00002101A44E3882069A77A4144013AA3EB58
:1005D0004803009703F0F8F9B4F90420278920694B
:1005E000B4F90210A37A4244A7EB4807009703F03E
:1005F000EBF9E188B4F90220B4F9043027892069C5
:10060000114408EB0302A37A0139A7EB48070097CE
:1006100003F0DAF9DDF820C0B8F1020FFFF495AE6F
:10062000207BCDF818B001284FF0000B04D0A07A41
:10063000B8EB000028BF8346B4F90210B4F90420D7
:10064000D4E90407C02341444244CDE9003B43467A
:10065000029700F079F9E188A27AB4F90230B4F98E
:10066000047020691944424466693023891A08EBF2
:100670000702CDE9003B4346029600F065F9B4F964
:1006800004202389A77AB4F902101A4408EB07035F
:1006900020696769D21A0C234144CDE9003B4346E7
:1006A000029700F051F9E188A27AB4F90230B4F966
:1006B0000470194442442389891ABA1A2069676967
:1006C0001A440323CDE9003B4346029700F03CF96E
:1006D000DDF818B0DDF820C037E6DDF828C0DE46CA
:1006E00003E700BF07560000F0B581B00E490F4E7A
:1006F0007944044608687E446FF31F3488B106EBE2
:10070000800151F8045C471E284602F04DFF006846
:10071000A0423846F2D1284601B0BDE8F04002F0D0
:1007200043BF002001B0F0BDEC660000DA660000B7
:1007300080B586B09C464FF0000E43F23903CDE9F8
:100740000031CDE902E20021002243F23903CDF865
:1007500014E0CDF810C000F003F880B206B080BD00
:100760002DE9F04DA0B0289F43F2390583EA050634
:100770007D4056EA0504254608BF27460F970B9390
:1007800018BF1D460892CDE91021FFF7ADFF0028E4
:1007900000F0C980DDF8B0A08346B4FA84F0BAF165
:1007A000000F4FEA50100D9000F0BF80DDE92910D6
:1007B0009BF8042029440E910F992B9B0844079025
:1007C000012090400A92099013F8014BBBF80810E1
:1007D0009BF805E08C4203D3BBF80A00A0420FD27D
:1007E000C02C03D304F03F04002605E060B2B0F152
:1007F000FF3F65DD002600244FF000081CE000BF2D
:10080000DBF81000671A0C93764602F0CDFEDBF899
:100810000C100446084602F0C7FE00EB8700418832
:10082000DBF80C0004EB010802F0BEFEB6460C9BA0
:1008300010F827409BF807600F9A0D98002805EBE9
:10084000040005D00E99A9B30E99884232D975E0FB
:100850000E9988420ADD0F9A0799724402EB0E0046
:100860000B9F884210460F9201DD6BE02F46B8F1D6
:10087000000F14D0B4460A9E09990EFB06F060439F
:10088000009110A90191CDE9038038461146224616
:100890001D4673460296664603F07CF807E008980A
:1008A00039461D462346CDF800E003F08DF8A01927
:1008B0002B463844BAF1010A05467FF485AF35E08E
:1008C000A0064FF00F00CDF818E00C9358BF0E2093
:1008D000FFF70AFFF0B10746006902F065FEF9680C
:1008E0008046084602F060FE04F01F0400EB84001E
:1008F0004188F868884402F057FE10F824409BF8BD
:1009000006000F9AB97997F805E010440C9B421A3B
:10091000002692E70F9A0C9BDDF818E000260024D1
:100920004FF0000889E7002508E028460D9909B135
:10093000054603E080B20F9940EA0145284620B001
:10094000BDE8F08DA8B2F6E72DE9F04D98B017920A
:10095000219A07469E1A002A104618BF012000253A
:10096000002E1296C8BF0125002B1393169100F19B
:10097000C281139E209928401590C6F10100119064
:1009800001F00100129B109001F002000C90581E23
:10099000079001F004000D9001F008000B9001F0A9
:1009A00010000F9001F020000A9001F040000E901E
:1009B00001F0800009901698911B1044801B039150
:1009C000C3F10101CDE9051001304FF0000B4FF0EC
:1009D000FF314FF0010A4FF000080490089700BF64
:1009E00010984C1C149128B90C98002853D01598D5
:1009F00018BB46E01598C8B31798A2460844451C92
:100A000007983C46169F331A22984FF0010C39463E
:100A10002A46CDF800C002F0D7FF0599F019274605
:100A2000129B54464FF0010A014438462A46CDF83D
:100A300000A002F0C9FF0C9868B31398B042179851
:100A400006EB00050AD0039814992A460844831C33
:100A500022981699CDF800A002F0B6FF06981499D6
:100A6000129B0844811C38462A4610E017983346EA
:100A7000421816993846CDF800A002F0A5FF0C9850
:100A800048B1179816993044421E38462346CDF88F
:100A900000A002F099FF0D9830B90B9800285DD0A6
:100AA000159830BB38E000BF159800281698A0EBC9
:100AB000060525D017981499DDF81CA00844471C9A
:100AC00022984FF0010CA6EB0A0329463A46CDF8CE
:100AD00000C002F079FF0898129BA5EB0A014FF0C5
:100AE000010A3A46089FCDF800A002F06DFF0B986E
:100AF000A0B31398B04218D11798351824E000BF5E
:100B0000179814993346421838462946CDF800A064
:100B100002F05AFF0B9808B31698234600EB0B011E
:100B200017983044421E384614E01698149A00EB89
:100B30000B011798CDF800A0351803981044831CBA
:100B400022982A4602F040FF0498129B00EB0B010A
:100B500038462A46CDF800A002F036FF0F9828B993
:100B60000A98002855D0159828BB49E01598DDF85B
:100B70005CA0DA44C0B30798CDF80880A0463C4694
:100B8000169F331A2298394652460125009502F0E5
:100B90001BFF0599F0192746129B4446DDF8088093
:100BA0000144384652464FF0010ACDF800A002F049
:100BB0000BFF0A9868B313981499B0421798A0EBEA
:100BC00006050AD003982A460844831C22981699E1
:100BD000CDF800A002F0F8FE14990698129B084484
:100BE000811C38462A4610E016993846524633464C
:100BF0004FF0010ACDF800A002F0E6FE0A9840B1DD
:100C000017981699821B38462346CDF800A002F0AB
:100C1000DBFE0E9830B90998002857D0159818BBFC
:100C200033E000BF1698871B15980028179800EB33
:100C30000B051FD0A246079C22984FF0010C331BD6
:100C400039462A46CDF800C002F0BEFE391B089F87
:100C5000129B54464FF0010A38462A46CDF800A0B0
:100C600002F0B2FE099888B31398B04215D11798D4
:100C7000851B21E0089839462A4633460746CDF8B9
:100C800000A002F0A1FE099800B31698234600EBDD
:100C90000B011798821B384614E01698149A00EB43
:100CA0000B011798CDF800A0851B03981044831CF6
:100CB00022982A4602F088FE0498129B00EB0B0152
:100CC00038462A46CDF800A002F07EFE08F1010861
:100CD000119A701E4146012AACBF091A304602EB38
:100CE000410101311191ABF1010B84422146139670
:100CF0000646FFF675AE18B0BDE8F08D2DE9F04D53
:100D000088B00E468968022926D8B0F90220B0F9C9
:100D1000040007920690F0680122D6E9007B02FAEF
:100D200001F802F041FC3169D6F808A005460846F2
:100D300002F03AFC0446B168D6E900025B4648433B
:100D400050430490DDE906103A46CDE90085CDF820
:100D500008A0039402F01EFE08B0BDE8F08D00006C
:100D6000B0B5A2EB010C8C454FF0000E16DD0D4C1A
:100D70004FF0010E7C44425C002300BFE55CAA42B8
:100D800004D001333A2BF9D108E000BF01316145AD
:100D90004FF0000EB8BF4FF0010EECD1012020EA59
:100DA0000E00B0BD6C60000080B5A2EB010C8C455C
:100DB000DCBF012080BD435C303B092B84BF002099
:100DC00080BD4B1C6FEA4101114400BF1A4639B186
:100DD000835C0139A3F1300E531CBEF10A0FF5D329
:100DE00000206245A8BF012080BD000010B5A2EB25
:100DF000010C8C454FF0000318DDA2EB41020123EA
:100E000010F801E0AEF130040A2C07D3AEF1610412
:100E1000062C03D3AEF14104052C07D801316145FE
:100E20004FF00003B8BF0123013AE9D101209843F4
:100E300010BD000010B5A2EB010C8C454FF0000373
:100E400019DDA2EB4102012310F801E00EF0DF04EE
:100E5000413C1A2C07D3AEF130040A2C03D34EF0D8
:100E60002004202C07D1013161454FF00003B8BFA9
:100E70000123013AE8D10120984310BD2DE9F04D3E
:100E8000ACB00DF1080B8A4680465846A6211E4696
:100E9000154604F0FCFCBAF1780F58D84FF0000C5E
:100EA000BAF1000F09D000BF18F80C0028B90CF1F6
:100EB000010CE245F8D1002739E0BAEB0C004FF005
:100EC0008A0101FB00F03249A0FB01014FEA5117F2
:100ED0002CD930493A226346BE463C46CDE90056FD
:100EE00018F80350671E74461BF80400BC4205EB5B
:100EF000002080FB015606444FEA661505EBD675C7
:100F000005FB12060BF8046002D83930732805D3AC
:100F1000002CA4F10104E7DC4FF0FF34013353450A
:100F2000DED1DDE90056E246774600E0E246781C75
:100F3000002400BF1BF8041019B90134A042F9D1F4
:100F400004460AEB0700001B0130B04204D94FF001
:100F5000FF302CB0BDE8F08D28465146312204F018
:100F60009DFCBC4201D95046F3E70B4A381B411C9B
:100F70007A440BEB040300BF13F8010B0139175C33
:100F80000AF1010005F80A708246F5D1E1E700BFD9
:100F90001F85EB5109CB3D8D705E00002DE9F045BA
:100FA00081B00746581E09284FF0000016D81C468D
:100FB00090468A46012600253846294602F012FB53
:100FC00048F805000435A6424FF0000028BF012074
:100FD000554503D8A64206F10106EDD301B0BDE8A0
:100FE000F08500002DE9F04D84B015460A460191C8
:100FF000013909290393029158D807462D484FF02B
:10100000000A78444FF000084FF0000B009000BF3A
:10101000039957F82A0005EB0B04A1EB0B06009A85
:1010200020F000432046314602F0E8F8204604F064
:101030007DFCB8B3B04235D257F82A108344B1F1E1
:10104000FF3F11DC03981C4A05EB0B04A0EB0B06D9
:101050007A442046314602F0D1F8204604F066FC7E
:1010600000B3B0421ED283440298504511D0039879
:10107000124A05EB0B04A0EB0B067A4420463146DE
:1010800002F0BCF8204604F051FC58B1B04209D23D
:10109000834408F1010801981FFA88FA8245B7D302
:1010A000012004E00399284604F0F1FB002004B07D
:1010B000BDE8F08D364900004C490000D4480000DE
:1010C0008268891805D2426891429EBF81600120E2
:1010D000704700207047D0E901C39C450AD00268E0
:1010E000D25C0A708168013106D24268914298BF91
:1010F000816001E000200870BCEB030018BF0120F4
:101100007047B0B5044615460A460068D4E9013177
:101110000844591A2B46FFF741FF40B1A26802EB81
:101120008501914203D36268914298BFA160B0BD2E
:10113000B0B5D0E901531446ED1A954206D80068BF
:10114000C218084611462A4604F0A6FB0020A54214
:1011500098BF0120B0BDB0B50446D0E901301546B6
:101160001A1AAA4284BF0020B0BD2368034408466F
:10117000194604F091FBA068401903D261688842C7
:1011800098BFA0600120B0BD2DE9F04D96B08B4610
:1011900082460EA820211F46904604F078FB02A844
:1011A00004F0B6FB84B2ADF8340054BB02A802F0E0
:1011B000CBFB21240EAD0C906E46204641463A46AC
:1011C0002B46C6F800B002F043FB202220462946F9
:1011D000534600F0A9F890B902F0ACFB02A988428E
:1011E00002D10C9802F0B0FB0EA8202104F05BFBAA
:1011F000BDF8340018B9002016B0BDE8F08D01F03C
:1012000018FB0C980021ADF8341002F09DFB20462D
:1012100001F00FFBB0B514460246212001230D4614
:1012200000F07EF838B905F109012046402204F0AB
:1012300033FB0020B0BD01F0FCFA00002DE9F041C5
:10124000A4B018AD2821284604F021FB10AE2024BC
:101250003046214604F01BFBDFF8B880314609EB2D
:10126000080090F8FC3200F535722846FFF78CFF35
:1012700004A804F04DFB81B20029ADF83C003ED13A
:1012800004AD284602F060FB0E904820239009EB45
:1012900008006E4623A900F5207222AFC6E900427D
:1012A000B16000F5187318A840F201610322F760DD
:1012B00000F032F808BBDDE9224602F03BFBA84211
:1012C00002D10E9802F040FB18A8282104F0EBFA96
:1012D000BDF83C0088B9002E0AD4484609EB080046
:1012E00004F0010180F8C86280F8C912002001E012
:1012F0004FF0FF3024B0BDE8F08101F09AFA0E986B
:101300000C460021ADF83C1002F01EFB204601F017
:1013100090FA00BFA802000003B44FF0240023E0BD
:1013200003B44FF02A001FE003B44FF02B001BE082
:1013300003B44FF0390017E003B44FF03C0013E062
:1013400003B44FF03E000FE003B44FF04E000BE04B
:1013500003B44FF0600007E003B44FF0620003E015
:1013600003B44FF07B00FFE700490847018080008D
:10137000B0B504464068B0F5FF7F01D9F92066E0BA
:101380000D462068A1680A2208440021FFF70CFDE1
:1013900000284BD02068A1680844286220460A2112
:1013A000FFF78EFE002843D005F124012046FFF709
:1013B00092FE00283ED02168A2688818A862895C45
:1013C000012904D101212022FFF734FDB0B32046CA
:1013D0002121FFF775FE78B3A86A0078013802284A
:1013E0002ED820460121FFF76BFE2068A168082255
:1013F00008440221FFF7FAFC20B32068A1682222EA
:1014000008440921FFF7ACFCF0B12068A16808444A
:10141000E86220462B21FFF753FEB8B1D4E9011250
:101420006FF006008A4208BF012010E0F8200EE0AD
:10143000F7200CE0F6200AE0F52008E0DC2006E0CA
:10144000F42004E0F32002E0F22000E0F12040B2BA
:10145000B0BD70B504464068B0F5FF7F01D9F920F2
:10146000E0E00D462068A1680A2208440021FFF749
:101470009BFC002800F0BD802068A1680844286219
:1014800020460A21FFF71CFE002800F0B48005F179
:1014900024012046FFF71FFE002800F0AE802068E0
:1014A000A168082208440021FFF7A0FC002800F0F2
:1014B000A6802068A168222208440921FFF750FC79
:1014C000002800F09E802068A16808442863204618
:1014D0002B21FFF7F5FD002800F095802068A1681A
:1014E0000844686320462021FFF7EAFD002800F049
:1014F0008C8005F1380620463146FFF7ECFD0028C8
:1015000000F085802068A168082208440021FFF7C8
:101510006DFC00287DD02068A168222208440921A2
:10152000FFF71EFC002876D02068A1680844E86315
:1015300020462B21FFF7C4FD00286ED02068A1684B
:10154000102208440021FFF72FFC002867D02068F4
:10155000A1680844286420461021FFF7B1FD002847
:101560005FD0307802282DD32068A1680822084473
:101570000021FFF73BFC002856D02068A1682222FA
:1015800008440921FFF7ECFB002851D02068A1682E
:101590000844686420462B21FFF792FD002849D0BB
:1015A0002068A168102208440021FFF7FDFB0028F5
:1015B00042D02068A1680844A86420461021FFF7A3
:1015C0007FFDD8B32068A1680844E8642046212143
:1015D000FFF776FDE8B1E86C007800F0FE00022825
:1015E00024D1D4E901126FF006008A4208BF01201D
:1015F00018E0F02016E0EF2014E0EE2012E0ED20DD
:1016000010E0EC200EE0EB200CE0EA200AE0E920FC
:1016100008E0DE2006E0E72004E0E62002E0E52026
:1016200000E0E42040B270BDE320FBE7DD20F9E7F5
:10163000E220F7E7E120F5E7E020F3E7DF20F1E73C
:1016400080B584B00178E02913D1417800220429C3
:1016500003920292019213DC03291FD0042938D18E
:101660008178002948D1C078002845D100F05EFB80
:1016700046E04FF4DC4004B0BDE8804000F0C2BF5B
:10168000052912D0062924D1817829B3032933D81A
:10169000C27842F08003802B22D02DE0817859BBA4
:1016A000C07848BB00F0A4FB2AE08178012923D848
:1016B000C2780ABB82682AB300790029CDE90120EB
:1016C0004FF00000039001A818BF012100F042FB79
:1016D00016E04FF4DA4011E0C278802A0CD1802263
:1016E00083687BB10079D209CDE9013000200390F5
:1016F00001A801F0D7FF03E046F6862000F082FF44
:1017000004B080BD46F68720F8E70000024859F88B
:1017100000100120084700BF68000000024859F887
:1017200000100020084700BF6800000070B586B0B8
:101730002C4D09EB050090F8D00219F8051008436C
:1017400005D000214BF2070009F805103CE02648BF
:101750003C2109EB0004204604F099F809EB050050
:1017600090F8FC1200F5357022463C23FFF73AFC56
:1017700040B31E4E2B2109EB060004F088F801ACA3
:101780002046142104F083F809EB050008302146B7
:101790001422FEF789FCE0B1164A09EB06007A44F0
:1017A0002B211423009401F029FD1349104879449A
:1017B00049F800101149002079440022002403F068
:1017C00077FA0BE04BF2010006B0BDE8704000F084
:1017D00019BF4BF2020000F015FF0446204606B088
:1017E00070BD00BFA8020000000000003C00000027
:1017F00068000000474200006F4000000C570000E6
:10180000024859F800100120084700BF6800000096
:10181000024859F800100120084700BF6800000086
:10182000F0B58BB03D4D09EB050090F8D0020128D2
:1018300015D119F80500012811D109EB0500D0F8E0
:1018400038020178012914D1364A411C09EB0204FF
:101850002046202204F020F804F1200016E00021A8
:101860004BF2070009F805100BB0BDE8F04000F09E
:10187000C9BE2B4A09EB0500D0F8301209EB02046F
:1018800020460A2204F008F804F10A000027264A3C
:10189000077009EB0500D0F83C1209EB0204204662
:1018A0002B2203F0F9FF84F82B7004F1090102AC3C
:1018B0002046222203F0EEFF204600F0B3F9E0B10B
:1018C0004D441A48D5F838621A4A09EB00047A44A4
:1018D000204645212123009601F090FC84F84470B5
:1018E000154913487944D5F8382249F80010107882
:1018F000012808D11149794407E047F2010000F0BE
:1019000081FE044606E00E497944002000220024AE
:1019100003F0CEF920460BB0F0BD00BFA8020000D6
:101920006C000000E8000000BC0000007700000030
:101930006800000017410000553F00007656000087
:1019400020560000024859F800100120084700BF47
:101950006800000070B5264D09EB050090F8D00234
:10196000012838D119F80500012834D109EB050008
:10197000204AD0F8400209EB020400F10901204698
:10198000222203F089FF0026204684F8226000F01E
:1019900049F930B34D44184AD5F84C0209EB02041A
:1019A00000F109012046222203F076FF1349D5F801
:1019B0005002494484F8226000F07AF91149104835
:1019C000794449F80010104900207944002203F0BE
:1019D0006FF9002070BD00214BF2070009F80510D7
:1019E00001E047F20100BDE8704000F00BBE00BF0F
:1019F000A80200000C010000380100006401000092
:101A000068000000793E00002A56000070B52F4D96
:101A100009EB050090F8D00201284BD119F8050018
:101A2000012847D109EB0500294AD0F8400209EB0B
:101A3000020400F109012046222203F02DFF0026B6
:101A4000204684F8226000F0EDF8C8B34D44214AE6
:101A5000D5F84C0209EB020400F1090120462222CC
:101A600003F01AFF1C4AD5F8540284F8226009EBEF
:101A7000020400F109012046222203F00DFF17495C
:101A8000D5F85002494484F8226000F011F9144955
:101A9000D5F85802494400F00BF91349114879442C
:101AA00049F80010114900207944002203F000F9A0
:101AB000002070BD00214BF2070009F8051001E07D
:101AC00047F20100BDE8704000F09CBDA802000094
:101AD0000C010000380100007801000064010000E2
:101AE000A4010000680000009B3D0000C4550000F8
:101AF0002DE9F04DB6B02CAF0D46DDF8F880044668
:101B000038462821924603F0C2FE0DF1640B584678
:101B10004C2103F0BCFE01AE06F1400138462246DE
:101B20002B46FFF731FB384659463246FFF772FB2A
:101B30003846282103F0B7FE094A50467A4440212E
:101B40004023009601F05AFB40463146402203F004
:101B5000A1FE00208AF8820036B0BDE8F08D00BFFB
:101B6000A93E00002DE9F041C8B08846014690F832
:101B70003F008DF87420012262F35F000DF10B0528
:101B80008DF80B00681C202203F084FE28AE284646
:101B9000212132462023FFF7D3FB30AD2846FFF743
:101BA000D7FB23A814240090284601213246202385
:101BB0000194FFF7C1FB90BB30A8FFF7B9FB1DAD47
:101BC000681C23A9142203F065FE15AE28461521D2
:101BD00032462023FFF7B4FB304620213246202333
:101BE000FFF7AEFB0BA8DCCD0146DCC12A78159BC4
:101BF0000A70190E8DF84410190C8DF84310190A4B
:101C00008DF841308DF84210192142462223FFF70A
:101C100035F9002088F8220048B0BDE8F08100F0D6
:101C200008FE000070B582B01C4904461C4809EB50
:101C3000010609EB00051B4896F8FC1209EB0002AF
:101C400006F535700095FFF753FFD6F8DC0216490C
:101C5000164E2822884209EB0601284608BF1C229E
:101C6000FFF780FF207819F80610884213D1601C16
:101C7000002200BF1146212A08D009EB06030B44BD
:101C8000425C5B789A4201F10102F3D000202029E6
:101C900088BF012000E0002002B070BDA802000053
:101CA00039020000B6010000010000807902000046
:101CB0002DE9F041002200BF835C302B04D10132BA
:101CC000102AF9D1002210E0092A0ED930220A7018
:101CD0002E224A708A1C0A30002300BFC65CD654EC
:101CE0000133062BFAD108201CE0C2F1090CC2F125
:101CF0000A0E8B1A00254FF02E08002696420CD3B0
:101D0000092E07D1457A01F80E8001F80C50012503
:101D100003E000BF875D5C19A7550136102EEDD199
:101D2000A81A103000220A54BDE8F08180B584B0B2
:101D30000748784401F038FC01900420029000200C
:101D4000039001A84FF4104100F014FC04B080BDD2
:101D50003B3C0000F0B59DB0244F0C4609EB070654
:101D6000054630464FF4427103F09DFD002086F891
:101D7000D00209F8070013A8282103F088FD68465F
:101D80004C2103F084FD06F53F712846FFF7A3F9C7
:101D900018B309EB070090F8FC2200F535712846CE
:101DA000FFF7AFF9C8B109EB070696F8FC3213AD9F
:101DB00006F1480106F535722846FFF7E5F906F108
:101DC000080269462846FFF725FA2846282103F02D
:101DD0006AFD44B1FFF7AAFC03E046F6872000F055
:101DE00011FC1DB0F0BD01F009FCFAE7A8020000EB
:101DF00080B584B0022101208DF803100DF101019E
:101E00008DF801000020019103218DF80200CDE939
:101E1000021001A84FF4104100F0ACFB04B080BDEB
:101E200000F095BEF0B581B0DFF8A05619F80500B6
:101E30000D2805DC052800F0FA800D2812D087E077
:101E40000E2800F06A81152840F08280DFF88806AD
:101E500048448079012805D109EB05008079000705
:101E600040F13083DFF86856012009F8050009EBDE
:101E7000050400206060204601F006FD042001F00A
:101E800071FD0028606000F01583972800F0128330
:101E9000692840F06A8200F02FFE00F02FFEDFF884
:101EA0003446002009EB0406A6F8CA00042001F01D
:101EB00059FDD6F8CC1009EB05020029506000F05E
:101EC000F982002800F0F682972800F0F38209EBEF
:101ED0000400B0F8CA1090F8D000814280F0EA8285
:101EE00001F0AAFCAA2804D101F0C2FCAA2840F003
:101EF000E18209EB0401B1F8CA0091F8D0209042C8
:101F000080F07881014609EB0402D2F8D830D2F88B
:101F1000CC2002EB40103BB1984760B109EB0401C3
:101F2000D1F8CC20B1F8CA1089B2012808BF02EB61
:101F3000411000F00CFE09EB0403B3F8CA0093F85B
:101F4000D020411C88B29042A3F8CA10DBD351E1E3
:101F5000DFF87C55012009EB050409F8050000268F
:101F60002046666001F090FC042001F0FBFC69282B
:101F7000606040F0458100F0BFFD00F0BFFDDFF87C
:101F80005445042009EB0407A7F8CA6001F0EAFCF5
:101F9000D7F8CC1009EB05020029506000F08A82C6
:101FA000002800F08782972800F0848209EB040063
:101FB000B0F8CA1090F8D000814280F07B8201F026
:101FC0003BFCAA2804D101F053FCAA2840F07282FD
:101FD00009EB0401B1F8CA0091F8D020904280F0DA
:101FE0000981014609EB0402D2F8D830D2F8CC209E
:101FF00002EB40103BB1984760B109EB0401D1F806
:10200000CC20B1F8CA1089B2012808BF02EB4110F8
:1020100000F09DFD09EB0403B3F8CA0093F8D0204B
:10202000411C88B29042A3F8CA10DBD3E2E0DFF88B
:10203000A064012009F8060009EB06040020606096
:10204000204601F021FC042001F08CFC0028606097
:1020500000F03082972800F02D82692840F0CD8171
:1020600000F04AFD00F04AFDDFF86844002009EB6B
:102070000405A5F8CA00042001F074FCD5F8CC10C2
:1020800009EB06020029506000F01482002800F0DD
:102090001182972800F00E8209EB0400B0F8CA10F4
:1020A00090F8D000814280F0058201F0C5FBAA289B
:1020B00004D101F0DDFBAA2840F0FC8109EB04010A
:1020C000B1F8CA0091F8D020904280F09380014688
:1020D00009EB0402D2F8D830D2F8CC2002EB401041
:1020E0003BB1984760B109EB0401D1F8CC20B1F8BD
:1020F000CA1089B2012808BF02EB411000F027FD89
:1021000009EB0403B3F8CA0093F8D020411C88B24D
:102110009042A3F8CA10DBD36CE0DFF8B46301206F
:1021200009EB060509F80600002728466F6001F054
:10213000ABFB042001F016FC6928686040F0A98020
:1021400000F0DAFC00F0DAFCDFF88843042009EB49
:102150000405A5F8CA7001F005FCD5F8CC1009EB10
:1021600006020029506000F0A581002800F0A2813D
:10217000972800F09F8109EB0400B0F8CA1090F88E
:10218000D000814280F0968101F056FBAA2804D14C
:1021900001F06EFBAA2840F08D8109EB0401B1F833
:1021A000CA0091F8D020904224D2014609EB0402E3
:1021B000D2F8D830D2F8CC2002EB40103BB198478F
:1021C00060B109EB0401D1F8CC20B1F8CA1089B292
:1021D000012808BF02EB411000F0B9FC09EB040331
:1021E000B3F8CA0093F8D020411C88B29042A3F8FB
:1021F000CA10DBD3904240F05D8101F0C1FB59E190
:10220000B44C09EB0400D0F8CC00002800F0488161
:1022100009EB0400B0F8CA1090F8D000814280F0B9
:102220003F8101F009FBAA2804D101F021FBAA2873
:1022300040F0368109EB0401B1F8CA0091F8D020D2
:10224000904280F02981014609EB0402D2F8D8308F
:10225000D2F8CC2002EB40103BB1984760B109EBBB
:102260000401D1F8CC20B1F8CA1089B2012808BF06
:1022700002EB411000F06BFC09EB0403B3F8CA0059
:1022800093F8D020411C88B29042A3F8CA10DBD347
:1022900002E1904D044609EB0500D0F8E400A0B13E
:1022A000B0F1640238BF002209EB05016428C1F8CF
:1022B000E4200AD8D1F8E01039B109EB0500D0F8D4
:1022C000E820C0F8E42000208847002C00F0F280CD
:1022D000972C00F0EF8009EB0500D0F8CC00002827
:1022E00040D009EB0500B0F8CA1090F8D000814248
:1022F00038D201F0A1FAAA2803D101F0B9FAAA282C
:1023000030D109EB0501B1F8CA0091F8D020904214
:1023100024D2014609EB0502D2F8D830D2F8CC20FD
:1023200002EB40103BB1984760B109EB0501D1F8D1
:10233000CC20B1F8CA1089B2012808BF02EB4110C5
:1023400000F005FC09EB0503B3F8CA0093F8D020B0
:10235000411C88B29042A3F8CA10DBD3904208BF58
:1023600001F00EFB09EB05009CE05A4C09EB040060
:10237000D0F8CC00002800F0938009EB0400B0F8FE
:10238000CA1090F8D000814280F08A8001F054FA9F
:10239000AA2804D101F06CFAAA2840F0818009EB48
:1023A0000401B1F8CA0091F8D020904274D20146DD
:1023B00009EB0402D2F8D830D2F8CC2002EB40105E
:1023C0003BB1984760B109EB0401D1F8CC20B1F8DA
:1023D000CA1089B2012808BF02EB411000F0B7FB18
:1023E00009EB0403B3F8CA0093F8D020411C88B26B
:1023F0009042A3F8CA10DBD34EE0364C09EB040040
:10240000D0F8DC0028B109EB0501C978490800F0D3
:10241000C5FB09EB0400D0F8CC00002840D009EB44
:102420000400B0F8CA1090F8D000814238D201F010
:1024300003FAAA2803D101F01BFAAA2830D109EB2C
:102440000401B1F8CA0091F8D020904224D201468C
:1024500009EB0402D2F8D830D2F8CC2002EB4010BD
:102460003BB1984760B109EB0401D1F8CC20B1F839
:10247000CA1089B2012808BF02EB411000F067FBC7
:1024800009EB0403B3F8CA0093F8D020411C88B2CA
:102490009042A3F8CA10DBD3904208BF01F070FA53
:1024A00009EB0400B0F8CA1090F8D000814228BFB0
:1024B00001F028FA01F026FA08B900F0C1F901206C
:1024C00001B0F0BD052000F0B4F900BFC006000067
:1024D000EC070000B0050000C40A000010B5044677
:1024E00000F0070001280AD0022811D10A48484408
:1024F00039B101F0FBF9200648BF01F093F9002043
:1025000010BD4FF482710022BDE8104001F004BA02
:10251000022000F08EF900BFC009000010B5134C76
:1025200019F8040002280ED0012812D0002818BF84
:1025300010BD0F48012239F80010002009F80420CE
:1025400000F08EFB10BD002009F804004FF0FF30B2
:1025500010BD0748022239F80010102009F80420A5
:1025600000F07EFB012109F8041010BDA00200005C
:102570009C02000070B50C46B8B105464068A968D9
:10258000401AB0F5817F0CD81B484FF4827209EBDA
:1025900000012846FEF7CCFD18B1D5E90101411A2A
:1025A00004E000214FF4304400E000211248134DB4
:1025B0004844224649F8051003F062F9104C59F8D6
:1025C000050019F80410023001294FF0000649F8FF
:1025D000050009D002290BD181B2202000F040FB78
:1025E000002149F8051000E0002009F8046070BDE2
:1025F0004FF0FF3070BD00BFC00900009C0200001A
:10260000A002000001460020FFF7B4BF2DE9F0450D
:102610008FB03149002649F801603049304A09F845
:10262000016009EB02004FF4427103F03CF9DFF85E
:10263000B4A06C460CAD46F6872800BF204603F0D8
:1026400067F987B2ADF82C0057B1052F3BD00A9837
:10265000ADF82C6001F078F93846FFF7D3FF16E0AB
:10266000204601F071F90A90CDE90C660E96FFF74D
:1026700055FF00281FD4024609EB0A01284600F046
:1026800071FF88B12846FEF7DBFF002813D401F064
:1026900051F9A04202D10A9801F056F9BDF82C0078
:1026A0000028CBD00DE000BF4046FFF7ABFF0A98F3
:1026B00001F04AF9C2E70A9801F046F90FB0BDE807
:1026C000F08500F0B6F80A980021ADF82C1001F062
:1026D0003BF9052000F0ADF89C020000A0020000CC
:1026E000A8020000C009000010B58CB06C4620465E
:1026F00003F00EF90104ADF82C000BD001F01AF92B
:10270000A04202D10A9801F01FF9BDF82C0040B98F
:102710000CB010BD684601F017F90A90FF2001F0D7
:10272000D7F800F086F800F001B80000B0B584B02A
:10273000134D01A87D4495E81A000246DFF834C025
:102740001AC20D4909EB0C0409EB01020321832392
:102750000094FFF7CDF90948282209EB0001204633
:10276000FFF700FA074900207944002202F0A0FA9E
:1027700004B0B0BD77080000F4070000B7080000FF
:10278000B84C0000744C000000F000B8B0B584B044
:10279000134D01A87D4495E81A000246DFF834C0C5
:1027A0001AC20D4909EB0C0409EB01020321832332
:1027B0000094FFF79DF909481C2209EB000120460F
:1027C000FFF7D0F9074900207944002202F070FA9F
:1027D00004B0B0BD5D090000DA0800009D090000EA
:1027E0008C4C0000484C0000024900207944002233
:1027F00002F05EBAC84B0000FF2001F069F800004B
:1028000080B5074819F8000008B902F02DFF054906
:10281000002079440022BDE8804002F049BA00BFA0
:10282000B00500003A4B0000FFF7EABF002001F0BE
:102830008BB8044601F07EF8214603F06FF80000E3
:1028400002480521784401F051B800BFE84B000070
:1028500010B51C484844C078032809DC012812D070
:10286000022824D118484844BDE8104001F0A8BB14
:1028700004281DD0082818BF10BD13484844BDE8DF
:10288000104001F09ABB1048012109EB00042046DA
:1028900001F08DFB204601F06BFB0C4809EB0001B9
:1028A000897959B948440C30122102F0F0FF10BD6B
:1028B00005484844BDE8104001F07DBB0520FFF706
:1028C000B8FF00BFC0060000480B0000C40A0000AB
:1028D00000F07F00052884BF00207047024949446A
:1028E0000844007B704700BFC40A000080B51C4A42
:1028F00009EB02010879C978042801F07F010CD0A6
:1029000002281BD0012818D1174809EB02014844BE
:102910000631BDE8804001F03CBA052988BF80BD82
:1029200010484A4453794844DFF83CC008440373D4
:1029300009EB0C00063201F059FA80BD0529FCD8DC
:102940000848094B484400EB41004FF0000C4A4452
:10295000A0F812C009EB0300063201F09BFA80BD1B
:10296000C0060000C40A0000480B0000FF2A88BF10
:10297000704770B5044612480E46502109F8001001
:102980004844D11C15460A0A817044F08001C17088
:102990002021017106214270457100F0A7FF3046E9
:1029A000294600F0A3FF074804F07F01484400EBEC
:1029B00041004FF4FA614182BDE87040704700BFAA
:1029C000C0060000C40A00000A4601468220142303
:1029D000FFF7CCBF0A46014683201423FFF7C6BF8A
:1029E00080B5354909EB0102537819F80100927856
:1029F0000F2842EA03220DDD102814D0162816D025
:102A00001A284AD109EB0100C078032845D102F009
:102A100043FE48E00E2824D00F283ED1012A04D1DD
:102A2000FFF716FF3FE0032A3BD2002080BD23487A
:102A300019F80030BBBB09EB000C06238CF80630FC
:102A40000A2309F800301E48494448440331B2F5CE
:102A5000807F88BF40F20112ACF8022002F01AFF1A
:102A600021E0DFF858C009EB0C018A6864328A6003
:102A70000E2100BF09EB0C0232F8112052B11346AF
:102A8000642A98BF6423643B09EB0C00642A20F895
:102A900011300AD901390829ECD10220FFF7C2F917
:102AA00080BDFFF723FF012080BD002009F80C0046
:102AB0000520FFF7BEFE00BFC0060000C40A0000EC
:102AC000C009000080B500F0A2FE0D280DD2084814
:102AD0002021484402F0DBFE00F0E8FA054800211E
:102AE00049F800104844416080BDFF2000F0F0FE2E
:102AF000C40A0000E40A00007047000003480021F7
:102B000049F8001048444160704700BFE40A0000E3
:102B1000B0B588B00546084600F046FDA8B10446A9
:102B2000006990B1284600F03FFD01AD01462846FE
:102B30001C2202F0AFFED4E90001ADF80A00ADF8A6
:102B40000C1028462146FEF7D9F808B0B0BDB0B544
:102B500000F02AFD0446C06900F026FD217811F03E
:102B60007F0108BFB0BD054650B1052901D1A07E47
:102B700070B1284602F0DAFE82B22046294602E011
:102B80002046002100220023BDE8B040FDF7BABA7C
:102B900020462946BDE8B040FFF7BABFB0B110B536
:102BA000DFF864E0844659F80E000B4609EB0E018D
:102BB0004968984202BF013109EB0E02516040EAB8
:102BC000030023B1024649F80E0008E070470022D6
:102BD00009EB0E0449F80E20626040F000409A4272
:102BE0001EBF09EB0E0200235360082908D3074AD1
:102BF0004A4312F1AA3F38BF40F0804020F0004025
:102C0000BDE81040604700BFE40A0000ABAAAAAAD2
:102C1000F0B581B01148012509EB000609F8005014
:102C2000B11C01204FF4817200F046FE0446707022
:102C3000871940F20110F91C021B022000F03CFE33
:102C400004442644B870F57000F02CFE30719020DA
:102C500000217071E01DB17101B0F0BDC00900002C
:102C60002DE9F04D82B083464007884608D05FFAD0
:102C70008BF01FFA88F102B0BDE8F04DFFF72EBCD3
:102C80008948874F78440090884D844C7D440026C5
:102C9000DA465FEA08400AF0100000F0858000285C
:102CA00040F08280019000BF00F02CFE50B109EB93
:102CB00004004FF49671002200F02EFE012000F077
:102CC000FDF8F1E709EB070019F8071086680929F4
:102CD00006DD0A290CD00B2926D17648784402E07B
:102CE000009807291DD11FFA88F100F067FA24E047
:102CF0001FFA88F6B6F5827F00F2CD80532009F8DE
:102D0000040009EB04004FEA18214170032180F808
:102D1000028000F0EBFD63483146484400F0E6FDD8
:102D20002BE0002900F0B4805FFA8BF01FFA88F1E5
:102D3000FFF7D4FB002840F0AB8019F80700E0B1A2
:102D400006F5FA662846052100F0D0FD09EB0400DF
:102D50004FF49671002200F0DFFD09EB0700806858
:102D6000B04280F08F80FFF73BFE00F0CBFD0028E3
:102D7000ECD119F807000028E4D1002009EB070185
:102D80005FEA8B6209F807008871488076D448486A
:102D90000521784400F0AAFD4FFA8BF0B0F1FF3F17
:102DA00001984FF0000670DD38B95FEA4A6061D4DF
:102DB00009EB070009F807608671AA46394D09EB4F
:102DC000070046803C480521784400F08FFD09EB60
:102DD00004004FF49671002200F09EFD032815D3E5
:102DE00009EB04014A78897841EA022103318142E2
:102DF0000CD1FFF7F5FD19F807000028E2D009EB28
:102E0000070040880028DDD004E000BF09F8076013
:102E1000D5E700BF19F80510B0292FD109EB05013E
:102E20004978A7290ED0012901BF09EB05018A784D
:102E3000C97851EA020121D1FFF7EAFE80460BF082
:102E4000070B0FE009EB05018A78C978114315D10A
:102E5000902009F8050009EB05006BF07F0B4FF09F
:102E60000208467055465FEA4B705FFA8BFA3FF4F2
:102E700010AFFCE609EB07004088053880B202B0CD
:102E8000BDE8F08D0520FFF7D4FC052000F020FD03
:102E90000420FFF7CEFC0220FFF7CBFCC0060000A9
:102EA000C40A0000C009000041FDFFFFA047000068
:102EB0009A460000F5FCFFFF64460000B0B50446EA
:102EC00011480521784400F011FD0D4D4FF4967125
:102ED00009EB0500002200F01FFD19F80500152878
:102EE00008D80121074A01FA00F0104202D00CB1C3
:102EF0000020B0BDFFF774FD002818BF0120B0BD51
:102F0000C006000020702000684500002DE9F04553
:102F100081B0DFF87CA10E4609EB0A0114468E420F
:102F200080460ED009EB0A0738464021402502F0C2
:102F3000AEFC402C38BF2546384631462A4602F0C2
:102F4000ABFC09EB0A00807801280BDCB0B3012848
:102F500040F0968009EB0A04E01C0421FEF7FCF91E
:102F6000204639E0022835D0052840F0898009EB59
:102F70000A00484EC178007959F8062040EA01203D
:102F800082422BD159F80600B8B34349601F59F863
:102F9000012083B29A4238BF59F8010081B23B291F
:102FA0003E4928BF3B2059F8015084B209EB0A0082
:102FB000411D2846224602F06FFC52E009EB0A0050
:102FC0000024014601F8034FCC708C70402104713D
:102FD000C04704E009EB0A004021C04700242D4807
:102FE000002149F800102C482C4A49F8001049F8F3
:102FF0000210204601B0BDE8F08509EB0A004179D6
:103000008279274842EA012149F8001059F8001056
:10301000B1F5827FE2D859F800001F4909EB0A0296
:1030200049F8010019F80A0052781E4B42EA0022C2
:1030300049F80320E01F59F8012083B29A4238BFB3
:1030400059F8010081B23929174928BF392084B2C3
:1030500009EB010509EB0A00C11D2846224602F0D2
:1030600019FC0E4928190C4A49F8010059F80200C8
:10307000001B49F8020059F80600013049F8060023
:10308000054859F8000008B10124B2E70224A6E778
:10309000EC0A00002C0B0000340B0000380B000081
:1030A000300B00003C0B0000C00900000548002167
:1030B00049F800100448054A49F8001049F8021080
:1030C000704700BF2C0B0000340B0000380B0000D1
:1030D0002DE9F04D334EDFF8D0A059F8061061B35A
:1030E00059F80A404CB3DFF8CC80834609EB080559
:1030F000681D3B2102F0CBFB2F482C4F59F80010E4
:10310000090A09F8081059F8000068700520A8702D
:1031100059F80700000AE87059F80700287159F8B3
:10312000071059F80600A9B13B2809EB080094BF25
:1031300059F806503B2505301BE01C48002149F892
:1031400000101B4849F8061049F80A1009F8001049
:10315000BDE8F08D392894BF59F80650392559F843
:10316000060009EB0801000A487159F80600887149
:10317000C81D21462A4602F08FFB601949F80A0053
:1031800059F806005B46401B49F8060059F807004D
:103190004021421C09EB080049F80720BDE8F04D2A
:1031A000184700BF340B0000380B00002C0B000048
:1031B000C40A0000EC0A00003C0B000091B1DFF8EB
:1031C00028C00023094A49F80C30DFF824C04A44DB
:1031D000084B49F80C20084A49F8031049F8021036
:1031E000FFF776BF704700BF2C0B0000C00900003E
:1031F000380B0000340B0000300B000081B02DE9CB
:10320000F04D89B00028119300F09C810E460229F0
:10321000C0F0988131461546804602F038FB287888
:1032200011A90028049100F08D81741E002700BFB1
:1032300030B1252804D0E81940780137F8E700BFFD
:10324000A74228BF2746404629463A4602F024FBBB
:10325000E41B00F07781E85DB84425283D4440F048
:103260005F8101354FF0000B202200260020013540
:1032700015F8011C01352D2912DC4FF00000F7D0A4
:10328000252900F0E6802A2940F048812B4613F8D2
:10329000010D732840F05481049902201D4625E059
:1032A000472927DCA1F130030A2B0DD281F030032E
:1032B00053EA0B030BEB8B0301EB430108BF3022F6
:1032C000A1F1300B013DD2E72E2940F0278115F8FE
:1032D000010C2A2840F034812878482804D073282B
:1032E00002D0682840F02B81049901200B1D049323
:1032F0000E68BCE767290CDC622912DC482900F063
:10330000AC80582940F00A81CDF80C804FF0010CB8
:1033100027E072291BDC682900F0A28070291CD0EC
:10332000FCE0632900F0A180642940F0F780049854
:10333000CDF80C80011D049100680028074600D5D7
:103340004742C00F4FF0000C4FF00A0810E07329FD
:1033500000F09580782940F0E1804FF0000CCDF826
:103360000C8004984FF01008011D0491076800209C
:10337000B84502D94FF0010A0FE0ABF10103414615
:103380008A46A8FB0116002E18BF0126B9429B46AB
:1033900003D8002EABF10103F2D00028034618BF7A
:1033A0004FF0FF3348B1D1B230290AD12D21012687
:1033B0004FF0010E8DF8141006E04FF0010E0026BC
:1033C00002E000264FF0000EABEB0000811E0D293D
:1033D00011D8411E0FD005A83044D2B2CDF808C094
:1033E000CDE9003E02F05AFA009906EB0B00DDE948
:1033F00001EC0844461EBEF1000F05A902BF2D20B6
:1034000088550136BAF1000F16D0544A54487A4410
:103410007844BCF1000F08BF104600BFB7FBFAF3B9
:10342000D045B3FBF8F2BAFBF8FA02FB1832825C23
:103430008A5506F10106F1D9A64228BF2646DDF8D5
:103440000C803246404602F027FAA41B7AD0B044E2
:1034500064E0013C4FF025000DE03E4A7A4401E073
:103460003D4A7A444FF0010C0DE00498013C00F114
:1034700004010491006808F8010B4FD162E0344A5E
:103480004FF0000C7A440499C0B20B1D04930968F4
:10349000022841D0012808D03E4630B9002000BFA4
:1034A0000B5C0130002BFBD1461EBCF1000F1BD082
:1034B000A6B3A4EB460000BF022C43D30B78022C2A
:1034C0004FEA1317D75D03F00F0388F80070D35C41
:1034D00088F8013036D0023C08F10208013E01F1C3
:1034E0000101E9D1044619E0A64228BF264640461C
:1034F000324602F0D1F9A41B24D03746BB45B04474
:103500000CD9ABEB0706A64228BF264640463146FB
:10351000202202F0C3F998E7087828B115F8010DC8
:1035200000287FF483AE0DE0A64228BF2646404621
:103530003146202202F0B2F9A41BDFD102E02A209A
:10354000013DEDE7002009B0BDE8F04D01B0704746
:10355000AD3F0000E53F0000CF3F000023400000EA
:1035600031400000052A14D30B79053A9A4210D154
:103570000A7802704A7842708A788270CA78C2707B
:103580000A7902710A79002A18BF4A1D8260012057
:1035900070470020704700007A460249C91C891A0A
:1035A000401A70479935DEC00A4981420A4906D857
:1035B000814204D380B5FFF7EFFFBDE880400749A3
:1035C0008842074A05D3904288BF7047401A4A464E
:1035D000104470470000DEC0007CDEC000007ADAD4
:1035E00000787ADA4218405C517893780904D278EE
:1035F00041EA006040EA032010447047B0B59CB037
:10360000134941208DF80D0004200DF10D0409EB44
:1036100001058DF80E00A01C05F10801402202F002
:1036200039F920208DF84F0004F1430005F14801DD
:10363000202202F02FF963200190002002906846BA
:103640004FF410410094FEF795FF1CB0B0BD00BFD1
:10365000A8020000F0B597B00DF11206741C2046C8
:10366000492102F014F90E4809EB000797F8C852F7
:1036700007F5207120462A468DF8125002F00AF90B
:1036800097F8C912A81941700020AA1C039001A83C
:103690004FF41041CDE90162FEF76CFF17B0F0BDA9
:1036A000A802000070B584B0044651B3534D09EB35
:1036B000050090F8D002012844D109EB050013461B
:1036C000D0F808026268002B02EB000140D0B1F58F
:1036D000FF7F0FD909EB0501084400F108012046DE
:1036E000FDF739FD00285AD009EB05016068D1F8D3
:1036F0000812014409EB05024FF41040C2F8081209
:103700004FE03E4E4FF4427109EB0605284602F0A9
:10371000CAF8012085F8D002002009F8060005F556
:103720003F712046FDF7D7FC78B109EB060090F811
:10373000FC2200F535712046FDF7E3FC28B14FF47B
:1037400010402EE04BF207002BE046F6872028E0E1
:10375000B1F5FF7F23D809EB0501084400F108010A
:103760002046FDF7F8FCD0B109EB05016068D1F8FF
:10377000082201F108031044C1F80802CDE9013024
:1037800000208E7C91F85E40039009EB05003A2EF4
:1037900000F5047101A809D1FDF7EAFD08E04BF23C
:1037A000040004B0BDE87040FEF72CBFFDF751FEE9
:1037B000012812D109EB05020120D2F8081209F8FC
:1037C000050002F1080002F518722023FDF7B8FD8C
:1037D0003A2E07D1FEF724F802E080B2FEF712FF7E
:1037E00004B070BD022C04D0012C05D1FEF7B2F854
:1037F000F6E7FEF70BF9F3E70020F1E7A802000077
:1038000001DF002900D170470846FFF712F880B5A4
:1038100082B00020CDE9000069460120FFF7F0FFEB
:1038200002B080BD80B582B00020019069460220C0
:10383000FFF7E6FF02B080BD80B582B000200190A6
:1038400069469F20FFF7DCFFC0B202B080BD0000D8
:1038500080B586B00DF1040EDDF820C08EE80F10A3
:10386000024801A9FFF7CCFF06B080BD5300000558
:1038700080B582B0002001906946A020FFF7C0FF0C
:10388000C0B202B080BD000080B582B000900020C0
:10389000019003486946FFF7B3FF02B080BD00BF47
:1038A0006400000180B582B00020019069466A2062
:1038B000FFF7A6FF02B080BD80B584B001AB07C39F
:1038C000024801A9FFF79CFF04B080BD740000030B
:1038D00082B000900020019003486946FFF790FFF6
:1038E000FFDE00BFFEE700BF9A00000180B582B096
:1038F000CDE9000102486946FFF782FF02B080BDB2
:103900008300000280B582B00020019069468420C7
:10391000FFF776FF02B080BD80B584B001AB07C36E
:10392000034801A9FFF76CFF80B204B080BD00BF5F
:103930008500000380B582B0002001906946872091
:10394000FFF75EFF02B080BD80B582B0009000201E
:10395000019003486946FFF753FF02B080BD00BFE6
:103960000B01000180B582B0009000200190034857
:103970006946FFF745FFC0B202B080BD9C00000160
:1039800080B582B00020019069467A20FFF738FFA9
:1039900002B080BD70B58AB0DDF848C0DDE9104ED8
:1039A000DDE90E6501900748029101A90392049395
:1039B0000596CDE90654CDE908ECFFF721FF0AB0E2
:1039C00070BD00BF7C00000980B586B00DF1040E0B
:1039D000DDF820C08EE80F10024801A9FFF710FFA4
:1039E00006B080BD7D00000504480021044A49F866
:1039F0000010002049F80210704700BF400B000083
:103A0000440B000080B508484F2109F800104844D5
:103A100000214170012181700221C1700421FFF752
:103A200065FF002080BD00BFC006000070B582B0F9
:103A300002208DF8050003200DF103044F25002618
:103A40008DF80600204605218DF803508DF804609E
:103A50008DF80760FFF74AFF01208DF805008DF80B
:103A60000600204604218DF803508DF80460FFF70E
:103A70003DFF002002B070BD80B582B04F208DF8B0
:103A8000040000208DF8050001208DF806000220BA
:103A90008DF8070001A80421FFF728FF002002B0DD
:103AA00080BD000080B582B01A484FF0000C49F884
:103AB00000C04F208DF800000520DFF854E08DF89D
:103AC000020004208DF803000120012A49F80EC0ED
:103AD0008DF801C08DF804008DF805108DF806C032
:103AE00004DC52B1012A0AD1042006E0022A03D0E4
:103AF000032A04D1022000E003208DF80600684666
:103B000008218DF80730FFF7F1FE002002B080BDDC
:103B1000400B0000440B000010B582B00C46502052
:103B200003218DF8020000208DF8041040218DF84B
:103B300003008DF806108DF807000DF10200062134
:103B40008DF80540FFF7D2FE0A4A2306084B4A4487
:103B500004F07F004FF0010158BF09EB0302136826
:103B600001FA00F043EA00010020116002B010BD2C
:103B7000440B0000400B000010B582B00C465020F2
:103B800003218DF8020000208DF8041080218DF8AB
:103B900003008DF806108DF807000DF102000621D4
:103BA0008DF80540FFF7A2FE0A4A2306084B4A4457
:103BB00004F07F004FF0010158BF09EB03021368C6
:103BC00001FA00F023EA00010020116002B010BDEC
:103BD000440B0000400B00000848074A48440B060D
:103BE00058BF09EB0200007801F07F01012202FAC0
:103BF00001F10840704700BF440B0000400B00007B
:103C000080B582B04F208DF8030000208DF80400AD
:103C100002208DF8050003208DF806008DF80710AE
:103C20000DF103000521FFF761FE002002B080BD09
:103C3000B0B582B050208DF80200D81C1546020A9B
:103C40008DF8040020208DF805108DF806000DF188
:103C5000020006211C468DF803208DF80730FFF77F
:103C600045FE28462146FFF741FE002002B0B0BDC8
:103C700080B582B050208DF8020000208DF803003E
:103C800003208DF8040030208DF805108DF8060013
:103C90000DF1020006218DF80720FFF727FE002016
:103CA00002B080BD98B170B50E464FF48A711546CA
:103CB000044601F0ECFD0EB1C4F8F060012084F878
:103CC000DC0020462570FFF78FFE002070BD02202B
:103CD00070470000B0B504460120F42584F8DC00EC
:103CE000605930B14068FFF75FFC217902462046F9
:103CF00090470835B5F5867FF2D12046FFF7BCFE28
:103D00002046FFF77FFE0020B0BD3AB102289CBFDD
:103D100001EBC000C0F8F42000207047022070477B
:103D200080B5FFF783FE002080BD000070B50C4613
:103D3000054600262846314600F05FF950B105EBF4
:103D4000C600D0F8F4000068FFF72EFC02462846B3
:103D5000214690470136032EECD1002070BD0000B3
:103D600070B50C46054600262846314600F045F958
:103D700050B105EBC600D0F8F4004068FFF714FC22
:103D800002462846214690470136032EECD10020FA
:103D900070BDB0B500F1E8050446284600F062FBAE
:103DA00094F8E8000121B4F8EE20C4F8D41000F033
:103DB0001F010229C4F8D82007D001290AD071B9FF
:103DC0002046294600F025F90EE02046294600F05D
:103DD000CDFA09E02046294600F0A6FA04E000F0FA
:103DE00080012046FFF798FE0020B0BDF0B581B0FD
:103DF00015460446E1B10E46002700BF204639466D
:103E000000F0FBF880B104EBC700D0F8F400806943
:103E100050B194F8DC10032906D1FFF7C5FB034627
:103E2000204631462A4698470137032FE6D12DE038
:103E3000D4F8D400032829D1D4E91F1081420AD92B
:103E4000091AE167814238BF084682B220462946F6
:103E500000F037FD1AE000252046294600F0CDF895
:103E600070B104EBC500D0F8F400006940B194F8DB
:103E7000DC10032904D1FFF797FB01462046884751
:103E80000135032DE8D1204600F021FD002001B0CE
:103E9000F0BD000070B50446E1B10D46002600BF3C
:103EA0002046314600F0A9F880B104EBC600D0F8F6
:103EB000F400406950B194F8DC10032906D1FFF7F3
:103EC00073FB024620462946904700BF0136032E69
:103ED000E6D14AE0D4F8D40002283FD1D4E9071053
:103EE00081420BD90A1AD4F81011E261014492B24E
:103EF0002046C4F8101100F0D7FC2FE0A1698142E0
:103F000011D3B1FBF0F202FB101060B9D4F8D80065
:103F1000814208D2204600210022002500F0C4FC86
:103F2000C4F8D8501AE000252046294600F065F86C
:103F300070B104EBC500D0F8F400C06840B194F84B
:103F4000DC10032904D1FFF72FFB014620468847E8
:103F50000135032DE8D1204600F0C4FC94F8E000C0
:103F6000012804BF002084F8E000002070BD00009C
:103F7000B0B504464020C4F880002062012000252E
:103F800084F8DC002046294600F037F850B104EBF5
:103F9000C500D0F8F4004068FFF706FB217902461F
:103FA000204690470135032DECD10020B0BD0246DC
:103FB00000201174704700207047002070470000F7
:103FC000B0B5044690F8DC00032814D1002500BFEA
:103FD0002046294600F011F850B104EBC500D0F896
:103FE000F400C06920B1FFF7DFFA01462046884798
:103FF0000135032DECD10020B0BD022984BF002083
:10400000704700EBC100D0F8F400002818BF012071
:10401000704780B54A78042A08DD072A0EDC052A95
:1040200013D0062A1AD100F020F81CE082B1012A30
:1040300017D0032A12D100F02FF914E0082A0AD071
:10404000092A0BD100F0B6F80DE000F091F80AE073
:1040500000F0FEF807E000F0E5F804E000F07EFB79
:1040600001E000F037F9002080BDB0B582B00D4608
:1040700049880446080A00220528ADF8062012DC0B
:1040800001281BD0022825D0032835D1C8B2022828
:1040900037DC00285CD0012862D002282CD1D4F86B
:1040A000F000C0680DE006281DD0072822D00F2898
:1040B00022D1D4F8F000C06918B91DE0D4F8F0009E
:1040C0000068FFF771FA237C02460DF106011846DD
:1040D00090472DE0D4F8F400E8B1217C00290CBF12
:1040E000806AC06A1EE0207C30B9D4F8F40018B1B0
:1040F000406B17E0207C80B12046294600F02EFB63
:1041000024E0032828D004282ED00528F4D1D4F8A0
:10411000F0008069D5E700210BE0D4F8F400002816
:10412000EAD0006BFFF740FA01460DF10600884720
:104130000146BDF8060048B1EA883AB1904238BF5E
:1041400002462046ADF8062000F09AFB02B0B0BD52
:10415000D4F8F0004068B4E7D4F8F0000069B0E7A4
:10416000D4F8F0008068ACE7D4F8F0004069A8E724
:10417000B0B58A8804462AB9C88818B994F8DC0012
:10418000032804D12046BDE8B04000F0E7BA8878A3
:1041900000F07F052046294684F8DE50FFF730FD09
:1041A000204600F094FB002D0CBF0120022084F873
:1041B000DC00B0BD70B58E780D46022E04461AD2D2
:1041C00094F8DC00032807D0022814D12EB3032072
:1041D000666084F8DC0008E09EB16068B0421CD0E4
:1041E000C1B22046FFF7BCFD666020463146FFF7AE
:1041F0009DFD022811D120462946BDE8704000F0FF
:10420000ADBA022084F8DC00002060602046314610
:10421000FFF7A6FD204600F05AFB2046BDE870409F
:1042200000F055BBCA88012A18BF00F097BA90F871
:10423000DC20032A06D0022A08D10022014641F8D8
:10424000082F00E0011D012200F01ABB00F086BA21
:10425000B0B5044690F8DC0000F0FE0002280DD155
:104260000120254645F80C0FD5F8D80058B1204656
:1042700000F038FBE06840F0020305E02046BDE8AE
:10428000B04000F06BBA0323204629460222E360C7
:10429000BDE8B04000F0F4BAB0B50D464988012938
:1042A00018BFB0BD0446287901210228C4F8E410E3
:1042B0000BD804EBC000D0F8F40030B18068FFF7F1
:1042C00073F902462046294690472046BDE8B04093
:1042D00000F0FDBAB0B5044690F8DC000D4600F0E1
:1042E000FE0002281AD16888012818BFB0BD2879BD
:1042F00000210228C4F8E4100BD804EBC000D0F869
:10430000F40030B18068FFF74FF902462046294695
:1043100090472046BDE8B04000F0D9BA2046294673
:10432000BDE8B04000F01ABAB0B5044690F8DC0021
:104330000D46032814D12879022811D804EBC000B7
:10434000D0F8F40060B18068FFF72EF902462046ED
:1043500029469047E88838B9204600F0B8FA03E0CB
:104360002046294600F0FAF90020B0BDB0B582B071
:104370000D460979044601F07F02072A04D320463E
:10438000294600F0EBF96AE0022911D8287800F0FC
:10439000600020280CD104EBC100D0F8F40038B143
:1043A0008068FFF701F9024620462946904756E00B
:1043B000687800B3012826D0032850D194F8DC0097
:1043C000032824D1688838B941F08000802803D0C0
:1043D0002046FFF7A1FB297902293DD804EBC10053
:1043E000D0F8F400C0B38068FFF7DEF8024620463C
:1043F0002946904730E094F8DC00032811D00228C9
:10440000BDD152B92BE094F8DC00032818D0022863
:10441000B5D141F08000802821D02046FFF77CFBF9
:104420001DE02046FFF7D8FB002818BF0120ADF89B
:1044300006000DF106012046022200F021FA0EE0EE
:10444000688860B942B12046FFF796FB28790228B8
:1044500002D804EBC000C3E7204600F038FA002081
:1044600002B0B0BD0A7802704A7842708A78CB7880
:1044700042EA032242800A794B7942EA032282808F
:104480008A79C97942EA0121C180704710B580213B
:104490000446FFF741FB20460021BDE81040FFF72E
:1044A0003BBBB0B582B00D4609780446002011F040
:1044B0006001ADF806008DF8050010D020293CD130
:1044C0006878A0F10A01022936D3022818D00328FF
:1044D00016D02046294600F041F902202DE06878E8
:1044E0000B2812D00A280BD0062825D1E8782128DD
:1044F0000FD022281BD10DF1060000F04DF80CE082
:104500000DF105012046012214E0204600F0DFF9FC
:1045100012E00DF1060000F029F8BDF80630EA8837
:104520000146934238BF1A46ADF8062001E000224A
:104530000021204600F0A4F9002002B0B0BD10B563
:104540008221032240230446FFF7ACFA20460221D1
:1045500003224023FFF7A6FA204602214022FFF75C
:1045600087FB002010BD002070470000084A01466C
:1045700009EB020090F8EC000023002805484FF0FA
:10458000000278440CBF092310460B80704700BF1F
:10459000480B0000D22E0000084A014609EB020039
:1045A00090F8EC000023002805484FF00002784402
:1045B0000CBF222310460B80704700BF480B000041
:1045C000AF2E0000022906D180B504487844FEF7DA
:1045D0007FFDBDE880400020704700BFF9E3FFFF8A
:1045E000B0B502291FD1144602214022FFF740FB3B
:1045F0000E4D09EB05008079A8B90220FEF768F995
:1046000002460C4821467844FEF780FC02280AD175
:10461000072109EB050009F805100121044A817101
:1046200059F8021041800020B0BD00BFC40A00004C
:10463000300B0000BFE3FFFF10B5832103224023AE
:104640000446FFF72FFA2046032103224023FFF7F9
:1046500029FA204603214022FFF70AFB002010BD63
:104660000020704700207047032906D180B5044818
:104670007844FEF72DFDBDE880400020704700BF64
:1046800061E3FFFFB0B503291FD114460321402287
:10469000FFF7EEFA0E4D09EB05008079A8B903206B
:1046A000FEF716F902460C4821467844FEF72EFC28
:1046B00002280AD10B2109EB050009F80510052194
:1046C000044A817159F8021041800020B0BD00BF3A
:1046D000C40A0000300B000027E3FFFF024812224B
:1046E00078440A80704700BFC02F000002480422AF
:1046F00078440A80704700BFC22F000002480E2293
:1047000078440A80704700BFB62F00000248182284
:1047100078440A80704700BFB42F000002480A2284
:1047200078440A80704700BFBC2F0000024818225E
:1047300078440A80704700BF942F00000248182276
:1047400078440A80704700BF842F00000248392255
:1047500078440A80704700BF2F2D000080B591F982
:104760000020B2F1FF3F03DDBDE88040FFF78EBEC1
:104770004A78772A0DD0062AF6D14A8840F2EE33DD
:104780009A42F1D1CA88122A28BF122211497944CB
:104790001CE08A88042A06D1CA88282A28BF282231
:1047A0000D49794412E08A88052A06D1CA88922ADE
:1047B00028BF92220949794408E08A88072AD3D180
:1047C000CA88B22A28BFB2220549794400F058F8B5
:1047D00080BD00BF4A2D0000442F0000342D000092
:1047E000B22D0000B0B5194D044609EB05004FF499
:1047F0008A7101F04CF81648122148440C3001F03F
:1048000046F8ECB109EB050420464FF48A7101F03B
:104810003EF81049204679440022FFF743FA0E4A39
:1048200000207A442146FFF770FA0C4A01207A44AE
:104830002146FFF76AFA2046BDE8B040FFF770BA9C
:1048400009EB0500BDE8B040FFF744BA480B000093
:10485000C40A0000A22C00000E2E00003A2E000018
:1048600001460248402278440A807047AA2E000080
:10487000014602480A2278440A807047DA2E000076
:1048800080B58C460221C0F8D410016AC0E9062226
:10489000C0F810C1914288BF11468BB20021624618
:1048A000FFF7C6F9002080BD80B5036A8C469342AD
:1048B00088BF13469BB200216246FFF7B9F900207A
:1048C00080BD80B50021FFF7D3F9002080BD80B501
:1048D0000421C0F8D410002100220023FFF7A8F91A
:1048E000002080BD80B50521C0F8D4100021002231
:1048F000FFF7BEF9002080BD154919F80100012815
:1049000023D8013809EB010200EB400302EB8300DE
:10491000808CD0B109EB010202EB8302D269A2B113
:10492000494401EB8301098C29B902EB800353F858
:10493000043C033309D1814205D202EB810050F8D7
:10494000040C023001D0002070470120704700BFE6
:10495000B0050000134819F8001001291FD80139CB
:1049600009EB000201EB410302EB8301898CB1B139
:1049700009EB000202EB8302D26982B1484400EBEA
:104980008300008C4B1E834209DD0239814204DD25
:1049900002EB80004068023001D000207047012007
:1049A000704700BFB00500000A4819F8001069B14F
:1049B00001EB4101484400EB8100818AC08A8142B9
:1049C00001D9012003E001D2FF2000E0002040B225
:1049D000704700BFB0050000114819F80010012908
:1049E0001BD8013909EB000201EB410102EB810206
:1049F000928C92B109EB000303EB8103DB6963B195
:104A0000484400EB8100008C904206D253F820000D
:104A100010F1040F98BFFEF7C7BD0020704700BF1C
:104A2000B005000070B5214A19F8021001293CD8E0
:104A30008646481E09EB020100EB400301EB8301AF
:104A4000898C91B309EB020505EB8305ED6965B32C
:104A500001292AD009EB020404EB830C3CF8204F17
:104A60004E1EA64221DD0239A1420FDB05EB840177
:104A700049688D1C08BF70BD033107D14A4400212D
:104A800002EB8302ACF8001051840AE009EB02014A
:104A900001EB83014C84611CBEF1000FACF80010E7
:104AA00003D0BDE8704000F04DB870BDB005000007
:104AB0000120FFF7B7BF000010B5214919F8010028
:104AC000012813D8013809EB010300EB400203EB86
:104AD00082039B8C53B109EB010404EB8204D4F8EC
:104AE0001CE0BEF1000F18BF012B00D110BD09EB77
:104AF000010404EB820C3CF8204F6CB10EEB8403F4
:104B000053F8043C0233F1D0494401EB82014C8458
:104B1000611EACF800100EE00EEB830454F8044C58
:104B2000033418BF10BD49449C1E013B01EB8201B8
:104B3000ACF800404B84BDE8104000F003B800BF63
:104B4000B0050000F0B581B01E49044609EB010034
:104B500004EB440100EB810555F81C0F2E4636F896
:104B6000041F50F8210010F1040F84BF01B0F0BD04
:104B7000FEF71AFD29683288076851F82200FEF70F
:104B800013FD47B10068FEF70FFD0146204601B056
:104B9000BDE8F04008478068FEF706FD29683288C6
:104BA000054651F822100846FEF7FEFC4068FEF765
:104BB000FBFC02462046294601B0BDE8F04000F06B
:104BC00077B800BFB00500002DE9F04581B0374D42
:104BD00019F80500012858D8A0F1010A09EB0500D1
:104BE0000AEB4A0600EB860434F8240F00284CD068
:104BF00009EB050101EB860757F81C1F002944D07B
:104C000009EB050202EB860838F8202F82423CD2DD
:104C100051F82200FEF7C8FC806888B13868B8F8FF
:104C2000001050F82100FEF7BFFC8068FEF7BCFCC6
:104C300001465046002201B0BDE8F04500F038B80A
:104C4000208810B3B8F80020023890421DDB396884
:104C500001EB82035B68DF1C1AD0023315D11346C7
:104C600001EB82025268023205D101339AB29042BE
:104C7000A8F80030F4DA09EB050000EB8600438465
:104C8000591C5046A8F800100BE001B0BDE8F085B3
:104C900009EB0500002100EB8602A8F80010504641
:104CA000518401B0BDE8F045FFF74CBFB0050000EE
:104CB00070B500B170BD214E0D4609EB0600043001
:104CC0002221144600F0E3FD002DF3D02846FEF724
:104CD0006BFC09EB0602918CD06150F82120013267
:104CE00009D000BF01318AB250F822200132F9D137
:104CF00009EB06008184E4B12046FEF755FC09EB80
:104D00000601CA69098C52F821104A1C11D00446C8
:104D10000846FEF749FCA0420BD009EB0600028CC6
:104D2000C169531C9DB251F8251042844A1C03846A
:104D3000EED10020BDE87040FFF704BFB0050000D1
:104D400080B50A49884208D00949884208D00949F3
:104D5000884208D1FFF7B0FE05E0FFF735FF02E01B
:104D60000120FFF75FFE002080BD00BF0300008030
:104D7000020000800100008010B5A8B90B4809EBC3
:104D800000018A8C098C91420ED209EB0004E06983
:104D9000FEF70AFC218C50F82100FEF705FC406864
:104DA000BDE81040FEF700BC002010BDB0050000BB
:104DB000024819F800000138FFF7DEBFB005000017
:104DC00080B5FFF709FE38B1044819F80000013832
:104DD000FFF7B8FE012080BD002080BDB0050000B7
:104DE00010B5044600F0AAFC0A480B4A484404EBFC
:104DF000C4017A4400EB81000521C0F8CC2080F882
:104E0000D010064A01217A4480F8C910C0F8DC208D
:104E100010BD00BFB00500006A29000037FFFFFF8A
:104E200080B500F0F1FB58B1064909EB010292F898
:104E3000A920112A02BF494448F20A02A1F8C02061
:104E400080BD00BFB005000010B50446FFF7C8FFE5
:104E50000748084A484404EBC40100EB81017A4446
:104E60002046C1F8D820BDE8104000F037BC00BF94
:104E7000B0050000BFFFFFFF2DE9F0410D461449CA
:104E80009046064609EB010200EBC00002EB8007EA
:104E90000720104987F8D000012087F8C900107B4F
:104EA0007944C7F8CC1052F8041F00071C464FF095
:104EB0000803284608BF0A2300F094F9C7F8D84031
:104EC0003046C7F8DC80BDE8F04100F007BC00BF09
:104ED000B00500005C29000010B50446FFF768FF2C
:104EE0004168044A044B7A447B442046BDE81040A4
:104EF000FFF7C2BF130000002500000080B5034982
:104F0000794400F031F9002080BD00BFD5FFFFFFDC
:104F100010B50446FFF74CFFD0E900122046BDE86B
:104F2000104000F06DB800002DE9F04581B0DFF8C9
:104F30009C800D4609EB08010E7B92460446FFF764
:104F400033FD01280CD0013010D109EB080707F11F
:104F50000800142100F09BFC4FF0FF30786005E062
:104F600009EB08000430182100F091FC09EB080758
:104F700020463E733E1D00F0E1FBD7F80C010823EC
:104F800028431348397B784418BF284609074FF057
:104F9000FF31324608BF0A2300F024F9B86048B157
:104FA00009EB080149680138814284BF09EB080117
:104FB000486005E009EB08000430182100F067FCA8
:104FC0002046514601B0BDE8F0450847B005000055
:104FD000F80A000010B50849044609EB0100F02169
:104FE00001732046FFF7C8FE4168044A20467A4410
:104FF000BDE81040FFF798BFB0050000E7FEFFFFD7
:105000002DE9F04182B0DFF84881064609EB08003F
:1050100014460D46A8303146202200F03DFC707841
:10502000102820DC012836D002283DD0102840F07E
:105030008980002D45D009EB0806B0684649474CE9
:1050400001287C442846794488BF0C46FEF7ACFA18
:105050000346D6E9010580210130009006F12800C1
:105060002246019537E0A0F1110103296AD200F030
:105070000F00461E022E65D809EB080000EB460023
:10508000858A002D5ED07F2D28BF7F25BCB32046AA
:10509000FEF78AFA37E0FFF72FFC002852D009EB21
:1050A0000800406858B14DE0FFF754FC002849D093
:1050B00009EB0800D0E901010139884242D1002002
:1050C00043E009EB0800D0E90116254A4B1C2830C3
:1050D0007A4480210096FEF791F809EB08001D49FB
:1050E000027B0231EF2A84BF48F20801CFF6FF713C
:1050F000A0F8C01000F12801C0F8C41022E009EBAC
:105100000800D0F80C0109EB080707EB4601C98934
:10511000144A07F1280446187A44204680212B4679
:105120000096FEF76BF8387B0A4900F00F00023159
:10513000C7F8C4400F2804BF48F20801CFF6FF713A
:10514000A7F8C01009EB0800A83002B0BDE8F08154
:10515000B00500000880FFFFFD08000030090000D6
:10516000EB090000380800001A4A90420ED01A4A93
:10517000904217D0194A904218BF7047184809EB5F
:105180000002526812B3A2F1010C17E0144809EBB7
:105190000001896821B1484440680139814217D132
:1051A000FFF712BD0E4809EB0002D2E90123013BD3
:1051B0009A4208BFFFF77CBC02F1010C19F80030DD
:1051C00009EB0002581EC2F804C00847FFF774BC80
:1051D000704700BF030000800200008001000080D3
:1051E000B00500002DE9F04D88B00E46074602F1EB
:1051F0000A000C210793144600F049FB701C049030
:1052000004D06068B04201D8002097E027B138464A
:10521000FEF7CAF9824603E04A484844D0F80CA198
:10522000504600F083FB0128C0F285800AEB000B9A
:1052300000220023002502945046CDF804A00396D6
:1052400000265746CDE905320AEB0608D8451DD29F
:10525000741C0798E3B2002152460095FBF768FAE8
:10526000722813D898F80000A0F10901022907D389
:10527000202805D02D2803D05F2818BFB84600BFCE
:105280000A2826464746DFD102E000BF3446B8462A
:105290000AEB040058450FD2039E74B1D0450CD0E0
:1052A00010F8011C2C292FDCA1F10902022A04D3D9
:1052B000202902D02CE000BF039E0498DDE90532CE
:1052C00078B1B2420DD102984068B04209D9019834
:1052D0000299AAEB000001EB4301012B48810C82EB
:1052E00029D80133A244022B4FF0000088BF0120CF
:1052F000DA454FF0000138BF0121084018BF0023F4
:10530000DA4502449CD318E02D29D6D05F29D4D0A9
:1053100000782C2808DCA0F109010229CDD320282F
:1053200018BFA8EB0A04C8E72D28C6D05F28C4D050
:10533000A8EB0A04C1E7012000E0501C08B0BDE85A
:10534000F08D00BFB005000070B50546FFF730FDD9
:10535000134E044609EB0600A8302946202200F02F
:105360009BFA68780F2806DC01280AD0022812D19F
:10537000FFF7F0FA07E0102808D011280BD1606879
:1053800005E0FFF7B9FA30B1002070BD206809EBE5
:105390000601C1F8C40009EB0600A83070BD00BFCB
:1053A000B005000010B5044600F0C8F90E4804EB43
:1053B000C40148440D4A00EB810105207A4481F87C
:1053C000D0000120C1F8CC2081F8C9000848094A62
:1053D00078447A44C1F8D8002046C1F8DC20BDE802
:1053E000104000F07BB900BFB00500002025000090
:1053F00075FFFFFF6BF9FFFF70B50546FFF7D8FC9F
:10540000194E044609EB0600A8302946202200F078
:1054100043FA68780F280BDC012818D0022819D02D
:105420000F281CD1206809EB0601C1F8C40016E062
:105430001038022813D209EB060090F8A91001F0E9
:105440000F0104EB81014968C0F8C41007E0FFF7C1
:1054500053FA01E0FFF77EFA08B1002070BD09EBB6
:105460000600A83070BD00BFB005000010B50446AE
:1054700000F064F90A480B4A484404EBC4017A443A
:1054800000EB81000621C0F8CC2080F8D010064A3D
:1054900001217A4480F8C910C0F8DC2010BD00BF9B
:1054A000B0050000FE240000ABF8FFFF10B5044675
:1054B00000F044F90E4804EBC40148440D4A00EBE7
:1054C000810106207A4481F8D0000120C1F8CC2067
:1054D00081F8C9000848094A78447A44C1F8D800DC
:1054E0002046C1F8DC20BDE8104000F0F7B800BF4E
:1054F000B0050000B82400001DFFFFFF63F8FFFFA8
:1055000070B50546FFF754FC134E044609EB060040
:10551000A8302946202200F0BFF968780F2806DC61
:1055200001280AD0022812D1FFF714FA07E0102848
:1055300008D011280BD1606805E0FFF7DDF930B124
:10554000002070BD206809EB0601C1F8C40009EB1A
:105550000600A83070BD00BFB005000010B50446BD
:1055600000F0ECF80E4804EBC40148440D4A00EB8F
:10557000810105207A4481F8D0000120C1F8CC20B7
:1055800081F8C9000848094A78447A44C1F8D8002B
:105590002046C1F8DC20BDE8104000F09FB800BFF5
:1055A000B0050000C824000075FFFFFFB3F7FFFF40
:1055B00080B5FFF721FF58B1064909EB010292F8C7
:1055C000A920102A22BF494448F20A02A1F8C020AB
:1055D00080BD00BFB005000010B50446FFF746FFD0
:1055E0000748084A484404EBC40100EB81017A44AF
:1055F0002046C1F8D820BDE8104000F06FB800BFC9
:10560000B0050000BFFFFFFF70B50546FFF7D0FBF8
:10561000144E044609EB0600A8302946202200F06B
:105620003BF96878022804D0012807D1FFF764F914
:1056300001E0FFF78FF980B1002070BD09EB060093
:1056400090F8A90010F0F00F07D000F00F0054F808
:10565000200009EB0601C1F8C40009EB0600A830E0
:1056600070BD00BFB0050000B0B50A4C19F80400C9
:1056700068B909EB040505F1C800242100F007F919
:105680000020C5E907006862012009F8040001381C
:10569000B0BD00BFB005000080B5FFF791FB00B1C1
:1056A00080BD0D4819F80010012909D109EB00014E
:1056B00000220020A1F8CA20BDE8804000F00EB80A
:1056C0000029EDD109EB00014978AA2902BF48441D
:1056D0006921417080BD00BFB0050000B0B5164D16
:1056E000044619F8051099B1601C884210D1FDF7E5
:1056F00003FA09EB050004EBC40100EB8101002271
:1057000001F1C800A1F8CA20BDE8B04000F026B8F9
:10571000002918BF0121B4F1FF3018BF0120084251
:1057200018BFB0BD09EB05004078AA2802BF09EBFD
:10573000050069214170B0BDB005000010B50446F8
:10574000FDF7DAF904B110BD034824214844C830FC
:1057500000F09DF810BD00BFB00500002DE9F04538
:1057600081B00446FEF768F8AA2803D1FEF780F856
:10577000AA284FD16078A0B3608894F8088040458B
:1057800031D2DFF898A0471C460100BF013060808D
:1057900019F80A00616801EB060568B100EBC0006A
:1057A00009EB0A0101EB8000D0F8B41021B12846C2
:1057B0008847A0B1012800D1284628B1012808BF98
:1057C0002846FCF72DFB03E009EB0A00407808BBF4
:1057D000207A874207D2608801372036D6E700203A
:1057E000EBE74FF000086088404513D1FEF7C8F89A
:1057F0006088E1680130608019B100200025884789
:1058000020B1064821784844417003E00348658090
:105810004844457001B0BDE8F08500BFB005000008
:1058200080B510B1FDF7EAFE03E046F68510FCF7FF
:10583000E9FEBDE88040FCF7E3BF000010B558B1B9
:105840000E4C022009F80400FBF7F8FCB0F1FF3F12
:1058500009DDFDF7FFFE0DE00848002109F8001002
:1058600046F6851004E0002009F804004BF2080019
:10587000FCF7C8FEBDE81040FCF7C2BFA80200005C
:10588000130A00EB010C43548CF8012070470022EE
:1058900000F004B800F00DB800F018B813460A463E
:1058A000194600F02DB800F000B80A46002100F0BB
:1058B00027B80A44431E914200D1704710B511F831
:1058C000014B914203F8014FF9D110BD884210B548
:1058D00001EB020402D98442234607D8431EA142A9
:1058E00008D011F8012B03F8012FF8E70244014614
:1058F0008A4200D110BD13F8014D02F8014DF7E7BF
:1059000002440346934200D1704703F8011BF9E7B4
:10591000EC46A0E8F05F4FF000007047B0E8F05FA1
:10592000E546080008BF0120704700BF034613F892
:10593000012B002AFBD1181A013870472564004159
:105940007070726F7665002573202825642F25649A
:1059500029002F00252E2A730052656A65637400A2
:1059600053686F7720686F74206164647265737325
:10597000005472656500257300417574686F726923
:105980007A6500737461727420757000416D6F7573
:105990006E7420313A200054726565206170700089
:1059A000270056657273696F6E00436F6E66697289
:1059B0006D206164647265737300416D6F756E7400
:1059C0003A200041626F75740053686F7720636FEF
:1059D0006C642061646472657373006D2F343427C6
:1059E0002F363434272F3127003078252E2A4800CF
:1059F00053656E642066726F6D20796F7572002E2C
:105A00002E2E006D2F3434272F363434272F302795
:105A1000004164647265737300517569740042617A
:105A2000636B00546F207265637020322061646480
:105A30007265737300436F6C642061646472657394
:105A4000733A005374617274757020616464726596
:105A5000737300546F2072656370206164647265B3
:105A6000737300546F207265637020312061646429
:105A70007265737300486F74206164647265737338
:105A80003A00007472616E73616374696F6E0041F5
:105A90006D6F756E7420323A2000312E302E320038
:105AA0002863292032303232205468652050656ED8
:105AB0000069732072656164790050617468002523
:105AC000642F2564000000000000B06DC306008054
:105AD0002D490000000000000012C94FF94B2412AC
