:02000004C0DE5C
:10000000F0B58DB062B604F033F82F4C3048784428
:100010000090484600194521890007F03BFA01ADE0
:10002000284607F05DFBA88580B2052831D000285E
:1000300039D101AD284605F017F90B9004F08AF983
:10004000062000263146324605F0B6F849461F4ADA
:1000500089180862304606F025F80127384606F070
:1000600021F803F0EDFF3046314603F0DBFC384663
:10007000009903F0D7FC03F0F1FE05F0E9F8A8427F
:1000800002D10B9805F0F0F801A8808D0028C0D0AF
:1000900017E001A8002181850B9805F0E5F80B9881
:1000A00005F0E2F8B5E701A8002484850B9805F077
:1000B000DBF80B9805F0D8F803F036FF20460DB0BA
:1000C000F0BD03F0DAFFC046D0060000000C0000CF
:1000D00044780000F0B5F5B014460D4606466DA80C
:1000E0002027394607F0D6F9142C1AD30120010233
:1000F00002A801F0C9FC00281AD101976DA8009050
:1001000002A801214023324601F0B2FC00280FD1A1
:1001100002A801F0A7FC6DA90C311422284607F0B3
:10012000BFF9132C01D8002000E0012075B0F0BD0C
:1001300003F0A3FFF0B597B0129315910446017830
:100140007F200D91084000211690052810910D4642
:100150000E4608461491119200D1A9E01746208B53
:1001600000F09EFA002866D025898679002115982E
:10017000002865D0002F63D00A95208BE188129A61
:100180000092FBB2643189B2159A00F0AFFA0546CD
:10019000E1880020052F0F900E960C9554D38D42C8
:1001A00052D9208B129900916421CE4A7A440323BC
:1001B00000F09CFA0B907A0815988618E188002ABE
:1001C00044D08D4242D9BB1A40D000251093208BD9
:1001D000129F009789B21392D3B2159A00F086FA53
:1001E0001490E188208B0097109AD3B2324600F029
:1001F0007DFA0B99149A51180818E18888420C90DE
:1002000000D848E2012D05D0002D04D1139A521ECA
:10021000119B02E0761C119B139A002A16D088428B
:1002200014D90120A8431746159A921BD3183A46B1
:100230000546CBD10AE0002110910D460E4600E0A4
:1002400010910846149133E03A46064613921096F0
:1002500003239D03208B05400122D703BD420BD011
:100260009703BD420F9D14950E9E0DD10C9D4F1B03
:10027000F9178F43149707E00C9D6D0849084D1B33
:10028000E9178D4314950E9E1903084051038842C7
:1002900005D01103884208D12089801B06E0700830
:1002A000C04321894908081800E00F9813990A9D56
:1002B00013910E960F90E38858082689710888429A
:1002C000024600D30A46E77ABA423A4604D8884240
:1002D00001D2024600E00A461699481E042804D3BB
:1002E00006294BD0072900D0D1E004290AD1002FDC
:1002F00008D10420225E0220215E2069009604F0CD
:10030000F3FFC4E00D98812805DC0228119F08D076
:10031000072806D0BDE08728119F02D0822800D090
:10032000B7E0072900D035460220265E0420225E71
:1003300060690095072901D10E99521A314604F0DF
:10034000D3FF1699002F00D1A1E01598002800D105
:100350009DE0042900D19AE07D200D990140226999
:100360006069012922D1217B0129134600D003466F
:100370000D93012900D010460C9019E00420205E56
:10038000C2190220205EC1192069257B0023012D9E
:1003900003D0A57AAF4200D97B1B6469FF25009585
:1003A000019302943B4600F0E2FA70E00C920D904B
:1003B0000220215E04200B90225E208BE388268998
:1003C000159F0397139F0497129D0595169F072F5E
:1003D00001D00F9F00E000270C9D1397F61B149F80
:1003E000DB1B01930296169B072B01D00F9B01E0AC
:1003F0000E9B5B420D9E0F939A180092149A53180D
:100400002946324600F0C1F90146109800283ED036
:100410000B98225E208B1690E3880D962789032087
:100420000E900C959D4878440A901398381A0990BC
:1004300014981B1A0F9FBA18009201930998029002
:100440000A9803900E980490129805908BB2169813
:100450002946324600F099F916900B98225E208BBF
:10046000E3882489119D159EAD19109EAD1B13992B
:10047000641A14995B1ABA1800A95CC10495129900
:10048000059116998BB20C990D9A00F07EF917B070
:10049000F0BD0C92207B012826D104200B90225E17
:1004A0000227E15F206900960C9D69186E009B1B76
:1004B00004F01AFFE15F0B98225E2089831B2069FC
:1004C0000093AA182B4604F00FFFE15F0B98225E01
:1004D0002089831B2069E6880093AA18491B891983
:1004E0002B4667E0A276000004200990225E0227D6
:1004F000E15F0A97606900960C9D69186E000B9683
:100500009B1B04F0F1FEE15F099EA25F20890B9F17
:10051000C31B60690093AA182B4604F0E5FE0A98F5
:10052000215EA25F2089C31B6769E0880093AA1837
:10053000EB43C918091838462B4604F0D5FEA05FD6
:10054000089037460A9EA15F2269E388A07A00904E
:1005500069180B981B1A1046089A04F0C5FEE05F54
:100560000890A15F206907902289E388A07A009013
:1005700069180B9FDB1B08988018421E079804F02F
:10058000B3FEA05F0890099EA25F2089C11BA37AD9
:1005900020690091AA18089904F0A6FE0A98215E25
:1005A000A25F2089C71BA37A2069E6880097AA1852
:1005B0008919491E04F098FE022D119F169900D248
:1005C000C0E6207B012802D0A07A281A00D20020A1
:1005D0000B9004200990225E0220215E07460A90BB
:1005E00020696369C02500950B9E019602930C9DBE
:1005F0006918AA182B4600F0BAF90998205E0890ED
:10060000E05F0690206907906369E188A07A302254
:100610000092019637460B9602932818069A5118B5
:10062000091A08982A1807982B4600F0A0F90A988A
:10063000205E0890099EA05F06902069079063697C
:100640002289A07A0C21009101970293281806991B
:1006500089180A1A0898291807982B4600F087F974
:10066000A05F09900A98215E20690A906369208939
:10067000E688A77A032200920B9A01920293EA1964
:100680008919891A099B9A1A12180A982B4600F0A0
:100690006EF9119F55E6139AD8E5C04628740000FC
:1006A000F0B581B00E4D05400E48784401688800D1
:1006B0000D4A7A448018001F4E1C761E0CD0071F6E
:1006C0000468204604F0DAFB0068A8423846F4D1FA
:1006D000204604F0D3FB00E0002001B0F0BDC0468E
:1006E000FF0F00007E8500006A850000F0B583B032
:1006F0001C4615460191FFF7D3FF0026002841D084
:10070000002C019A3ED00026029003892F789F4248
:1007100002D34189B94213D20A2F33D00D2F31D0E1
:10072000B809032803D33F20074039461EE078B2BA
:10073000002100281AD5B806009109D50F2008E03D
:10074000F91A8F00C06804F099FB019AC15D0DE0B1
:100750000E20FFF7A5FF0028019A009906D0C06877
:1007600004F08CFB019AF906490E415C002A03D083
:10077000B0B20818904205D86D1C641E7618200689
:100780000298C2D1B0B203B0F0BDF0B5A1B01D4621
:10079000144612911192FFF783FF002800D1DEE08A
:1007A0002A9E269B002E00D1DBE00794299F2899E2
:1007B0001090279AC8180E9050190990109A00248A
:1007C0000D9529460120851B3E780D2C07D10A2E58
:1007D00005D16D1C7F1C0A24012DF5D1C2E00890C3
:1007E00010895479864204D30F915189B1420F99EF
:1007F0000CD20D2E01D00A2E25D11B1918190E9CD2
:10080000A04200DDAEE00D99344661E00A94341A4E
:10081000A000069010690B93164604F02FFB0C9075
:10082000F06804F02BFB0699401840880C990818D2
:100830000C90F06804F022FB0F990B9B069A825CE7
:10084000F079059008E0C02E47D30A943F22324049
:100850000020344605900C9010461A460690081861
:10086000099EB04207DD0A981B1818180E9A90428C
:1008700078DC0D991A460C9800280F910B9319D02B
:100880000C900A98069E7043109909794843049089
:100890000C980390029111A801900898884000904C
:1008A0000F98114632460A9B04F006FD0F99109AE4
:1008B0000B9B0AE00A98009007980F99069E334612
:1008C00004F012FD0F990B9B109A059830184118EF
:1008D0006E427F1C002D45D074E770B2002806D40C
:1008E0000A9400203446024605900C90B5E7B00605
:1008F0000B930F9101D50F2000E00E20FFF7D0FEE3
:10090000002822D00446006904F0B8FA0C90E06890
:1009100004F0B4FAF106490E0A91401840880C9987
:1009200008180C90E06804F0A9FA0A99405C069057
:10093000109880790B9B1818A179421A60790A9057
:10094000002005900698344607E00A9400203446BB
:10095000014605900C900B9B1A460F997EE70020EC
:1009600003E0294688B21904081821B0F0BDF0B59B
:100970009DB01B921A9106462398411E02468A4159
:1009800018921393191A1291002901DC002100E03A
:100990000121139A002A00D5C0E1189A0A40189242
:1009A000249910912299139FC21B039280220A401E
:1009B0000A9240220A400D9220220A4009921022F7
:1009C0000A400C9208220A40089204220A400B9224
:1009D0000123129A9C1A069402240C400794194091
:1009E0000E911C93DC1B1A994018C01B0590401CEB
:1009F00004900025E943501E0F9016951196481C4F
:100A000017900E98002819951591149406D10798FF
:100A1000002855D0189800281FD147E018980028C2
:100A200038D01C9C00940F983B1A1B984018451C0A
:100A300010981A9E31462A4604F056FC0094149CE5
:100A4000B819119E0699411830462A46199D129BE5
:100A500004F04AFC0798002832D01B983D181398E0
:100A6000B8420AD01C980090039815994018831C2E
:100A700010981A992A4604F037FC1C9800900598A3
:100A800015994018811C30462A46129B04F02CFC14
:100A9000199D15E01C9800901B98421830461A9931
:100AA0003B4604F021FC0798002809D01C980090D0
:100AB0001B983818421E30461A99179B04F014FCF4
:100AC0000B98002806D1089800285AD018980028BA
:100AD0001FD133E01A98C51B1898002820D01C9C01
:100AE00000940F9EBB1B1B9815994018421C029244
:100AF0001098294604F0F8FB0094149CA91B119847
:100B0000029A119E129B04F0EFFB08980028199D91
:100B100037D01398B8421BD11B983E181C9827E079
:100B20001C9800901B9815994218304629463B4660
:100B300004F0DAFB08980028199D22D01C98009038
:100B40001A9841191B983818421E3046179B16E018
:100B50001C9C00941A9841191B983E180398159AEA
:100B60008018831C1098324604F0BEFB2046149C6B
:100B7000009004984119119832460646129B04F0E1
:100B8000B3FB0C98002806D10998002853D0189878
:100B900000281ED146E01B9845191898002835D02A
:100BA0001C9C00940F983B1A10981A9E31462A46B6
:100BB00004F09AFB0094149CB819119E06994118F0
:100BC00030462A46129B04F08FFB09980028199D95
:100BD00031D01B98C51B1398B84215990AD01C98A0
:100BE000009003984018831C10981A992A4604F024
:100BF0007BFB15991C98009005984018811C304685
:100C00002A46129B04F070FB199D14E01C9800907A
:100C100030461A992A463B4604F066FB099800289C
:100C2000199D08D01C9800901B98C21B30461A9939
:100C3000179B04F059FB0D98002806D10A9800284C
:100C400056D0189800281ED131E01B9845191A98E3
:100C5000C61B189800281DD01C9C00940F983B1AA6
:100C6000109831462A4604F03FFB0094149C0F98DC
:100C7000311A119E30462A46129B04F035FB0A9821
:100C80000028199D34D01398B84219D11B98C21B63
:100C90001C9826E01C9800901198314606462A467A
:100CA0003B4604F021FB0A980028199D20D01C988F
:100CB00000901A9841191B98C21B3046179B15E0EB
:100CC0001C9800901A9841191B98C41B0398159AF8
:100CD0008018831C1098224604F006FB22461C98BC
:100CE000149C0090049841193046129B04F0FCFAC1
:100CF000791E012C384600DB0846169A521C012C3E
:100D0000169201DB169A521A510061184C1C6D1E86
:100D1000179981421397074600DA70E61DB0F0BDBF
:100D2000F0B589B08E68022E20D80C460421415EB1
:100D300008910221405E0590206806906068079047
:100D4000E06804F09BF80546A768206904F096F86F
:100D50000ECC0124B4404B43534300A9B0C10390CF
:100D60000493089905AB0DCB04F0A6FA09B0F0BDC9
:100D7000F0B5521A8A4214DD01230C4C7C44455CC8
:100D80000026A75DBD4203D0761C3A2EF9D109E0BA
:100D9000491C914201DB002300E001239142EED186
:100DA00000E0002301209843F0BDC046B07E000063
:100DB000B0B5531A8B4214DD445C303C092C0ED87C
:100DC0004C00E443A2184C1C2146002A05D0455C87
:100DD000303D521E4C1C0A2DF6D3994201DA0020F8
:100DE000B0BD0120B0BD70B5531A8B4217DD4C0069
:100DF000121B0124455C2E46303E0A2E06D32E4699
:100E0000613E062E02D3413D052D09D8491C994269
:100E100001DB002400E00124521EEBD100E000249D
:100E20000120A04370BD70B5531A8B4219DD4C00F0
:100E3000121B0124455CDF262E40413E1A2E07D3AB
:100E40002E46303E0A2E03D320263543202D09D1CD
:100E5000491C994201DB002400E00124521EE9D123
:100E600000E000240120A04370BDD4D4F0B5B3B09D
:100E70001C4615460F46079009A8A62106F00AFB56
:100E80000021CE43782F6FD8002F019409D0002184
:100E90000798405C002804D1491C8F42F8D10022F9
:100EA00038E002910298391A8A204843642106F0FA
:100EB00051F9029902468F422BD9039600951646A6
:100EC0000597049207980691405C711E089116469A
:100ED00009ACA15D09020F183A253846294606F0EB
:100EE000C3F94543791BA15508998E4202D8393779
:100EF000732F04D3711E002E0E46E9DC039E069963
:100F0000491C059FB942049ADCD1029F009D039EB3
:100F100000E00F46501C002409A9095D002903D1F7
:100F2000641CA042F8D10446B818001B401C01996B
:100F3000884219D8164631222846394606F0B8FAB2
:100F4000B44201D93E460FE0314609A80019311BD1
:100F5000491C074A7A443E460378D35CAB55401C93
:100F6000491E761C0029F7D1304633B0F0BDC0468B
:100F7000D87C0000F0B585B00446581E092801D978
:100F800000201AE0174600250126039601950491DA
:100F90000294204629461C4603F08CFF23467851D4
:100FA000A642039800D201982D1D04998D4204D8C1
:100FB000741C9E422646029CEBD305B0F0BDD4D4EF
:100FC000F0B589B0079208900291481E0390092855
:100FD00062D81E46002333487844019019461A46C9
:100FE00000960591079885181746B41A06939E0037
:100FF0000898835901200490C0078343284621465E
:10100000019A03F043FD284606F084FB00283CD0FB
:10101000A0423AD2089989193A46C21908680028AC
:1010200001D4009E13E007988518009E1746B41A55
:101030001D4A7A442846214603F028FD284606F03A
:1010400069FB002824D0A04222D23A46C219039854
:101050000699884212D0079885181746B41A134A81
:101060007A442846214603F011FD284606F052FB3B
:1010700000280DD0A0420BD23A46C2190599491C4E
:101080008BB202988342ACD308E00798009901E044
:101090000798314606F0FEF900200490049809B044
:1010A000F0BDC046A0670000BD67000041670000BA
:1010B000F0B5C7B001AE30706F4600243C7041AD52
:1010C00018222846214603F0ADFE012046904597A0
:1010D00044904396064841902846214602F07EFC03
:1010E000002801D4009800E0E043C0B247B0F0BD52
:1010F0003F008500F0B5C7B04F9C250E01AEB5721C
:10110000250C7572250A3572F471509CF4724E9C50
:10111000B4714D9C74714C9C3471F370B2707170E9
:1011200030706F4600243C7041AD1822284621469D
:1011300003F078FE0120469045970C20449043969A
:10114000064841902846214602F048FC002801D478
:10115000009800E0E043C0B247B0F0BD3F00860019
:10116000F0B5C7B00A0C01AEB280718030806F4616
:1011700000243C7041AD18222846214603F052FE5F
:10118000012046904597062044904396064841909A
:101190002846214602F022FC002801D4009800E0F5
:1011A000E043C0B247B0F0BD3F008800F0B5CDB01D
:1011B000019302920391044605A804900026072794
:1011C00031463A4603F02EFE07AD0298A870039808
:1011D00068702C7047AC18222046314603F022FE7E
:1011E0004C97049F4B9703204A904995114847908C
:1011F0002046314602F0F2FB002818D405A80078FA
:10120000002815D1781C5399529A03784478240207
:10121000E318019C23808378C4782402E3181380A8
:1012200002794079000280180880304600E0FF20F3
:101230004DB0F0BD3F008A0070B588B001AE00240B
:10124000347002AD18222846214603F0EBFD012040
:1012500007900696064802902846214602F0BEFBFB
:10126000002801D4019800E0E043C0B208B070BD8E
:101270003F009400F0B5C7B001AEB17030806F464A
:1012800000243C7041AD18222846214603F0CAFDD7
:10129000012046904597032044904396064841908C
:1012A0002846214602F09AFB002801D4009800E06D
:1012B000E043C0B247B0F0BD3F00A50070B588B0B4
:1012C00001AE0024347002AD18222846214603F0F6
:1012D000A9FD01200790069606480290284621465F
:1012E00002F07CFB002801D4019800E0E043C0B28A
:1012F00008B070BD3F000101F0B5C9B00093019284
:101300000F46064602A800210324224603F08AFD68
:1013100003A80670B11E4A424A410225012E294601
:1013200000D01101012E02D0022E2DD11025401C1B
:10133000461839462A4603F06FFD009870700198F0
:10134000307043AF002618223846314603F06AFD5C
:10135000489402A84790E81C469003A845900D4881
:1013600043903846314602F039FB00280ED402A8DB
:10137000007800280BD14E9802A94A788978090292
:1013800089180180304602E0472000E0FF2049B084
:10139000F0BDC0463F000201F0B5CDB01D4605923C
:1013A0000F46064606A800210324224603F03AFD14
:1013B00007A887700680B91E4A424A410226012FBB
:1013C000314600D01101012F02D0022F40D110264A
:1013D000C01C4718569900910494559C549901914A
:1013E00053990291529903910599324603F014FDE5
:1013F000280A78703D700098B8717C710198387136
:101400000298F8700398B87047AF00251822384644
:10141000294603F007FD04984C9006A84B900A3625
:101420004A9607A849900D4847903846294602F049
:10143000D5FA00280ED406A8007800280BD15798BA
:1014400006A94A788978090289180180284602E0AD
:10145000472000E0FF204DB0F0BDC0463F00040132
:10146000F0B5C9B01D4603AF7B713A717980388001
:1014700002A8019000240470B81D4E991A4603F08A
:10148000CBFC43AE18223046214603F0CBFC0120B2
:10149000489001984790A81D46904597064843906C
:1014A0003046214602F09AFA002801D4029800E062
:1014B000E043C0B249B0F0BD3F000601F0B5C7B08F
:1014C00001AE30806F4600243C7041AD18222846A2
:1014D000214603F0A7FC0120469045970220449046
:1014E00043960F204290074841902846214602F03B
:1014F00075FA002801D4009800E0E043C0B247B07C
:10150000F0BDC0463F000B01F0B5C7B001AE308062
:101510006F4600243C7041AD18222846214603F056
:1015200081FC01204690459702204490439607484D
:1015300041902846214602F051FA002801D4009833
:1015400000E0E043C0B247B0F0BDC0463F00250117
:10155000F0B5C9B003AF4E9DBD717B713A71798012
:10156000388002A8019000240470F81D4F992A4683
:1015700003F052FC43AE18223046214603F052FCE1
:101580000120489001984790E81D469045970748EC
:1015900043903046214602F021FA002801D40298F7
:1015A00000E0E043C0B249B0F0BDC0463F002601B4
:1015B000F0B5C9B00D4603AF7970387002A801903C
:1015C00000240470B81C11462A4603F025FC43AEE3
:1015D00018223046214603F025FC0120489001984E
:1015E0004790A81C469045970648439030462146B0
:1015F00002F0F4F9002801D4029800E0E043C0B200
:1016000049B0F0BD3F000C00F0B5C7B001AE71703D
:1016100030706F4600243C7041AD182228462146A8
:1016200003F000FC01204690459702204490439629
:10163000064841902846214602F0D0F9002801D4FE
:10164000009800E0E043C0B247B0F0BD3F000F009B
:1016500070B588B001AE0024347002AD182228465F
:10166000214603F0DFFB0120079006960648029012
:101670002846214602F0B2F9002801D4019800E082
:10168000E043C0B208B070BD03000300F0B5C7B0BE
:1016900001AE4C9CB47173713271718030806F46B1
:1016A00000243C70F01D4D99062203F0B5FB4F98C5
:1016B000B0734E98707341AD18222846214603F04E
:1016C000B1FB0120469045970F2044904396074870
:1016D00041902846214602F081F9002801D4009863
:1016E00000E0E043C0B247B0F0BDC04608000600CD
:1016F000F0B5C7B001AE30706F4600243C70701C6E
:101700001F2203F089FB41AD18222846214603F031
:1017100089FB012046904597202044904396074836
:1017200041902846214602F059F9002801D400983A
:1017300000E0E043C0B247B0F0BDC046080008007A
:10174000F0B5C7B001AE30706F4600243C70701C1D
:101750001F2203F061FB41AD18222846214603F009
:1017600061FB01204690459720204490439607480E
:1017700041902846214602F031F9002801D4009812
:1017800000E0E043C0B247B0F0BDC0460800090029
:10179000F0B5C7B001AE30706F4600243C7041AD6B
:1017A00018222846214603F03DFB0120469045972C
:1017B00044904396064841902846214602F00EF98F
:1017C000002801D4009800E0E043C0B247B0F0BD6B
:1017D00008000A000246836859180020994204D381
:1017E0005368994201D891600120704710B5426852
:1017F00083689A420AD00468E45C0C708168491CD2
:1018000006D24468A14203D8816001E0002008703C
:10181000D01A411E884110BDB0B515460A4604468F
:1018200000686168A368C018C91A2B46FFF7A2FBBD
:10183000002807D0A900A268511803D2626891421B
:1018400000D8A160B0BDB0B51446436882689D1A47
:10185000A54206D800688218084611462A4605F0B7
:1018600023FEA54201D90020B0BD0120B0BDB0B516
:101870001546044642688068121AAA4201D900201F
:10188000B0BD23681B180846194605F00DFEA26876
:1018900051190120914203D36268914200D8A1609E
:1018A000B0BDF0B597B01F4615460E4602900FA882
:1018B000202105F0EFFD03AC204605F011FFA085C7
:1018C00084B2002C29D103A803F0CEFC0D90009621
:1018D00021240FAE204629463A46334603F028FC21
:1018E000202220463146029B00F0B6F8002812D193
:1018F00003F0AEFC03A9884202D10D9803F0B4FCBA
:101900000FA8202105F0DCFD03A8808D002802D15E
:10191000002017B0F0BD02F0B0FB03A800218185C4
:101920000D9803F0A1FC204602F0A7FBB0B51446C9
:101930000D4602462120012300F088F8002807D137
:10194000093540222046294605F0AEFD0020B0BDF5
:1019500002F093FBF0B5A5B019AD2821284605F09B
:1019600099FD11AE20243046214605F093FD2E4FFF
:101970004846C019BF218900435CB521890042183F
:1019800028463146FFF78DFF05AD284605F0A8FE35
:10199000A88585B2002D3ED105A803F065FC0F9007
:1019A0004820249023A8039024A802904846C019F8
:1019B0000521C901411801910094132149014318DF
:1019C00019A81A49032200F03BF8002821D1249CD1
:1019D000239D03F03DFC05A9884202D10F9803F036
:1019E00043FC19A8282105F06BFD05A8808D00286F
:1019F0000FD10020002C09D44946C91901221540F5
:101A00000B4A8D545922D2008C5400E0C04325B0BB
:101A1000F0BD02F032FB05A8002181850F9803F08C
:101A200023FC284602F029FBC80300000106000041
:101A3000C902000003B4014841E000000B000000AF
:101A400003B401483BE000001500000003B4014866
:101A500035E000001B00000003B401482FE0000047
:101A60001C00000003B4014829E000002A00000027
:101A700003B4014823E000002D00000003B4014836
:101A80001DE000002E00000003B4014817E0000034
:101A90003F00000003B4014811E0000051000000C5
:101AA00003B401480BE000005300000003B40148F8
:101AB00005E000005700000003B40248FFE70249B8
:101AC000084700006C0000000100210070B50D46C1
:101AD0000446FF2040006168814201D9F9266AE08E
:101AE000A0682168081800210A22FFF761F9002880
:101AF00050D0A0682168081828620A212046FFF704
:101B000069FE002848D0294624312046FFF76EFEA2
:101B1000002843D0A16822685018A862515C0129AE
:101B200005D101212022FFF77EF900283AD021219A
:101B30002046FFF74FFE002832D0A86A0078401EEA
:101B4000022831D8012620463146FFF743FEA0681F
:101B50002168081802210822FFF745F9002825D03E
:101B6000A0682168081809212222FFF701F900283E
:101B70001ED0A06821680818E8622B212046FFF7D4
:101B800029FE002816D06068A168814213D0062083
:101B9000C64310E0F8260EE0F7260CE0F6260AE031
:101BA000F52608E0DC2606E0F42604E0F32602E051
:101BB000F22600E0F12670B270BDF0B581B00D469E
:101BC0000446FF2040006168814201D9F927D7E02F
:101BD000A0682168081800210A22FFF7E9F8002808
:101BE00000D1BEE0A0682168081828620A212046BA
:101BF000FFF7F0FD002800D1B5E02946243120464A
:101C0000FFF7F4FD002800D1AFE0A06821680818B4
:101C100000210822FFF7E7F8002800D1A7E0A0681C
:101C20002168081809212222FFF7A2F8002800D114
:101C30009FE0A0682168081828632B212046FFF741
:101C4000C9FD002800D196E0A068216808186863E3
:101C500020212046FFF7BEFD002800D18DE02E4652
:101C6000383620463146FFF7C1FD002800D186E016
:101C7000A0682168081800210822FFF7B4F8DE27C1
:101C800000287DD0A0682168081809212222FFF7CA
:101C90006FF8002877D0A06821680818E8632B2126
:101CA0002046FFF797FD00286FD0A068216808182C
:101CB00000211022FFF77CF8002868D0A068216876
:101CC0000818286410212046FFF784FD002860D002
:101CD000307802282ED3A068216808180021082235
:101CE000FFF781F8002856D0A0682168081809215C
:101CF0002222FFF73DF8002851D0A068216808187B
:101D000068642B212046FFF765FD00284BD0A068B2
:101D10002168081800211022FFF74AF8002844D053
:101D2000A06821680818A86410212046FFF752FD1A
:101D300000283CD0A06821680818E86421212046CA
:101D4000FFF748FD00281BD0E86C0078FE21014019
:101D5000022922D16068A168814222D00620C743AF
:101D60000EE0F0270CE0EF270AE0EE2708E0ED2771
:101D700006E0EC2704E0EB2702E0EA2700E0E92791
:101D800078B201B0F0BDE727FAE7E627F8E7E527E4
:101D9000F6E7E427F4E7E327F2E7DD27F0E7E227B9
:101DA000EEE70127ECE7E127EAE7E027E8E7DF27AE
:101DB000E6E7D4D410B584B00178E02913D100222D
:101DC000039202920192417804290FDC03291CD06E
:101DD000042936D18178002946D1C078002843D122
:101DE00000F068FB43E0372040023EE0052915D0B3
:101DF000062926D18178002926D0032934D8C37832
:101E000080241C43802C23D02EE0817800292BD104
:101E1000C078002828D100F0B3FB28E081780129A0
:101E200022D8C378002B1FD18368002B21D00193C7
:101E3000039200790290481E814101A800F04EFBF8
:101E400015E06D20000210E0C378802B0CD18023B8
:101E50008468002C0DD00194039200790290DA0975
:101E600001A803F085F802E0034800F0D3FF04B0B6
:101E700010BD0148401CF8E7866A000080B50348A1
:101E8000494609580120884780BDC04668000000C7
:101E900080B50348494609580020884780BDC046A0
:101EA00068000000F0B587B02B4E4846815D801970
:101EB0002D221201805C084304D048460021815540
:101EC000264842E026484F463C183C2520462946F5
:101ED00005F0E0FAB819BF218900415CB5229200F3
:101EE000801822462B46FFF76BF800282AD01E48A0
:101EF0004F4638182B2105F0CDFA02AC14252046A8
:101F0000294605F0C7FAB819083021462A46FEF7D7
:101F1000E1F8002818D002A800904C46124820187A
:101F20002B21144A7A44142302F0B0FD10481249C0
:101F3000794421501149794400242046224604F076
:101F400013FB05E0074800E0084800F063FF044683
:101F5000204607B0F0BDC046C803000007B000002F
:101F60000000000001B000003C00000002B00000D2
:101F70006800000006590000B1510000DA6D000051
:101F800080B50348494609580120884780BDC046AE
:101F90006800000080B50348494609580120884779
:101FA00080BDC04668000000F0B58DB03A4F48468D
:101FB000C1192D221201895C012915D1C05D0128AA
:101FC00012D14846C0194721CA008058017801291A
:101FD00003920ED133494A465518411C2022284607
:101FE00005F062FA203510E048460021C1552B4823
:101FF00045E04846C119232212018958284A85180C
:102000000A22284605F050FA0A3500242C7048466A
:10201000C1198F2292008958234A85182B262846F9
:10202000324605F041FAAC55093504AE222230465D
:10203000294605F035FA304600F0BCF900281DD0DD
:102040004E46F0190290039FC05900901848351869
:102050004521194A7A442123284602F017FD4420DD
:102060002C5414481549794431500298C0590078CD
:10207000012808D112497944002406E00B4800F0F9
:10208000C9FE044605E00F4979442046224604F083
:102090006BFA20460DB0F0BDC803000007B0000089
:1020A0006C000000E8000000BC00000001700000AF
:1020B0007700000068000000D6570000975000002D
:1020C000426D0000EC6C000080B503484946095899
:1020D0000120884780BDC04668000000F0B581B08F
:1020E000254F4846C1192D221201895C012936D19C
:1020F000C05D012833D1224849460E18C81909216C
:10210000890141580931222530462A4605F0CCF98B
:1021100000247455304600F04DF9002824D01A48A8
:102120004E4630180090F7199321890079580931EB
:102130002A4605F0B9F90098445525200001385881
:102140001249711800F07AF9114812497944315056
:10215000114979442046224604F006FA08E0484630
:102160000021C155054800E0064800F053FE044632
:10217000204601B0F0BDC046C803000007B0000013
:102180000C01000001700000380100006401000033
:1021900068000000B14F0000EE6C0000F0B581B0A7
:1021A0002F4F4846C1192D221201895C01294BD1BC
:1021B000C05D012848D12C4849460E18C81909218C
:1021C000890141580931222530462A4605F06CF92B
:1021D00000247455304600F0EDF8002839D024482A
:1021E0004E463218F11900919320800009580931A8
:1021F000174610462A4605F057F97C551D483718F2
:102200009520800000990958093138462A4605F082
:102210004BF97C5525200001009D2858164971185E
:1022200000F00CF94B20C00028581449711800F038
:1022300005F913481349794431501349794420462C
:10224000224604F091F908E048460021C1550548AE
:1022500000E0064800F0DEFD0446204601B0F0BD77
:10226000C803000007B000000C010000017000006E
:10227000380100007801000064010000A4010000A2
:1022800068000000C74E00007C6C0000F0B5B9B0DB
:1022900001AB07C32FAE28273046394605F0FAF8C0
:1022A0001CAC4C21204605F0F5F804AD2946403120
:1022B0003046019A029BFFF7F4FA304621462A463F
:1022C000FFF734FB3046394605F0FAF80095094A25
:1022D0007A444024039E30462146234602F0D6FB32
:1022E0003E982946224605F0DBF882200021315431
:1022F00039B0F0BD5A550000F0B5C9B002910146A1
:102300001EA802703F20085C01252840801C03ACF9
:102310002070601C2026324605F0C2F8212129AF2A
:1023200020463A463346FFF7A9FB31AC2046FFF77B
:10233000B1FB1420019024A80090204629463A467B
:102340003346FFF795FB002831D131A8FFF78AFB10
:102350001EAD681C24A9142205F0A2F8152116ACA4
:102360002026284622463346FFF788FB2046314682
:1023700022463346FFF782FB0CA801460CCD0CC168
:102380001CCD1CC1169A42752B780B70110E01766C
:10239000110CC175110A817519212224029D2A464A
:1023A0002346FEF763FD0020285549B0F0BD01F03B
:1023B00064FED4D4F0B581B004461B484E463718AD
:1023C000BF208000395C194835180095184832182C
:1023D000B52080003818FFF759FFB7208000385823
:1023E0001449884201D0282200E01C22124FF11922
:1023F0002846FFF781FFF05D217881420ED1601CF5
:1024000000221146212A07D04A1C435C4C46E4199D
:1024100064186478A342F4D0202901D8002000E099
:10242000012001B0F0BDC046C80300003902000021
:10243000B60100000100008079020000F0B582B012
:102440000022835C302B04D1521C102AF9D10022C7
:102450000EE0092A0CD92E224A7030220A7002227C
:1024600083181B7A8B54521C082AF9D108201CE0CF
:102470008B1A01930A24A31A00930925AD1A002789
:102480003E4696420CD3092E06D1477A2E23009C55
:102490000B554F55012703E0835D019CE419A355BB
:1024A000761C102EEDD1B81A103000220A5402B05A
:1024B000F0BDD4D480B584B00748784402F0DEFC87
:1024C000002103910421029101900920010301A838
:1024D00000F05AFC04B080BD06530000F0B59FB078
:1024E00001910546244F4C46E6196120C100304653
:1024F00004F0E6FF0020E0552D210901705415A8D5
:10250000282104F0C7FF02A84C2104F0C3FFBF201C
:10251000840031192846FFF769F9002824D048467D
:10252000C019025DB5218E0081192846FFF774F9A4
:10253000002819D04846C5192B5DAA1929464831EB
:1025400015AE3046FFF7ADF9083502A930462A46E8
:10255000FFF7ECF92821304604F0B2FF019800287B
:1025600007D0FFF79FFC02E0044800F053FC1FB0C7
:10257000F0BD02F0ABFCFAE7C8030000876A000078
:1025800080B584B06846022181700021417001222B
:10259000027003910321029101900920010301A817
:1025A00000F0F2FB04B080BD80B501F02AFF80BDD1
:1025B000F0B581B0FA4D4846405D0D2804DC052891
:1025C0005BD00D2810D033E00E287BD015282FD1FA
:1025D000F448494608188079012805D14846401931
:1025E0008079000700D47BE3EF4E4D460120A855CB
:1025F000AC1900276760204602F0B8FD072002F002
:1026000041FE6060E94C2959002900D183E0242073
:1026100002F07AFE00287BD04D462E592F512420FF
:1026200002F072FEB047E04EA819692141607AE0DD
:10263000DD494D46012068546C180027676020462C
:1026400002F094FD072002F01DFE6060D74C29596E
:10265000002900D109E1242002F056FE002800D113
:10266000FFE04D462E592F51242002F04DFEB04779
:10267000CD48281869214160F9E0CB494E46012038
:102680007054741800276760204602F06FFD072021
:1026900002F0F8FD6060C54C3159002900D19BE083
:1026A000242002F031FE002800D183E14D462E594E
:1026B0002F51242002F028FEB047BB4AA8186921F8
:1026C000416084E1B8494F46012078547D180026C6
:1026D0006E60284602F04AFD072002F0D3FD044652
:1026E0006860B24D7859002800D1CDE1242002F075
:1026F0000BFE002800D1C3E14C46675966512420E7
:1027000002F002FEB847A848201869214160BDE1E7
:10271000484680194068002800D1D0E2972800D1AF
:10272000CDE269285AD1A24835464E46341801F008
:102730003DFE01F03DFECE20009027527619072085
:1027400002F0A0FD7060D026A159002900D1B6E2A8
:10275000002800D1B3E2972800D1B0E2484694495E
:102760004018D427C15D009A805A884200D3A6E25F
:1027700002F0D0FCAA2804D102F0EAFCAA2800D07A
:102780009DE248468A4C0019C25D009D415B914222
:1027900000D37FE208464A461219DC23D3589259E7
:1027A00040011018002B06D0984700280AD049464F
:1027B0000A19515B9259012802D188B240011018C0
:1027C00001F01FFE48460019415B491C4153C25DA0
:1027D00088B29042DFD35EE2734AEFE0744C484621
:1027E0000019D0254059002800D15EE24846001962
:1027F000D426815DCE27C05B884200D355E202F02B
:1028000089FCAA2804D102F0A3FCAA2800D04CE23B
:1028100048460019825DC15B914200D340E2084600
:102820004A461219DC23D358525940011018002B84
:1028300006D0984700280AD049460A19D15B525958
:10284000012802D188B24001101801F0DAFD484693
:102850000019C15B491CC153825D88B29042DFD32D
:102860001FE24846504940184068692855D15048F1
:102870004E46341801F09AFD01F09AFDCE256753BB
:1028800049483618072002F0FDFC7060D026A15997
:10289000002900D113E2002800D110E2972800D1CE
:1028A0000DE2484642494018D427C15D405B88424A
:1028B00000D304E202F02EFCAA2804D102F048FC66
:1028C000AA2800D0FBE14846394C0019C25D415BA3
:1028D000914200D3DEE108464A461219DC23D35860
:1028E000925940011018002B06D0984700280AD0B2
:1028F00049460A19515B9259012802D188B2400118
:10290000101801F07EFD48460019415B491C4153F7
:10291000C25D88B29042DFD3BDE1F44C4846001955
:10292000D0254059002800D1BFE148460019D426DF
:10293000815DCE27C05B884200D3B6E102F0EAFB9E
:10294000AA2804D102F004FCAA2800D0ADE1484630
:102950000019825DC15B914200D3A1E108464A465D
:102960001219DC23D358525940011018002B06D0FD
:10297000984700280AD049460A19D15B52590128C4
:1029800002D188B24001101801F03BFD4846001901
:10299000C15B491CC153825D88B29042DFD380E1A4
:1029A000E4070000000C000010090000700C00009B
:1029B000D00600004846CC4A80184068002800D164
:1029C0007DE1972800D17AE1692800D017E1C74856
:1029D0004E463418154601F0E9FC01F0E9FCCE2022
:1029E000009027527619072002F04CFC7060D02628
:1029F000A159002900D162E1002800D15FE19728A8
:102A000000D15CE14846B9494018D427C15D009A1D
:102A1000805A884200D352E102F07CFBAA2804D1FC
:102A200002F096FBAA2800D049E14846AF4C0019B5
:102A3000C25D009D415B914200D32BE108464A46AE
:102A40001219DC23D358925940011018002B06D0DC
:102A5000984700280AD049460A19515B9259012823
:102A600002D188B24001101801F0CBFC4846001991
:102A7000415B491C4153C25D88B29042DFD30AE1F9
:102A80004846994940184468692C55D197484C46A6
:102A9000271801F08BFC01F08BFCCE257E53924869
:102AA0002418072002F0EEFB6060D026B9590029F7
:102AB00000D104E1002800D101E1972800D1FEE017
:102AC00048468A494018D427C15D405B884200D3FC
:102AD000F5E002F01FFBAA2804D102F039FBAA2876
:102AE00000D0ECE04846814C0019C25D415B914248
:102AF00000D3CFE008464A461219DC23D358925936
:102B000040011018002B06D0984700280AD04946EB
:102B10000A19515B9259012802D188B2400110185C
:102B200001F06FFC48460019415B491C4153C25DEE
:102B300088B29042DFD3AEE06C4D48464119E820A0
:102B40000958002913D00A46643A00D232464B464F
:102B50005B191A5064290AD8E4215958002906D073
:102B60004A465219EC23D358135000208847002CB2
:102B700000D1A4E0972C00D1A1E048464019D02410
:102B80000059002800D1A8E048464019D426815DAC
:102B9000CE27C05B884200D39FE002F0BBFAAA2890
:102BA00004D102F0D5FAAA2800D096E04846401990
:102BB000825DC15B914200D38AE008464A465219C1
:102BC000DC23D358125940011018002B06D0984727
:102BD00000280AD049464A19D15B1259012802D16E
:102BE00088B24001101801F00CFC48464019C15B46
:102BF000491CC153825D88B29042DFD369E03B4CEF
:102C000048460019E0214058002805D04946491996
:102C1000C978490801F01CFC48460019D0254059E4
:102C2000002842D048460019D426815DCE27C05BDB
:102C300088423AD202F06EFAAA2803D102F088FA4A
:102C4000AA2832D148460019825DC15B914227D241
:102C500008464A461219DC23D3585259400110182D
:102C6000002B06D0984700280AD049460A19D15BA4
:102C70005259012802D188B24001101801F0C1FB5D
:102C800048460019C15B491CC153825D88B290421D
:102C9000DFD306E00846904211D102F001FB0EE0BE
:102CA0000846904201D102F0FBFA48460019D421AF
:102CB000415CCE22805A884201D302F0AFFA02F082
:102CC000ADFA002801D101F0DFF9012001B0F0BD1B
:102CD0000846904201D102F0E3FA48464019E6E77F
:102CE000052001F0CAF9C04610090000D006000016
:102CF000B0B50546072028400024012815D0022839
:102D000015D10C48002908D04A46101802F07AFA6A
:102D100028060AD502F0F2F907E0494608184121D1
:102D20008900002202F086FA04462046B0BD022047
:102D300001F0A3F9FC0A0000B0B5114C4846005D53
:102D400002280CD001280FD000280CD148460121C0
:102D500001550C49415A002001F0DEFBB0BD484648
:102D600000210155C843B0BD4D46022028550548F5
:102D7000295A102001F0D0FB01212955B0BDC046D1
:102D8000C40300009C020000F0B581B00D4600278E
:102D9000002818D006464068B168411A0B20040389
:102DA0008120400081420FD817494A465118821CA1
:102DB0003046FEF748FD0028394606D07068B168F5
:102DC000411A2C4601E02C463946104D4E467151B1
:102DD0000D483018224604F0B7F97059811C715122
:102DE0000B4C325D012A384608D0022A09D189B23B
:102DF000202001F091FB494600224A5149460F55D7
:102E000000E0F84301B0F0BDFC0A00009C020000A5
:102E1000C403000080B501460020FFF7B5FF80BD68
:102E2000F0B585B02648494608180026C684254FC7
:102E3000C8195724055D5E2104F02CFBC12D03D178
:102E40004846C019C12101550396029602AD0821DA
:102E5000284602F0A5F90196042628463146FEF7D9
:102E6000E9FD39464F467C18E075000A2076281D9A
:102E70003146FEF7DFFD019E12497E54DE21A1831B
:102E8000F121E1766076000AA0760F4820840F4891
:102E90003D18C021284604F0FDFA41208000B021F1
:102EA00068520B483818AC216850284600F0E4FE00
:102EB00030463146324600F00DF805B0F0BDC04650
:102EC000000C0000A0020000FFFF00000003000053
:102ED000FC0A0000F0B587B00446B44D48464019DE
:102EE000008CB34EB04202D0A04200D098E04846D9
:102EF0004019407F00281FD0062A24D3042822D15D
:102F0000484640194A788B781B029A184284CA783E
:102F10000B791B029A1882844A79897905234377B1
:102F200009028918C18448464019A34979310184AE
:102F30000120FEF7BDF873E04846401901214177B2
:102F4000FEF786FB6CE0022A21D307281FD14846F2
:102F500040194A788978090289184C22815208213F
:102F60004177484641199448F83008844C20085A63
:102F70004E3101221023002408250093019502946C
:102F800003930492059102218C4A7A4445E0022A77
:102F900020D308281ED1484640194A78897809026A
:102FA00089184E22815209214177484642198248A8
:102FB000F83010844C20105A503201231024022182
:102FC00008250095019502910394049305927D4A8A
:102FD0007A4422E0022A25D3092823D14846401901
:102FE0004A78897809028918502281520A2141774A
:102FF000484641197048F83008844C20085A52312C
:1030000001221023082404250095019402920393C1
:103010000492059102216A4A7A449C23FEF7BCF986
:1030200007B0F0BD022A15D30A2813D1484640192B
:103030004A78897809028918522281520B214177F6
:10304000484640195C49C91C018401200721FEF74C
:10305000DBFAE5E70C2812D1062000210A4602F02F
:10306000ABF84142414148464719F977204600F004
:10307000DFFCB87F0628D3D148464019407F494637
:103080004919421C4A77052808DD082817DD0A2857
:1030900037DC0928ACD00A28D2D0C1E7022816DCD8
:1030A000002800D14CE7012863D00228B8D1484657
:1030B00040194149F5310184FEF700F9B0E70628CF
:1030C00037D0072800D14CE70828A9D16DE703289D
:1030D00059D0042800D126E70528A1D14846401937
:1030E00035497A3101840120002310210822009201
:1030F000019102900393049001460246FDF7FAFF06
:103100008EE70B2824D00C288AD148464119572035
:10311000095CC12905D14946491900220A54FEF724
:103120008BF8484601214155224A801824228154B7
:1031300076E7484640192049F63101844C3000902A
:1031400002202149794401220923FEF7D5F867E7D7
:10315000484645190024AC772E8406202146224695
:1031600002F02AF841424141E977204600F060FC34
:1031700056E7484642191048108417322E2006217F
:10318000FEF716FA4CE7484643190B487E30188480
:10319000184626301946243100910190223301202F
:1031A00000211422FEF702F83AE7C046A002000010
:1031B000FFFF0000000C00000CFCFFFF2A61000074
:1031C000BC600000F4600000605F0000F0B581B0FA
:1031D0001E4C022914D14A4612195923D25C002AE6
:1031E0000ED01B494A460023535411195A22022378
:1031F0008B5402785B23CA545B314078487022E0DC
:103200004A4612195A25525D002A10D04B461B1906
:103210001E465B3676785B27DB5D1B029B19092611
:103220003603B34203D0484600195B30114600F024
:10323000C5FD48460019002141555821405C002831
:1032400001D100F007F801B0F0BDC046A0020000B7
:10325000000C0000B0B582B00B4B4846C018A82146
:10326000425C022A0ED309484C4620184E21415A8E
:103270004C25405BE3180C330093921ED3B200221E
:10328000FEF7EEF802B0B0BD00030000A00200009F
:10329000F0B58DB0F44E48468019C078042800D0AF
:1032A000FBE04846801900790D2851DD0E286BD0CF
:1032B0003E2800D181E0FF2800D0EEE0484680198A
:1032C0004279042A00D2E8E04B469819047A407A01
:1032D00000020019E54FDB195B8D984200D0DCE05D
:1032E0004B469B199C79DB791B021B199BB2E04C66
:1032F000A34200DDFAE08125ED00AB4200DD75E17F
:10330000DC48834200D154E2DB48834200D0C4E071
:103310000025DA49DA4A7A442846FEF7C7FB3946DF
:103320004F467E184821705205AC2572062108913F
:1033300083B2204610301021D24A7A4401F0A6FB15
:10334000D148D249794439504A200121315467E2A9
:1033500005285AD0082800D09FE04A469019C37922
:10336000007A0002C318C1481218528D934200D04F
:1033700093E04A469119497A002900D188E04946EC
:1033800008184621012287E0484680194279032A1D
:1033900000D282E04C46A019C379007A0002C3181B
:1033A000B248245C022C7AD0002C7AD1484681198C
:1033B000093198B2FFF78EFD6FE0484680194079D9
:1033C00000286AD0484680198079062846DC012802
:1033D00000D1A8E0032860D14A469019017A437AC7
:1033E0001B025918A14BD2185185817AC37A1B024E
:1033F00059189186017B437B1B025918D186817B2A
:10340000C07B00024018108747E098484A461318CE
:10341000282400211955CC435C852A3319779C4B0D
:10342000D2182524155D9B4A002D03D04D46EB187C
:10343000195500E004214B4602241C541D182A840F
:10344000A977062000242146224601F0B5FE41421C
:103450004141E977204600F0EBFA1EE0072800D151
:103460009DE00C2819D14A469019037A407A00024F
:10347000C3187E481218528D93420ED14A46101836
:1034800091198A7A3B23C254C97A3C22815404E0C0
:10349000494608184621002242540DB0F0BD98B2AA
:1034A000D9E799B27C4A914200D15EE17B4A9142D0
:1034B00000D16AE17A4A9142EFD149460A1858216F
:1034C000525C002AE9D04A4610180023435475483C
:1034D0001018A821405C0228DFD36D48494608181F
:1034E0007D210901C183FFF7B5FED6E76E4CA342EB
:1034F00000DDDFE06D48834200D16CE16C4883421F
:10350000CBD168484A461018BC230124C4549119F1
:103510008B7AC97A0902C918C91ED2195423D1520B
:10352000BA228152B9E751484F463C18BD19A87AD2
:103530002C216054E87A2D216054287A697A090296
:103540000818608520462E3029460C31062203F0EB
:10355000A7FF592100206054FB497918BA2217238C
:103560008B525622A0545422A3522822A0542A7EC1
:103570003A23E25422462A321077AA7CEB7C1B02C3
:103580009A18A2862A7D6B7D1B029A18E286AA7D74
:10359000EB7D1B029A182287BC2288547DE748469F
:1035A0008219D379127A1202D318E64A8018408D14
:1035B000834200D071E74B469819C17A047B2402FC
:1035C0006418991840228C52427B837B1B029A1804
:1035D0004223CA52C27B037C1B029A184423CA525C
:1035E000427A807A00028018C88756E7D94DAB42EC
:1035F00000D1F3E0A34200D04FE7131F9BB2062B8C
:1036000000D24AE74D46AF19BB7BFC7B2402E11890
:10361000BB7AFC7A2402E3183C7B7F7B3F023C1997
:10362000C84F00D02BE1022900D028E1EC194E252B
:10363000645BA41C9C4200D021E14A4691190A7C9B
:10364000497C0902891800D15FE14946CA1956230D
:103650000124D454BC4A8918BC22895C002900D0BA
:103660001BE7FDF72BFF18E7E4070000A0020000AE
:10367000010C0000010400000204000040420F00A1
:103680009308000049440000700C00007908000015
:10369000000C0000FFFF00000A20000006FD0000F3
:1036A00026FD0000000300000D0C0000020C0000CD
:1036B000030C0000A54CA34200D1B9E0A44CA342E6
:1036C00000D0EAE6131F9BB2032B00D2E5E64C467E
:1036D000E3195825012704975F55A419A57AE77ABD
:1036E0003F027D19A9B2257B002D00D1F5E04624CB
:1036F0001C5D002C00D1F0E056241C5D002C00D194
:10370000EBE050241B5B5B1C8B4200D0E5E0039197
:103710004F46BC19F1202073DE20E07220460B30AA
:10372000511F89B200F0B4FA86483818408D0D3424
:1037300000950194002503992A462B46FDF708FFC2
:1037400081483A18B221525C022A06D1824A4B467D
:103750009A181B18B6241B5B53807F4A4B46049C67
:103760009C5418184554981886E07B4C4A46111909
:103770002723C95C1218528D794B9A425BD00029DD
:1037800000D1BDE0FFF74CFBBAE06F4D49464A1946
:10379000A8260024945508185921405C002851D0CF
:1037A0006D48494608184919B622895A41800124B2
:1037B0005CE04846C1194A20095C002900D16CE64A
:1037C00066494A4600235350D1190B5405A82521B8
:1037D0000170069329E0FFF723FB5EE64D46A8192A
:1037E000817A0491C27A037B407B05AC3E46012777
:1037F00027720621089100061904081811024018C2
:1038000004994318204610301021564A7A4401F09A
:103810003DF95248544979442950A8194A2147543E
:103820002420207018200690204601F09FFC34E6EA
:10383000FDF76AFE31E600295DD0494608182821C7
:1038400000225CE048464059002809D0002001468B
:1038500000F0B4FAFFF7FEFC48464059002808D1B2
:10386000484641198C553C494018C4833A4849465A
:103870000C54394849460818022181710DE6002987
:1038800000D10AE64846C0194624045D002C00D148
:1038900003E65624045D002C00D1FEE55224005BB3
:1038A000401C984200D0F8E54D46A819F121C1739B
:1038B000DE2181730E30083A91B200F0E9F9224C12
:1038C0002819B225405D022823D12348494608180B
:1038D0000919B622895A418029E01B4A4B469C1897
:1038E000A8270022E2559B190D330095019313463A
:1038F000FDF72EFED1E54946081828210122425441
:10390000484600190021C184C7E54846C019562120
:10391000C1E548460019A821405C02280BD30E4897
:10392000494608187D210901C183FFF793FC0A4825
:10393000494601220A544846011900224A550649BF
:10394000401899E7A0020000000300000E0C0000E0
:10395000130C000009040000000C0000700C0000B3
:10396000FFFF0000773F00001704000080B50A4900
:103970004A4652182423D25C002A0CD042424241CB
:103980004B4659182723CA54421E03469341262208
:103990008B54FDF7FDFE80BD000C000080B50C4887
:1039A000494608182421405C002810D0094849469F
:1039B0000918498D084A914207D0494608185721ED
:1039C000C1224254FFF72CFA80BDFDF735FC80BDC3
:1039D000000C0000A0020000FFFF0000B0B504468C
:1039E00000880F494A463823535455186188297175
:1039F000E268931CAB701B0A6B7003231B020B4025
:103A00008002C018000AE870681DA16803F04CFD30
:103A1000A089401D81B2284601F0F4FB0020B0BD12
:103A2000E407000080B5002801D0FFF7F9F980BD58
:103A3000F0B58DB0584D494649190A8C57498A420C
:103A400003D0824201D00DB0F0BD48464019807FBE
:103A5000052806D000281DD14A465219518500215B
:103A600000E001214A4652192823D154411C917784
:103A7000C8B202281DDD032846D0042851D00528ED
:103A80003AD1484640194649091D01840120FDF7F5
:103A90007FFED8E749464A19411C9177CBB2052BE6
:103AA000E6D1D27F002AE3D149464919801C8877A4
:103AB00022E0012846D002281ED105AC0620607005
:103AC00011202070A01C38497944102203F0E8FC32
:103AD0000021E1751820A07561750C212175122156
:103AE000E1740521A174494649192D4AD21C0A8462
:103AF0002146FDF725FEA6E74846405D0228A2D1F3
:103B00004846012141559EE7484642192548108400
:103B1000937D918C508C521C00920022FDF7A0FCEA
:103B200091E7484640191E4901840022039207206C
:103B3000029005A801900092302060210123FDF73A
:103B4000A5FD80E705AC0620A07081204000208004
:103B5000484640190490451C1521284603F09AFC5C
:103B6000092614223046294601F026FB0746049810
:103B700087752671781CE070FAB2601D294603F043
:103B80008FFC0748801C04990884781DC0B2214628
:103B9000FDF7AEFD57E7C046A0020000FFFF0000A2
:103BA0000620000006FD0000DC55000080B582B054
:103BB00001A80421FDF774FF019802B080BDD4D4A0
:103BC000B0B588B00446164D484641194A20095CF4
:103BD00000290BD013494A460023535051190B5466
:103BE000684625210170019301F0C0FAAA2C04D186
:103BF000484640194821405A09E000200A490B4A2A
:103C00007A44FDF753FF49464919482288524946EC
:103C100049194A8D81B21046FDF7A2FA08B0B0BD2D
:103C2000A0020000700C000040420F00A9FFFFFF3F
:103C3000B0B588B004460E4D484641194A20095C8B
:103C400000290BD00B494A460023535051190B54FD
:103C5000684625210170019301F088FAAA3C61426F
:103C6000614148464019408DFDF704FB08B0B0BDE6
:103C7000A0020000700C0000B2210022425403494F
:103C80004B465850B23042807047C046C0030000D7
:103C9000F0B581B0002857D0032955D304460091D0
:103CA000454849460D582E460A369E273046394625
:103CB00003F0F0FB207861780902081868812B4630
:103CC000A833A07801280FDD022816D005281ED0C1
:103CD000082839D1012028740020E8810820A88113
:103CE0001870987C68742FE0002823D001282BD10D
:103CF000032018700120287326E0009A9E2A00D322
:103D00003A461A703046214603F0CAFB1CE0009D7B
:103D1000E81E81B202290AD32079E2781202101833
:103D20009A89904203D1032910D800280ED100208F
:103D3000987209E028460D300021C17081704170F1
:103D4000017029730720187001B0F0BD002805D05C
:103D5000D8891E461B8A6D1F611D10E001209872D4
:103D6000A079617909020818D88181B21A89914233
:103D7000DDD8194600230E460B82ED1FE11DAAB2C5
:103D8000D21884B2A24200D9C51AAAB27068C0186B
:103D900003F086FB3246308A2818308280B2F189DF
:103DA000884203D102209072002003E0012090722B
:103DB0009089401C9081C7E7C0030000F0B585B032
:103DC000254B4A46D558002808D0A9800490286081
:103DD000A81DA22103F05EFB002104E02868002852
:103DE00037D00490E9882B46A833A97305242C7397
:103DF000080A6873AA880391002903D12A74100A5B
:103E0000E87307240192A6185A8A2F89B91828192D
:103E10000A3002968E420DD20499C919019EF21BF6
:103E20001C4603F03DFB22462E81002028600298AC
:103E3000C01B0DE00499C919121B1E4603F030FB8C
:103E400032460398401CE880708A011BC9192981F9
:103E5000107005B0F0BDC046C0030000F0B58FB0D3
:103E60002C48494600260E502B480E542B48081863
:103E70006121C90003F024FB294F2A4C6D462846D6
:103E800003F02EFCA88585B26846002D09D0052DCB
:103E900039D086850A9801F0E7F92846FEF7BAFF7F
:103EA00016E001F0E1F90A900C960D960E96FEF7D9
:103EB00043FF002820D402464846C1190CA800F050
:103EC000BAFF002811D00CA8FDF774FF002813D406
:103ED00001F0BEF96946884202D10A9801F0C4F99E
:103EE0006846808D0028C9D00BE02046FEF792FF7F
:103EF0000A9801F0B9F9C1E70A9801F0B5F90FB0D5
:103F0000F0BD00F0BAF886850A9801F0ADF90520F9
:103F100000F0B3F89C020000C4030000C8030000D6
:103F2000FC0A0000876A000010B58CB06C46204681
:103F300003F0D6FBA085000406D1684601F094F991
:103F40000A90FF2001F050F901F082F96946884299
:103F500002D10A9801F088F96846808D002801D1C5
:103F60000CB010BD00F089F880B500F001F880BDFC
:103F7000B0B584B01149794401A8024638C938C2A5
:103F80000B494D466C1800940A496A180321832393
:103F9000FEF77CF90848291828222046FEF7ACF9DC
:103FA000074979440020024602F0DEFA04B0B0BDB1
:103FB000B309000030090000F309000002530000BB
:103FC000C652000080B500F001F880BDB0B584B0E5
:103FD0001149794401A8024638C938C20B494D46F7
:103FE0006C1800940A496A1803218323FEF74EF9DE
:103FF000084829181C222046FEF77EF90749794413
:104000000020024602F0B0FA04B0B0BD990A0000E8
:10401000160A0000D90A0000DA5200009E52000081
:1040200080B5034979440020024602F09DFA80BD24
:104030001C52000080B5FF2001F0D6F880BDD4D41A
:1040400080B507484946085C002801D102F066FFA8
:10405000044979440020024602F086FA80BDC04639
:10406000D00600008651000080B5FFF7E9FF80BD53
:1040700080B5002001F0F8F880BD044601F0E8F8B2
:10408000214603F039FBD4D480B503487844052198
:1040900001F0B8F880BDC0462C520000B0B51C48F5
:1040A00049460818C078032809DC012811D00228E5
:1040B0002AD118484946081801F0E8FBB0BD042889
:1040C0001DD0082820D113484946081801F0DCFB10
:1040D000B0BD10484D462C180121204601F0CFFB01
:1040E000204601F0ADFB0C482918897900290CD134
:1040F000494608180C30122103F0CCF9B0BD054830
:104100004946081801F0BEFBB0BD0520FFF7B5FF1A
:10411000E4070000900C0000000C00007F2101402B
:10412000052905D803484A4610184018007B7047F7
:1041300000207047000C000010B51A4A484680184D
:10414000C3787F211940007904281BD0022809D0A8
:10415000012825D11548494608188918891D01F0FC
:104160007FFA10BD05291BD80F484B4618184C0084
:104170000019002444820D4818189A18921D01F065
:10418000F3FA10BD05290BD807484B4618184018FC
:104190009A185479047305481818921D01F08EFA84
:1041A00010BDC046E4070000000C0000900C0000A9
:1041B000F0B581B0FF2A20D815460E4604461048B7
:1041C0004F46502139543818427120210171802105
:1041D0002143C170D11C8170090A4170062101F090
:1041E00011F83046294601F00DF8064838186106E6
:1041F000090E40187D210901418201B0F0BDC04681
:10420000E4070000000C000080B50A460146822049
:104210001423FFF7CDFF80BD80B50A4601468320F9
:104220001423FFF7C5FF80BDB0B547494846421883
:10423000937852781202D218405C15280ADC0E28B6
:104240001CD00F2847D0102840D1032A65D3FFF790
:1042500073FF60E0162843D018285AD01A2835D1A9
:1042600048464018C07801285ADC00285FD0012851
:104270002CD101242046FFF779FB4FE03348494613
:1042800009188A6864328A601C214A461218525AF8
:10429000002A09D04B461B18642A144600D864240F
:1042A000643C5C52642A49D9891E1029EDD14946E3
:1042B0000918C98B002909D04A46121864290B46EF
:1042C00000D86423643BD383642937D90220FEF7E6
:1042D0006FF9044622E0012A1FD1FFF7DFFE1AE042
:1042E0001A484B461B5C0124002B17D14B460A256C
:1042F0001D54181806258571FF250235AA4200D3E2
:104300002A464280124818185918C91C03F0C8F8E8
:1043100004E0FEF7BDFF012400E000242046B0BD0C
:10432000022808D00328D1D102F010FEF3E70020C4
:10433000FFF71CFBEFE7FFF731FBECE749460022F4
:104340000A540520FFF799FEE4070000000C000066
:10435000FC0A0000F0B581B000F0C2FE0D2802D3C7
:10436000FF2000F041FF10487844042100F04AFF8C
:104370000B484D462C18276A2821204603F08AF85E
:10438000002607482E54A660A6716680276200F0BA
:10439000E3FA04482E502818466001B0F0BDC0462C
:1043A000000C0000280C0000554F00007047D4D4CA
:1043B0000348494600220A50081842607047C04628
:1043C000280C0000B0B588B00546084600F056FD40
:1043D000002814D004460069002810D0284600F0B8
:1043E0004DFD014601AD1C22284603F059F8206816
:1043F000E8806068288128462146FCF791FC08B0D7
:10440000B0BDB0B500F03AFD0446C06900F036FD1D
:10441000054621787F20084014D0002D0CD00528B7
:1044200002D1A07E00280ED0284603F073F982B294
:1044300000232046294603E0002120460A460B4679
:10444000FBF778FEB0BD20462946FFF7BBFFB0BDA5
:1044500070B500282ED00B460246174C4946085925
:1044600009194968984203D14D462D19491C6960C4
:104470001843002B03D04D462851054607E04E4611
:1044800000253551361975600C4E761C30439D421F
:1044900003D04B461B1900245C60082909D3084C43
:1044A0004C430123074DAC4201D29C072043DB075C
:1044B0009843904770BDC046280C0000FFFFFF7F67
:1044C000ABAAAAAA56555555F0B581B0114A49462E
:1044D0000120009088548E18B11CFF2702377A1CE7
:1044E00000F076FE054670708419E11C3A1A02202D
:1044F00000F06EFEA0702C18A5190098E87000F06E
:1045000043FE0021A971902169712871E01D01B05D
:10451000F0BDC046FC0A0000F0B585B00B4641076F
:1045200007D00646F0B299B2FEF7E2FB80B205B0C2
:10453000F0BD4B218C008A4F884D06461022024068
:104540001904049600D193E0002A00D090E0019372
:104550000292039000F062FE002809D048464019FC
:104560000022214600F066FE012000F007F9F1E785
:104570004946C85DC9198D6809287A4908DC0128AF
:10458000019A10D007282CD191B27848784407E0DE
:104590000A28019A0DD00B2826D191B2744878448C
:1045A00000F058FA27E04846401891B2FEF70EFE98
:1045B00021E096B22046283880B2864200D9C9E070
:1045C0004D4653206549685468188270110A41703D
:1045D000032100F017FE63482818314600F012FE50
:1045E0002DE0002800D1B2E0F0B291B2FEF780FBDE
:1045F000002800D0ABE04846C05D00281FD07D20D9
:1046000000012D185B487844052100F0FBFD3E4673
:104610004F46524838180022214600F00BFEB819C8
:104620008068A84200D38FE03746FFF7FDFD00F019
:10463000F5FD0028EBD14846C05D0028E2D149468F
:104640000020C855C91988714880049EB10600D55C
:104650006CE745487844052100F0D4FD70B200288D
:104660000398029A04D5052000F0BEFD029A039833
:10467000002A06D1400662D448460021C155C0191F
:1046800081714846C019002141803B48784405218A
:1046900000F0B8FD4846314E8019002521462A46D3
:1046A00000F0C8FD032813D3494689198A78497850
:1046B00009028918C91C81420AD1FFF7B5FD484695
:1046C000C15DC0190029E0D040880028DDD002E09B
:1046D0004846C555D5E74946224A895CB02900D0ED
:1046E00024E7494689184978A72910D00129049E52
:1046F00000D01BE7494689188A78C978114300D051
:1047000014E707200640FFF7DFFE034611E04946A5
:1047100089188A78C9781143049E00D006E7484674
:104720009021104A8154801845707F20C043064371
:1047300002230A4DF0B2710700D1FFE6F2E64846C7
:10474000C0194088401FF1E60520FFF796FC0420C1
:10475000FFF793FC0220FFF790FCC046E40700003F
:10476000000C0000FC0A0000644C000079FCFFFF14
:1047700077FCFFFFB24C00002C4C000070B50446E3
:1047800010487844052100F03DFD0C4D4E4670194F
:104790004B218900002200F04DFD705D152808D8DE
:1047A000012181400648014203D0002C01D00020A5
:1047B00070BDFFF739FD411E884170BDE407000060
:1047C00020702000364B0000F0B581B00092054605
:1047D0005A4B4846C018814212D00E462C464846D5
:1047E000C71840253846294602F054FE009A402A50
:1047F00000D32A463846314602F056FE4F4B254636
:104800004846C018807801280DDC002839D00128DE
:1048100000D080E04846C418E01C0421FDF740F9B0
:10482000402120463AE0022835D0052873D1484679
:10483000C1180A79C97809028918414FC059002660
:10484000884270D14846C05900282AD01D46009899
:10485000401F3C494A46525883B29A4201D24846C8
:10486000405881B23B29294600D33B2084B2364DC3
:104870004E4670597118491D224602F015FE7559B1
:104880003EE04846C0180026867146710671C67023
:104890004021A84747E04846C0184021A8470026C5
:1048A00041E04946C81882794079000282182748B9
:1048B0000A50095841229200914234D849460A5878
:1048C00020480A50CA1852781E46CB5C1B029A1820
:1048D0001F4BCA500A580099C91F8BB29A4201D285
:1048E0004946095888B2392800D339218CB2194871
:1048F00049460D188819C11D2846224602F0D0FDF0
:10490000104849460A58121B0A5028190E4A885066
:10491000C859401CC8510B4849460858002801D0C6
:10492000012608E002260648494600220A500648A9
:104930000A5004480A50304601B0F0BD300C000067
:10494000740C00007C0C0000800C0000780C00004F
:10495000840C0000FC0A00000448494600220A506A
:1049600003480A5003480A507047C046740C0000C0
:10497000800C00007C0C0000F0B583B02F4B494642
:10498000CA582F4C0959002929D0002A27D0019252
:1049900002902E4D4F467C19601D3B26314602F099
:1049A00079FD2B483958090A2A4679550521A17005
:1049B0003858607023497858000AE07078582071A0
:1049C0001F4C79583859002912D03B2801D8484645
:1049D0000659484617468018401D019D18E01948A1
:1049E000494600220A50CA5017480A540A5122E088
:1049F00039281746019D01D9392601E04846065954
:104A00004846C1190259120A4A7100598871C81DD5
:104A10002946324602F048FD029A084B48460159A1
:104A2000891B0151A919C150064BC158491CC150DD
:104A3000C0194021904703B0F0BDC046800C000073
:104A40007C0C0000740C0000000C0000300C000016
:104A5000840C000010B500290DD0074A4B460024F5
:104A60009C50064A9950064A9A18064C1A51064A12
:104A70009950FFF781FF10BD740C00007C0C000002
:104A8000FC0A0000800C0000780C000081B0F0B53A
:104A900090B015930990002800D1ADE10D46022990
:104AA00000D2A9E114460998294602F0F3FC15A8A2
:104AB0000B902078002800D19EE1691E0891012109
:104AC00006910026089D002805D0252803D0A019AE
:104AD0004078761CF7E7AE4200D32E46099821466F
:104AE000324602F0E1FCAD1B089500D184E1099843
:104AF00080190990A05DA419252800D077E1641CD5
:104B000000202023074607902178641C00222D29CD
:104B10000DDC1046F8D0252900D1E1E02A2900D08B
:104B200064E12078732800D061E1022028E0472961
:104B30002BDC0A46303A0A2A11D20A971F46302245
:104B40000B465340079D2B4300D03A460A23079D4E
:104B50006B4359183039079113460A9FD4E72E2921
:104B600000D043E120782A2800D040E1607848282E
:104B700004D0732802D0682800D03BE1641C0120D7
:104B80000B990A1D0B920F68BEE7672909DC6229A1
:104B90000FDC482900D1A5E0582900D026E10120EA
:104BA00020E0722917DC682900D19FE0702918D015
:104BB0001CE1632900D19EE0642900D016E10B9826
:104BC000011D0B910068C11742184A40C10F002017
:104BD00002900A270DE0732900D199E0782900D0CE
:104BE00004E1002002900B98011D0B910268002146
:104BF0001027079E0A9297420393049101D9012539
:104C000011E0721E384605461646002138462A46EF
:104C10000B4602F015FC4A1E91410A9A904202D8B6
:104C2000721E0029EFD007960026049900290594EA
:104C300001D1019101E0F0430190039B0798401AD4
:104C40000029069C09D0D9B200263029344604D167
:104C50000CA92D220A700126069C811E0D290BD855
:104C6000411E09D00CA88019DAB202F021FC079885
:104C7000301801994018461E002C03D10CA82D2194
:104C80008155761C002D1AD03C460298002802D08F
:104C9000604F7F4401E05E4F7F440A98294602F04E
:104CA00059FA214602F0DCFA785C0CA988552846AE
:104CB000214602F04FFA761CAC420546EDD9089C1D
:104CC000A64200D326460CA90998324602F0ECFB16
:104CD000A41B0894059C00D18EE00998801984E0FB
:104CE00025200CE02546484A7A4402E02546474AFA
:104CF0007A44069B10E00B98011D0B9100680999FE
:104D000008700898401E089076D00998401C6CE006
:104D100025463C4A7A4400230B990C1D0B94C0B2E3
:104D2000096802283CD001282C460AD000283746C2
:104D300007D1254600200C5C401C002CFBD1471EEF
:104D40002C46002B20D0002F089D4FD07800281A29
:104D50000A90022D50D328460B7825461C09145D75
:104D6000099E34700F241C40135D7370022843D0D9
:104D70002C460546851E099B9B1C0993491C7F1EDA
:104D8000E7D10A98089031E0089DAF423E4601D332
:104D90002E462F460998324602F086FBAD1B0DE0E9
:104DA000087800282C4621D1089DAF4200D32F4619
:104DB00020220998394602F07BFBED1B08951BD099
:104DC0000998C01909900798B0420FD9851B089E11
:104DD000B54200D3354620220998294602F068FBE7
:104DE000761B089608D00998401909902078002869
:104DF00002D066E62A20FAE7002010B0F0BC02BC20
:104E000001B00847AD450000E9450000D14500006C
:104E1000294600003F46000010B5044602F040FB62
:104E2000204610BD10B513460446CAB2194602F01A
:104E30003FFB204610BD10B50023052A13D30C7983
:104E4000521FA2420FD10A7802704A7842708A78C3
:104E50008270CA78C2700A7902710A79002A00D079
:104E60004A1D82600123184610BDD4D47A460249F7
:104E7000C91C891A401A70476D4EDEC080B5094AB8
:104E80000949824203D8814201D3FFF7EFFF074966
:104E9000074A884204D3904202D8401A494608186B
:104EA00080BDC0460000DEC0009ADEC000007ADA95
:104EB00000787ADA425C12064018417809048918B1
:104EC000827812028918C07808187047B0B59CB073
:104ED00003AD04206870412028700F4849460C1823
:104EE00021460831A81C402202F0DAFA4220202292
:104EF0002A54483428464330214602F0D1FA002093
:104F00000290632001900095092001036846FDF797
:104F10003BFF1CB0B0BDC046C8030000F0B597B061
:104F200004AE741C4921204602F0B4FA0E484946EA
:104F30000F185920C0003D5C35700520C00139189C
:104F400020462A4602F0ACFAA8190849795C41705B
:104F500000200390A81C029001960920010301A8DB
:104F6000FDF712FF17B0F0BDC8030000C902000032
:104F7000F0B585B00446002926D0504D484640196A
:104F80002D210901405C012842D1134648464019B1
:104F90004121CE00805962681118002B3CD04A4B49
:104FA00099420DD349464919091808312046FCF7A2
:104FB0005EFC002858D04846401980596168411865
:104FC00048464019815120E03C4E4F46BD196120B2
:104FD000C100284602F074FA0020B8552D200001C7
:104FE00001212954BF208700E9192046FCF7FEFB68
:104FF00000280FD048468019C25DB52189004118AC
:105000002046FCF709FC002804D0092000032CE00E
:105010002B482AE02D4828E0FF235B00994223D843
:1050200049464919091808312046FCF720FC002898
:105030001AD0484640198159626889188151002464
:10504000049403910146083102915E21415C019173
:10505000877C484640192121090141183A2F0AD17D
:1050600002A8FCF733FD09E01648FDF7D3FE04461D
:10507000204605B0F0BD02A8FCF79FFD012810D125
:105080004846012141554019815913225201821885
:1050900008302023FCF7F2FC3A2F04D1FCF784FF00
:1050A000E5E780B2E1E70198022804D00128DFD1CA
:1050B000FDF714F8DBE7FDF771F8D8E7C803000047
:1050C00007B0000004B00000FF010000876A000084
:1050D00001DF002900D170470846FEF7CEFFD4D487
:1050E00080B584B0002002900190034801A9FFF729
:1050F000EFFF04B080BDC0463801006080B582B0CB
:105100000020019002486946FFF7E2FF02B080BD2F
:105110003C02006080B582B00020019003486946DF
:10512000FFF7D6FFC0B202B080BDC0464F9F0060FF
:1051300010B588B00A9C05940493039202910190E3
:10514000024801A9FFF7C4FF08B010BDBA530060C0
:1051500080B582B00020019003486946FFF7B8FF90
:10516000C0B202B080BDC0463CA0006080B584B033
:10517000002102910190034801A9FFF7A9FF04B0A3
:1051800080BDC0465864006080B582B000200190A8
:1051900002486946FFF79CFF02B080BD6E6A00605E
:1051A00080B584B00191009002486946FFF790FFF6
:1051B00004B080BDB36C006080B586B001AB07C39E
:1051C000024801A9FFF784FF06B080BDC5700060EA
:1051D00080B586B001AB07C3024801A9FFF778FF8D
:1051E00006B080BDD474006080B584B00021029107
:1051F0000190034801A9FFF76BFF04B080BDC046D2
:10520000BE9A006080B584B0019100900248694662
:10521000FFF75EFF04B080BD8183006080B582B07F
:105220000020019002486946FFF752FF02B080BD9E
:10523000BB84006080B586B001AB07C3034801A9F9
:10524000FFF746FF80B206B080BDC046E48500602F
:1052500080B582B00020019002486946FFF738FF10
:1052600002B080BDB187006080B584B0002102919A
:105270000190034801A9FFF72BFF04B080BDC04691
:10528000060B016080B584B00021029101900348B3
:1052900001A9FFF71DFFC0B204B080BD8B9C006068
:1052A00080B582B00020019002486946FFF710FFE8
:1052B00002B080BDF37A006010B58CB0129C0994E6
:1052C000119C0894109C07940F9C06940E9C0594C6
:1052D0000493039202910190024801A9FFF7F8FE9E
:1052E0000CB010BDA07C006010B588B00A9C05947D
:1052F0000493039202910190024801A9FFF7E8FE8E
:1053000008B010BDA47D006080B584B0002102917A
:105310000190034801A9FFF7DBFE04B080BDC04641
:105320009335016003494A460020505002495050CD
:105330007047C0468C0C0000880C000010B508486F
:1053400049464F220A5408180221C1700121817078
:10535000002444700421FFF755FF204610BDC046CD
:10536000E407000070B582B06D4600242C71032064
:10537000E8700220A8706C704F262E700521284618
:10538000FFF740FF0120E870A8706C702E700421B8
:105390002846FFF737FF204602B070BD10B582B037
:1053A00001A80221C17001218170002444704F21A5
:1053B00001700421FFF726FF204602B010BDD4D4AF
:1053C00070B582B015484C4600252550144825502C
:1053D0006C46A5716171012020710421E1700526E0
:1053E000A67065704F252570012A05DC002A0AD0B9
:1053F000012A0AD1084606E0022A03D0032A04D172
:10540000022000E00320694688716846C3710821C4
:10541000FFF7F8FE002002B070BDC046880C000007
:105420008C0C0000B0B582B00D4668460024447173
:1054300040210171C57003218170447050210170B9
:105440000621FFF7DFFE4846290601D5074900E09F
:105450000549401801687F2215400122AA400A43ED
:105460000260204602B0B0BD8C0C0000880C000029
:10547000B0B582B00D4668460024447180210171A8
:10548000C570032181704470502101700621FFF71F
:10549000B9FE4846290601D5074900E005494018EC
:1054A00001687F2215400122AA40914301602046F5
:1054B00002B0B0BD8C0C0000880C000048460A0603
:1054C00001D5064A00E0044A801802787F20014096
:1054D00001208840104070478C0C0000880C0000B0
:1054E00010B582B0684601710321C170022181703C
:1054F000002444704F2101700521FFF783FE2046F0
:1055000002B010BDB0B582B01C4615466846437166
:1055100020220271C17050210170D91C8170090ACA
:1055200041700621FFF76EFE28462146FFF76AFE0E
:10553000002002B0B0BD10B582B068464271302282
:105540000271C170032181700024447050210170E8
:105550000621FFF757FE204602B010BDF0B581B01E
:10556000002814D015460E4604460746DC37452071
:105570008100204601F08EFF002E00D07E61257054
:10558000012038702046FFF7CDFE002000E0022009
:1055900001B0F0BDB0B50446DC2001212154172034
:1055A000C5436019432189004058002806D040684F
:1055B000FFF764FC02462179204690470835F0D178
:1055C0002046FFF7EBFE2046FFF7B8FE0020B0BDF7
:1055D000002A08D003460020022B03D8DB00C9189C
:1055E000F423CA5070470220704780B5FFF7BAFE17
:1055F000002080BDF0B581B00C4605460026F4279A
:105600002846314600F05FF9002807D0E8590068C5
:10561000FFF734FC02462846214690470837761C9F
:10562000032EEDD1002001B0F0BDF0B581B00C46E5
:1056300005460026F4272846314600F044F90028A4
:1056400007D0E8594068FFF719FC02462846214672
:1056500090470837761C032EEDD1002001B0F0BD35
:1056600070B504460646D43635461435284600F053
:1056700061FBD42001212150EE20205A7060317D41
:105680001F200840022808D001280BD000280ED186
:105690002046294600F022F90EE02046294600F077
:1056A000C6FA09E02046294600F09DFA04E0802071
:1056B00001402046FFF7B6FE002070BDF0B583B074
:1056C000029204460646DC36019100291AD00027D2
:1056D000F4252046394600F0F6F800280DD0605930
:1056E0008069002809D03178032906D1FFF7C6FB6D
:1056F000034620460199029A984708357F1C032FDC
:10570000E7D12EE020468030416D032929D1006881
:10571000E16F81420AD9091AE167814200D301464B
:105720008AB22046029900F031FD1AE00025F427E4
:105730002046294600F0C7F800280BD0E059006940
:10574000002807D03178032904D1FFF797FB0146E1
:105750002046884708376D1C032DE9D1204600F00C
:105760001CFD002003B0F0BDF0B581B00446074633
:10577000D437009100291AD03D460026F427204650
:10578000314600F0A0F800280CD0E059406900280C
:1057900008D0297A032905D1FFF770FB024620467D
:1057A000009990470837761C032EE8D145E0386809
:1057B00002283CD1E069256AA84209D9401BE06172
:1057C000F96B4919F96382B2204600F0D1FC2EE052
:1057D000A6693046294601F043FDAE420CD30029AC
:1057E0000AD17868864207D20025204629462A46F3
:1057F00000F0BEFC7D601AE00025F4262046294614
:1058000000F061F800280BD0A059C068002807D02C
:10581000397A032904D1FFF731FB01462046884736
:1058200008366D1C032DE9D1204600F0C2FC387B00
:10583000012802D1394600203873002001B0F0BDA4
:1058400070B50446DC2001212154802040212150E4
:1058500021620025F4262046294600F034F800286D
:1058600007D0A0594068FFF709FB0246217920467E
:10587000904708366D1C032DEDD1002070BD0174DA
:1058800000207047002070470020704770B5044624
:10589000DC20205C032814D10025F426204629466C
:1058A00000F011F8002808D0A059C069002804D0E1
:1058B000FFF7E4FA01462046884708366D1C032DA1
:1058C000ECD1002070BD022906D8C9004018F4218F
:1058D0004058411E884170470020704780B54A7883
:1058E000042A08DD072A0FDC052A14D0062A1BD15A
:1058F00000F021F81DE0002A10D0012A17D0032A59
:1059000012D100F02AF914E0082A0AD0092A0BD192
:1059100000F0B1F80DE000F08BF80AE000F0F9F8C3
:1059200007E000F0DFF804E000F07AFB01E000F0AF
:1059300031F9002080BDB0B582B00D46044601A803
:10594000002101802046F0306B881A0A052A11DCFC
:10595000012A1AD0022A21D0032A32D1D9B202292F
:1059600034DC002958D001295CD0022929D10068F3
:10597000C0680CE0062A19D0072A1FD00F2A20D1B0
:105980000068C069002802D11BE000680068FFF7CA
:1059900075FA0246207C01A990472BE04068002858
:1059A00029D0217C00291FD0C06A1EE0217C00295B
:1059B00007D14068002804D0406B16E0217C002904
:1059C0000DD02046294600F02BFB23E0032926D0EA
:1059D00004292AD00529F4D100688069D7E74068F6
:1059E0000028EED0006B00E0806AFFF747FA01461E
:1059F00001A88847014601A80288002A0AD0E88841
:105A0000002807D0824200D3024601A80280204627
:105A100000F098FB02B0B0BD00684068B7E70068CE
:105A20000069B4E700688068B1E700684069AEE7E4
:105A300070B504468888002807D1C888002804D19A
:105A40002646DC363078032803D1204600F0E8FAF9
:105A500070BD88787F250540B57020462946FFF740
:105A60003FFD204600F099FB002D01D0022000E010
:105A70000120307070BD70B50D4604468E78022E40
:105A80001CD2DC20215C2046DC30032906D0022910
:105A900014D1002E22D00321017008E0002E12D074
:105AA0006068B0421AD0C1B22046FFF7BEFD666002
:105AB00020463146FFF79EFD02280FD12046294699
:105AC00000F0AEFA70BD0021616002210170204635
:105AD0003146FFF7AAFD204600F05FFB204600F0AC
